{
	"data": {
		"bytecode": {
			"linkReferences": {},
			"object": "608060405234801561001057600080fd5b50610039337f17f2f492df265d2a20221741db3d2a0b8fd5b19500149d73967a1a94afc2bf8355565b6107c7806100486000396000f3fe6080604052600436106100745760003560e01c80635c60da1b1161004e5780635c60da1b146100f9578063612f2f371461011b5780636c376cc51461013b578063f1739cae1461017a57610083565b8063025313a21461008b5780633659cfe6146100c65780634f1ef286146100e657610083565b366100835761008161019a565b005b61008161019a565b34801561009757600080fd5b50600080516020610772833981519152545b6040516001600160a01b0390911681526020015b60405180910390f35b3480156100d257600080fd5b506100816100e1366004610576565b61026f565b6100816100f4366004610598565b6102bb565b34801561010557600080fd5b50600080516020610752833981519152546100a9565b34801561012757600080fd5b5061008161013636600461065a565b610387565b34801561014757600080fd5b507fd247deb9f9d35206516fed30277604813fa806e51d7877ef8b781dc34a486b2e5460405190151581526020016100bd565b34801561018657600080fd5b50610081610195366004610576565b6103eb565b7fd247deb9f9d35206516fed30277604813fa806e51d7877ef8b781dc34a486b2e541561020a57600080516020610772833981519152546001600160a01b0316336001600160a01b03161461020a5760405162461bcd60e51b8152600401610201906106f8565b60405180910390fd5b60006102226000805160206107528339815191525490565b90506001600160a01b03811661024a5760405162461bcd60e51b8152600401610201906106b7565b60405136600082376000803683855af43d806000843e81801561026b578184f35b8184fd5b600080516020610772833981519152546001600160a01b0316336001600160a01b0316146102af5760405162461bcd60e51b8152600401610201906106f8565b6102b8816104c0565b50565b600080516020610772833981519152546001600160a01b0316336001600160a01b0316146102fb5760405162461bcd60e51b8152600401610201906106f8565b6103048261026f565b6000306001600160a01b0316348360405161031f919061067c565b60006040518083038185875af1925050503d806000811461035c576040519150601f19603f3d011682016040523d82523d6000602084013e610361565b606091505b50509050806103825760405162461bcd60e51b8152600401610201906106b7565b505050565b600080516020610772833981519152546001600160a01b0316336001600160a01b0316146103c75760405162461bcd60e51b8152600401610201906106f8565b7fd247deb9f9d35206516fed30277604813fa806e51d7877ef8b781dc34a486b2e55565b600080516020610772833981519152546001600160a01b0316336001600160a01b03161461042b5760405162461bcd60e51b8152600401610201906106f8565b6001600160a01b0381166104515760405162461bcd60e51b8152600401610201906106b7565b7f5a3e66efaa1e445ebd894728a69d6959842ea1e97bd79b892797106e270efcd96104886000805160206107728339815191525490565b604080516001600160a01b03928316815291841660208301520160405180910390a16102b88160008051602061077283398151915255565b60006104d86000805160206107528339815191525490565b9050816001600160a01b0316816001600160a01b0316141561050c5760405162461bcd60e51b8152600401610201906106b7565b6105228260008051602061075283398151915255565b6040516001600160a01b038316907fbc7cd75a20ee27fd9adebab32041f755214dbc6bffa90cc0225b39da2e5c2d3b90600090a25050565b80356001600160a01b038116811461057157600080fd5b919050565b60006020828403121561058857600080fd5b6105918261055a565b9392505050565b600080604083850312156105ab57600080fd5b6105b48361055a565b9150602083013567ffffffffffffffff808211156105d157600080fd5b818501915085601f8301126105e557600080fd5b8135818111156105f7576105f761073b565b604051601f8201601f19908116603f0116810190838211818310171561061f5761061f61073b565b8160405282815288602084870101111561063857600080fd5b8260208601602083013760006020848301015280955050505050509250929050565b60006020828403121561066c57600080fd5b8135801515811461059157600080fd5b6000825160005b8181101561069d5760208186018101518583015201610683565b818111156106ac576000828501525b509190910192915050565b60208082526021908201527f4f776e6564557067726164656162696c69747950726f78793a20494e56414c496040820152601160fa1b606082015260800190565b60208082526023908201527f4f776e6564557067726164656162696c69747950726f78793a20464f524249446040820152622222a760e91b606082015260800190565b634e487b7160e01b600052604160045260246000fdfe25b0c660c889bd843474d8ecccbe1fdb234e43699f88b6f2670da22fbb310e9517f2f492df265d2a20221741db3d2a0b8fd5b19500149d73967a1a94afc2bf83a2646970667358221220e37fb11381fe73db575d1142d08c6b31b8ef5fbb48f9ebac9befbd32c682a4dc64736f6c63430008070033",
			"opcodes": "PUSH1 0x80 PUSH1 0x40 MSTORE CALLVALUE DUP1 ISZERO PUSH2 0x10 JUMPI PUSH1 0x0 DUP1 REVERT JUMPDEST POP PUSH2 0x39 CALLER PUSH32 0x17F2F492DF265D2A20221741DB3D2A0B8FD5B19500149D73967A1A94AFC2BF83 SSTORE JUMP JUMPDEST PUSH2 0x7C7 DUP1 PUSH2 0x48 PUSH1 0x0 CODECOPY PUSH1 0x0 RETURN INVALID PUSH1 0x80 PUSH1 0x40 MSTORE PUSH1 0x4 CALLDATASIZE LT PUSH2 0x74 JUMPI PUSH1 0x0 CALLDATALOAD PUSH1 0xE0 SHR DUP1 PUSH4 0x5C60DA1B GT PUSH2 0x4E JUMPI DUP1 PUSH4 0x5C60DA1B EQ PUSH2 0xF9 JUMPI DUP1 PUSH4 0x612F2F37 EQ PUSH2 0x11B JUMPI DUP1 PUSH4 0x6C376CC5 EQ PUSH2 0x13B JUMPI DUP1 PUSH4 0xF1739CAE EQ PUSH2 0x17A JUMPI PUSH2 0x83 JUMP JUMPDEST DUP1 PUSH4 0x25313A2 EQ PUSH2 0x8B JUMPI DUP1 PUSH4 0x3659CFE6 EQ PUSH2 0xC6 JUMPI DUP1 PUSH4 0x4F1EF286 EQ PUSH2 0xE6 JUMPI PUSH2 0x83 JUMP JUMPDEST CALLDATASIZE PUSH2 0x83 JUMPI PUSH2 0x81 PUSH2 0x19A JUMP JUMPDEST STOP JUMPDEST PUSH2 0x81 PUSH2 0x19A JUMP JUMPDEST CALLVALUE DUP1 ISZERO PUSH2 0x97 JUMPI PUSH1 0x0 DUP1 REVERT JUMPDEST POP PUSH1 0x0 DUP1 MLOAD PUSH1 0x20 PUSH2 0x772 DUP4 CODECOPY DUP2 MLOAD SWAP2 MSTORE SLOAD JUMPDEST PUSH1 0x40 MLOAD PUSH1 0x1 PUSH1 0x1 PUSH1 0xA0 SHL SUB SWAP1 SWAP2 AND DUP2 MSTORE PUSH1 0x20 ADD JUMPDEST PUSH1 0x40 MLOAD DUP1 SWAP2 SUB SWAP1 RETURN JUMPDEST CALLVALUE DUP1 ISZERO PUSH2 0xD2 JUMPI PUSH1 0x0 DUP1 REVERT JUMPDEST POP PUSH2 0x81 PUSH2 0xE1 CALLDATASIZE PUSH1 0x4 PUSH2 0x576 JUMP JUMPDEST PUSH2 0x26F JUMP JUMPDEST PUSH2 0x81 PUSH2 0xF4 CALLDATASIZE PUSH1 0x4 PUSH2 0x598 JUMP JUMPDEST PUSH2 0x2BB JUMP JUMPDEST CALLVALUE DUP1 ISZERO PUSH2 0x105 JUMPI PUSH1 0x0 DUP1 REVERT JUMPDEST POP PUSH1 0x0 DUP1 MLOAD PUSH1 0x20 PUSH2 0x752 DUP4 CODECOPY DUP2 MLOAD SWAP2 MSTORE SLOAD PUSH2 0xA9 JUMP JUMPDEST CALLVALUE DUP1 ISZERO PUSH2 0x127 JUMPI PUSH1 0x0 DUP1 REVERT JUMPDEST POP PUSH2 0x81 PUSH2 0x136 CALLDATASIZE PUSH1 0x4 PUSH2 0x65A JUMP JUMPDEST PUSH2 0x387 JUMP JUMPDEST CALLVALUE DUP1 ISZERO PUSH2 0x147 JUMPI PUSH1 0x0 DUP1 REVERT JUMPDEST POP PUSH32 0xD247DEB9F9D35206516FED30277604813FA806E51D7877EF8B781DC34A486B2E SLOAD PUSH1 0x40 MLOAD SWAP1 ISZERO ISZERO DUP2 MSTORE PUSH1 0x20 ADD PUSH2 0xBD JUMP JUMPDEST CALLVALUE DUP1 ISZERO PUSH2 0x186 JUMPI PUSH1 0x0 DUP1 REVERT JUMPDEST POP PUSH2 0x81 PUSH2 0x195 CALLDATASIZE PUSH1 0x4 PUSH2 0x576 JUMP JUMPDEST PUSH2 0x3EB JUMP JUMPDEST PUSH32 0xD247DEB9F9D35206516FED30277604813FA806E51D7877EF8B781DC34A486B2E SLOAD ISZERO PUSH2 0x20A JUMPI PUSH1 0x0 DUP1 MLOAD PUSH1 0x20 PUSH2 0x772 DUP4 CODECOPY DUP2 MLOAD SWAP2 MSTORE SLOAD PUSH1 0x1 PUSH1 0x1 PUSH1 0xA0 SHL SUB AND CALLER PUSH1 0x1 PUSH1 0x1 PUSH1 0xA0 SHL SUB AND EQ PUSH2 0x20A JUMPI PUSH1 0x40 MLOAD PUSH3 0x461BCD PUSH1 0xE5 SHL DUP2 MSTORE PUSH1 0x4 ADD PUSH2 0x201 SWAP1 PUSH2 0x6F8 JUMP JUMPDEST PUSH1 0x40 MLOAD DUP1 SWAP2 SUB SWAP1 REVERT JUMPDEST PUSH1 0x0 PUSH2 0x222 PUSH1 0x0 DUP1 MLOAD PUSH1 0x20 PUSH2 0x752 DUP4 CODECOPY DUP2 MLOAD SWAP2 MSTORE SLOAD SWAP1 JUMP JUMPDEST SWAP1 POP PUSH1 0x1 PUSH1 0x1 PUSH1 0xA0 SHL SUB DUP2 AND PUSH2 0x24A JUMPI PUSH1 0x40 MLOAD PUSH3 0x461BCD PUSH1 0xE5 SHL DUP2 MSTORE PUSH1 0x4 ADD PUSH2 0x201 SWAP1 PUSH2 0x6B7 JUMP JUMPDEST PUSH1 0x40 MLOAD CALLDATASIZE PUSH1 0x0 DUP3 CALLDATACOPY PUSH1 0x0 DUP1 CALLDATASIZE DUP4 DUP6 GAS DELEGATECALL RETURNDATASIZE DUP1 PUSH1 0x0 DUP5 RETURNDATACOPY DUP2 DUP1 ISZERO PUSH2 0x26B JUMPI DUP2 DUP5 RETURN JUMPDEST DUP2 DUP5 REVERT JUMPDEST PUSH1 0x0 DUP1 MLOAD PUSH1 0x20 PUSH2 0x772 DUP4 CODECOPY DUP2 MLOAD SWAP2 MSTORE SLOAD PUSH1 0x1 PUSH1 0x1 PUSH1 0xA0 SHL SUB AND CALLER PUSH1 0x1 PUSH1 0x1 PUSH1 0xA0 SHL SUB AND EQ PUSH2 0x2AF JUMPI PUSH1 0x40 MLOAD PUSH3 0x461BCD PUSH1 0xE5 SHL DUP2 MSTORE PUSH1 0x4 ADD PUSH2 0x201 SWAP1 PUSH2 0x6F8 JUMP JUMPDEST PUSH2 0x2B8 DUP2 PUSH2 0x4C0 JUMP JUMPDEST POP JUMP JUMPDEST PUSH1 0x0 DUP1 MLOAD PUSH1 0x20 PUSH2 0x772 DUP4 CODECOPY DUP2 MLOAD SWAP2 MSTORE SLOAD PUSH1 0x1 PUSH1 0x1 PUSH1 0xA0 SHL SUB AND CALLER PUSH1 0x1 PUSH1 0x1 PUSH1 0xA0 SHL SUB AND EQ PUSH2 0x2FB JUMPI PUSH1 0x40 MLOAD PUSH3 0x461BCD PUSH1 0xE5 SHL DUP2 MSTORE PUSH1 0x4 ADD PUSH2 0x201 SWAP1 PUSH2 0x6F8 JUMP JUMPDEST PUSH2 0x304 DUP3 PUSH2 0x26F JUMP JUMPDEST PUSH1 0x0 ADDRESS PUSH1 0x1 PUSH1 0x1 PUSH1 0xA0 SHL SUB AND CALLVALUE DUP4 PUSH1 0x40 MLOAD PUSH2 0x31F SWAP2 SWAP1 PUSH2 0x67C JUMP JUMPDEST PUSH1 0x0 PUSH1 0x40 MLOAD DUP1 DUP4 SUB DUP2 DUP6 DUP8 GAS CALL SWAP3 POP POP POP RETURNDATASIZE DUP1 PUSH1 0x0 DUP2 EQ PUSH2 0x35C JUMPI PUSH1 0x40 MLOAD SWAP2 POP PUSH1 0x1F NOT PUSH1 0x3F RETURNDATASIZE ADD AND DUP3 ADD PUSH1 0x40 MSTORE RETURNDATASIZE DUP3 MSTORE RETURNDATASIZE PUSH1 0x0 PUSH1 0x20 DUP5 ADD RETURNDATACOPY PUSH2 0x361 JUMP JUMPDEST PUSH1 0x60 SWAP2 POP JUMPDEST POP POP SWAP1 POP DUP1 PUSH2 0x382 JUMPI PUSH1 0x40 MLOAD PUSH3 0x461BCD PUSH1 0xE5 SHL DUP2 MSTORE PUSH1 0x4 ADD PUSH2 0x201 SWAP1 PUSH2 0x6B7 JUMP JUMPDEST POP POP POP JUMP JUMPDEST PUSH1 0x0 DUP1 MLOAD PUSH1 0x20 PUSH2 0x772 DUP4 CODECOPY DUP2 MLOAD SWAP2 MSTORE SLOAD PUSH1 0x1 PUSH1 0x1 PUSH1 0xA0 SHL SUB AND CALLER PUSH1 0x1 PUSH1 0x1 PUSH1 0xA0 SHL SUB AND EQ PUSH2 0x3C7 JUMPI PUSH1 0x40 MLOAD PUSH3 0x461BCD PUSH1 0xE5 SHL DUP2 MSTORE PUSH1 0x4 ADD PUSH2 0x201 SWAP1 PUSH2 0x6F8 JUMP JUMPDEST PUSH32 0xD247DEB9F9D35206516FED30277604813FA806E51D7877EF8B781DC34A486B2E SSTORE JUMP JUMPDEST PUSH1 0x0 DUP1 MLOAD PUSH1 0x20 PUSH2 0x772 DUP4 CODECOPY DUP2 MLOAD SWAP2 MSTORE SLOAD PUSH1 0x1 PUSH1 0x1 PUSH1 0xA0 SHL SUB AND CALLER PUSH1 0x1 PUSH1 0x1 PUSH1 0xA0 SHL SUB AND EQ PUSH2 0x42B JUMPI PUSH1 0x40 MLOAD PUSH3 0x461BCD PUSH1 0xE5 SHL DUP2 MSTORE PUSH1 0x4 ADD PUSH2 0x201 SWAP1 PUSH2 0x6F8 JUMP JUMPDEST PUSH1 0x1 PUSH1 0x1 PUSH1 0xA0 SHL SUB DUP2 AND PUSH2 0x451 JUMPI PUSH1 0x40 MLOAD PUSH3 0x461BCD PUSH1 0xE5 SHL DUP2 MSTORE PUSH1 0x4 ADD PUSH2 0x201 SWAP1 PUSH2 0x6B7 JUMP JUMPDEST PUSH32 0x5A3E66EFAA1E445EBD894728A69D6959842EA1E97BD79B892797106E270EFCD9 PUSH2 0x488 PUSH1 0x0 DUP1 MLOAD PUSH1 0x20 PUSH2 0x772 DUP4 CODECOPY DUP2 MLOAD SWAP2 MSTORE SLOAD SWAP1 JUMP JUMPDEST PUSH1 0x40 DUP1 MLOAD PUSH1 0x1 PUSH1 0x1 PUSH1 0xA0 SHL SUB SWAP3 DUP4 AND DUP2 MSTORE SWAP2 DUP5 AND PUSH1 0x20 DUP4 ADD MSTORE ADD PUSH1 0x40 MLOAD DUP1 SWAP2 SUB SWAP1 LOG1 PUSH2 0x2B8 DUP2 PUSH1 0x0 DUP1 MLOAD PUSH1 0x20 PUSH2 0x772 DUP4 CODECOPY DUP2 MLOAD SWAP2 MSTORE SSTORE JUMP JUMPDEST PUSH1 0x0 PUSH2 0x4D8 PUSH1 0x0 DUP1 MLOAD PUSH1 0x20 PUSH2 0x752 DUP4 CODECOPY DUP2 MLOAD SWAP2 MSTORE SLOAD SWAP1 JUMP JUMPDEST SWAP1 POP DUP2 PUSH1 0x1 PUSH1 0x1 PUSH1 0xA0 SHL SUB AND DUP2 PUSH1 0x1 PUSH1 0x1 PUSH1 0xA0 SHL SUB AND EQ ISZERO PUSH2 0x50C JUMPI PUSH1 0x40 MLOAD PUSH3 0x461BCD PUSH1 0xE5 SHL DUP2 MSTORE PUSH1 0x4 ADD PUSH2 0x201 SWAP1 PUSH2 0x6B7 JUMP JUMPDEST PUSH2 0x522 DUP3 PUSH1 0x0 DUP1 MLOAD PUSH1 0x20 PUSH2 0x752 DUP4 CODECOPY DUP2 MLOAD SWAP2 MSTORE SSTORE JUMP JUMPDEST PUSH1 0x40 MLOAD PUSH1 0x1 PUSH1 0x1 PUSH1 0xA0 SHL SUB DUP4 AND SWAP1 PUSH32 0xBC7CD75A20EE27FD9ADEBAB32041F755214DBC6BFFA90CC0225B39DA2E5C2D3B SWAP1 PUSH1 0x0 SWAP1 LOG2 POP POP JUMP JUMPDEST DUP1 CALLDATALOAD PUSH1 0x1 PUSH1 0x1 PUSH1 0xA0 SHL SUB DUP2 AND DUP2 EQ PUSH2 0x571 JUMPI PUSH1 0x0 DUP1 REVERT JUMPDEST SWAP2 SWAP1 POP JUMP JUMPDEST PUSH1 0x0 PUSH1 0x20 DUP3 DUP5 SUB SLT ISZERO PUSH2 0x588 JUMPI PUSH1 0x0 DUP1 REVERT JUMPDEST PUSH2 0x591 DUP3 PUSH2 0x55A JUMP JUMPDEST SWAP4 SWAP3 POP POP POP JUMP JUMPDEST PUSH1 0x0 DUP1 PUSH1 0x40 DUP4 DUP6 SUB SLT ISZERO PUSH2 0x5AB JUMPI PUSH1 0x0 DUP1 REVERT JUMPDEST PUSH2 0x5B4 DUP4 PUSH2 0x55A JUMP JUMPDEST SWAP2 POP PUSH1 0x20 DUP4 ADD CALLDATALOAD PUSH8 0xFFFFFFFFFFFFFFFF DUP1 DUP3 GT ISZERO PUSH2 0x5D1 JUMPI PUSH1 0x0 DUP1 REVERT JUMPDEST DUP2 DUP6 ADD SWAP2 POP DUP6 PUSH1 0x1F DUP4 ADD SLT PUSH2 0x5E5 JUMPI PUSH1 0x0 DUP1 REVERT JUMPDEST DUP2 CALLDATALOAD DUP2 DUP2 GT ISZERO PUSH2 0x5F7 JUMPI PUSH2 0x5F7 PUSH2 0x73B JUMP JUMPDEST PUSH1 0x40 MLOAD PUSH1 0x1F DUP3 ADD PUSH1 0x1F NOT SWAP1 DUP2 AND PUSH1 0x3F ADD AND DUP2 ADD SWAP1 DUP4 DUP3 GT DUP2 DUP4 LT OR ISZERO PUSH2 0x61F JUMPI PUSH2 0x61F PUSH2 0x73B JUMP JUMPDEST DUP2 PUSH1 0x40 MSTORE DUP3 DUP2 MSTORE DUP9 PUSH1 0x20 DUP5 DUP8 ADD ADD GT ISZERO PUSH2 0x638 JUMPI PUSH1 0x0 DUP1 REVERT JUMPDEST DUP3 PUSH1 0x20 DUP7 ADD PUSH1 0x20 DUP4 ADD CALLDATACOPY PUSH1 0x0 PUSH1 0x20 DUP5 DUP4 ADD ADD MSTORE DUP1 SWAP6 POP POP POP POP POP POP SWAP3 POP SWAP3 SWAP1 POP JUMP JUMPDEST PUSH1 0x0 PUSH1 0x20 DUP3 DUP5 SUB SLT ISZERO PUSH2 0x66C JUMPI PUSH1 0x0 DUP1 REVERT JUMPDEST DUP2 CALLDATALOAD DUP1 ISZERO ISZERO DUP2 EQ PUSH2 0x591 JUMPI PUSH1 0x0 DUP1 REVERT JUMPDEST PUSH1 0x0 DUP3 MLOAD PUSH1 0x0 JUMPDEST DUP2 DUP2 LT ISZERO PUSH2 0x69D JUMPI PUSH1 0x20 DUP2 DUP7 ADD DUP2 ADD MLOAD DUP6 DUP4 ADD MSTORE ADD PUSH2 0x683 JUMP JUMPDEST DUP2 DUP2 GT ISZERO PUSH2 0x6AC JUMPI PUSH1 0x0 DUP3 DUP6 ADD MSTORE JUMPDEST POP SWAP2 SWAP1 SWAP2 ADD SWAP3 SWAP2 POP POP JUMP JUMPDEST PUSH1 0x20 DUP1 DUP3 MSTORE PUSH1 0x21 SWAP1 DUP3 ADD MSTORE PUSH32 0x4F776E6564557067726164656162696C69747950726F78793A20494E56414C49 PUSH1 0x40 DUP3 ADD MSTORE PUSH1 0x11 PUSH1 0xFA SHL PUSH1 0x60 DUP3 ADD MSTORE PUSH1 0x80 ADD SWAP1 JUMP JUMPDEST PUSH1 0x20 DUP1 DUP3 MSTORE PUSH1 0x23 SWAP1 DUP3 ADD MSTORE PUSH32 0x4F776E6564557067726164656162696C69747950726F78793A20464F52424944 PUSH1 0x40 DUP3 ADD MSTORE PUSH3 0x2222A7 PUSH1 0xE9 SHL PUSH1 0x60 DUP3 ADD MSTORE PUSH1 0x80 ADD SWAP1 JUMP JUMPDEST PUSH4 0x4E487B71 PUSH1 0xE0 SHL PUSH1 0x0 MSTORE PUSH1 0x41 PUSH1 0x4 MSTORE PUSH1 0x24 PUSH1 0x0 REVERT INVALID 0x25 0xB0 0xC6 PUSH1 0xC8 DUP10 0xBD DUP5 CALLVALUE PUSH21 0xD8ECCCBE1FDB234E43699F88B6F2670DA22FBB310E SWAP6 OR CALLCODE DELEGATECALL SWAP3 0xDF 0x26 0x5D 0x2A KECCAK256 0x22 OR COINBASE 0xDB RETURNDATASIZE 0x2A SIGNEXTEND DUP16 0xD5 0xB1 SWAP6 STOP EQ SWAP14 PUSH20 0x967A1A94AFC2BF83A2646970667358221220E37F 0xB1 SGT DUP2 INVALID PUSH20 0xDB575D1142D08C6B31B8EF5FBB48F9EBAC9BEFBD ORIGIN 0xC6 DUP3 LOG4 0xDC PUSH5 0x736F6C6343 STOP ADDMOD SMOD STOP CALLER "
		},
		"gasEstimates": {
			"creation": {
				"codeDepositCost": "398200",
				"executionCost": "22553",
				"totalCost": "420753"
			},
			"external": {
				"": "infinite",
				"implementation()": "infinite",
				"maintenance()": "2330",
				"proxyOwner()": "infinite",
				"setMaintenance(bool)": "infinite",
				"transferProxyOwnership(address)": "infinite",
				"upgradeTo(address)": "infinite",
				"upgradeToAndCall(address,bytes)": "infinite"
			},
			"internal": {
				"_fallback()": "infinite",
				"_upgradeTo(address)": "infinite",
				"setImplementation(address)": "infinite",
				"setUpgradeabilityOwner(address)": "infinite"
			}
		},
		"methodIdentifiers": {
			"implementation()": "5c60da1b",
			"maintenance()": "6c376cc5",
			"proxyOwner()": "025313a2",
			"setMaintenance(bool)": "612f2f37",
			"transferProxyOwnership(address)": "f1739cae",
			"upgradeTo(address)": "3659cfe6",
			"upgradeToAndCall(address,bytes)": "4f1ef286"
		}
	},
	"abi": [
		{
			"inputs": [],
			"stateMutability": "nonpayable",
			"type": "constructor"
		},
		{
			"anonymous": false,
			"inputs": [
				{
					"indexed": false,
					"internalType": "address",
					"name": "previousOwner",
					"type": "address"
				},
				{
					"indexed": false,
					"internalType": "address",
					"name": "newOwner",
					"type": "address"
				}
			],
			"name": "ProxyOwnershipTransferred",
			"type": "event"
		},
		{
			"anonymous": false,
			"inputs": [
				{
					"indexed": true,
					"internalType": "address",
					"name": "implementation",
					"type": "address"
				}
			],
			"name": "Upgraded",
			"type": "event"
		},
		{
			"stateMutability": "payable",
			"type": "fallback"
		},
		{
			"inputs": [],
			"name": "implementation",
			"outputs": [
				{
					"internalType": "address",
					"name": "impl",
					"type": "address"
				}
			],
			"stateMutability": "view",
			"type": "function"
		},
		{
			"inputs": [],
			"name": "maintenance",
			"outputs": [
				{
					"internalType": "bool",
					"name": "_maintenance",
					"type": "bool"
				}
			],
			"stateMutability": "view",
			"type": "function"
		},
		{
			"inputs": [],
			"name": "proxyOwner",
			"outputs": [
				{
					"internalType": "address",
					"name": "owner",
					"type": "address"
				}
			],
			"stateMutability": "view",
			"type": "function"
		},
		{
			"inputs": [
				{
					"internalType": "bool",
					"name": "_maintenance",
					"type": "bool"
				}
			],
			"name": "setMaintenance",
			"outputs": [],
			"stateMutability": "nonpayable",
			"type": "function"
		},
		{
			"inputs": [
				{
					"internalType": "address",
					"name": "newOwner",
					"type": "address"
				}
			],
			"name": "transferProxyOwnership",
			"outputs": [],
			"stateMutability": "nonpayable",
			"type": "function"
		},
		{
			"inputs": [
				{
					"internalType": "address",
					"name": "newImplementation",
					"type": "address"
				}
			],
			"name": "upgradeTo",
			"outputs": [],
			"stateMutability": "nonpayable",
			"type": "function"
		},
		{
			"inputs": [
				{
					"internalType": "address",
					"name": "newImplementation",
					"type": "address"
				},
				{
					"internalType": "bytes",
					"name": "data",
					"type": "bytes"
				}
			],
			"name": "upgradeToAndCall",
			"outputs": [],
			"stateMutability": "payable",
			"type": "function"
		},
		{
			"stateMutability": "payable",
			"type": "receive"
		}
	]
}