{
	"data": {
		"bytecode": {
			"linkReferences": {},
			"object": "608060405234801561001057600080fd5b5060018055615f1b80620000256000396000f3fe60806040526004361061044b5760003560e01c80638da5cb5b11610234578063b7e1eced1161012e578063d66e1e19116100b6578063ef7dc45c1161007a578063ef7dc45c14611066578063efd3c8921461107c578063f2fde38b1461109c578063f3cf4ada146110bc578063fa2a9da9146110dc57600080fd5b8063d66e1e1914610fb8578063dbc9a68614610ff9578063defa9df114611013578063e081e27c14611033578063e9d0cc321461105357600080fd5b8063c5e9dc6d116100fd578063c5e9dc6d14610eba578063cab11d5d14610eda578063cacd0ab914610ef0578063cd6bcf7314610f06578063cfda65c314610f9857600080fd5b8063b7e1eced14610e4e578063ba7b670314610e64578063bf8f793214610e7a578063c4adaed114610e9a57600080fd5b8063a851ec8f116101bc578063b087975411610180578063b087975414610c6c578063b162061614610c8c578063b484956814610d26578063b606485d14610e18578063b73bf45614610e2e57600080fd5b8063a851ec8f14610ba9578063a87430ba14610bbf578063a89ae4ba14610bec578063a9ecd7da14610c11578063ac2ce98714610c2757600080fd5b80639bf26320116102035780639bf2632014610b13578063a36a38ed14610b33578063a47bd49614610b49578063a6d883d614610b69578063a7e3f8c314610b8957600080fd5b80638da5cb5b14610a9f57806394ade59b14610abd578063960bfe0414610ad357806398f0af1c14610af357600080fd5b806351cdb77b1161034557806368283f4d116102cd5780637dc0d1d0116102915780637dc0d1d0146109fc5780637f0a83af14610a1c578063845e96ab14610a495780638719e8ac14610a5f5780638a3e1cdc14610a7f57600080fd5b806368283f4d146109315780636b899842146109465780636d03c394146109815780637547c7a3146109a157806379ee54f7146109c157600080fd5b80635ec9adae116103145780635ec9adae146108a55780635fd61965146108bb578063608e4dd0146108db57806361a52a36146108fb57806361b71bae1461091157600080fd5b806351cdb77b146106d65780635281d8f01461070e578063584b62a1146108015780635d80ca321461088f57600080fd5b8063372500ab116103d3578063409f8e8411610397578063409f8e841461065757806341bf18e21461066d57806342885f8c1461068057806342cde4e8146106a05780634a2e7c5b146106b657600080fd5b8063372500ab146105bc57806339115784146105d15780633a2b17e2146105e75780633bdb36d1146106175780634020249c1461063757600080fd5b8063215905761161041a57806321590576146104f9578063241188751461050f57806324ac09c3146105445780632e60130a146105645780632f48ab7d1461058457600080fd5b80630ffb231d146104575780631aac030c146104975780631c010b51146104b95780631cb44dfc146104d957600080fd5b3661045257005b600080fd5b34801561046357600080fd5b5061048461047236600461590d565b60266020526000908152604090205481565b6040519081526020015b60405180910390f35b3480156104a357600080fd5b506104b76104b236600461590d565b6111c5565b005b3480156104c557600080fd5b506104b76104d436600461590d565b6111fd565b3480156104e557600080fd5b506104b76104f43660046155e6565b61124e565b34801561050557600080fd5b50610484600b5481565b34801561051b57600080fd5b5061052f61052a3660046155e6565b6112ad565b6040805192835260208301919091520161048e565b34801561055057600080fd5b506104b761055f36600461590d565b611389565b34801561057057600080fd5b506104b761057f366004615765565b6113b8565b34801561059057600080fd5b506019546105a4906001600160a01b031681565b6040516001600160a01b03909116815260200161048e565b3480156105c857600080fd5b506104b7611a15565b3480156105dd57600080fd5b5061048460045481565b3480156105f357600080fd5b506106076106023660046156ea565b611b25565b604051901515815260200161048e565b34801561062357600080fd5b506104846106323660046155e6565b611b5c565b34801561064357600080fd5b506104b761065236600461590d565b611e61565b34801561066357600080fd5b5061048460075481565b6104b761067b3660046159bd565b611eb2565b34801561068c57600080fd5b506104b761069b36600461590d565b612087565b3480156106ac57600080fd5b5061048460135481565b3480156106c257600080fd5b506104b76106d1366004615834565b61237b565b3480156106e257600080fd5b506104846106f136600461596f565b602760209081526000928352604080842090915290825290205481565b34801561071a57600080fd5b506107a16107293660046156c0565b60236020908152600092835260408084209091529082529020546001600160401b0381169063ffffffff600160401b8204811691600160601b810482169165ffffffffffff600160801b83041691600160b01b8104821691600160d01b8204169060ff600160f01b8204811691600160f81b90041688565b604080516001600160401b03909916895263ffffffff97881660208a01529587169588019590955265ffffffffffff909316606087015290841660808601529290921660a084015290151560c0830152151560e08201526101000161048e565b34801561080d57600080fd5b5061086061081c3660046156c0565b601c6020908152600092835260408084209091529082529020546001600160401b0380821691600160401b810490911690600160801b90046001600160801b031683565b604080516001600160401b0394851681529390921660208401526001600160801b03169082015260600161048e565b34801561089b57600080fd5b5061048460065481565b3480156108b157600080fd5b50610484600d5481565b3480156108c757600080fd5b506104b76108d63660046155e6565b612443565b3480156108e757600080fd5b506104b76108f636600461590d565b6124e1565b34801561090757600080fd5b5061048460025481565b34801561091d57600080fd5b506104b761092c36600461590d565b612675565b34801561093d57600080fd5b506104b76126c6565b34801561095257600080fd5b50610607610961366004615601565b602160209081526000928352604080842090915290825290205460ff1681565b34801561098d57600080fd5b506104b761099c366004615634565b612be0565b3480156109ad57600080fd5b506104b76109bc36600461590d565b612f80565b3480156109cd57600080fd5b506109e16109dc3660046155e6565b613102565b6040805193845260208401929092529082015260600161048e565b348015610a0857600080fd5b50601a546105a4906001600160a01b031681565b348015610a2857600080fd5b50610484610a373660046155e6565b601e6020526000908152604090205481565b348015610a5557600080fd5b5061048460085481565b348015610a6b57600080fd5b506104b7610a7a36600461593f565b613275565b348015610a8b57600080fd5b506104b7610a9a36600461596f565b6132e1565b348015610aab57600080fd5b506000546001600160a01b03166105a4565b348015610ac957600080fd5b5061048460105481565b348015610adf57600080fd5b506104b7610aee36600461590d565b61336d565b348015610aff57600080fd5b50610484610b0e3660046155e6565b6133be565b348015610b1f57600080fd5b506104b7610b2e36600461596f565b613512565b348015610b3f57600080fd5b50610484600e5481565b348015610b5557600080fd5b506104b7610b6436600461596f565b613578565b348015610b7557600080fd5b506104b7610b8436600461590d565b6135de565b348015610b9557600080fd5b506016546105a4906001600160a01b031681565b348015610bb557600080fd5b50610484600f5481565b348015610bcb57600080fd5b50610484610bda3660046155e6565b601b6020526000908152604090205481565b348015610bf857600080fd5b506015546105a49061010090046001600160a01b031681565b348015610c1d57600080fd5b50610484600a5481565b348015610c3357600080fd5b506105a4610c42366004615a86565b6020808052600093845260408085208252928452828420905282529020546001600160a01b031681565b348015610c7857600080fd5b506104b7610c8736600461590d565b61361b565b348015610c9857600080fd5b50610ceb610ca736600461590d565b6025602052600090815260409020546001600160401b0380821691600160401b810490911690600160801b81046001600160781b031690600160f81b900460ff1684565b604080516001600160401b0395861681529490931660208501526001600160781b03909116918301919091521515606082015260800161048e565b348015610d3257600080fd5b50610db9610d413660046156c0565b602260209081526000928352604080842090915290825290208054600182015460028301546003909301546001600160801b03831693600160801b84046001600160781b031693600160f81b900460ff16926001600160601b0380821693600160601b90920416916001600160a01b03908116911687565b604080516001600160801b0390981688526001600160781b039096166020880152931515948601949094526001600160601b0391821660608601521660808401526001600160a01b0391821660a08401521660c082015260e00161048e565b348015610e2457600080fd5b5061048460145481565b348015610e3a57600080fd5b506104b7610e4936600461590d565b61366c565b348015610e5a57600080fd5b5061048460125481565b348015610e7057600080fd5b5061048460115481565b348015610e8657600080fd5b506104b7610e953660046158d3565b61369b565b348015610ea657600080fd5b506104b7610eb536600461596f565b6136e7565b348015610ec657600080fd5b506104b7610ed5366004615ab2565b61374d565b348015610ee657600080fd5b5061048460095481565b348015610efc57600080fd5b5061048460055481565b348015610f1257600080fd5b50610f61610f2136600461590d565b6024602052600090815260409020546001600160601b0380821691600160601b81049091169063ffffffff600160c01b8204811691600160e01b90041684565b604080516001600160601b03958616815294909316602085015263ffffffff9182169284019290925216606082015260800161048e565b348015610fa457600080fd5b506104b7610fb33660046155e6565b6137cd565b348015610fc457600080fd5b50610607610fd33660046156ea565b601f60209081526000938452604080852082529284528284209052825290205460ff1681565b34801561100557600080fd5b506015546106079060ff1681565b34801561101f57600080fd5b506104b761102e366004615991565b61382c565b34801561103f57600080fd5b506104b761104e36600461571d565b613a83565b6104b7611061366004615a18565b613bef565b34801561107257600080fd5b50610484600c5481565b34801561108857600080fd5b506017546105a4906001600160a01b031681565b3480156110a857600080fd5b506104b76110b73660046155e6565b613de2565b3480156110c857600080fd5b506104b76110d7366004615a86565b613e90565b3480156110e857600080fd5b506111636110f73660046155e6565b601d602052600090815260409020805460018201546002909201546001600160801b0380831693600160801b93849004821693818316939181900483169282169163ffffffff918104821691600160a01b8204811691600160c01b8104821691600160e01b9091041689565b604080516001600160801b039a8b168152988a1660208a015296891696880196909652938716606087015291909516608085015263ffffffff94851660a0850152841660c0840152831660e0830152919091166101008201526101200161048e565b6000546001600160a01b031633146111f85760405162461bcd60e51b81526004016111ef90615b6f565b60405180910390fd5b601155565b6000546001600160a01b031633146112275760405162461bcd60e51b81526004016111ef90615b6f565b80600081116112485760405162461bcd60e51b81526004016111ef90615ba6565b50601055565b6000546001600160a01b031633146112785760405162461bcd60e51b81526004016111ef90615b6f565b6001600160a01b03811661128b57600080fd5b601a80546001600160a01b0319166001600160a01b0392909216919091179055565b6001600160a01b0381166000908152601d60205260408120600281015482919063ffffffff600160c01b8204811691600160e01b9004168381808410156113065760405162461bcd60e51b81526004016111ef90615ba6565b8284111561137c57825b8481101561137a576001600160a01b0389166000908152601c602090815260408083208484529091529020805461135790600160801b90046001600160801b031685615ca4565b9350611364826001615ca4565b925050808061137290615e47565b915050611310565b505b9097909650945050505050565b6000546001600160a01b031633146113b35760405162461bcd60e51b81526004016111ef90615b6f565b600555565b6000546001600160a01b031633146113e25760405162461bcd60e51b81526004016111ef90615b6f565b600260015414156114055760405162461bcd60e51b81526004016111ef90615bc7565b6002600155815183511461144d5760405162461bcd60e51b815260206004820152600f60248201526e098cadccee8d040dad2e6dac2e8c6d608b1b60448201526064016111ef565b60005b8351811015611a0b57601e600084838151811061146f5761146f615e9c565b60200260200101516001600160a01b03166001600160a01b03168152602001908152602001600020548482815181106114aa576114aa615e9c565b6020026020010151106114cf5760405162461bcd60e51b81526004016111ef90615ba6565b6000602260008584815181106114e7576114e7615e9c565b60200260200101516001600160a01b03166001600160a01b03168152602001908152602001600020600086848151811061152357611523615e9c565b60200260200101518152602001908152602001600020905060006023600086858151811061155357611553615e9c565b60200260200101516001600160a01b03166001600160a01b03168152602001908152602001600020600087858151811061158f5761158f615e9c565b60209081029190910181015182528101919091526040016000208254909150600160801b90046001600160781b0316156115fe5760405162461bcd60e51b815260206004820152601060248201526f105b1c9958591e481c995cdbdb1d995960821b60448201526064016111ef565b8315611678578054600160d01b900463ffffffff164211801561163c575060115481546116389190600160d01b900463ffffffff16615ca4565b4211155b6116785760405162461bcd60e51b815260206004820152600d60248201526c22b7322a34b6b29032b93937b960991b60448201526064016111ef565b601a546003830154601954604051635620c32d60e11b81526001600160a01b0392831660048201529082166024820152600092919091169063ac41865a9060440160206040518083038186803b1580156116d157600080fd5b505afa1580156116e5573d6000803e3d6000fd5b505050506040513d601f19601f820116820180604052508101906117099190615926565b825490915060009061172f908590849063ffffffff600160601b909104811690613ee316565b6001600160781b0316905080600214806117495750806001145b1561191a57835460018501546000916001600160801b031690600160601b90046001600160601b031682600285141561179157508554600160401b900463ffffffff1661179e565b5085546001600160401b03165b6001880154600160601b90046001600160601b0316158015906117d4575060175460028901546001600160a01b03908116911614155b156118c85760028801546001600160a01b03166001141561181f5768056bc75e2d63100000816118048486615dcc565b61180e9190615dcc565b6118189190615cbc565b93506118e1565b8760020160009054906101000a90046001600160a01b03166001600160a01b031663313ce5676040518163ffffffff1660e01b815260040160206040518083038186803b15801561186f57600080fd5b505afa158015611883573d6000803e3d6000fd5b505050506040513d601f19601f820116820180604052508101906118a79190615ae8565b6118b290600a615d21565b6118bd906064615dcc565b816118048486615dcc565b60646118d48285615dcc565b6118de9190615cbc565b93505b600454600d546000908152602460205260409020611900918688613fd4565b600d805490600061191083615e47565b9190505550505050505b60006021600089888151811061193257611932615e9c565b6020908102919091018101516001600160a01b039081168352828201939093526040918201600090812060038a015490941681529290529020805460ff19169115159190911790558751819089908790811061199057611990615e9c565b60200260200101518887815181106119aa576119aa615e9c565b60200260200101516001600160a01b03167f80f0d02bc787182862ebb4cc01d73c2f450ce15daf1fa4a2ca88c03257019428426040516119ec91815260200190565b60405180910390a4505050508080611a0390615e47565b915050611450565b5050600180555050565b60026001541415611a385760405162461bcd60e51b81526004016111ef90615bc7565b6002600155611a4633614033565b50336000908152601d60205260409020600281015460018201546001600160801b03918216600160801b90910490911611611ab05760405162461bcd60e51b815260206004820152600a6024820152694e6f207265776172647360b01b60448201526064016111ef565b60028101546001820154600091611adb916001600160801b0391821691600160801b90910416615deb565b6001830180546001600160801b039081169091556002840180546001600160801b031916905560175491169150611b1d906001600160a01b0316335b836141c7565b505060018055565b6001600160a01b0383166000908152601f60209081526040808320858452825280832084845290915290205460ff165b9392505050565b6001600160a01b0381166000908152601b6020908152604080832054601e9092528220541580611ba357506001600160a01b0383166000908152601e602052604090205481145b15611bb15750600092915050565b6001600160a01b0383166000908152601e60205260409020548110611c055760405162461bcd60e51b815260206004820152600a602482015269139bc81b995dc818995d60b21b60448201526064016111ef565b6000815b6001600160a01b0385166000908152601e6020526040902054811015611e59576001600160a01b038516600081815260226020908152604080832085845282528083209383526023825280832085845290915290208054600160f81b900460ff16158015611c8457508054600160d01b900463ffffffff1642115b15611e4457815481546001600160801b038216916001600160401b03909116906001600160781b03600160801b9091041660011415611e415760175460028501546001600160a01b03908116911614801590611cf357506001840154600160601b90046001600160601b031615155b15611e1e5760028401546001600160a01b031660011415611d5f57600184015468056bc75e2d63100000908290611d3a90600160601b90046001600160601b031685615dcc565b611d449190615dcc565b611d4e9190615cbc565b611d589087615ca4565b9550611e41565b8360020160009054906101000a90046001600160a01b03166001600160a01b031663313ce5676040518163ffffffff1660e01b815260040160206040518083038186803b158015611daf57600080fd5b505afa158015611dc3573d6000803e3d6000fd5b505050506040513d601f19601f82011682018060405250810190611de79190615ae8565b611df290600a615d21565b611dfd906064615dcc565b60018501548290611d3a90600160601b90046001600160601b031685615dcc565b6064611e2a8284615dcc565b611e349190615cbc565b611e3e9087615ca4565b95505b50505b50508080611e5190615e47565b915050611c09565b509392505050565b6000546001600160a01b03163314611e8b5760405162461bcd60e51b81526004016111ef90615b6f565b8060008111611eac5760405162461bcd60e51b81526004016111ef90615ba6565b50600955565b82846001846001600160a01b038116611edd5760405162461bcd60e51b81526004016111ef90615ba6565b60155460ff16611f3b576017546001600160a01b03828116911614611f3b5760405162461bcd60e51b81526020600482015260146024820152734d756c746920746f6b656e20696e61637469766560601b60448201526064016111ef565b6001600160a01b0384166000908152601f60209081526040808320868452825280832085845290915290205460ff16611fa35760405162461bcd60e51b815260206004820152600a6024820152694e6f742061637469766560b01b60448201526064016111ef565b3360009081526021602090815260408083206001600160a01b038816845290915290205460ff161561200c5760405162461bcd60e51b815260206004820152601260248201527142657420616c72656164792061637469766560701b60448201526064016111ef565b6002600154141561202f5760405162461bcd60e51b81526004016111ef90615bc7565b6002600155612041338a8989896142e2565b61207833600080805260266020527f673668fde1539921a3231470503848f53fc614c057a2345bc3a2f36758a6d3ac546001614a35565b50506001805550505050505050565b600260015414156120aa5760405162461bcd60e51b81526004016111ef90615bc7565b6002600155336000908152601e602052604090205481106120dd5760405162461bcd60e51b81526004016111ef90615ba6565b33600081815260226020908152604080832085845282528083209383526023825280832085845290915290208054600160f81b900460ff161580156121305750805442600160d01b90910463ffffffff16115b6121665760405162461bcd60e51b8152602060048201526007602482015266456e6454696d6560c81b60448201526064016111ef565b600254815460009182918291829161218b90600160b01b900463ffffffff1642615e13565b6121959190615cbc565b60025486549192506000916121c09063ffffffff600160b01b8204811691600160d01b900416615e2a565b63ffffffff166121d09190615cbc565b60008181526027602090815260408083208684529091529020549550905060648511156121fc57600080fd5b8654606490612214906001600160801b031687615dcc565b61221e9190615cbc565b87549093506122379084906001600160801b0316615e13565b9350831561227a578554600160f01b900460ff161561226f57600287015461226a906001600160a01b0316335b866141c7565b61227a565b61227a335b85614d51565b82156122cb578554600160f01b900460ff16156122b55760028701546016546122b0916001600160a01b039081169116856141c7565b6122cb565b6016546122cb906001600160a01b031684614d51565b85546001600160f81b0316600160f81b17865560006021816122ea3390565b6001600160a01b0390811682526020808301939093526040918201600090812060038d0154909216815292529020805460ff1916911515919091179055855460ff600160f81b90910416151588336001600160a01b03167f6a877c9b3a5a46eda88ce93dd1ac65942b2c9bbf5eca8e4202b1e2499157e77f60405160405180910390a4505060018055505050505050565b6000546001600160a01b031633146123a55760405162461bcd60e51b81526004016111ef90615b6f565b60005b6004811015612438576124268382600481106123c6576123c6615e9c565b602002015161ffff168383600481106123e1576123e1615e9c565b602002015160ff168684600481106123fb576123fb615e9c565b602002015160ff1660256000868152602001908152602001600020614e1f909392919063ffffffff16565b8061243081615e47565b9150506123a8565b50506004600e555050565b600260015414156124665760405162461bcd60e51b81526004016111ef90615bc7565b60026001819055600d546001600160a01b0383166000908152601d6020526040902090910154600160a01b900463ffffffff16106124d85760405162461bcd60e51b815260206004820152600f60248201526e105b1c9958591e481d5c19185d1959608a1b60448201526064016111ef565b611b1d81614033565b600260015414156125045760405162461bcd60e51b81526004016111ef90615bc7565b600260015561251233614033565b50600d54336000908152601d6020526040902060020154600160a01b900463ffffffff16146125745760405162461bcd60e51b815260206004820152600e60248201526d436c61696d20616c6c206265747360901b60448201526064016111ef565b600080612580336112ad565b9150915060006125b8838584601d60006125973390565b6001600160a01b031681526020810191909152604001600020929190614ee2565b90508060045410156126015760405162461bcd60e51b8152602060048201526012602482015271496e73756666696369656e742066756e647360701b60448201526064016111ef565b8360045410156126485760405162461bcd60e51b8152602060048201526012602482015271496e73756666696369656e742066756e647360701b60448201526064016111ef565b806004600082825461265a9190615e13565b9091555050601754611a0b906001600160a01b031633612264565b6000546001600160a01b0316331461269f5760405162461bcd60e51b81526004016111ef90615b6f565b80600081116126c05760405162461bcd60e51b81526004016111ef90615ba6565b50600655565b600260015414156126e95760405162461bcd60e51b81526004016111ef90615bc7565b6002600155336000908152601b6020908152604080832054601e9092528220548291829181106127485760405162461bcd60e51b815260206004820152600a602482015269139bc81b995dc818995d60b21b60448201526064016111ef565b805b336000908152601e6020526040902054811015612b985733600081815260226020908152604080832085845282528083209383526023825280832085845290915290208054600160f81b900460ff161580156127b657508154600160801b90046001600160781b031615155b15612b8357815481546001600160801b038216916001600160401b03821691600160401b900463ffffffff16906000906001600160801b9091046001600160781b03161415612a17578454600160f01b900460ff16156128585760175460028701546001600160a01b03908116911614612847576002860154612842906001600160a01b031633612264565b612865565b612851848b615ca4565b9950612865565b612862848c615ca4565b9a505b60175460028701546001600160a01b0390811691161480159061289b57506001860154600160601b90046001600160601b031615155b156129e45760028601546001600160a01b0316600114156128fd57600186015468056bc75e2d631000009084906128e290600160601b90046001600160601b031687615dcc565b6128ec9190615dcc565b6128f69190615cbc565b90506129d3565b8560020160009054906101000a90046001600160a01b03166001600160a01b031663313ce5676040518163ffffffff1660e01b815260040160206040518083038186803b15801561294d57600080fd5b505afa158015612961573d6000803e3d6000fd5b505050506040513d601f19601f820116820180604052508101906129859190615ae8565b61299090600a615d21565b61299b906064615dcc565b600187015484906129bc90600160601b90046001600160601b031687615dcc565b6129c69190615dcc565b6129d09190615cbc565b90505b6129dd818b615ca4565b9950612a09565b60646129f08486615dcc565b6129fa9190615cbc565b9050612a06818b615ca4565b99505b612a1285615194565b612b33565b8554600160801b90046001600160781b031660021415612b33576064821115612a525760405162461bcd60e51b81526004016111ef90615ba6565b60006064612a608685615dcc565b612a6a9190615cbc565b90506000612a788287615e13565b8754909150600160f01b900460ff1615612aff5760175460028901546001600160a01b03908116911614612aee578015612ac4576002880154612ac4906001600160a01b031633611b17565b8115612ae9576002880154601654612ae9916001600160a01b039081169116846141c7565b612b27565b612af8818d615ca4565b9b50612b27565b612b09818e615ca4565b9c508115612b2757601654612b27906001600160a01b031683614d51565b612b3087615194565b50505b612b3e876001615ca4565b6040805142815260208101849052919a50889133917f9e69d00870c99bd9583a212168d5869f740d1dbabdb2d60a56d716d9f9dbd700910160405180910390a3505050505b50508080612b9090615e47565b91505061274a565b50336000908152601b602052604090206001600160401b03831690558315612bc357612bc333612274565b8215611a0b57601754611a0b906001600160a01b031633856141c7565b60035460ff1615612bf057600080fd5b6003805460ff19166001179055600586905569152d02c7e14af6800000600655600785905560088490556009839055610e10601155601780546001600160a01b03808b166001600160a01b031992831617909255601a80548584169083161790556019805492841692909116919091179055612c6b896151ba565b6064601081905562015180600255604080516080808201835260068252600360208084019190915260058385015260076060808501919091528451808401865261012c81526032818401528086019690965260c88682015284519283018552600080845291830182905293820181905292810192909252612ced92909161237b565b50506004600e8190556007601281905569021e19e0c9bab2400000601355601680546001600160a01b0319166001600160a01b03989098169790971790965560017f673668fde1539921a3231470503848f53fc614c057a2345bc3a2f36758a6d3ac8190557f5db1dfd2ced311e642486f0e890a646498a1bdee1ad9403b0a73141af8a4c4115560037f79d5ac1af4480d65c6dd0b2262174229f09440eb5efcdd43dd5abb89bd013a8b557fdab4009b70bebe3d9317b241caffbbddafded4efeb788ba6719fd723013945168690557f1218cf69d642a89a40b73ec409b224a7a535dbf563ad004610ba747340021cb28690557fab988fd7626abe7caa91e19f5aad4a3a61b1e651878276ab7ddcc7b9e0e36df28690557f4408e7cf470e5f97d9246c3329248d9e27598c018c8e287d7165449e80c1a6ee8690557f9056a0f76d88f9f3f2542162f4ac777299f5c80a5ebc951c1f4b118089c57fab8690557f8ca374d29c0f22d90988c19a46e2609f73349de83670b110f979e5e2ddad88808690557f24d1e737602c347fe41dedb93267dc4656b052da92b8561d7d35bfe12d7b24168690557f04f2f958077a478b1e04c2a2445ca5dfe463563ad689833a43a13e24285b858a8690557f897d51a06262a8ca6cefdc150b604eb52997b0bdfafb1d219165c1a2a5f6abea8690557fb45418d15ef59e82e47e3dee825d0dd4a5d1b24260499703a99cc52b3bfcb55a8690557fdecb35b3c19f1e16b3d8808163ed236681dd33dbfda3e4c0b025d406e86bd58286905560066000527f5ca855eeae1b488fa0b99cc3fd0c088edeb325d8687640f29b9dab5e07b5eace6020527f7f6686704cce2740f568332784f2ca2b8493642ed317a10ac3839b5cdd81af4595909555505050600f91909155505050565b60026001541415612fa35760405162461bcd60e51b81526004016111ef90615bc7565b60026001556005548110801590612fbc57506006548111155b612fd85760405162461bcd60e51b81526004016111ef90615ba6565b612fe133614033565b50336000908152601d60205260409020600d546002820154600160a01b900463ffffffff16148061302157506002810154600160c01b900463ffffffff16155b61305e5760405162461bcd60e51b815260206004820152600e60248201526d436c61696d20616c6c206265747360901b60448201526064016111ef565b601754613076906001600160a01b03163330856151dc565b6002810154336000908152601c60209081526040808320600160c01b90940463ffffffff1680845293909152902080546001600160801b038516600160801b026fffffffffffffffff00000000000000009091166001600160401b034216171790556130e28284615304565b82600460008282546130f49190615ca4565b909155505060018055505050565b6001600160a01b0381166000908152601d6020526040812060028101548154600d5460105485948594909363ffffffff600160a01b8304811694600160801b90930416926001600160801b03909116918691829182916131629088615ca4565b106131705750600d54613180565b60105461317d9087615ca4565b90505b855b818110156132635760008181526024602052604090208054600160c01b900463ffffffff16871015613250578054600160e01b900463ffffffff16600214156132015780546001600160601b03808216916131e6918991600160601b900416615dcc565b6131f09190615cbc565b6131fa9086615ca4565b9450613250565b8054600160e01b900463ffffffff16600114156132505780546001600160601b0380821691613239918991600160601b900416615dcc565b6132439190615cbc565b61324d9085615ca4565b93505b508061325b81615e47565b915050613182565b50919a90995090975095505050505050565b6000546001600160a01b0316331461329f5760405162461bcd60e51b81526004016111ef90615b6f565b600e5482908082106132c35760405162461bcd60e51b81526004016111ef90615ba6565b60008481526025602052604090206132db90846153a2565b50505050565b6000546001600160a01b0316331461330b5760405162461bcd60e51b81526004016111ef90615b6f565b600f5482111561331a57600080fd5b600f548214801561332a57508015155b15613357576000828152602660205260408120829055600f80549161334e83615e47565b91905055505050565b60008281526026602052604090208190555b5050565b6000546001600160a01b031633146133975760405162461bcd60e51b81526004016111ef90615b6f565b80600081116133b85760405162461bcd60e51b81526004016111ef90615ba6565b50601355565b6017546000906001600160a01b03838116911614156133df57506001919050565b601a54601754601954604051635620c32d60e11b81526001600160a01b039283166004820152908216602482015291169063ac41865a9060440160206040518083038186803b15801561343157600080fd5b505afa158015613445573d6000803e3d6000fd5b505050506040513d601f19601f820116820180604052508101906134699190615926565b601a54601954604051635620c32d60e11b81526001600160a01b038681166004830152918216602482015291169063ac41865a9060440160206040518083038186803b1580156134b857600080fd5b505afa1580156134cc573d6000803e3d6000fd5b505050506040513d601f19601f820116820180604052508101906134f09190615926565b61350290670de0b6b3a7640000615dcc565b61350c9190615cbc565b92915050565b6000546001600160a01b0316331461353c5760405162461bcd60e51b81526004016111ef90615b6f565b600e5482908082106135605760405162461bcd60e51b81526004016111ef90615ba6565b60008481526025602052604090206132db90846153d4565b6000546001600160a01b031633146135a25760405162461bcd60e51b81526004016111ef90615b6f565b600e5482908082106135c65760405162461bcd60e51b81526004016111ef90615ba6565b60008481526025602052604090206132db9084615428565b6000546001600160a01b031633146136085760405162461bcd60e51b81526004016111ef90615b6f565b606481111561361657600080fd5b601255565b6000546001600160a01b031633146136455760405162461bcd60e51b81526004016111ef90615b6f565b80600081116136665760405162461bcd60e51b81526004016111ef90615ba6565b50600755565b6000546001600160a01b031633146136965760405162461bcd60e51b81526004016111ef90615b6f565b600855565b6000546001600160a01b031633146136c55760405162461bcd60e51b81526004016111ef90615b6f565b60155460ff161515811515146136e4576015805460ff19168215151790555b50565b6000546001600160a01b031633146137115760405162461bcd60e51b81526004016111ef90615b6f565b600e5482908082106137355760405162461bcd60e51b81526004016111ef90615ba6565b60008481526025602052604090206132db90846154a5565b6000546001600160a01b031633146137775760405162461bcd60e51b81526004016111ef90615b6f565b600e5460008181526025602052604090206137928187615428565b61379c81866154a5565b6137a681856153d4565b6137b081846153a2565b600e80549060006137c083615e47565b9190505550505050505050565b6000546001600160a01b031633146137f75760405162461bcd60e51b81526004016111ef90615b6f565b6001600160a01b03811661380a57600080fd5b601680546001600160a01b0319166001600160a01b0392909216919091179055565b6000546001600160a01b031633146138565760405162461bcd60e51b81526004016111ef90615b6f565b828281600114806138675750816002145b806138725750816003145b61388e5760405162461bcd60e51b81526004016111ef90615ba6565b806001148061389d5750806002145b6138dc5760405162461bcd60e51b815260206004820152601060248201526f496e76616c696420506c616e5479706560801b60448201526064016111ef565b6001600160a01b0383166139025760405162461bcd60e51b81526004016111ef90615ba6565b6001600160a01b0383166000908152601f60209081526040808320888452825280832087845290915290205460ff161561396e5760405162461bcd60e51b815260206004820152600d60248201526c105b1c9958591e481859191959609a1b60448201526064016111ef565b600085600114156139965750600a8054908190600061398c83615e47565b91905055506139cb565b85600214156139b25750600b8054908190600061398c83615e47565b50600c805490819060006139c583615e47565b91905055505b6000868152602080805260408083208884528252808320848452825280832080546001600160a01b0319166001600160a01b038916908117909155808452601f83528184208a85528352818420898552835292819020805460ff1916600190811790915581518a8152928301899052908201849052606082015260808101919091527f33799bcd8b4021a5a37e4d4e3ea6516ae7456c1ea4d5519c89918d90be01c8d09060a0015b60405180910390a1505050505050565b6000546001600160a01b03163314613aad5760405162461bcd60e51b81526004016111ef90615b6f565b82828160011480613abe5750816002145b80613ac95750816003145b613ae55760405162461bcd60e51b81526004016111ef90615ba6565b8060011480613af45750806002145b613b335760405162461bcd60e51b815260206004820152601060248201526f496e76616c696420506c616e5479706560801b60448201526064016111ef565b6001600160a01b0386166000908152601f60209081526040808320888452825280832087845290915290205460ff16151583151514613be7576001600160a01b0386166000818152601f602090815260408083208984528252808320888452825291829020805460ff1916871515908117909155825193845290830188905290820186905260608201527f5d2b3a2ae84951934c280adb60c06ff3159e61b6eeb9910fd745c11728d679e690608001613a73565b505050505050565b84866002866001600160a01b038116613c1a5760405162461bcd60e51b81526004016111ef90615ba6565b60155460ff16613c78576017546001600160a01b03828116911614613c785760405162461bcd60e51b81526020600482015260146024820152734d756c746920746f6b656e20696e61637469766560601b60448201526064016111ef565b6001600160a01b0384166000908152601f60209081526040808320868452825280832085845290915290205460ff16613ce05760405162461bcd60e51b815260206004820152600a6024820152694e6f742061637469766560b01b60448201526064016111ef565b3360009081526021602090815260408083206001600160a01b038816845290915290205460ff1615613d495760405162461bcd60e51b815260206004820152601260248201527142657420616c72656164792061637469766560701b60448201526064016111ef565b60026001541415613d6c5760405162461bcd60e51b81526004016111ef90615bc7565b60026001556000868152602660205260409020548715801590613d905750600e5488105b613d9957600080fd5b80613db65760405162461bcd60e51b81526004016111ef90615ba6565b613dc3338d8c8c8a6142e2565b613dd03389836002614a35565b50506001805550505050505050505050565b6000546001600160a01b03163314613e0c5760405162461bcd60e51b81526004016111ef90615b6f565b6001600160a01b038116613e325760405162461bcd60e51b81526004016111ef90615b6f565b7f8be0079c531659141344cd1fd0a4f28419497f9722a3daafe3b4186f6b6457e0613e656000546001600160a01b031690565b604080516001600160a01b03928316815291841660208301520160405180910390a16136e4816151ba565b6000546001600160a01b03163314613eba5760405162461bcd60e51b81526004016111ef90615b6f565b6064831115613ec857600080fd5b60009081526027602090815260408083209383529290522055565b600183015483546000916001600160601b0316908290600160f81b900460ff1615613f5f5781851015613f5a5781613f1b8682615e13565b613f26906064615dcc565b613f309190615cbc565b9050838110613f5a5750508354600160801b600160f81b031916600160801b178455506001611b55565b613fb1565b81851115613fb15781613f728187615e13565b613f7d906064615dcc565b613f879190615cbc565b9050838110613fb15750508354600160801b600160f81b031916600160801b178455506001611b55565b50508354600160801b600160f81b031916600160811b1790935550600292915050565b835463ffffffff918216600160e01b026001600160e01b034293909316600160c01b02929092166001600160c01b036001600160601b03948516600160601b026001600160c01b03199093169490951693909317179290921617179055565b6001600160a01b0381166000908152601d60205260408120600d546002820154600160a01b900463ffffffff16141561406f5750600192915050565b6002810154600160c01b900463ffffffff166140b757600d546002909101805463ffffffff909216600160a01b0263ffffffff60a01b19909216919091179055506001919050565b60008060006140c586613102565b60028701805463ffffffff60a01b1916600160a01b63ffffffff84160217905591945092509050821580156140f8575081155b156141095750600195945050505050565b821561415a57828460010160108282829054906101000a90046001600160801b03166141359190615c79565b92506101000a8154816001600160801b0302191690836001600160801b031602179055505b81156141a5576002840180548391906000906141809084906001600160801b0316615c79565b92506101000a8154816001600160801b0302191690836001600160801b031602179055505b600d548114156141bb5750600195945050505050565b50600095945050505050565b604080516001600160a01b038481166024830152604480830185905283518084039091018152606490920183526020820180516001600160e01b031663a9059cbb60e01b17905291516000928392908716916142239190615b05565b6000604051808303816000865af19150503d8060008114614260576040519150601f19603f3d011682016040523d82523d6000602084013e614265565b606091505b509150915081801561428f57508051158061428f57508080602001905181019061428f91906158f0565b6142db5760405162461bcd60e51b815260206004820152601f60248201527f5472616e7366657248656c7065723a205452414e534645525f4641494c45440060448201526064016111ef565b5050505050565b60006064601254866142f49190615dcc565b6142fe9190615cbc565b90508461430b8282615e13565b6017549096506000906001600160a01b038681169116146145bb5761432f856133be565b905060006001600160a01b03861660011415614388578234146143645760405162461bcd60e51b81526004016111ef90615ba6565b670de0b6b3a76400006143778385615dcc565b6143819190615cbc565b905061441b565b856001600160a01b031663313ce5676040518163ffffffff1660e01b815260040160206040518083038186803b1580156143c157600080fd5b505afa1580156143d5573d6000803e3d6000fd5b505050506040513d601f19601f820116820180604052508101906143f99190615ae8565b61440490600a615d21565b61440e8385615dcc565b6144189190615cbc565b90505b600480546017546040516370a0823160e01b8152309381019390935290916001600160a01b03909116906370a082319060240160206040518083038186803b15801561446657600080fd5b505afa15801561447a573d6000803e3d6000fd5b505050506040513d601f19601f8201168201806040525081019061449e9190615926565b111561458557600480546017546040516370a0823160e01b8152309381019390935283926001600160a01b03909116906370a082319060240160206040518083038186803b1580156144ef57600080fd5b505afa158015614503573d6000803e3d6000fd5b505050506040513d601f19601f820116820180604052508101906145279190615926565b6145319190615e13565b61453b9190615ca4565b60045460075461454b9190615dcc565b10156145855760405162461bcd60e51b81526020600482015260096024820152682132ba3330b1ba37b960b91b60448201526064016111ef565b600854811015801561459957506009548111155b6145b55760405162461bcd60e51b81526004016111ef90615ba6565b50614755565b600480546017546040516370a0823160e01b8152309381019390935290916001600160a01b03909116906370a082319060240160206040518083038186803b15801561460657600080fd5b505afa15801561461a573d6000803e3d6000fd5b505050506040513d601f19601f8201168201806040525081019061463e9190615926565b111561472557600480546017546040516370a0823160e01b8152309381019390935284926001600160a01b03909116906370a082319060240160206040518083038186803b15801561468f57600080fd5b505afa1580156146a3573d6000803e3d6000fd5b505050506040513d601f19601f820116820180604052508101906146c79190615926565b6146d19190615e13565b6146db9190615ca4565b6004546007546146eb9190615dcc565b10156147255760405162461bcd60e51b81526020600482015260096024820152682132ba3330b1ba37b960b91b60448201526064016111ef565b600854821015801561473957506009548211155b6147555760405162461bcd60e51b81526004016111ef90615ba6565b6001600160a01b0388166000818152602260209081526040808320601e835281842054808552908352818420948452602383528184209084529091529020341580156147ab57506001600160a01b038716600114155b15614896576147bc878b30876151dc565b6000851180156147da57506017546001600160a01b03888116911614155b156147fc576016546147f79088906001600160a01b0316876141c7565b614880565b60008511801561481957506017546001600160a01b038881169116145b156148805784601460008282546148309190615ca4565b9091555050601354601454111561488057600454601454600d5460009081526024602052604090206148659290916002613fd4565b600d805490600061487583615e47565b909155505060006014555b805460ff60f01b1916600160f01b178155614902565b6001600160a01b0387166001146148e65760405162461bcd60e51b8152602060048201526014602482015273426574546f6b656e206d7573742062652030783160601b60448201526064016111ef565b841561490257601654614902906001600160a01b031686614d51565b601a54601954604051635620c32d60e11b81526001600160a01b038b811660048301529182166024820152614a29928c92169063ac41865a9060440160206040518083038186803b15801561495657600080fd5b505afa15801561496a573d6000803e3d6000fd5b505050506040513d601f19601f8201168201806040525081019061498e9190615926565b84546001600160801b039092166effffffffffffffffffffffffffffff60801b90921691909117600160f81b891515021784556001840180546001600160601b039283166001600160c01b031990911617600160601b928716929092029190911790556003830180546001600160a01b03199081166001600160a01b03808d1691909117909255600285018054909116918a16919091179055565b50505050505050505050565b6001600160a01b0384166000818152602260209081526040808320601e8352818420548085529083528184209484526023835281842090845290915290206001831415614c2557600085815260256020526040902054600254614b83916001600160401b03600160401b8204811692908216916001600160781b03600160801b909104169087904290614aca90600490615cbc565b614ad4908b615dcc565b614ade9042615ca4565b87546001600160401b039096166bffffffffffffffffffffffff1990961695909517600160401b63ffffffff958616021769ffffffffffffffffffff60601b1916600160601b9385169390930265ffffffffffff60801b191692909217600160801b65ffffffffffff909216919091021767ffffffffffffffff60b01b1916600160b01b9183169190910263ffffffff60d01b191617600160d01b9190921602178255565b6004600254614b929190615cbc565b614b9c9085615dcc565b614ba69042615ca4565b6001600160a01b038781166000818152601e60209081526040918290205460038801546002890154845191871682529095169185019190915290830189905260608301889052426080840152917f60c2f28caeb1bddf2d8003a850562e4a133ce8e63719dac464c8052de62d0f569060a00160405180910390a4614d03565b600085815260256020526040902054600254614c71916001600160401b03600160401b8204811692908216916001600160781b03600160801b909104169087904290614ad4908b615dcc565b600254614c7e9085615dcc565b614c889042615ca4565b6001600160a01b038781166000818152601e60209081526040918290205460038801546002890154845191871682529095169185019190915290830189905260608301889052426080840152917f60c2f28caeb1bddf2d8003a850562e4a133ce8e63719dac464c8052de62d0f569060a00160405180910390a45b6001600160a01b03808716600081815260216020908152604080832060038801549095168352938152838220805460ff19166001179055918152601e9091529081208054916137c083615e47565b604080516000808252602082019092526001600160a01b038416908390604051614d7b9190615b05565b60006040518083038185875af1925050503d8060008114614db8576040519150601f19603f3d011682016040523d82523d6000602084013e614dbd565b606091505b5050905080614e1a5760405162461bcd60e51b815260206004820152602360248201527f5472616e7366657248656c7065723a204554485f5452414e534645525f46414960448201526213115160ea1b60648201526084016111ef565b505050565b6064821115614e405760405162461bcd60e51b81526004016111ef90615b40565b600081118015614e51575060648111155b614e6d5760405162461bcd60e51b81526004016111ef90615b40565b83546001600160f81b036001600160781b03909216600160801b027fff000000000000000000000000000000ffffffffffffffff00000000000000006001600160401b03958616600160401b02166001600160f81b03199092169190911792909316919091179190911716600160f81b179055565b6001840154600285015460009182916001600160801b03600160801b909204821691161115614f3e5760018601546002870154614f32916001600160801b03600160801b90910481169116615deb565b6001600160801b031690505b614f488185615ca4565b6001870154614f60906001600160801b031687615ca4565b1015614fae5760405162461bcd60e51b815260206004820152601c60248201527f5374616b696e674c6962726172793a20496e73756666696369656e740000000060448201526064016111ef565b614fb88185615ca4565b86546001600160801b031610156150115760405162461bcd60e51b815260206004820152601c60248201527f5374616b696e674c6962726172793a20496e73756666696369656e740000000060448201526064016111ef565b600061501d8286615ca4565b6001880154615035906001600160801b031688615ca4565b61503f9190615e13565b6001880180546001600160801b0319166001600160801b03831617905590508115615088576001870180546001600160801b031690556002870180546001600160801b03191690555b60028701805463ffffffff428116600160801b0263ffffffff60801b199092169190911791829055600160e01b9091048116908516146150e2576002870180546001600160e01b0316600160e01b63ffffffff8716021790555b6150ec8286615ca4565b8754889060109061510e908490600160801b90046001600160801b0316615c79565b92506101000a8154816001600160801b0302191690836001600160801b03160217905550818561513e9190615ca4565b875488906000906151599084906001600160801b0316615deb565b92506101000a8154816001600160801b0302191690836001600160801b0316021790555081856151899190615ca4565b979650505050505050565b8054600160f81b900460ff166136e45780546001600160f81b0316600160f81b17815550565b600080546001600160a01b0319166001600160a01b0392909216919091179055565b604080516001600160a01b0385811660248301528481166044830152606480830185905283518084039091018152608490920183526020820180516001600160e01b03166323b872dd60e01b17905291516000928392908816916152409190615b05565b6000604051808303816000865af19150503d806000811461527d576040519150601f19603f3d011682016040523d82523d6000602084013e615282565b606091505b50915091508180156152ac5750805115806152ac5750808060200190518101906152ac91906158f0565b613be75760405162461bcd60e51b8152602060048201526024808201527f5472616e7366657248656c7065723a205452414e534645525f46524f4d5f46416044820152631253115160e21b60648201526084016111ef565b8154819083906000906153219084906001600160801b0316615c79565b82546001600160801b039182166101009390930a92830291909202199091161790555060028201805463ffffffff428116600160801b0263ffffffff60801b1990921691909117808355600160c01b90041690601861537f83615e62565b91906101000a81548163ffffffff021916908363ffffffff160217905550505050565b815460ff600160f81b90910416151581151514613369578154901515600160f81b026001600160f81b03909116179055565b6000811180156153e5575060648111155b6154015760405162461bcd60e51b81526004016111ef90615b40565b81546001600160781b03909116600160801b02600160801b600160f81b0319909116179055565b600081116154785760405162461bcd60e51b815260206004820152601c60248201527f506c616e4c696272617279203a20496e76616c6964207265776172640000000060448201526064016111ef565b81546001600160401b03909116600160401b026fffffffffffffffff000000000000000019909116179055565b60648111156154c65760405162461bcd60e51b81526004016111ef90615b40565b815467ffffffffffffffff19166001600160401b0391909116179055565b80356001600160a01b03811681146154fb57600080fd5b919050565b600082601f83011261551157600080fd5b8135602061552661552183615c56565b615c26565b80838252828201915082860187848660051b890101111561554657600080fd5b60005b8581101561556c5761555a826154e4565b84529284019290840190600101615549565b5090979650505050505050565b600082601f83011261558a57600080fd5b615592615bfe565b8083856080860111156155a457600080fd5b60005b60048110156155d05781356155bb81615ed6565b845260209384019391909101906001016155a7565b509095945050505050565b80356154fb81615ec8565b6000602082840312156155f857600080fd5b611b55826154e4565b6000806040838503121561561457600080fd5b61561d836154e4565b915061562b602084016154e4565b90509250929050565b60008060008060008060008060006101208a8c03121561565357600080fd5b61565c8a6154e4565b985061566a60208b016154e4565b975061567860408b016154e4565b965060608a0135955060808a0135945060a08a0135935060c08a013592506156a260e08b016154e4565b91506156b16101008b016154e4565b90509295985092959850929598565b600080604083850312156156d357600080fd5b6156dc836154e4565b946020939093013593505050565b6000806000606084860312156156ff57600080fd5b615708846154e4565b95602085013595506040909401359392505050565b6000806000806080858703121561573357600080fd5b61573c856154e4565b93506020850135925060408501359150606085013561575a81615ec8565b939692955090935050565b60008060006060848603121561577a57600080fd5b83356001600160401b038082111561579157600080fd5b818601915086601f8301126157a557600080fd5b813560206157b561552183615c56565b8083825282820191508286018b848660051b89010111156157d557600080fd5b600096505b848710156157f85780358352600196909601959183019183016157da565b509750508701359250508082111561580f57600080fd5b5061581c86828701615500565b92505061582b604085016155db565b90509250925092565b6000806000610180848603121561584a57600080fd5b6158548585615579565b925084609f85011261586557600080fd5b61586d615bfe565b806080860161010087018881111561588457600080fd5b6000805b60048110156158b757833561ffff811681146158a2578283fd5b86526020958601959390930192600101615888565b50508295506158c68982615579565b9450505050509250925092565b6000602082840312156158e557600080fd5b8135611b5581615ec8565b60006020828403121561590257600080fd5b8151611b5581615ec8565b60006020828403121561591f57600080fd5b5035919050565b60006020828403121561593857600080fd5b5051919050565b6000806040838503121561595257600080fd5b82359150602083013561596481615ec8565b809150509250929050565b6000806040838503121561598257600080fd5b50508035926020909101359150565b6000806000606084860312156159a657600080fd5b833592506020840135915061582b604085016154e4565b600080600080600060a086880312156159d557600080fd5b85359450602086013593506159ec604087016154e4565b92506159fa606087016154e4565b91506080860135615a0a81615ec8565b809150509295509295909350565b600080600080600080600060e0888a031215615a3357600080fd5b8735965060208801359550615a4a604089016154e4565b9450615a58606089016154e4565b93506080880135925060a0880135915060c0880135615a7681615ec8565b8091505092959891949750929550565b600080600060608486031215615a9b57600080fd5b505081359360208301359350604090920135919050565b60008060008060808587031215615ac857600080fd5b843593506020850135925060408501359150606085013561575a81615ec8565b600060208284031215615afa57600080fd5b8151611b5581615ed6565b6000825160005b81811015615b265760208186018101518583015201615b0c565b81811115615b35576000828501525b509190910192915050565b602080825260159082015274141b185b931a589c985c9e480e88125b9d985b1a59605a1b604082015260600190565b60208082526018908201527f437573746f6d4f776e61626c653a20464f5242494444454e0000000000000000604082015260600190565b602080825260079082015266125b9d985b1a5960ca1b604082015260600190565b6020808252601f908201527f5265656e7472616e637947756172643a207265656e7472616e742063616c6c00604082015260600190565b604051608081016001600160401b0381118282101715615c2057615c20615eb2565b60405290565b604051601f8201601f191681016001600160401b0381118282101715615c4e57615c4e615eb2565b604052919050565b60006001600160401b03821115615c6f57615c6f615eb2565b5060051b60200190565b60006001600160801b03808316818516808303821115615c9b57615c9b615e86565b01949350505050565b60008219821115615cb757615cb7615e86565b500190565b600082615cd957634e487b7160e01b600052601260045260246000fd5b500490565b600181815b80851115615d19578160001904821115615cff57615cff615e86565b80851615615d0c57918102915b93841c9390800290615ce3565b509250929050565b6000611b5560ff841683600082615d3a5750600161350c565b81615d475750600061350c565b8160018114615d5d5760028114615d6757615d83565b600191505061350c565b60ff841115615d7857615d78615e86565b50506001821b61350c565b5060208310610133831016604e8410600b8410161715615da6575081810a61350c565b615db08383615cde565b8060001904821115615dc457615dc4615e86565b029392505050565b6000816000190483118215151615615de657615de6615e86565b500290565b60006001600160801b0383811690831681811015615e0b57615e0b615e86565b039392505050565b600082821015615e2557615e25615e86565b500390565b600063ffffffff83811690831681811015615e0b57615e0b615e86565b6000600019821415615e5b57615e5b615e86565b5060010190565b600063ffffffff80831681811415615e7c57615e7c615e86565b6001019392505050565b634e487b7160e01b600052601160045260246000fd5b634e487b7160e01b600052603260045260246000fd5b634e487b7160e01b600052604160045260246000fd5b80151581146136e457600080fd5b60ff811681146136e457600080fdfea264697066735822122050c09fa73539e6fee3ed49b2b461cfcde04aaa6856e935f388122f927ef7fb2e64736f6c63430008070033",
			"opcodes": "PUSH1 0x80 PUSH1 0x40 MSTORE CALLVALUE DUP1 ISZERO PUSH2 0x10 JUMPI PUSH1 0x0 DUP1 REVERT JUMPDEST POP PUSH1 0x1 DUP1 SSTORE PUSH2 0x5F1B DUP1 PUSH3 0x25 PUSH1 0x0 CODECOPY PUSH1 0x0 RETURN INVALID PUSH1 0x80 PUSH1 0x40 MSTORE PUSH1 0x4 CALLDATASIZE LT PUSH2 0x44B JUMPI PUSH1 0x0 CALLDATALOAD PUSH1 0xE0 SHR DUP1 PUSH4 0x8DA5CB5B GT PUSH2 0x234 JUMPI DUP1 PUSH4 0xB7E1ECED GT PUSH2 0x12E JUMPI DUP1 PUSH4 0xD66E1E19 GT PUSH2 0xB6 JUMPI DUP1 PUSH4 0xEF7DC45C GT PUSH2 0x7A JUMPI DUP1 PUSH4 0xEF7DC45C EQ PUSH2 0x1066 JUMPI DUP1 PUSH4 0xEFD3C892 EQ PUSH2 0x107C JUMPI DUP1 PUSH4 0xF2FDE38B EQ PUSH2 0x109C JUMPI DUP1 PUSH4 0xF3CF4ADA EQ PUSH2 0x10BC JUMPI DUP1 PUSH4 0xFA2A9DA9 EQ PUSH2 0x10DC JUMPI PUSH1 0x0 DUP1 REVERT JUMPDEST DUP1 PUSH4 0xD66E1E19 EQ PUSH2 0xFB8 JUMPI DUP1 PUSH4 0xDBC9A686 EQ PUSH2 0xFF9 JUMPI DUP1 PUSH4 0xDEFA9DF1 EQ PUSH2 0x1013 JUMPI DUP1 PUSH4 0xE081E27C EQ PUSH2 0x1033 JUMPI DUP1 PUSH4 0xE9D0CC32 EQ PUSH2 0x1053 JUMPI PUSH1 0x0 DUP1 REVERT JUMPDEST DUP1 PUSH4 0xC5E9DC6D GT PUSH2 0xFD JUMPI DUP1 PUSH4 0xC5E9DC6D EQ PUSH2 0xEBA JUMPI DUP1 PUSH4 0xCAB11D5D EQ PUSH2 0xEDA JUMPI DUP1 PUSH4 0xCACD0AB9 EQ PUSH2 0xEF0 JUMPI DUP1 PUSH4 0xCD6BCF73 EQ PUSH2 0xF06 JUMPI DUP1 PUSH4 0xCFDA65C3 EQ PUSH2 0xF98 JUMPI PUSH1 0x0 DUP1 REVERT JUMPDEST DUP1 PUSH4 0xB7E1ECED EQ PUSH2 0xE4E JUMPI DUP1 PUSH4 0xBA7B6703 EQ PUSH2 0xE64 JUMPI DUP1 PUSH4 0xBF8F7932 EQ PUSH2 0xE7A JUMPI DUP1 PUSH4 0xC4ADAED1 EQ PUSH2 0xE9A JUMPI PUSH1 0x0 DUP1 REVERT JUMPDEST DUP1 PUSH4 0xA851EC8F GT PUSH2 0x1BC JUMPI DUP1 PUSH4 0xB0879754 GT PUSH2 0x180 JUMPI DUP1 PUSH4 0xB0879754 EQ PUSH2 0xC6C JUMPI DUP1 PUSH4 0xB1620616 EQ PUSH2 0xC8C JUMPI DUP1 PUSH4 0xB4849568 EQ PUSH2 0xD26 JUMPI DUP1 PUSH4 0xB606485D EQ PUSH2 0xE18 JUMPI DUP1 PUSH4 0xB73BF456 EQ PUSH2 0xE2E JUMPI PUSH1 0x0 DUP1 REVERT JUMPDEST DUP1 PUSH4 0xA851EC8F EQ PUSH2 0xBA9 JUMPI DUP1 PUSH4 0xA87430BA EQ PUSH2 0xBBF JUMPI DUP1 PUSH4 0xA89AE4BA EQ PUSH2 0xBEC JUMPI DUP1 PUSH4 0xA9ECD7DA EQ PUSH2 0xC11 JUMPI DUP1 PUSH4 0xAC2CE987 EQ PUSH2 0xC27 JUMPI PUSH1 0x0 DUP1 REVERT JUMPDEST DUP1 PUSH4 0x9BF26320 GT PUSH2 0x203 JUMPI DUP1 PUSH4 0x9BF26320 EQ PUSH2 0xB13 JUMPI DUP1 PUSH4 0xA36A38ED EQ PUSH2 0xB33 JUMPI DUP1 PUSH4 0xA47BD496 EQ PUSH2 0xB49 JUMPI DUP1 PUSH4 0xA6D883D6 EQ PUSH2 0xB69 JUMPI DUP1 PUSH4 0xA7E3F8C3 EQ PUSH2 0xB89 JUMPI PUSH1 0x0 DUP1 REVERT JUMPDEST DUP1 PUSH4 0x8DA5CB5B EQ PUSH2 0xA9F JUMPI DUP1 PUSH4 0x94ADE59B EQ PUSH2 0xABD JUMPI DUP1 PUSH4 0x960BFE04 EQ PUSH2 0xAD3 JUMPI DUP1 PUSH4 0x98F0AF1C EQ PUSH2 0xAF3 JUMPI PUSH1 0x0 DUP1 REVERT JUMPDEST DUP1 PUSH4 0x51CDB77B GT PUSH2 0x345 JUMPI DUP1 PUSH4 0x68283F4D GT PUSH2 0x2CD JUMPI DUP1 PUSH4 0x7DC0D1D0 GT PUSH2 0x291 JUMPI DUP1 PUSH4 0x7DC0D1D0 EQ PUSH2 0x9FC JUMPI DUP1 PUSH4 0x7F0A83AF EQ PUSH2 0xA1C JUMPI DUP1 PUSH4 0x845E96AB EQ PUSH2 0xA49 JUMPI DUP1 PUSH4 0x8719E8AC EQ PUSH2 0xA5F JUMPI DUP1 PUSH4 0x8A3E1CDC EQ PUSH2 0xA7F JUMPI PUSH1 0x0 DUP1 REVERT JUMPDEST DUP1 PUSH4 0x68283F4D EQ PUSH2 0x931 JUMPI DUP1 PUSH4 0x6B899842 EQ PUSH2 0x946 JUMPI DUP1 PUSH4 0x6D03C394 EQ PUSH2 0x981 JUMPI DUP1 PUSH4 0x7547C7A3 EQ PUSH2 0x9A1 JUMPI DUP1 PUSH4 0x79EE54F7 EQ PUSH2 0x9C1 JUMPI PUSH1 0x0 DUP1 REVERT JUMPDEST DUP1 PUSH4 0x5EC9ADAE GT PUSH2 0x314 JUMPI DUP1 PUSH4 0x5EC9ADAE EQ PUSH2 0x8A5 JUMPI DUP1 PUSH4 0x5FD61965 EQ PUSH2 0x8BB JUMPI DUP1 PUSH4 0x608E4DD0 EQ PUSH2 0x8DB JUMPI DUP1 PUSH4 0x61A52A36 EQ PUSH2 0x8FB JUMPI DUP1 PUSH4 0x61B71BAE EQ PUSH2 0x911 JUMPI PUSH1 0x0 DUP1 REVERT JUMPDEST DUP1 PUSH4 0x51CDB77B EQ PUSH2 0x6D6 JUMPI DUP1 PUSH4 0x5281D8F0 EQ PUSH2 0x70E JUMPI DUP1 PUSH4 0x584B62A1 EQ PUSH2 0x801 JUMPI DUP1 PUSH4 0x5D80CA32 EQ PUSH2 0x88F JUMPI PUSH1 0x0 DUP1 REVERT JUMPDEST DUP1 PUSH4 0x372500AB GT PUSH2 0x3D3 JUMPI DUP1 PUSH4 0x409F8E84 GT PUSH2 0x397 JUMPI DUP1 PUSH4 0x409F8E84 EQ PUSH2 0x657 JUMPI DUP1 PUSH4 0x41BF18E2 EQ PUSH2 0x66D JUMPI DUP1 PUSH4 0x42885F8C EQ PUSH2 0x680 JUMPI DUP1 PUSH4 0x42CDE4E8 EQ PUSH2 0x6A0 JUMPI DUP1 PUSH4 0x4A2E7C5B EQ PUSH2 0x6B6 JUMPI PUSH1 0x0 DUP1 REVERT JUMPDEST DUP1 PUSH4 0x372500AB EQ PUSH2 0x5BC JUMPI DUP1 PUSH4 0x39115784 EQ PUSH2 0x5D1 JUMPI DUP1 PUSH4 0x3A2B17E2 EQ PUSH2 0x5E7 JUMPI DUP1 PUSH4 0x3BDB36D1 EQ PUSH2 0x617 JUMPI DUP1 PUSH4 0x4020249C EQ PUSH2 0x637 JUMPI PUSH1 0x0 DUP1 REVERT JUMPDEST DUP1 PUSH4 0x21590576 GT PUSH2 0x41A JUMPI DUP1 PUSH4 0x21590576 EQ PUSH2 0x4F9 JUMPI DUP1 PUSH4 0x24118875 EQ PUSH2 0x50F JUMPI DUP1 PUSH4 0x24AC09C3 EQ PUSH2 0x544 JUMPI DUP1 PUSH4 0x2E60130A EQ PUSH2 0x564 JUMPI DUP1 PUSH4 0x2F48AB7D EQ PUSH2 0x584 JUMPI PUSH1 0x0 DUP1 REVERT JUMPDEST DUP1 PUSH4 0xFFB231D EQ PUSH2 0x457 JUMPI DUP1 PUSH4 0x1AAC030C EQ PUSH2 0x497 JUMPI DUP1 PUSH4 0x1C010B51 EQ PUSH2 0x4B9 JUMPI DUP1 PUSH4 0x1CB44DFC EQ PUSH2 0x4D9 JUMPI PUSH1 0x0 DUP1 REVERT JUMPDEST CALLDATASIZE PUSH2 0x452 JUMPI STOP JUMPDEST PUSH1 0x0 DUP1 REVERT JUMPDEST CALLVALUE DUP1 ISZERO PUSH2 0x463 JUMPI PUSH1 0x0 DUP1 REVERT JUMPDEST POP PUSH2 0x484 PUSH2 0x472 CALLDATASIZE PUSH1 0x4 PUSH2 0x590D JUMP JUMPDEST PUSH1 0x26 PUSH1 0x20 MSTORE PUSH1 0x0 SWAP1 DUP2 MSTORE PUSH1 0x40 SWAP1 KECCAK256 SLOAD DUP2 JUMP JUMPDEST PUSH1 0x40 MLOAD SWAP1 DUP2 MSTORE PUSH1 0x20 ADD JUMPDEST PUSH1 0x40 MLOAD DUP1 SWAP2 SUB SWAP1 RETURN JUMPDEST CALLVALUE DUP1 ISZERO PUSH2 0x4A3 JUMPI PUSH1 0x0 DUP1 REVERT JUMPDEST POP PUSH2 0x4B7 PUSH2 0x4B2 CALLDATASIZE PUSH1 0x4 PUSH2 0x590D JUMP JUMPDEST PUSH2 0x11C5 JUMP JUMPDEST STOP JUMPDEST CALLVALUE DUP1 ISZERO PUSH2 0x4C5 JUMPI PUSH1 0x0 DUP1 REVERT JUMPDEST POP PUSH2 0x4B7 PUSH2 0x4D4 CALLDATASIZE PUSH1 0x4 PUSH2 0x590D JUMP JUMPDEST PUSH2 0x11FD JUMP JUMPDEST CALLVALUE DUP1 ISZERO PUSH2 0x4E5 JUMPI PUSH1 0x0 DUP1 REVERT JUMPDEST POP PUSH2 0x4B7 PUSH2 0x4F4 CALLDATASIZE PUSH1 0x4 PUSH2 0x55E6 JUMP JUMPDEST PUSH2 0x124E JUMP JUMPDEST CALLVALUE DUP1 ISZERO PUSH2 0x505 JUMPI PUSH1 0x0 DUP1 REVERT JUMPDEST POP PUSH2 0x484 PUSH1 0xB SLOAD DUP2 JUMP JUMPDEST CALLVALUE DUP1 ISZERO PUSH2 0x51B JUMPI PUSH1 0x0 DUP1 REVERT JUMPDEST POP PUSH2 0x52F PUSH2 0x52A CALLDATASIZE PUSH1 0x4 PUSH2 0x55E6 JUMP JUMPDEST PUSH2 0x12AD JUMP JUMPDEST PUSH1 0x40 DUP1 MLOAD SWAP3 DUP4 MSTORE PUSH1 0x20 DUP4 ADD SWAP2 SWAP1 SWAP2 MSTORE ADD PUSH2 0x48E JUMP JUMPDEST CALLVALUE DUP1 ISZERO PUSH2 0x550 JUMPI PUSH1 0x0 DUP1 REVERT JUMPDEST POP PUSH2 0x4B7 PUSH2 0x55F CALLDATASIZE PUSH1 0x4 PUSH2 0x590D JUMP JUMPDEST PUSH2 0x1389 JUMP JUMPDEST CALLVALUE DUP1 ISZERO PUSH2 0x570 JUMPI PUSH1 0x0 DUP1 REVERT JUMPDEST POP PUSH2 0x4B7 PUSH2 0x57F CALLDATASIZE PUSH1 0x4 PUSH2 0x5765 JUMP JUMPDEST PUSH2 0x13B8 JUMP JUMPDEST CALLVALUE DUP1 ISZERO PUSH2 0x590 JUMPI PUSH1 0x0 DUP1 REVERT JUMPDEST POP PUSH1 0x19 SLOAD PUSH2 0x5A4 SWAP1 PUSH1 0x1 PUSH1 0x1 PUSH1 0xA0 SHL SUB AND DUP2 JUMP JUMPDEST PUSH1 0x40 MLOAD PUSH1 0x1 PUSH1 0x1 PUSH1 0xA0 SHL SUB SWAP1 SWAP2 AND DUP2 MSTORE PUSH1 0x20 ADD PUSH2 0x48E JUMP JUMPDEST CALLVALUE DUP1 ISZERO PUSH2 0x5C8 JUMPI PUSH1 0x0 DUP1 REVERT JUMPDEST POP PUSH2 0x4B7 PUSH2 0x1A15 JUMP JUMPDEST CALLVALUE DUP1 ISZERO PUSH2 0x5DD JUMPI PUSH1 0x0 DUP1 REVERT JUMPDEST POP PUSH2 0x484 PUSH1 0x4 SLOAD DUP2 JUMP JUMPDEST CALLVALUE DUP1 ISZERO PUSH2 0x5F3 JUMPI PUSH1 0x0 DUP1 REVERT JUMPDEST POP PUSH2 0x607 PUSH2 0x602 CALLDATASIZE PUSH1 0x4 PUSH2 0x56EA JUMP JUMPDEST PUSH2 0x1B25 JUMP JUMPDEST PUSH1 0x40 MLOAD SWAP1 ISZERO ISZERO DUP2 MSTORE PUSH1 0x20 ADD PUSH2 0x48E JUMP JUMPDEST CALLVALUE DUP1 ISZERO PUSH2 0x623 JUMPI PUSH1 0x0 DUP1 REVERT JUMPDEST POP PUSH2 0x484 PUSH2 0x632 CALLDATASIZE PUSH1 0x4 PUSH2 0x55E6 JUMP JUMPDEST PUSH2 0x1B5C JUMP JUMPDEST CALLVALUE DUP1 ISZERO PUSH2 0x643 JUMPI PUSH1 0x0 DUP1 REVERT JUMPDEST POP PUSH2 0x4B7 PUSH2 0x652 CALLDATASIZE PUSH1 0x4 PUSH2 0x590D JUMP JUMPDEST PUSH2 0x1E61 JUMP JUMPDEST CALLVALUE DUP1 ISZERO PUSH2 0x663 JUMPI PUSH1 0x0 DUP1 REVERT JUMPDEST POP PUSH2 0x484 PUSH1 0x7 SLOAD DUP2 JUMP JUMPDEST PUSH2 0x4B7 PUSH2 0x67B CALLDATASIZE PUSH1 0x4 PUSH2 0x59BD JUMP JUMPDEST PUSH2 0x1EB2 JUMP JUMPDEST CALLVALUE DUP1 ISZERO PUSH2 0x68C JUMPI PUSH1 0x0 DUP1 REVERT JUMPDEST POP PUSH2 0x4B7 PUSH2 0x69B CALLDATASIZE PUSH1 0x4 PUSH2 0x590D JUMP JUMPDEST PUSH2 0x2087 JUMP JUMPDEST CALLVALUE DUP1 ISZERO PUSH2 0x6AC JUMPI PUSH1 0x0 DUP1 REVERT JUMPDEST POP PUSH2 0x484 PUSH1 0x13 SLOAD DUP2 JUMP JUMPDEST CALLVALUE DUP1 ISZERO PUSH2 0x6C2 JUMPI PUSH1 0x0 DUP1 REVERT JUMPDEST POP PUSH2 0x4B7 PUSH2 0x6D1 CALLDATASIZE PUSH1 0x4 PUSH2 0x5834 JUMP JUMPDEST PUSH2 0x237B JUMP JUMPDEST CALLVALUE DUP1 ISZERO PUSH2 0x6E2 JUMPI PUSH1 0x0 DUP1 REVERT JUMPDEST POP PUSH2 0x484 PUSH2 0x6F1 CALLDATASIZE PUSH1 0x4 PUSH2 0x596F JUMP JUMPDEST PUSH1 0x27 PUSH1 0x20 SWAP1 DUP2 MSTORE PUSH1 0x0 SWAP3 DUP4 MSTORE PUSH1 0x40 DUP1 DUP5 KECCAK256 SWAP1 SWAP2 MSTORE SWAP1 DUP3 MSTORE SWAP1 KECCAK256 SLOAD DUP2 JUMP JUMPDEST CALLVALUE DUP1 ISZERO PUSH2 0x71A JUMPI PUSH1 0x0 DUP1 REVERT JUMPDEST POP PUSH2 0x7A1 PUSH2 0x729 CALLDATASIZE PUSH1 0x4 PUSH2 0x56C0 JUMP JUMPDEST PUSH1 0x23 PUSH1 0x20 SWAP1 DUP2 MSTORE PUSH1 0x0 SWAP3 DUP4 MSTORE PUSH1 0x40 DUP1 DUP5 KECCAK256 SWAP1 SWAP2 MSTORE SWAP1 DUP3 MSTORE SWAP1 KECCAK256 SLOAD PUSH1 0x1 PUSH1 0x1 PUSH1 0x40 SHL SUB DUP2 AND SWAP1 PUSH4 0xFFFFFFFF PUSH1 0x1 PUSH1 0x40 SHL DUP3 DIV DUP2 AND SWAP2 PUSH1 0x1 PUSH1 0x60 SHL DUP2 DIV DUP3 AND SWAP2 PUSH6 0xFFFFFFFFFFFF PUSH1 0x1 PUSH1 0x80 SHL DUP4 DIV AND SWAP2 PUSH1 0x1 PUSH1 0xB0 SHL DUP2 DIV DUP3 AND SWAP2 PUSH1 0x1 PUSH1 0xD0 SHL DUP3 DIV AND SWAP1 PUSH1 0xFF PUSH1 0x1 PUSH1 0xF0 SHL DUP3 DIV DUP2 AND SWAP2 PUSH1 0x1 PUSH1 0xF8 SHL SWAP1 DIV AND DUP9 JUMP JUMPDEST PUSH1 0x40 DUP1 MLOAD PUSH1 0x1 PUSH1 0x1 PUSH1 0x40 SHL SUB SWAP1 SWAP10 AND DUP10 MSTORE PUSH4 0xFFFFFFFF SWAP8 DUP9 AND PUSH1 0x20 DUP11 ADD MSTORE SWAP6 DUP8 AND SWAP6 DUP9 ADD SWAP6 SWAP1 SWAP6 MSTORE PUSH6 0xFFFFFFFFFFFF SWAP1 SWAP4 AND PUSH1 0x60 DUP8 ADD MSTORE SWAP1 DUP5 AND PUSH1 0x80 DUP7 ADD MSTORE SWAP3 SWAP1 SWAP3 AND PUSH1 0xA0 DUP5 ADD MSTORE SWAP1 ISZERO ISZERO PUSH1 0xC0 DUP4 ADD MSTORE ISZERO ISZERO PUSH1 0xE0 DUP3 ADD MSTORE PUSH2 0x100 ADD PUSH2 0x48E JUMP JUMPDEST CALLVALUE DUP1 ISZERO PUSH2 0x80D JUMPI PUSH1 0x0 DUP1 REVERT JUMPDEST POP PUSH2 0x860 PUSH2 0x81C CALLDATASIZE PUSH1 0x4 PUSH2 0x56C0 JUMP JUMPDEST PUSH1 0x1C PUSH1 0x20 SWAP1 DUP2 MSTORE PUSH1 0x0 SWAP3 DUP4 MSTORE PUSH1 0x40 DUP1 DUP5 KECCAK256 SWAP1 SWAP2 MSTORE SWAP1 DUP3 MSTORE SWAP1 KECCAK256 SLOAD PUSH1 0x1 PUSH1 0x1 PUSH1 0x40 SHL SUB DUP1 DUP3 AND SWAP2 PUSH1 0x1 PUSH1 0x40 SHL DUP2 DIV SWAP1 SWAP2 AND SWAP1 PUSH1 0x1 PUSH1 0x80 SHL SWAP1 DIV PUSH1 0x1 PUSH1 0x1 PUSH1 0x80 SHL SUB AND DUP4 JUMP JUMPDEST PUSH1 0x40 DUP1 MLOAD PUSH1 0x1 PUSH1 0x1 PUSH1 0x40 SHL SUB SWAP5 DUP6 AND DUP2 MSTORE SWAP4 SWAP1 SWAP3 AND PUSH1 0x20 DUP5 ADD MSTORE PUSH1 0x1 PUSH1 0x1 PUSH1 0x80 SHL SUB AND SWAP1 DUP3 ADD MSTORE PUSH1 0x60 ADD PUSH2 0x48E JUMP JUMPDEST CALLVALUE DUP1 ISZERO PUSH2 0x89B JUMPI PUSH1 0x0 DUP1 REVERT JUMPDEST POP PUSH2 0x484 PUSH1 0x6 SLOAD DUP2 JUMP JUMPDEST CALLVALUE DUP1 ISZERO PUSH2 0x8B1 JUMPI PUSH1 0x0 DUP1 REVERT JUMPDEST POP PUSH2 0x484 PUSH1 0xD SLOAD DUP2 JUMP JUMPDEST CALLVALUE DUP1 ISZERO PUSH2 0x8C7 JUMPI PUSH1 0x0 DUP1 REVERT JUMPDEST POP PUSH2 0x4B7 PUSH2 0x8D6 CALLDATASIZE PUSH1 0x4 PUSH2 0x55E6 JUMP JUMPDEST PUSH2 0x2443 JUMP JUMPDEST CALLVALUE DUP1 ISZERO PUSH2 0x8E7 JUMPI PUSH1 0x0 DUP1 REVERT JUMPDEST POP PUSH2 0x4B7 PUSH2 0x8F6 CALLDATASIZE PUSH1 0x4 PUSH2 0x590D JUMP JUMPDEST PUSH2 0x24E1 JUMP JUMPDEST CALLVALUE DUP1 ISZERO PUSH2 0x907 JUMPI PUSH1 0x0 DUP1 REVERT JUMPDEST POP PUSH2 0x484 PUSH1 0x2 SLOAD DUP2 JUMP JUMPDEST CALLVALUE DUP1 ISZERO PUSH2 0x91D JUMPI PUSH1 0x0 DUP1 REVERT JUMPDEST POP PUSH2 0x4B7 PUSH2 0x92C CALLDATASIZE PUSH1 0x4 PUSH2 0x590D JUMP JUMPDEST PUSH2 0x2675 JUMP JUMPDEST CALLVALUE DUP1 ISZERO PUSH2 0x93D JUMPI PUSH1 0x0 DUP1 REVERT JUMPDEST POP PUSH2 0x4B7 PUSH2 0x26C6 JUMP JUMPDEST CALLVALUE DUP1 ISZERO PUSH2 0x952 JUMPI PUSH1 0x0 DUP1 REVERT JUMPDEST POP PUSH2 0x607 PUSH2 0x961 CALLDATASIZE PUSH1 0x4 PUSH2 0x5601 JUMP JUMPDEST PUSH1 0x21 PUSH1 0x20 SWAP1 DUP2 MSTORE PUSH1 0x0 SWAP3 DUP4 MSTORE PUSH1 0x40 DUP1 DUP5 KECCAK256 SWAP1 SWAP2 MSTORE SWAP1 DUP3 MSTORE SWAP1 KECCAK256 SLOAD PUSH1 0xFF AND DUP2 JUMP JUMPDEST CALLVALUE DUP1 ISZERO PUSH2 0x98D JUMPI PUSH1 0x0 DUP1 REVERT JUMPDEST POP PUSH2 0x4B7 PUSH2 0x99C CALLDATASIZE PUSH1 0x4 PUSH2 0x5634 JUMP JUMPDEST PUSH2 0x2BE0 JUMP JUMPDEST CALLVALUE DUP1 ISZERO PUSH2 0x9AD JUMPI PUSH1 0x0 DUP1 REVERT JUMPDEST POP PUSH2 0x4B7 PUSH2 0x9BC CALLDATASIZE PUSH1 0x4 PUSH2 0x590D JUMP JUMPDEST PUSH2 0x2F80 JUMP JUMPDEST CALLVALUE DUP1 ISZERO PUSH2 0x9CD JUMPI PUSH1 0x0 DUP1 REVERT JUMPDEST POP PUSH2 0x9E1 PUSH2 0x9DC CALLDATASIZE PUSH1 0x4 PUSH2 0x55E6 JUMP JUMPDEST PUSH2 0x3102 JUMP JUMPDEST PUSH1 0x40 DUP1 MLOAD SWAP4 DUP5 MSTORE PUSH1 0x20 DUP5 ADD SWAP3 SWAP1 SWAP3 MSTORE SWAP1 DUP3 ADD MSTORE PUSH1 0x60 ADD PUSH2 0x48E JUMP JUMPDEST CALLVALUE DUP1 ISZERO PUSH2 0xA08 JUMPI PUSH1 0x0 DUP1 REVERT JUMPDEST POP PUSH1 0x1A SLOAD PUSH2 0x5A4 SWAP1 PUSH1 0x1 PUSH1 0x1 PUSH1 0xA0 SHL SUB AND DUP2 JUMP JUMPDEST CALLVALUE DUP1 ISZERO PUSH2 0xA28 JUMPI PUSH1 0x0 DUP1 REVERT JUMPDEST POP PUSH2 0x484 PUSH2 0xA37 CALLDATASIZE PUSH1 0x4 PUSH2 0x55E6 JUMP JUMPDEST PUSH1 0x1E PUSH1 0x20 MSTORE PUSH1 0x0 SWAP1 DUP2 MSTORE PUSH1 0x40 SWAP1 KECCAK256 SLOAD DUP2 JUMP JUMPDEST CALLVALUE DUP1 ISZERO PUSH2 0xA55 JUMPI PUSH1 0x0 DUP1 REVERT JUMPDEST POP PUSH2 0x484 PUSH1 0x8 SLOAD DUP2 JUMP JUMPDEST CALLVALUE DUP1 ISZERO PUSH2 0xA6B JUMPI PUSH1 0x0 DUP1 REVERT JUMPDEST POP PUSH2 0x4B7 PUSH2 0xA7A CALLDATASIZE PUSH1 0x4 PUSH2 0x593F JUMP JUMPDEST PUSH2 0x3275 JUMP JUMPDEST CALLVALUE DUP1 ISZERO PUSH2 0xA8B JUMPI PUSH1 0x0 DUP1 REVERT JUMPDEST POP PUSH2 0x4B7 PUSH2 0xA9A CALLDATASIZE PUSH1 0x4 PUSH2 0x596F JUMP JUMPDEST PUSH2 0x32E1 JUMP JUMPDEST CALLVALUE DUP1 ISZERO PUSH2 0xAAB JUMPI PUSH1 0x0 DUP1 REVERT JUMPDEST POP PUSH1 0x0 SLOAD PUSH1 0x1 PUSH1 0x1 PUSH1 0xA0 SHL SUB AND PUSH2 0x5A4 JUMP JUMPDEST CALLVALUE DUP1 ISZERO PUSH2 0xAC9 JUMPI PUSH1 0x0 DUP1 REVERT JUMPDEST POP PUSH2 0x484 PUSH1 0x10 SLOAD DUP2 JUMP JUMPDEST CALLVALUE DUP1 ISZERO PUSH2 0xADF JUMPI PUSH1 0x0 DUP1 REVERT JUMPDEST POP PUSH2 0x4B7 PUSH2 0xAEE CALLDATASIZE PUSH1 0x4 PUSH2 0x590D JUMP JUMPDEST PUSH2 0x336D JUMP JUMPDEST CALLVALUE DUP1 ISZERO PUSH2 0xAFF JUMPI PUSH1 0x0 DUP1 REVERT JUMPDEST POP PUSH2 0x484 PUSH2 0xB0E CALLDATASIZE PUSH1 0x4 PUSH2 0x55E6 JUMP JUMPDEST PUSH2 0x33BE JUMP JUMPDEST CALLVALUE DUP1 ISZERO PUSH2 0xB1F JUMPI PUSH1 0x0 DUP1 REVERT JUMPDEST POP PUSH2 0x4B7 PUSH2 0xB2E CALLDATASIZE PUSH1 0x4 PUSH2 0x596F JUMP JUMPDEST PUSH2 0x3512 JUMP JUMPDEST CALLVALUE DUP1 ISZERO PUSH2 0xB3F JUMPI PUSH1 0x0 DUP1 REVERT JUMPDEST POP PUSH2 0x484 PUSH1 0xE SLOAD DUP2 JUMP JUMPDEST CALLVALUE DUP1 ISZERO PUSH2 0xB55 JUMPI PUSH1 0x0 DUP1 REVERT JUMPDEST POP PUSH2 0x4B7 PUSH2 0xB64 CALLDATASIZE PUSH1 0x4 PUSH2 0x596F JUMP JUMPDEST PUSH2 0x3578 JUMP JUMPDEST CALLVALUE DUP1 ISZERO PUSH2 0xB75 JUMPI PUSH1 0x0 DUP1 REVERT JUMPDEST POP PUSH2 0x4B7 PUSH2 0xB84 CALLDATASIZE PUSH1 0x4 PUSH2 0x590D JUMP JUMPDEST PUSH2 0x35DE JUMP JUMPDEST CALLVALUE DUP1 ISZERO PUSH2 0xB95 JUMPI PUSH1 0x0 DUP1 REVERT JUMPDEST POP PUSH1 0x16 SLOAD PUSH2 0x5A4 SWAP1 PUSH1 0x1 PUSH1 0x1 PUSH1 0xA0 SHL SUB AND DUP2 JUMP JUMPDEST CALLVALUE DUP1 ISZERO PUSH2 0xBB5 JUMPI PUSH1 0x0 DUP1 REVERT JUMPDEST POP PUSH2 0x484 PUSH1 0xF SLOAD DUP2 JUMP JUMPDEST CALLVALUE DUP1 ISZERO PUSH2 0xBCB JUMPI PUSH1 0x0 DUP1 REVERT JUMPDEST POP PUSH2 0x484 PUSH2 0xBDA CALLDATASIZE PUSH1 0x4 PUSH2 0x55E6 JUMP JUMPDEST PUSH1 0x1B PUSH1 0x20 MSTORE PUSH1 0x0 SWAP1 DUP2 MSTORE PUSH1 0x40 SWAP1 KECCAK256 SLOAD DUP2 JUMP JUMPDEST CALLVALUE DUP1 ISZERO PUSH2 0xBF8 JUMPI PUSH1 0x0 DUP1 REVERT JUMPDEST POP PUSH1 0x15 SLOAD PUSH2 0x5A4 SWAP1 PUSH2 0x100 SWAP1 DIV PUSH1 0x1 PUSH1 0x1 PUSH1 0xA0 SHL SUB AND DUP2 JUMP JUMPDEST CALLVALUE DUP1 ISZERO PUSH2 0xC1D JUMPI PUSH1 0x0 DUP1 REVERT JUMPDEST POP PUSH2 0x484 PUSH1 0xA SLOAD DUP2 JUMP JUMPDEST CALLVALUE DUP1 ISZERO PUSH2 0xC33 JUMPI PUSH1 0x0 DUP1 REVERT JUMPDEST POP PUSH2 0x5A4 PUSH2 0xC42 CALLDATASIZE PUSH1 0x4 PUSH2 0x5A86 JUMP JUMPDEST PUSH1 0x20 DUP1 DUP1 MSTORE PUSH1 0x0 SWAP4 DUP5 MSTORE PUSH1 0x40 DUP1 DUP6 KECCAK256 DUP3 MSTORE SWAP3 DUP5 MSTORE DUP3 DUP5 KECCAK256 SWAP1 MSTORE DUP3 MSTORE SWAP1 KECCAK256 SLOAD PUSH1 0x1 PUSH1 0x1 PUSH1 0xA0 SHL SUB AND DUP2 JUMP JUMPDEST CALLVALUE DUP1 ISZERO PUSH2 0xC78 JUMPI PUSH1 0x0 DUP1 REVERT JUMPDEST POP PUSH2 0x4B7 PUSH2 0xC87 CALLDATASIZE PUSH1 0x4 PUSH2 0x590D JUMP JUMPDEST PUSH2 0x361B JUMP JUMPDEST CALLVALUE DUP1 ISZERO PUSH2 0xC98 JUMPI PUSH1 0x0 DUP1 REVERT JUMPDEST POP PUSH2 0xCEB PUSH2 0xCA7 CALLDATASIZE PUSH1 0x4 PUSH2 0x590D JUMP JUMPDEST PUSH1 0x25 PUSH1 0x20 MSTORE PUSH1 0x0 SWAP1 DUP2 MSTORE PUSH1 0x40 SWAP1 KECCAK256 SLOAD PUSH1 0x1 PUSH1 0x1 PUSH1 0x40 SHL SUB DUP1 DUP3 AND SWAP2 PUSH1 0x1 PUSH1 0x40 SHL DUP2 DIV SWAP1 SWAP2 AND SWAP1 PUSH1 0x1 PUSH1 0x80 SHL DUP2 DIV PUSH1 0x1 PUSH1 0x1 PUSH1 0x78 SHL SUB AND SWAP1 PUSH1 0x1 PUSH1 0xF8 SHL SWAP1 DIV PUSH1 0xFF AND DUP5 JUMP JUMPDEST PUSH1 0x40 DUP1 MLOAD PUSH1 0x1 PUSH1 0x1 PUSH1 0x40 SHL SUB SWAP6 DUP7 AND DUP2 MSTORE SWAP5 SWAP1 SWAP4 AND PUSH1 0x20 DUP6 ADD MSTORE PUSH1 0x1 PUSH1 0x1 PUSH1 0x78 SHL SUB SWAP1 SWAP2 AND SWAP2 DUP4 ADD SWAP2 SWAP1 SWAP2 MSTORE ISZERO ISZERO PUSH1 0x60 DUP3 ADD MSTORE PUSH1 0x80 ADD PUSH2 0x48E JUMP JUMPDEST CALLVALUE DUP1 ISZERO PUSH2 0xD32 JUMPI PUSH1 0x0 DUP1 REVERT JUMPDEST POP PUSH2 0xDB9 PUSH2 0xD41 CALLDATASIZE PUSH1 0x4 PUSH2 0x56C0 JUMP JUMPDEST PUSH1 0x22 PUSH1 0x20 SWAP1 DUP2 MSTORE PUSH1 0x0 SWAP3 DUP4 MSTORE PUSH1 0x40 DUP1 DUP5 KECCAK256 SWAP1 SWAP2 MSTORE SWAP1 DUP3 MSTORE SWAP1 KECCAK256 DUP1 SLOAD PUSH1 0x1 DUP3 ADD SLOAD PUSH1 0x2 DUP4 ADD SLOAD PUSH1 0x3 SWAP1 SWAP4 ADD SLOAD PUSH1 0x1 PUSH1 0x1 PUSH1 0x80 SHL SUB DUP4 AND SWAP4 PUSH1 0x1 PUSH1 0x80 SHL DUP5 DIV PUSH1 0x1 PUSH1 0x1 PUSH1 0x78 SHL SUB AND SWAP4 PUSH1 0x1 PUSH1 0xF8 SHL SWAP1 DIV PUSH1 0xFF AND SWAP3 PUSH1 0x1 PUSH1 0x1 PUSH1 0x60 SHL SUB DUP1 DUP3 AND SWAP4 PUSH1 0x1 PUSH1 0x60 SHL SWAP1 SWAP3 DIV AND SWAP2 PUSH1 0x1 PUSH1 0x1 PUSH1 0xA0 SHL SUB SWAP1 DUP2 AND SWAP2 AND DUP8 JUMP JUMPDEST PUSH1 0x40 DUP1 MLOAD PUSH1 0x1 PUSH1 0x1 PUSH1 0x80 SHL SUB SWAP1 SWAP9 AND DUP9 MSTORE PUSH1 0x1 PUSH1 0x1 PUSH1 0x78 SHL SUB SWAP1 SWAP7 AND PUSH1 0x20 DUP9 ADD MSTORE SWAP4 ISZERO ISZERO SWAP5 DUP7 ADD SWAP5 SWAP1 SWAP5 MSTORE PUSH1 0x1 PUSH1 0x1 PUSH1 0x60 SHL SUB SWAP2 DUP3 AND PUSH1 0x60 DUP7 ADD MSTORE AND PUSH1 0x80 DUP5 ADD MSTORE PUSH1 0x1 PUSH1 0x1 PUSH1 0xA0 SHL SUB SWAP2 DUP3 AND PUSH1 0xA0 DUP5 ADD MSTORE AND PUSH1 0xC0 DUP3 ADD MSTORE PUSH1 0xE0 ADD PUSH2 0x48E JUMP JUMPDEST CALLVALUE DUP1 ISZERO PUSH2 0xE24 JUMPI PUSH1 0x0 DUP1 REVERT JUMPDEST POP PUSH2 0x484 PUSH1 0x14 SLOAD DUP2 JUMP JUMPDEST CALLVALUE DUP1 ISZERO PUSH2 0xE3A JUMPI PUSH1 0x0 DUP1 REVERT JUMPDEST POP PUSH2 0x4B7 PUSH2 0xE49 CALLDATASIZE PUSH1 0x4 PUSH2 0x590D JUMP JUMPDEST PUSH2 0x366C JUMP JUMPDEST CALLVALUE DUP1 ISZERO PUSH2 0xE5A JUMPI PUSH1 0x0 DUP1 REVERT JUMPDEST POP PUSH2 0x484 PUSH1 0x12 SLOAD DUP2 JUMP JUMPDEST CALLVALUE DUP1 ISZERO PUSH2 0xE70 JUMPI PUSH1 0x0 DUP1 REVERT JUMPDEST POP PUSH2 0x484 PUSH1 0x11 SLOAD DUP2 JUMP JUMPDEST CALLVALUE DUP1 ISZERO PUSH2 0xE86 JUMPI PUSH1 0x0 DUP1 REVERT JUMPDEST POP PUSH2 0x4B7 PUSH2 0xE95 CALLDATASIZE PUSH1 0x4 PUSH2 0x58D3 JUMP JUMPDEST PUSH2 0x369B JUMP JUMPDEST CALLVALUE DUP1 ISZERO PUSH2 0xEA6 JUMPI PUSH1 0x0 DUP1 REVERT JUMPDEST POP PUSH2 0x4B7 PUSH2 0xEB5 CALLDATASIZE PUSH1 0x4 PUSH2 0x596F JUMP JUMPDEST PUSH2 0x36E7 JUMP JUMPDEST CALLVALUE DUP1 ISZERO PUSH2 0xEC6 JUMPI PUSH1 0x0 DUP1 REVERT JUMPDEST POP PUSH2 0x4B7 PUSH2 0xED5 CALLDATASIZE PUSH1 0x4 PUSH2 0x5AB2 JUMP JUMPDEST PUSH2 0x374D JUMP JUMPDEST CALLVALUE DUP1 ISZERO PUSH2 0xEE6 JUMPI PUSH1 0x0 DUP1 REVERT JUMPDEST POP PUSH2 0x484 PUSH1 0x9 SLOAD DUP2 JUMP JUMPDEST CALLVALUE DUP1 ISZERO PUSH2 0xEFC JUMPI PUSH1 0x0 DUP1 REVERT JUMPDEST POP PUSH2 0x484 PUSH1 0x5 SLOAD DUP2 JUMP JUMPDEST CALLVALUE DUP1 ISZERO PUSH2 0xF12 JUMPI PUSH1 0x0 DUP1 REVERT JUMPDEST POP PUSH2 0xF61 PUSH2 0xF21 CALLDATASIZE PUSH1 0x4 PUSH2 0x590D JUMP JUMPDEST PUSH1 0x24 PUSH1 0x20 MSTORE PUSH1 0x0 SWAP1 DUP2 MSTORE PUSH1 0x40 SWAP1 KECCAK256 SLOAD PUSH1 0x1 PUSH1 0x1 PUSH1 0x60 SHL SUB DUP1 DUP3 AND SWAP2 PUSH1 0x1 PUSH1 0x60 SHL DUP2 DIV SWAP1 SWAP2 AND SWAP1 PUSH4 0xFFFFFFFF PUSH1 0x1 PUSH1 0xC0 SHL DUP3 DIV DUP2 AND SWAP2 PUSH1 0x1 PUSH1 0xE0 SHL SWAP1 DIV AND DUP5 JUMP JUMPDEST PUSH1 0x40 DUP1 MLOAD PUSH1 0x1 PUSH1 0x1 PUSH1 0x60 SHL SUB SWAP6 DUP7 AND DUP2 MSTORE SWAP5 SWAP1 SWAP4 AND PUSH1 0x20 DUP6 ADD MSTORE PUSH4 0xFFFFFFFF SWAP2 DUP3 AND SWAP3 DUP5 ADD SWAP3 SWAP1 SWAP3 MSTORE AND PUSH1 0x60 DUP3 ADD MSTORE PUSH1 0x80 ADD PUSH2 0x48E JUMP JUMPDEST CALLVALUE DUP1 ISZERO PUSH2 0xFA4 JUMPI PUSH1 0x0 DUP1 REVERT JUMPDEST POP PUSH2 0x4B7 PUSH2 0xFB3 CALLDATASIZE PUSH1 0x4 PUSH2 0x55E6 JUMP JUMPDEST PUSH2 0x37CD JUMP JUMPDEST CALLVALUE DUP1 ISZERO PUSH2 0xFC4 JUMPI PUSH1 0x0 DUP1 REVERT JUMPDEST POP PUSH2 0x607 PUSH2 0xFD3 CALLDATASIZE PUSH1 0x4 PUSH2 0x56EA JUMP JUMPDEST PUSH1 0x1F PUSH1 0x20 SWAP1 DUP2 MSTORE PUSH1 0x0 SWAP4 DUP5 MSTORE PUSH1 0x40 DUP1 DUP6 KECCAK256 DUP3 MSTORE SWAP3 DUP5 MSTORE DUP3 DUP5 KECCAK256 SWAP1 MSTORE DUP3 MSTORE SWAP1 KECCAK256 SLOAD PUSH1 0xFF AND DUP2 JUMP JUMPDEST CALLVALUE DUP1 ISZERO PUSH2 0x1005 JUMPI PUSH1 0x0 DUP1 REVERT JUMPDEST POP PUSH1 0x15 SLOAD PUSH2 0x607 SWAP1 PUSH1 0xFF AND DUP2 JUMP JUMPDEST CALLVALUE DUP1 ISZERO PUSH2 0x101F JUMPI PUSH1 0x0 DUP1 REVERT JUMPDEST POP PUSH2 0x4B7 PUSH2 0x102E CALLDATASIZE PUSH1 0x4 PUSH2 0x5991 JUMP JUMPDEST PUSH2 0x382C JUMP JUMPDEST CALLVALUE DUP1 ISZERO PUSH2 0x103F JUMPI PUSH1 0x0 DUP1 REVERT JUMPDEST POP PUSH2 0x4B7 PUSH2 0x104E CALLDATASIZE PUSH1 0x4 PUSH2 0x571D JUMP JUMPDEST PUSH2 0x3A83 JUMP JUMPDEST PUSH2 0x4B7 PUSH2 0x1061 CALLDATASIZE PUSH1 0x4 PUSH2 0x5A18 JUMP JUMPDEST PUSH2 0x3BEF JUMP JUMPDEST CALLVALUE DUP1 ISZERO PUSH2 0x1072 JUMPI PUSH1 0x0 DUP1 REVERT JUMPDEST POP PUSH2 0x484 PUSH1 0xC SLOAD DUP2 JUMP JUMPDEST CALLVALUE DUP1 ISZERO PUSH2 0x1088 JUMPI PUSH1 0x0 DUP1 REVERT JUMPDEST POP PUSH1 0x17 SLOAD PUSH2 0x5A4 SWAP1 PUSH1 0x1 PUSH1 0x1 PUSH1 0xA0 SHL SUB AND DUP2 JUMP JUMPDEST CALLVALUE DUP1 ISZERO PUSH2 0x10A8 JUMPI PUSH1 0x0 DUP1 REVERT JUMPDEST POP PUSH2 0x4B7 PUSH2 0x10B7 CALLDATASIZE PUSH1 0x4 PUSH2 0x55E6 JUMP JUMPDEST PUSH2 0x3DE2 JUMP JUMPDEST CALLVALUE DUP1 ISZERO PUSH2 0x10C8 JUMPI PUSH1 0x0 DUP1 REVERT JUMPDEST POP PUSH2 0x4B7 PUSH2 0x10D7 CALLDATASIZE PUSH1 0x4 PUSH2 0x5A86 JUMP JUMPDEST PUSH2 0x3E90 JUMP JUMPDEST CALLVALUE DUP1 ISZERO PUSH2 0x10E8 JUMPI PUSH1 0x0 DUP1 REVERT JUMPDEST POP PUSH2 0x1163 PUSH2 0x10F7 CALLDATASIZE PUSH1 0x4 PUSH2 0x55E6 JUMP JUMPDEST PUSH1 0x1D PUSH1 0x20 MSTORE PUSH1 0x0 SWAP1 DUP2 MSTORE PUSH1 0x40 SWAP1 KECCAK256 DUP1 SLOAD PUSH1 0x1 DUP3 ADD SLOAD PUSH1 0x2 SWAP1 SWAP3 ADD SLOAD PUSH1 0x1 PUSH1 0x1 PUSH1 0x80 SHL SUB DUP1 DUP4 AND SWAP4 PUSH1 0x1 PUSH1 0x80 SHL SWAP4 DUP5 SWAP1 DIV DUP3 AND SWAP4 DUP2 DUP4 AND SWAP4 SWAP2 DUP2 SWAP1 DIV DUP4 AND SWAP3 DUP3 AND SWAP2 PUSH4 0xFFFFFFFF SWAP2 DUP2 DIV DUP3 AND SWAP2 PUSH1 0x1 PUSH1 0xA0 SHL DUP3 DIV DUP2 AND SWAP2 PUSH1 0x1 PUSH1 0xC0 SHL DUP2 DIV DUP3 AND SWAP2 PUSH1 0x1 PUSH1 0xE0 SHL SWAP1 SWAP2 DIV AND DUP10 JUMP JUMPDEST PUSH1 0x40 DUP1 MLOAD PUSH1 0x1 PUSH1 0x1 PUSH1 0x80 SHL SUB SWAP11 DUP12 AND DUP2 MSTORE SWAP9 DUP11 AND PUSH1 0x20 DUP11 ADD MSTORE SWAP7 DUP10 AND SWAP7 DUP9 ADD SWAP7 SWAP1 SWAP7 MSTORE SWAP4 DUP8 AND PUSH1 0x60 DUP8 ADD MSTORE SWAP2 SWAP1 SWAP6 AND PUSH1 0x80 DUP6 ADD MSTORE PUSH4 0xFFFFFFFF SWAP5 DUP6 AND PUSH1 0xA0 DUP6 ADD MSTORE DUP5 AND PUSH1 0xC0 DUP5 ADD MSTORE DUP4 AND PUSH1 0xE0 DUP4 ADD MSTORE SWAP2 SWAP1 SWAP2 AND PUSH2 0x100 DUP3 ADD MSTORE PUSH2 0x120 ADD PUSH2 0x48E JUMP JUMPDEST PUSH1 0x0 SLOAD PUSH1 0x1 PUSH1 0x1 PUSH1 0xA0 SHL SUB AND CALLER EQ PUSH2 0x11F8 JUMPI PUSH1 0x40 MLOAD PUSH3 0x461BCD PUSH1 0xE5 SHL DUP2 MSTORE PUSH1 0x4 ADD PUSH2 0x11EF SWAP1 PUSH2 0x5B6F JUMP JUMPDEST PUSH1 0x40 MLOAD DUP1 SWAP2 SUB SWAP1 REVERT JUMPDEST PUSH1 0x11 SSTORE JUMP JUMPDEST PUSH1 0x0 SLOAD PUSH1 0x1 PUSH1 0x1 PUSH1 0xA0 SHL SUB AND CALLER EQ PUSH2 0x1227 JUMPI PUSH1 0x40 MLOAD PUSH3 0x461BCD PUSH1 0xE5 SHL DUP2 MSTORE PUSH1 0x4 ADD PUSH2 0x11EF SWAP1 PUSH2 0x5B6F JUMP JUMPDEST DUP1 PUSH1 0x0 DUP2 GT PUSH2 0x1248 JUMPI PUSH1 0x40 MLOAD PUSH3 0x461BCD PUSH1 0xE5 SHL DUP2 MSTORE PUSH1 0x4 ADD PUSH2 0x11EF SWAP1 PUSH2 0x5BA6 JUMP JUMPDEST POP PUSH1 0x10 SSTORE JUMP JUMPDEST PUSH1 0x0 SLOAD PUSH1 0x1 PUSH1 0x1 PUSH1 0xA0 SHL SUB AND CALLER EQ PUSH2 0x1278 JUMPI PUSH1 0x40 MLOAD PUSH3 0x461BCD PUSH1 0xE5 SHL DUP2 MSTORE PUSH1 0x4 ADD PUSH2 0x11EF SWAP1 PUSH2 0x5B6F JUMP JUMPDEST PUSH1 0x1 PUSH1 0x1 PUSH1 0xA0 SHL SUB DUP2 AND PUSH2 0x128B JUMPI PUSH1 0x0 DUP1 REVERT JUMPDEST PUSH1 0x1A DUP1 SLOAD PUSH1 0x1 PUSH1 0x1 PUSH1 0xA0 SHL SUB NOT AND PUSH1 0x1 PUSH1 0x1 PUSH1 0xA0 SHL SUB SWAP3 SWAP1 SWAP3 AND SWAP2 SWAP1 SWAP2 OR SWAP1 SSTORE JUMP JUMPDEST PUSH1 0x1 PUSH1 0x1 PUSH1 0xA0 SHL SUB DUP2 AND PUSH1 0x0 SWAP1 DUP2 MSTORE PUSH1 0x1D PUSH1 0x20 MSTORE PUSH1 0x40 DUP2 KECCAK256 PUSH1 0x2 DUP2 ADD SLOAD DUP3 SWAP2 SWAP1 PUSH4 0xFFFFFFFF PUSH1 0x1 PUSH1 0xC0 SHL DUP3 DIV DUP2 AND SWAP2 PUSH1 0x1 PUSH1 0xE0 SHL SWAP1 DIV AND DUP4 DUP2 DUP1 DUP5 LT ISZERO PUSH2 0x1306 JUMPI PUSH1 0x40 MLOAD PUSH3 0x461BCD PUSH1 0xE5 SHL DUP2 MSTORE PUSH1 0x4 ADD PUSH2 0x11EF SWAP1 PUSH2 0x5BA6 JUMP JUMPDEST DUP3 DUP5 GT ISZERO PUSH2 0x137C JUMPI DUP3 JUMPDEST DUP5 DUP2 LT ISZERO PUSH2 0x137A JUMPI PUSH1 0x1 PUSH1 0x1 PUSH1 0xA0 SHL SUB DUP10 AND PUSH1 0x0 SWAP1 DUP2 MSTORE PUSH1 0x1C PUSH1 0x20 SWAP1 DUP2 MSTORE PUSH1 0x40 DUP1 DUP4 KECCAK256 DUP5 DUP5 MSTORE SWAP1 SWAP2 MSTORE SWAP1 KECCAK256 DUP1 SLOAD PUSH2 0x1357 SWAP1 PUSH1 0x1 PUSH1 0x80 SHL SWAP1 DIV PUSH1 0x1 PUSH1 0x1 PUSH1 0x80 SHL SUB AND DUP6 PUSH2 0x5CA4 JUMP JUMPDEST SWAP4 POP PUSH2 0x1364 DUP3 PUSH1 0x1 PUSH2 0x5CA4 JUMP JUMPDEST SWAP3 POP POP DUP1 DUP1 PUSH2 0x1372 SWAP1 PUSH2 0x5E47 JUMP JUMPDEST SWAP2 POP POP PUSH2 0x1310 JUMP JUMPDEST POP JUMPDEST SWAP1 SWAP8 SWAP1 SWAP7 POP SWAP5 POP POP POP POP POP JUMP JUMPDEST PUSH1 0x0 SLOAD PUSH1 0x1 PUSH1 0x1 PUSH1 0xA0 SHL SUB AND CALLER EQ PUSH2 0x13B3 JUMPI PUSH1 0x40 MLOAD PUSH3 0x461BCD PUSH1 0xE5 SHL DUP2 MSTORE PUSH1 0x4 ADD PUSH2 0x11EF SWAP1 PUSH2 0x5B6F JUMP JUMPDEST PUSH1 0x5 SSTORE JUMP JUMPDEST PUSH1 0x0 SLOAD PUSH1 0x1 PUSH1 0x1 PUSH1 0xA0 SHL SUB AND CALLER EQ PUSH2 0x13E2 JUMPI PUSH1 0x40 MLOAD PUSH3 0x461BCD PUSH1 0xE5 SHL DUP2 MSTORE PUSH1 0x4 ADD PUSH2 0x11EF SWAP1 PUSH2 0x5B6F JUMP JUMPDEST PUSH1 0x2 PUSH1 0x1 SLOAD EQ ISZERO PUSH2 0x1405 JUMPI PUSH1 0x40 MLOAD PUSH3 0x461BCD PUSH1 0xE5 SHL DUP2 MSTORE PUSH1 0x4 ADD PUSH2 0x11EF SWAP1 PUSH2 0x5BC7 JUMP JUMPDEST PUSH1 0x2 PUSH1 0x1 SSTORE DUP2 MLOAD DUP4 MLOAD EQ PUSH2 0x144D JUMPI PUSH1 0x40 MLOAD PUSH3 0x461BCD PUSH1 0xE5 SHL DUP2 MSTORE PUSH1 0x20 PUSH1 0x4 DUP3 ADD MSTORE PUSH1 0xF PUSH1 0x24 DUP3 ADD MSTORE PUSH15 0x98CADCCEE8D040DAD2E6DAC2E8C6D PUSH1 0x8B SHL PUSH1 0x44 DUP3 ADD MSTORE PUSH1 0x64 ADD PUSH2 0x11EF JUMP JUMPDEST PUSH1 0x0 JUMPDEST DUP4 MLOAD DUP2 LT ISZERO PUSH2 0x1A0B JUMPI PUSH1 0x1E PUSH1 0x0 DUP5 DUP4 DUP2 MLOAD DUP2 LT PUSH2 0x146F JUMPI PUSH2 0x146F PUSH2 0x5E9C JUMP JUMPDEST PUSH1 0x20 MUL PUSH1 0x20 ADD ADD MLOAD PUSH1 0x1 PUSH1 0x1 PUSH1 0xA0 SHL SUB AND PUSH1 0x1 PUSH1 0x1 PUSH1 0xA0 SHL SUB AND DUP2 MSTORE PUSH1 0x20 ADD SWAP1 DUP2 MSTORE PUSH1 0x20 ADD PUSH1 0x0 KECCAK256 SLOAD DUP5 DUP3 DUP2 MLOAD DUP2 LT PUSH2 0x14AA JUMPI PUSH2 0x14AA PUSH2 0x5E9C JUMP JUMPDEST PUSH1 0x20 MUL PUSH1 0x20 ADD ADD MLOAD LT PUSH2 0x14CF JUMPI PUSH1 0x40 MLOAD PUSH3 0x461BCD PUSH1 0xE5 SHL DUP2 MSTORE PUSH1 0x4 ADD PUSH2 0x11EF SWAP1 PUSH2 0x5BA6 JUMP JUMPDEST PUSH1 0x0 PUSH1 0x22 PUSH1 0x0 DUP6 DUP5 DUP2 MLOAD DUP2 LT PUSH2 0x14E7 JUMPI PUSH2 0x14E7 PUSH2 0x5E9C JUMP JUMPDEST PUSH1 0x20 MUL PUSH1 0x20 ADD ADD MLOAD PUSH1 0x1 PUSH1 0x1 PUSH1 0xA0 SHL SUB AND PUSH1 0x1 PUSH1 0x1 PUSH1 0xA0 SHL SUB AND DUP2 MSTORE PUSH1 0x20 ADD SWAP1 DUP2 MSTORE PUSH1 0x20 ADD PUSH1 0x0 KECCAK256 PUSH1 0x0 DUP7 DUP5 DUP2 MLOAD DUP2 LT PUSH2 0x1523 JUMPI PUSH2 0x1523 PUSH2 0x5E9C JUMP JUMPDEST PUSH1 0x20 MUL PUSH1 0x20 ADD ADD MLOAD DUP2 MSTORE PUSH1 0x20 ADD SWAP1 DUP2 MSTORE PUSH1 0x20 ADD PUSH1 0x0 KECCAK256 SWAP1 POP PUSH1 0x0 PUSH1 0x23 PUSH1 0x0 DUP7 DUP6 DUP2 MLOAD DUP2 LT PUSH2 0x1553 JUMPI PUSH2 0x1553 PUSH2 0x5E9C JUMP JUMPDEST PUSH1 0x20 MUL PUSH1 0x20 ADD ADD MLOAD PUSH1 0x1 PUSH1 0x1 PUSH1 0xA0 SHL SUB AND PUSH1 0x1 PUSH1 0x1 PUSH1 0xA0 SHL SUB AND DUP2 MSTORE PUSH1 0x20 ADD SWAP1 DUP2 MSTORE PUSH1 0x20 ADD PUSH1 0x0 KECCAK256 PUSH1 0x0 DUP8 DUP6 DUP2 MLOAD DUP2 LT PUSH2 0x158F JUMPI PUSH2 0x158F PUSH2 0x5E9C JUMP JUMPDEST PUSH1 0x20 SWAP1 DUP2 MUL SWAP2 SWAP1 SWAP2 ADD DUP2 ADD MLOAD DUP3 MSTORE DUP2 ADD SWAP2 SWAP1 SWAP2 MSTORE PUSH1 0x40 ADD PUSH1 0x0 KECCAK256 DUP3 SLOAD SWAP1 SWAP2 POP PUSH1 0x1 PUSH1 0x80 SHL SWAP1 DIV PUSH1 0x1 PUSH1 0x1 PUSH1 0x78 SHL SUB AND ISZERO PUSH2 0x15FE JUMPI PUSH1 0x40 MLOAD PUSH3 0x461BCD PUSH1 0xE5 SHL DUP2 MSTORE PUSH1 0x20 PUSH1 0x4 DUP3 ADD MSTORE PUSH1 0x10 PUSH1 0x24 DUP3 ADD MSTORE PUSH16 0x105B1C9958591E481C995CDBDB1D9959 PUSH1 0x82 SHL PUSH1 0x44 DUP3 ADD MSTORE PUSH1 0x64 ADD PUSH2 0x11EF JUMP JUMPDEST DUP4 ISZERO PUSH2 0x1678 JUMPI DUP1 SLOAD PUSH1 0x1 PUSH1 0xD0 SHL SWAP1 DIV PUSH4 0xFFFFFFFF AND TIMESTAMP GT DUP1 ISZERO PUSH2 0x163C JUMPI POP PUSH1 0x11 SLOAD DUP2 SLOAD PUSH2 0x1638 SWAP2 SWAP1 PUSH1 0x1 PUSH1 0xD0 SHL SWAP1 DIV PUSH4 0xFFFFFFFF AND PUSH2 0x5CA4 JUMP JUMPDEST TIMESTAMP GT ISZERO JUMPDEST PUSH2 0x1678 JUMPI PUSH1 0x40 MLOAD PUSH3 0x461BCD PUSH1 0xE5 SHL DUP2 MSTORE PUSH1 0x20 PUSH1 0x4 DUP3 ADD MSTORE PUSH1 0xD PUSH1 0x24 DUP3 ADD MSTORE PUSH13 0x22B7322A34B6B29032B93937B9 PUSH1 0x99 SHL PUSH1 0x44 DUP3 ADD MSTORE PUSH1 0x64 ADD PUSH2 0x11EF JUMP JUMPDEST PUSH1 0x1A SLOAD PUSH1 0x3 DUP4 ADD SLOAD PUSH1 0x19 SLOAD PUSH1 0x40 MLOAD PUSH4 0x5620C32D PUSH1 0xE1 SHL DUP2 MSTORE PUSH1 0x1 PUSH1 0x1 PUSH1 0xA0 SHL SUB SWAP3 DUP4 AND PUSH1 0x4 DUP3 ADD MSTORE SWAP1 DUP3 AND PUSH1 0x24 DUP3 ADD MSTORE PUSH1 0x0 SWAP3 SWAP2 SWAP1 SWAP2 AND SWAP1 PUSH4 0xAC41865A SWAP1 PUSH1 0x44 ADD PUSH1 0x20 PUSH1 0x40 MLOAD DUP1 DUP4 SUB DUP2 DUP7 DUP1 EXTCODESIZE ISZERO DUP1 ISZERO PUSH2 0x16D1 JUMPI PUSH1 0x0 DUP1 REVERT JUMPDEST POP GAS STATICCALL ISZERO DUP1 ISZERO PUSH2 0x16E5 JUMPI RETURNDATASIZE PUSH1 0x0 DUP1 RETURNDATACOPY RETURNDATASIZE PUSH1 0x0 REVERT JUMPDEST POP POP POP POP PUSH1 0x40 MLOAD RETURNDATASIZE PUSH1 0x1F NOT PUSH1 0x1F DUP3 ADD AND DUP3 ADD DUP1 PUSH1 0x40 MSTORE POP DUP2 ADD SWAP1 PUSH2 0x1709 SWAP2 SWAP1 PUSH2 0x5926 JUMP JUMPDEST DUP3 SLOAD SWAP1 SWAP2 POP PUSH1 0x0 SWAP1 PUSH2 0x172F SWAP1 DUP6 SWAP1 DUP5 SWAP1 PUSH4 0xFFFFFFFF PUSH1 0x1 PUSH1 0x60 SHL SWAP1 SWAP2 DIV DUP2 AND SWAP1 PUSH2 0x3EE3 AND JUMP JUMPDEST PUSH1 0x1 PUSH1 0x1 PUSH1 0x78 SHL SUB AND SWAP1 POP DUP1 PUSH1 0x2 EQ DUP1 PUSH2 0x1749 JUMPI POP DUP1 PUSH1 0x1 EQ JUMPDEST ISZERO PUSH2 0x191A JUMPI DUP4 SLOAD PUSH1 0x1 DUP6 ADD SLOAD PUSH1 0x0 SWAP2 PUSH1 0x1 PUSH1 0x1 PUSH1 0x80 SHL SUB AND SWAP1 PUSH1 0x1 PUSH1 0x60 SHL SWAP1 DIV PUSH1 0x1 PUSH1 0x1 PUSH1 0x60 SHL SUB AND DUP3 PUSH1 0x2 DUP6 EQ ISZERO PUSH2 0x1791 JUMPI POP DUP6 SLOAD PUSH1 0x1 PUSH1 0x40 SHL SWAP1 DIV PUSH4 0xFFFFFFFF AND PUSH2 0x179E JUMP JUMPDEST POP DUP6 SLOAD PUSH1 0x1 PUSH1 0x1 PUSH1 0x40 SHL SUB AND JUMPDEST PUSH1 0x1 DUP9 ADD SLOAD PUSH1 0x1 PUSH1 0x60 SHL SWAP1 DIV PUSH1 0x1 PUSH1 0x1 PUSH1 0x60 SHL SUB AND ISZERO DUP1 ISZERO SWAP1 PUSH2 0x17D4 JUMPI POP PUSH1 0x17 SLOAD PUSH1 0x2 DUP10 ADD SLOAD PUSH1 0x1 PUSH1 0x1 PUSH1 0xA0 SHL SUB SWAP1 DUP2 AND SWAP2 AND EQ ISZERO JUMPDEST ISZERO PUSH2 0x18C8 JUMPI PUSH1 0x2 DUP9 ADD SLOAD PUSH1 0x1 PUSH1 0x1 PUSH1 0xA0 SHL SUB AND PUSH1 0x1 EQ ISZERO PUSH2 0x181F JUMPI PUSH9 0x56BC75E2D63100000 DUP2 PUSH2 0x1804 DUP5 DUP7 PUSH2 0x5DCC JUMP JUMPDEST PUSH2 0x180E SWAP2 SWAP1 PUSH2 0x5DCC JUMP JUMPDEST PUSH2 0x1818 SWAP2 SWAP1 PUSH2 0x5CBC JUMP JUMPDEST SWAP4 POP PUSH2 0x18E1 JUMP JUMPDEST DUP8 PUSH1 0x2 ADD PUSH1 0x0 SWAP1 SLOAD SWAP1 PUSH2 0x100 EXP SWAP1 DIV PUSH1 0x1 PUSH1 0x1 PUSH1 0xA0 SHL SUB AND PUSH1 0x1 PUSH1 0x1 PUSH1 0xA0 SHL SUB AND PUSH4 0x313CE567 PUSH1 0x40 MLOAD DUP2 PUSH4 0xFFFFFFFF AND PUSH1 0xE0 SHL DUP2 MSTORE PUSH1 0x4 ADD PUSH1 0x20 PUSH1 0x40 MLOAD DUP1 DUP4 SUB DUP2 DUP7 DUP1 EXTCODESIZE ISZERO DUP1 ISZERO PUSH2 0x186F JUMPI PUSH1 0x0 DUP1 REVERT JUMPDEST POP GAS STATICCALL ISZERO DUP1 ISZERO PUSH2 0x1883 JUMPI RETURNDATASIZE PUSH1 0x0 DUP1 RETURNDATACOPY RETURNDATASIZE PUSH1 0x0 REVERT JUMPDEST POP POP POP POP PUSH1 0x40 MLOAD RETURNDATASIZE PUSH1 0x1F NOT PUSH1 0x1F DUP3 ADD AND DUP3 ADD DUP1 PUSH1 0x40 MSTORE POP DUP2 ADD SWAP1 PUSH2 0x18A7 SWAP2 SWAP1 PUSH2 0x5AE8 JUMP JUMPDEST PUSH2 0x18B2 SWAP1 PUSH1 0xA PUSH2 0x5D21 JUMP JUMPDEST PUSH2 0x18BD SWAP1 PUSH1 0x64 PUSH2 0x5DCC JUMP JUMPDEST DUP2 PUSH2 0x1804 DUP5 DUP7 PUSH2 0x5DCC JUMP JUMPDEST PUSH1 0x64 PUSH2 0x18D4 DUP3 DUP6 PUSH2 0x5DCC JUMP JUMPDEST PUSH2 0x18DE SWAP2 SWAP1 PUSH2 0x5CBC JUMP JUMPDEST SWAP4 POP JUMPDEST PUSH1 0x4 SLOAD PUSH1 0xD SLOAD PUSH1 0x0 SWAP1 DUP2 MSTORE PUSH1 0x24 PUSH1 0x20 MSTORE PUSH1 0x40 SWAP1 KECCAK256 PUSH2 0x1900 SWAP2 DUP7 DUP9 PUSH2 0x3FD4 JUMP JUMPDEST PUSH1 0xD DUP1 SLOAD SWAP1 PUSH1 0x0 PUSH2 0x1910 DUP4 PUSH2 0x5E47 JUMP JUMPDEST SWAP2 SWAP1 POP SSTORE POP POP POP POP POP JUMPDEST PUSH1 0x0 PUSH1 0x21 PUSH1 0x0 DUP10 DUP9 DUP2 MLOAD DUP2 LT PUSH2 0x1932 JUMPI PUSH2 0x1932 PUSH2 0x5E9C JUMP JUMPDEST PUSH1 0x20 SWAP1 DUP2 MUL SWAP2 SWAP1 SWAP2 ADD DUP2 ADD MLOAD PUSH1 0x1 PUSH1 0x1 PUSH1 0xA0 SHL SUB SWAP1 DUP2 AND DUP4 MSTORE DUP3 DUP3 ADD SWAP4 SWAP1 SWAP4 MSTORE PUSH1 0x40 SWAP2 DUP3 ADD PUSH1 0x0 SWAP1 DUP2 KECCAK256 PUSH1 0x3 DUP11 ADD SLOAD SWAP1 SWAP5 AND DUP2 MSTORE SWAP3 SWAP1 MSTORE SWAP1 KECCAK256 DUP1 SLOAD PUSH1 0xFF NOT AND SWAP2 ISZERO ISZERO SWAP2 SWAP1 SWAP2 OR SWAP1 SSTORE DUP8 MLOAD DUP2 SWAP1 DUP10 SWAP1 DUP8 SWAP1 DUP2 LT PUSH2 0x1990 JUMPI PUSH2 0x1990 PUSH2 0x5E9C JUMP JUMPDEST PUSH1 0x20 MUL PUSH1 0x20 ADD ADD MLOAD DUP9 DUP8 DUP2 MLOAD DUP2 LT PUSH2 0x19AA JUMPI PUSH2 0x19AA PUSH2 0x5E9C JUMP JUMPDEST PUSH1 0x20 MUL PUSH1 0x20 ADD ADD MLOAD PUSH1 0x1 PUSH1 0x1 PUSH1 0xA0 SHL SUB AND PUSH32 0x80F0D02BC787182862EBB4CC01D73C2F450CE15DAF1FA4A2CA88C03257019428 TIMESTAMP PUSH1 0x40 MLOAD PUSH2 0x19EC SWAP2 DUP2 MSTORE PUSH1 0x20 ADD SWAP1 JUMP JUMPDEST PUSH1 0x40 MLOAD DUP1 SWAP2 SUB SWAP1 LOG4 POP POP POP POP DUP1 DUP1 PUSH2 0x1A03 SWAP1 PUSH2 0x5E47 JUMP JUMPDEST SWAP2 POP POP PUSH2 0x1450 JUMP JUMPDEST POP POP PUSH1 0x1 DUP1 SSTORE POP POP JUMP JUMPDEST PUSH1 0x2 PUSH1 0x1 SLOAD EQ ISZERO PUSH2 0x1A38 JUMPI PUSH1 0x40 MLOAD PUSH3 0x461BCD PUSH1 0xE5 SHL DUP2 MSTORE PUSH1 0x4 ADD PUSH2 0x11EF SWAP1 PUSH2 0x5BC7 JUMP JUMPDEST PUSH1 0x2 PUSH1 0x1 SSTORE PUSH2 0x1A46 CALLER PUSH2 0x4033 JUMP JUMPDEST POP CALLER PUSH1 0x0 SWAP1 DUP2 MSTORE PUSH1 0x1D PUSH1 0x20 MSTORE PUSH1 0x40 SWAP1 KECCAK256 PUSH1 0x2 DUP2 ADD SLOAD PUSH1 0x1 DUP3 ADD SLOAD PUSH1 0x1 PUSH1 0x1 PUSH1 0x80 SHL SUB SWAP2 DUP3 AND PUSH1 0x1 PUSH1 0x80 SHL SWAP1 SWAP2 DIV SWAP1 SWAP2 AND GT PUSH2 0x1AB0 JUMPI PUSH1 0x40 MLOAD PUSH3 0x461BCD PUSH1 0xE5 SHL DUP2 MSTORE PUSH1 0x20 PUSH1 0x4 DUP3 ADD MSTORE PUSH1 0xA PUSH1 0x24 DUP3 ADD MSTORE PUSH10 0x4E6F2072657761726473 PUSH1 0xB0 SHL PUSH1 0x44 DUP3 ADD MSTORE PUSH1 0x64 ADD PUSH2 0x11EF JUMP JUMPDEST PUSH1 0x2 DUP2 ADD SLOAD PUSH1 0x1 DUP3 ADD SLOAD PUSH1 0x0 SWAP2 PUSH2 0x1ADB SWAP2 PUSH1 0x1 PUSH1 0x1 PUSH1 0x80 SHL SUB SWAP2 DUP3 AND SWAP2 PUSH1 0x1 PUSH1 0x80 SHL SWAP1 SWAP2 DIV AND PUSH2 0x5DEB JUMP JUMPDEST PUSH1 0x1 DUP4 ADD DUP1 SLOAD PUSH1 0x1 PUSH1 0x1 PUSH1 0x80 SHL SUB SWAP1 DUP2 AND SWAP1 SWAP2 SSTORE PUSH1 0x2 DUP5 ADD DUP1 SLOAD PUSH1 0x1 PUSH1 0x1 PUSH1 0x80 SHL SUB NOT AND SWAP1 SSTORE PUSH1 0x17 SLOAD SWAP2 AND SWAP2 POP PUSH2 0x1B1D SWAP1 PUSH1 0x1 PUSH1 0x1 PUSH1 0xA0 SHL SUB AND CALLER JUMPDEST DUP4 PUSH2 0x41C7 JUMP JUMPDEST POP POP PUSH1 0x1 DUP1 SSTORE JUMP JUMPDEST PUSH1 0x1 PUSH1 0x1 PUSH1 0xA0 SHL SUB DUP4 AND PUSH1 0x0 SWAP1 DUP2 MSTORE PUSH1 0x1F PUSH1 0x20 SWAP1 DUP2 MSTORE PUSH1 0x40 DUP1 DUP4 KECCAK256 DUP6 DUP5 MSTORE DUP3 MSTORE DUP1 DUP4 KECCAK256 DUP5 DUP5 MSTORE SWAP1 SWAP2 MSTORE SWAP1 KECCAK256 SLOAD PUSH1 0xFF AND JUMPDEST SWAP4 SWAP3 POP POP POP JUMP JUMPDEST PUSH1 0x1 PUSH1 0x1 PUSH1 0xA0 SHL SUB DUP2 AND PUSH1 0x0 SWAP1 DUP2 MSTORE PUSH1 0x1B PUSH1 0x20 SWAP1 DUP2 MSTORE PUSH1 0x40 DUP1 DUP4 KECCAK256 SLOAD PUSH1 0x1E SWAP1 SWAP3 MSTORE DUP3 KECCAK256 SLOAD ISZERO DUP1 PUSH2 0x1BA3 JUMPI POP PUSH1 0x1 PUSH1 0x1 PUSH1 0xA0 SHL SUB DUP4 AND PUSH1 0x0 SWAP1 DUP2 MSTORE PUSH1 0x1E PUSH1 0x20 MSTORE PUSH1 0x40 SWAP1 KECCAK256 SLOAD DUP2 EQ JUMPDEST ISZERO PUSH2 0x1BB1 JUMPI POP PUSH1 0x0 SWAP3 SWAP2 POP POP JUMP JUMPDEST PUSH1 0x1 PUSH1 0x1 PUSH1 0xA0 SHL SUB DUP4 AND PUSH1 0x0 SWAP1 DUP2 MSTORE PUSH1 0x1E PUSH1 0x20 MSTORE PUSH1 0x40 SWAP1 KECCAK256 SLOAD DUP2 LT PUSH2 0x1C05 JUMPI PUSH1 0x40 MLOAD PUSH3 0x461BCD PUSH1 0xE5 SHL DUP2 MSTORE PUSH1 0x20 PUSH1 0x4 DUP3 ADD MSTORE PUSH1 0xA PUSH1 0x24 DUP3 ADD MSTORE PUSH10 0x139BC81B995DC818995D PUSH1 0xB2 SHL PUSH1 0x44 DUP3 ADD MSTORE PUSH1 0x64 ADD PUSH2 0x11EF JUMP JUMPDEST PUSH1 0x0 DUP2 JUMPDEST PUSH1 0x1 PUSH1 0x1 PUSH1 0xA0 SHL SUB DUP6 AND PUSH1 0x0 SWAP1 DUP2 MSTORE PUSH1 0x1E PUSH1 0x20 MSTORE PUSH1 0x40 SWAP1 KECCAK256 SLOAD DUP2 LT ISZERO PUSH2 0x1E59 JUMPI PUSH1 0x1 PUSH1 0x1 PUSH1 0xA0 SHL SUB DUP6 AND PUSH1 0x0 DUP2 DUP2 MSTORE PUSH1 0x22 PUSH1 0x20 SWAP1 DUP2 MSTORE PUSH1 0x40 DUP1 DUP4 KECCAK256 DUP6 DUP5 MSTORE DUP3 MSTORE DUP1 DUP4 KECCAK256 SWAP4 DUP4 MSTORE PUSH1 0x23 DUP3 MSTORE DUP1 DUP4 KECCAK256 DUP6 DUP5 MSTORE SWAP1 SWAP2 MSTORE SWAP1 KECCAK256 DUP1 SLOAD PUSH1 0x1 PUSH1 0xF8 SHL SWAP1 DIV PUSH1 0xFF AND ISZERO DUP1 ISZERO PUSH2 0x1C84 JUMPI POP DUP1 SLOAD PUSH1 0x1 PUSH1 0xD0 SHL SWAP1 DIV PUSH4 0xFFFFFFFF AND TIMESTAMP GT JUMPDEST ISZERO PUSH2 0x1E44 JUMPI DUP2 SLOAD DUP2 SLOAD PUSH1 0x1 PUSH1 0x1 PUSH1 0x80 SHL SUB DUP3 AND SWAP2 PUSH1 0x1 PUSH1 0x1 PUSH1 0x40 SHL SUB SWAP1 SWAP2 AND SWAP1 PUSH1 0x1 PUSH1 0x1 PUSH1 0x78 SHL SUB PUSH1 0x1 PUSH1 0x80 SHL SWAP1 SWAP2 DIV AND PUSH1 0x1 EQ ISZERO PUSH2 0x1E41 JUMPI PUSH1 0x17 SLOAD PUSH1 0x2 DUP6 ADD SLOAD PUSH1 0x1 PUSH1 0x1 PUSH1 0xA0 SHL SUB SWAP1 DUP2 AND SWAP2 AND EQ DUP1 ISZERO SWAP1 PUSH2 0x1CF3 JUMPI POP PUSH1 0x1 DUP5 ADD SLOAD PUSH1 0x1 PUSH1 0x60 SHL SWAP1 DIV PUSH1 0x1 PUSH1 0x1 PUSH1 0x60 SHL SUB AND ISZERO ISZERO JUMPDEST ISZERO PUSH2 0x1E1E JUMPI PUSH1 0x2 DUP5 ADD SLOAD PUSH1 0x1 PUSH1 0x1 PUSH1 0xA0 SHL SUB AND PUSH1 0x1 EQ ISZERO PUSH2 0x1D5F JUMPI PUSH1 0x1 DUP5 ADD SLOAD PUSH9 0x56BC75E2D63100000 SWAP1 DUP3 SWAP1 PUSH2 0x1D3A SWAP1 PUSH1 0x1 PUSH1 0x60 SHL SWAP1 DIV PUSH1 0x1 PUSH1 0x1 PUSH1 0x60 SHL SUB AND DUP6 PUSH2 0x5DCC JUMP JUMPDEST PUSH2 0x1D44 SWAP2 SWAP1 PUSH2 0x5DCC JUMP JUMPDEST PUSH2 0x1D4E SWAP2 SWAP1 PUSH2 0x5CBC JUMP JUMPDEST PUSH2 0x1D58 SWAP1 DUP8 PUSH2 0x5CA4 JUMP JUMPDEST SWAP6 POP PUSH2 0x1E41 JUMP JUMPDEST DUP4 PUSH1 0x2 ADD PUSH1 0x0 SWAP1 SLOAD SWAP1 PUSH2 0x100 EXP SWAP1 DIV PUSH1 0x1 PUSH1 0x1 PUSH1 0xA0 SHL SUB AND PUSH1 0x1 PUSH1 0x1 PUSH1 0xA0 SHL SUB AND PUSH4 0x313CE567 PUSH1 0x40 MLOAD DUP2 PUSH4 0xFFFFFFFF AND PUSH1 0xE0 SHL DUP2 MSTORE PUSH1 0x4 ADD PUSH1 0x20 PUSH1 0x40 MLOAD DUP1 DUP4 SUB DUP2 DUP7 DUP1 EXTCODESIZE ISZERO DUP1 ISZERO PUSH2 0x1DAF JUMPI PUSH1 0x0 DUP1 REVERT JUMPDEST POP GAS STATICCALL ISZERO DUP1 ISZERO PUSH2 0x1DC3 JUMPI RETURNDATASIZE PUSH1 0x0 DUP1 RETURNDATACOPY RETURNDATASIZE PUSH1 0x0 REVERT JUMPDEST POP POP POP POP PUSH1 0x40 MLOAD RETURNDATASIZE PUSH1 0x1F NOT PUSH1 0x1F DUP3 ADD AND DUP3 ADD DUP1 PUSH1 0x40 MSTORE POP DUP2 ADD SWAP1 PUSH2 0x1DE7 SWAP2 SWAP1 PUSH2 0x5AE8 JUMP JUMPDEST PUSH2 0x1DF2 SWAP1 PUSH1 0xA PUSH2 0x5D21 JUMP JUMPDEST PUSH2 0x1DFD SWAP1 PUSH1 0x64 PUSH2 0x5DCC JUMP JUMPDEST PUSH1 0x1 DUP6 ADD SLOAD DUP3 SWAP1 PUSH2 0x1D3A SWAP1 PUSH1 0x1 PUSH1 0x60 SHL SWAP1 DIV PUSH1 0x1 PUSH1 0x1 PUSH1 0x60 SHL SUB AND DUP6 PUSH2 0x5DCC JUMP JUMPDEST PUSH1 0x64 PUSH2 0x1E2A DUP3 DUP5 PUSH2 0x5DCC JUMP JUMPDEST PUSH2 0x1E34 SWAP2 SWAP1 PUSH2 0x5CBC JUMP JUMPDEST PUSH2 0x1E3E SWAP1 DUP8 PUSH2 0x5CA4 JUMP JUMPDEST SWAP6 POP JUMPDEST POP POP JUMPDEST POP POP DUP1 DUP1 PUSH2 0x1E51 SWAP1 PUSH2 0x5E47 JUMP JUMPDEST SWAP2 POP POP PUSH2 0x1C09 JUMP JUMPDEST POP SWAP4 SWAP3 POP POP POP JUMP JUMPDEST PUSH1 0x0 SLOAD PUSH1 0x1 PUSH1 0x1 PUSH1 0xA0 SHL SUB AND CALLER EQ PUSH2 0x1E8B JUMPI PUSH1 0x40 MLOAD PUSH3 0x461BCD PUSH1 0xE5 SHL DUP2 MSTORE PUSH1 0x4 ADD PUSH2 0x11EF SWAP1 PUSH2 0x5B6F JUMP JUMPDEST DUP1 PUSH1 0x0 DUP2 GT PUSH2 0x1EAC JUMPI PUSH1 0x40 MLOAD PUSH3 0x461BCD PUSH1 0xE5 SHL DUP2 MSTORE PUSH1 0x4 ADD PUSH2 0x11EF SWAP1 PUSH2 0x5BA6 JUMP JUMPDEST POP PUSH1 0x9 SSTORE JUMP JUMPDEST DUP3 DUP5 PUSH1 0x1 DUP5 PUSH1 0x1 PUSH1 0x1 PUSH1 0xA0 SHL SUB DUP2 AND PUSH2 0x1EDD JUMPI PUSH1 0x40 MLOAD PUSH3 0x461BCD PUSH1 0xE5 SHL DUP2 MSTORE PUSH1 0x4 ADD PUSH2 0x11EF SWAP1 PUSH2 0x5BA6 JUMP JUMPDEST PUSH1 0x15 SLOAD PUSH1 0xFF AND PUSH2 0x1F3B JUMPI PUSH1 0x17 SLOAD PUSH1 0x1 PUSH1 0x1 PUSH1 0xA0 SHL SUB DUP3 DUP2 AND SWAP2 AND EQ PUSH2 0x1F3B JUMPI PUSH1 0x40 MLOAD PUSH3 0x461BCD PUSH1 0xE5 SHL DUP2 MSTORE PUSH1 0x20 PUSH1 0x4 DUP3 ADD MSTORE PUSH1 0x14 PUSH1 0x24 DUP3 ADD MSTORE PUSH20 0x4D756C746920746F6B656E20696E616374697665 PUSH1 0x60 SHL PUSH1 0x44 DUP3 ADD MSTORE PUSH1 0x64 ADD PUSH2 0x11EF JUMP JUMPDEST PUSH1 0x1 PUSH1 0x1 PUSH1 0xA0 SHL SUB DUP5 AND PUSH1 0x0 SWAP1 DUP2 MSTORE PUSH1 0x1F PUSH1 0x20 SWAP1 DUP2 MSTORE PUSH1 0x40 DUP1 DUP4 KECCAK256 DUP7 DUP5 MSTORE DUP3 MSTORE DUP1 DUP4 KECCAK256 DUP6 DUP5 MSTORE SWAP1 SWAP2 MSTORE SWAP1 KECCAK256 SLOAD PUSH1 0xFF AND PUSH2 0x1FA3 JUMPI PUSH1 0x40 MLOAD PUSH3 0x461BCD PUSH1 0xE5 SHL DUP2 MSTORE PUSH1 0x20 PUSH1 0x4 DUP3 ADD MSTORE PUSH1 0xA PUSH1 0x24 DUP3 ADD MSTORE PUSH10 0x4E6F7420616374697665 PUSH1 0xB0 SHL PUSH1 0x44 DUP3 ADD MSTORE PUSH1 0x64 ADD PUSH2 0x11EF JUMP JUMPDEST CALLER PUSH1 0x0 SWAP1 DUP2 MSTORE PUSH1 0x21 PUSH1 0x20 SWAP1 DUP2 MSTORE PUSH1 0x40 DUP1 DUP4 KECCAK256 PUSH1 0x1 PUSH1 0x1 PUSH1 0xA0 SHL SUB DUP9 AND DUP5 MSTORE SWAP1 SWAP2 MSTORE SWAP1 KECCAK256 SLOAD PUSH1 0xFF AND ISZERO PUSH2 0x200C JUMPI PUSH1 0x40 MLOAD PUSH3 0x461BCD PUSH1 0xE5 SHL DUP2 MSTORE PUSH1 0x20 PUSH1 0x4 DUP3 ADD MSTORE PUSH1 0x12 PUSH1 0x24 DUP3 ADD MSTORE PUSH18 0x42657420616C726561647920616374697665 PUSH1 0x70 SHL PUSH1 0x44 DUP3 ADD MSTORE PUSH1 0x64 ADD PUSH2 0x11EF JUMP JUMPDEST PUSH1 0x2 PUSH1 0x1 SLOAD EQ ISZERO PUSH2 0x202F JUMPI PUSH1 0x40 MLOAD PUSH3 0x461BCD PUSH1 0xE5 SHL DUP2 MSTORE PUSH1 0x4 ADD PUSH2 0x11EF SWAP1 PUSH2 0x5BC7 JUMP JUMPDEST PUSH1 0x2 PUSH1 0x1 SSTORE PUSH2 0x2041 CALLER DUP11 DUP10 DUP10 DUP10 PUSH2 0x42E2 JUMP JUMPDEST PUSH2 0x2078 CALLER PUSH1 0x0 DUP1 DUP1 MSTORE PUSH1 0x26 PUSH1 0x20 MSTORE PUSH32 0x673668FDE1539921A3231470503848F53FC614C057A2345BC3A2F36758A6D3AC SLOAD PUSH1 0x1 PUSH2 0x4A35 JUMP JUMPDEST POP POP PUSH1 0x1 DUP1 SSTORE POP POP POP POP POP POP POP JUMP JUMPDEST PUSH1 0x2 PUSH1 0x1 SLOAD EQ ISZERO PUSH2 0x20AA JUMPI PUSH1 0x40 MLOAD PUSH3 0x461BCD PUSH1 0xE5 SHL DUP2 MSTORE PUSH1 0x4 ADD PUSH2 0x11EF SWAP1 PUSH2 0x5BC7 JUMP JUMPDEST PUSH1 0x2 PUSH1 0x1 SSTORE CALLER PUSH1 0x0 SWAP1 DUP2 MSTORE PUSH1 0x1E PUSH1 0x20 MSTORE PUSH1 0x40 SWAP1 KECCAK256 SLOAD DUP2 LT PUSH2 0x20DD JUMPI PUSH1 0x40 MLOAD PUSH3 0x461BCD PUSH1 0xE5 SHL DUP2 MSTORE PUSH1 0x4 ADD PUSH2 0x11EF SWAP1 PUSH2 0x5BA6 JUMP JUMPDEST CALLER PUSH1 0x0 DUP2 DUP2 MSTORE PUSH1 0x22 PUSH1 0x20 SWAP1 DUP2 MSTORE PUSH1 0x40 DUP1 DUP4 KECCAK256 DUP6 DUP5 MSTORE DUP3 MSTORE DUP1 DUP4 KECCAK256 SWAP4 DUP4 MSTORE PUSH1 0x23 DUP3 MSTORE DUP1 DUP4 KECCAK256 DUP6 DUP5 MSTORE SWAP1 SWAP2 MSTORE SWAP1 KECCAK256 DUP1 SLOAD PUSH1 0x1 PUSH1 0xF8 SHL SWAP1 DIV PUSH1 0xFF AND ISZERO DUP1 ISZERO PUSH2 0x2130 JUMPI POP DUP1 SLOAD TIMESTAMP PUSH1 0x1 PUSH1 0xD0 SHL SWAP1 SWAP2 DIV PUSH4 0xFFFFFFFF AND GT JUMPDEST PUSH2 0x2166 JUMPI PUSH1 0x40 MLOAD PUSH3 0x461BCD PUSH1 0xE5 SHL DUP2 MSTORE PUSH1 0x20 PUSH1 0x4 DUP3 ADD MSTORE PUSH1 0x7 PUSH1 0x24 DUP3 ADD MSTORE PUSH7 0x456E6454696D65 PUSH1 0xC8 SHL PUSH1 0x44 DUP3 ADD MSTORE PUSH1 0x64 ADD PUSH2 0x11EF JUMP JUMPDEST PUSH1 0x2 SLOAD DUP2 SLOAD PUSH1 0x0 SWAP2 DUP3 SWAP2 DUP3 SWAP2 DUP3 SWAP2 PUSH2 0x218B SWAP1 PUSH1 0x1 PUSH1 0xB0 SHL SWAP1 DIV PUSH4 0xFFFFFFFF AND TIMESTAMP PUSH2 0x5E13 JUMP JUMPDEST PUSH2 0x2195 SWAP2 SWAP1 PUSH2 0x5CBC JUMP JUMPDEST PUSH1 0x2 SLOAD DUP7 SLOAD SWAP2 SWAP3 POP PUSH1 0x0 SWAP2 PUSH2 0x21C0 SWAP1 PUSH4 0xFFFFFFFF PUSH1 0x1 PUSH1 0xB0 SHL DUP3 DIV DUP2 AND SWAP2 PUSH1 0x1 PUSH1 0xD0 SHL SWAP1 DIV AND PUSH2 0x5E2A JUMP JUMPDEST PUSH4 0xFFFFFFFF AND PUSH2 0x21D0 SWAP2 SWAP1 PUSH2 0x5CBC JUMP JUMPDEST PUSH1 0x0 DUP2 DUP2 MSTORE PUSH1 0x27 PUSH1 0x20 SWAP1 DUP2 MSTORE PUSH1 0x40 DUP1 DUP4 KECCAK256 DUP7 DUP5 MSTORE SWAP1 SWAP2 MSTORE SWAP1 KECCAK256 SLOAD SWAP6 POP SWAP1 POP PUSH1 0x64 DUP6 GT ISZERO PUSH2 0x21FC JUMPI PUSH1 0x0 DUP1 REVERT JUMPDEST DUP7 SLOAD PUSH1 0x64 SWAP1 PUSH2 0x2214 SWAP1 PUSH1 0x1 PUSH1 0x1 PUSH1 0x80 SHL SUB AND DUP8 PUSH2 0x5DCC JUMP JUMPDEST PUSH2 0x221E SWAP2 SWAP1 PUSH2 0x5CBC JUMP JUMPDEST DUP8 SLOAD SWAP1 SWAP4 POP PUSH2 0x2237 SWAP1 DUP5 SWAP1 PUSH1 0x1 PUSH1 0x1 PUSH1 0x80 SHL SUB AND PUSH2 0x5E13 JUMP JUMPDEST SWAP4 POP DUP4 ISZERO PUSH2 0x227A JUMPI DUP6 SLOAD PUSH1 0x1 PUSH1 0xF0 SHL SWAP1 DIV PUSH1 0xFF AND ISZERO PUSH2 0x226F JUMPI PUSH1 0x2 DUP8 ADD SLOAD PUSH2 0x226A SWAP1 PUSH1 0x1 PUSH1 0x1 PUSH1 0xA0 SHL SUB AND CALLER JUMPDEST DUP7 PUSH2 0x41C7 JUMP JUMPDEST PUSH2 0x227A JUMP JUMPDEST PUSH2 0x227A CALLER JUMPDEST DUP6 PUSH2 0x4D51 JUMP JUMPDEST DUP3 ISZERO PUSH2 0x22CB JUMPI DUP6 SLOAD PUSH1 0x1 PUSH1 0xF0 SHL SWAP1 DIV PUSH1 0xFF AND ISZERO PUSH2 0x22B5 JUMPI PUSH1 0x2 DUP8 ADD SLOAD PUSH1 0x16 SLOAD PUSH2 0x22B0 SWAP2 PUSH1 0x1 PUSH1 0x1 PUSH1 0xA0 SHL SUB SWAP1 DUP2 AND SWAP2 AND DUP6 PUSH2 0x41C7 JUMP JUMPDEST PUSH2 0x22CB JUMP JUMPDEST PUSH1 0x16 SLOAD PUSH2 0x22CB SWAP1 PUSH1 0x1 PUSH1 0x1 PUSH1 0xA0 SHL SUB AND DUP5 PUSH2 0x4D51 JUMP JUMPDEST DUP6 SLOAD PUSH1 0x1 PUSH1 0x1 PUSH1 0xF8 SHL SUB AND PUSH1 0x1 PUSH1 0xF8 SHL OR DUP7 SSTORE PUSH1 0x0 PUSH1 0x21 DUP2 PUSH2 0x22EA CALLER SWAP1 JUMP JUMPDEST PUSH1 0x1 PUSH1 0x1 PUSH1 0xA0 SHL SUB SWAP1 DUP2 AND DUP3 MSTORE PUSH1 0x20 DUP1 DUP4 ADD SWAP4 SWAP1 SWAP4 MSTORE PUSH1 0x40 SWAP2 DUP3 ADD PUSH1 0x0 SWAP1 DUP2 KECCAK256 PUSH1 0x3 DUP14 ADD SLOAD SWAP1 SWAP3 AND DUP2 MSTORE SWAP3 MSTORE SWAP1 KECCAK256 DUP1 SLOAD PUSH1 0xFF NOT AND SWAP2 ISZERO ISZERO SWAP2 SWAP1 SWAP2 OR SWAP1 SSTORE DUP6 SLOAD PUSH1 0xFF PUSH1 0x1 PUSH1 0xF8 SHL SWAP1 SWAP2 DIV AND ISZERO ISZERO DUP9 CALLER PUSH1 0x1 PUSH1 0x1 PUSH1 0xA0 SHL SUB AND PUSH32 0x6A877C9B3A5A46EDA88CE93DD1AC65942B2C9BBF5ECA8E4202B1E2499157E77F PUSH1 0x40 MLOAD PUSH1 0x40 MLOAD DUP1 SWAP2 SUB SWAP1 LOG4 POP POP PUSH1 0x1 DUP1 SSTORE POP POP POP POP POP POP JUMP JUMPDEST PUSH1 0x0 SLOAD PUSH1 0x1 PUSH1 0x1 PUSH1 0xA0 SHL SUB AND CALLER EQ PUSH2 0x23A5 JUMPI PUSH1 0x40 MLOAD PUSH3 0x461BCD PUSH1 0xE5 SHL DUP2 MSTORE PUSH1 0x4 ADD PUSH2 0x11EF SWAP1 PUSH2 0x5B6F JUMP JUMPDEST PUSH1 0x0 JUMPDEST PUSH1 0x4 DUP2 LT ISZERO PUSH2 0x2438 JUMPI PUSH2 0x2426 DUP4 DUP3 PUSH1 0x4 DUP2 LT PUSH2 0x23C6 JUMPI PUSH2 0x23C6 PUSH2 0x5E9C JUMP JUMPDEST PUSH1 0x20 MUL ADD MLOAD PUSH2 0xFFFF AND DUP4 DUP4 PUSH1 0x4 DUP2 LT PUSH2 0x23E1 JUMPI PUSH2 0x23E1 PUSH2 0x5E9C JUMP JUMPDEST PUSH1 0x20 MUL ADD MLOAD PUSH1 0xFF AND DUP7 DUP5 PUSH1 0x4 DUP2 LT PUSH2 0x23FB JUMPI PUSH2 0x23FB PUSH2 0x5E9C JUMP JUMPDEST PUSH1 0x20 MUL ADD MLOAD PUSH1 0xFF AND PUSH1 0x25 PUSH1 0x0 DUP7 DUP2 MSTORE PUSH1 0x20 ADD SWAP1 DUP2 MSTORE PUSH1 0x20 ADD PUSH1 0x0 KECCAK256 PUSH2 0x4E1F SWAP1 SWAP4 SWAP3 SWAP2 SWAP1 PUSH4 0xFFFFFFFF AND JUMP JUMPDEST DUP1 PUSH2 0x2430 DUP2 PUSH2 0x5E47 JUMP JUMPDEST SWAP2 POP POP PUSH2 0x23A8 JUMP JUMPDEST POP POP PUSH1 0x4 PUSH1 0xE SSTORE POP POP JUMP JUMPDEST PUSH1 0x2 PUSH1 0x1 SLOAD EQ ISZERO PUSH2 0x2466 JUMPI PUSH1 0x40 MLOAD PUSH3 0x461BCD PUSH1 0xE5 SHL DUP2 MSTORE PUSH1 0x4 ADD PUSH2 0x11EF SWAP1 PUSH2 0x5BC7 JUMP JUMPDEST PUSH1 0x2 PUSH1 0x1 DUP2 SWAP1 SSTORE PUSH1 0xD SLOAD PUSH1 0x1 PUSH1 0x1 PUSH1 0xA0 SHL SUB DUP4 AND PUSH1 0x0 SWAP1 DUP2 MSTORE PUSH1 0x1D PUSH1 0x20 MSTORE PUSH1 0x40 SWAP1 KECCAK256 SWAP1 SWAP2 ADD SLOAD PUSH1 0x1 PUSH1 0xA0 SHL SWAP1 DIV PUSH4 0xFFFFFFFF AND LT PUSH2 0x24D8 JUMPI PUSH1 0x40 MLOAD PUSH3 0x461BCD PUSH1 0xE5 SHL DUP2 MSTORE PUSH1 0x20 PUSH1 0x4 DUP3 ADD MSTORE PUSH1 0xF PUSH1 0x24 DUP3 ADD MSTORE PUSH15 0x105B1C9958591E481D5C19185D1959 PUSH1 0x8A SHL PUSH1 0x44 DUP3 ADD MSTORE PUSH1 0x64 ADD PUSH2 0x11EF JUMP JUMPDEST PUSH2 0x1B1D DUP2 PUSH2 0x4033 JUMP JUMPDEST PUSH1 0x2 PUSH1 0x1 SLOAD EQ ISZERO PUSH2 0x2504 JUMPI PUSH1 0x40 MLOAD PUSH3 0x461BCD PUSH1 0xE5 SHL DUP2 MSTORE PUSH1 0x4 ADD PUSH2 0x11EF SWAP1 PUSH2 0x5BC7 JUMP JUMPDEST PUSH1 0x2 PUSH1 0x1 SSTORE PUSH2 0x2512 CALLER PUSH2 0x4033 JUMP JUMPDEST POP PUSH1 0xD SLOAD CALLER PUSH1 0x0 SWAP1 DUP2 MSTORE PUSH1 0x1D PUSH1 0x20 MSTORE PUSH1 0x40 SWAP1 KECCAK256 PUSH1 0x2 ADD SLOAD PUSH1 0x1 PUSH1 0xA0 SHL SWAP1 DIV PUSH4 0xFFFFFFFF AND EQ PUSH2 0x2574 JUMPI PUSH1 0x40 MLOAD PUSH3 0x461BCD PUSH1 0xE5 SHL DUP2 MSTORE PUSH1 0x20 PUSH1 0x4 DUP3 ADD MSTORE PUSH1 0xE PUSH1 0x24 DUP3 ADD MSTORE PUSH14 0x436C61696D20616C6C2062657473 PUSH1 0x90 SHL PUSH1 0x44 DUP3 ADD MSTORE PUSH1 0x64 ADD PUSH2 0x11EF JUMP JUMPDEST PUSH1 0x0 DUP1 PUSH2 0x2580 CALLER PUSH2 0x12AD JUMP JUMPDEST SWAP2 POP SWAP2 POP PUSH1 0x0 PUSH2 0x25B8 DUP4 DUP6 DUP5 PUSH1 0x1D PUSH1 0x0 PUSH2 0x2597 CALLER SWAP1 JUMP JUMPDEST PUSH1 0x1 PUSH1 0x1 PUSH1 0xA0 SHL SUB AND DUP2 MSTORE PUSH1 0x20 DUP2 ADD SWAP2 SWAP1 SWAP2 MSTORE PUSH1 0x40 ADD PUSH1 0x0 KECCAK256 SWAP3 SWAP2 SWAP1 PUSH2 0x4EE2 JUMP JUMPDEST SWAP1 POP DUP1 PUSH1 0x4 SLOAD LT ISZERO PUSH2 0x2601 JUMPI PUSH1 0x40 MLOAD PUSH3 0x461BCD PUSH1 0xE5 SHL DUP2 MSTORE PUSH1 0x20 PUSH1 0x4 DUP3 ADD MSTORE PUSH1 0x12 PUSH1 0x24 DUP3 ADD MSTORE PUSH18 0x496E73756666696369656E742066756E6473 PUSH1 0x70 SHL PUSH1 0x44 DUP3 ADD MSTORE PUSH1 0x64 ADD PUSH2 0x11EF JUMP JUMPDEST DUP4 PUSH1 0x4 SLOAD LT ISZERO PUSH2 0x2648 JUMPI PUSH1 0x40 MLOAD PUSH3 0x461BCD PUSH1 0xE5 SHL DUP2 MSTORE PUSH1 0x20 PUSH1 0x4 DUP3 ADD MSTORE PUSH1 0x12 PUSH1 0x24 DUP3 ADD MSTORE PUSH18 0x496E73756666696369656E742066756E6473 PUSH1 0x70 SHL PUSH1 0x44 DUP3 ADD MSTORE PUSH1 0x64 ADD PUSH2 0x11EF JUMP JUMPDEST DUP1 PUSH1 0x4 PUSH1 0x0 DUP3 DUP3 SLOAD PUSH2 0x265A SWAP2 SWAP1 PUSH2 0x5E13 JUMP JUMPDEST SWAP1 SWAP2 SSTORE POP POP PUSH1 0x17 SLOAD PUSH2 0x1A0B SWAP1 PUSH1 0x1 PUSH1 0x1 PUSH1 0xA0 SHL SUB AND CALLER PUSH2 0x2264 JUMP JUMPDEST PUSH1 0x0 SLOAD PUSH1 0x1 PUSH1 0x1 PUSH1 0xA0 SHL SUB AND CALLER EQ PUSH2 0x269F JUMPI PUSH1 0x40 MLOAD PUSH3 0x461BCD PUSH1 0xE5 SHL DUP2 MSTORE PUSH1 0x4 ADD PUSH2 0x11EF SWAP1 PUSH2 0x5B6F JUMP JUMPDEST DUP1 PUSH1 0x0 DUP2 GT PUSH2 0x26C0 JUMPI PUSH1 0x40 MLOAD PUSH3 0x461BCD PUSH1 0xE5 SHL DUP2 MSTORE PUSH1 0x4 ADD PUSH2 0x11EF SWAP1 PUSH2 0x5BA6 JUMP JUMPDEST POP PUSH1 0x6 SSTORE JUMP JUMPDEST PUSH1 0x2 PUSH1 0x1 SLOAD EQ ISZERO PUSH2 0x26E9 JUMPI PUSH1 0x40 MLOAD PUSH3 0x461BCD PUSH1 0xE5 SHL DUP2 MSTORE PUSH1 0x4 ADD PUSH2 0x11EF SWAP1 PUSH2 0x5BC7 JUMP JUMPDEST PUSH1 0x2 PUSH1 0x1 SSTORE CALLER PUSH1 0x0 SWAP1 DUP2 MSTORE PUSH1 0x1B PUSH1 0x20 SWAP1 DUP2 MSTORE PUSH1 0x40 DUP1 DUP4 KECCAK256 SLOAD PUSH1 0x1E SWAP1 SWAP3 MSTORE DUP3 KECCAK256 SLOAD DUP3 SWAP2 DUP3 SWAP2 DUP2 LT PUSH2 0x2748 JUMPI PUSH1 0x40 MLOAD PUSH3 0x461BCD PUSH1 0xE5 SHL DUP2 MSTORE PUSH1 0x20 PUSH1 0x4 DUP3 ADD MSTORE PUSH1 0xA PUSH1 0x24 DUP3 ADD MSTORE PUSH10 0x139BC81B995DC818995D PUSH1 0xB2 SHL PUSH1 0x44 DUP3 ADD MSTORE PUSH1 0x64 ADD PUSH2 0x11EF JUMP JUMPDEST DUP1 JUMPDEST CALLER PUSH1 0x0 SWAP1 DUP2 MSTORE PUSH1 0x1E PUSH1 0x20 MSTORE PUSH1 0x40 SWAP1 KECCAK256 SLOAD DUP2 LT ISZERO PUSH2 0x2B98 JUMPI CALLER PUSH1 0x0 DUP2 DUP2 MSTORE PUSH1 0x22 PUSH1 0x20 SWAP1 DUP2 MSTORE PUSH1 0x40 DUP1 DUP4 KECCAK256 DUP6 DUP5 MSTORE DUP3 MSTORE DUP1 DUP4 KECCAK256 SWAP4 DUP4 MSTORE PUSH1 0x23 DUP3 MSTORE DUP1 DUP4 KECCAK256 DUP6 DUP5 MSTORE SWAP1 SWAP2 MSTORE SWAP1 KECCAK256 DUP1 SLOAD PUSH1 0x1 PUSH1 0xF8 SHL SWAP1 DIV PUSH1 0xFF AND ISZERO DUP1 ISZERO PUSH2 0x27B6 JUMPI POP DUP2 SLOAD PUSH1 0x1 PUSH1 0x80 SHL SWAP1 DIV PUSH1 0x1 PUSH1 0x1 PUSH1 0x78 SHL SUB AND ISZERO ISZERO JUMPDEST ISZERO PUSH2 0x2B83 JUMPI DUP2 SLOAD DUP2 SLOAD PUSH1 0x1 PUSH1 0x1 PUSH1 0x80 SHL SUB DUP3 AND SWAP2 PUSH1 0x1 PUSH1 0x1 PUSH1 0x40 SHL SUB DUP3 AND SWAP2 PUSH1 0x1 PUSH1 0x40 SHL SWAP1 DIV PUSH4 0xFFFFFFFF AND SWAP1 PUSH1 0x0 SWAP1 PUSH1 0x1 PUSH1 0x1 PUSH1 0x80 SHL SWAP1 SWAP2 DIV PUSH1 0x1 PUSH1 0x1 PUSH1 0x78 SHL SUB AND EQ ISZERO PUSH2 0x2A17 JUMPI DUP5 SLOAD PUSH1 0x1 PUSH1 0xF0 SHL SWAP1 DIV PUSH1 0xFF AND ISZERO PUSH2 0x2858 JUMPI PUSH1 0x17 SLOAD PUSH1 0x2 DUP8 ADD SLOAD PUSH1 0x1 PUSH1 0x1 PUSH1 0xA0 SHL SUB SWAP1 DUP2 AND SWAP2 AND EQ PUSH2 0x2847 JUMPI PUSH1 0x2 DUP7 ADD SLOAD PUSH2 0x2842 SWAP1 PUSH1 0x1 PUSH1 0x1 PUSH1 0xA0 SHL SUB AND CALLER PUSH2 0x2264 JUMP JUMPDEST PUSH2 0x2865 JUMP JUMPDEST PUSH2 0x2851 DUP5 DUP12 PUSH2 0x5CA4 JUMP JUMPDEST SWAP10 POP PUSH2 0x2865 JUMP JUMPDEST PUSH2 0x2862 DUP5 DUP13 PUSH2 0x5CA4 JUMP JUMPDEST SWAP11 POP JUMPDEST PUSH1 0x17 SLOAD PUSH1 0x2 DUP8 ADD SLOAD PUSH1 0x1 PUSH1 0x1 PUSH1 0xA0 SHL SUB SWAP1 DUP2 AND SWAP2 AND EQ DUP1 ISZERO SWAP1 PUSH2 0x289B JUMPI POP PUSH1 0x1 DUP7 ADD SLOAD PUSH1 0x1 PUSH1 0x60 SHL SWAP1 DIV PUSH1 0x1 PUSH1 0x1 PUSH1 0x60 SHL SUB AND ISZERO ISZERO JUMPDEST ISZERO PUSH2 0x29E4 JUMPI PUSH1 0x2 DUP7 ADD SLOAD PUSH1 0x1 PUSH1 0x1 PUSH1 0xA0 SHL SUB AND PUSH1 0x1 EQ ISZERO PUSH2 0x28FD JUMPI PUSH1 0x1 DUP7 ADD SLOAD PUSH9 0x56BC75E2D63100000 SWAP1 DUP5 SWAP1 PUSH2 0x28E2 SWAP1 PUSH1 0x1 PUSH1 0x60 SHL SWAP1 DIV PUSH1 0x1 PUSH1 0x1 PUSH1 0x60 SHL SUB AND DUP8 PUSH2 0x5DCC JUMP JUMPDEST PUSH2 0x28EC SWAP2 SWAP1 PUSH2 0x5DCC JUMP JUMPDEST PUSH2 0x28F6 SWAP2 SWAP1 PUSH2 0x5CBC JUMP JUMPDEST SWAP1 POP PUSH2 0x29D3 JUMP JUMPDEST DUP6 PUSH1 0x2 ADD PUSH1 0x0 SWAP1 SLOAD SWAP1 PUSH2 0x100 EXP SWAP1 DIV PUSH1 0x1 PUSH1 0x1 PUSH1 0xA0 SHL SUB AND PUSH1 0x1 PUSH1 0x1 PUSH1 0xA0 SHL SUB AND PUSH4 0x313CE567 PUSH1 0x40 MLOAD DUP2 PUSH4 0xFFFFFFFF AND PUSH1 0xE0 SHL DUP2 MSTORE PUSH1 0x4 ADD PUSH1 0x20 PUSH1 0x40 MLOAD DUP1 DUP4 SUB DUP2 DUP7 DUP1 EXTCODESIZE ISZERO DUP1 ISZERO PUSH2 0x294D JUMPI PUSH1 0x0 DUP1 REVERT JUMPDEST POP GAS STATICCALL ISZERO DUP1 ISZERO PUSH2 0x2961 JUMPI RETURNDATASIZE PUSH1 0x0 DUP1 RETURNDATACOPY RETURNDATASIZE PUSH1 0x0 REVERT JUMPDEST POP POP POP POP PUSH1 0x40 MLOAD RETURNDATASIZE PUSH1 0x1F NOT PUSH1 0x1F DUP3 ADD AND DUP3 ADD DUP1 PUSH1 0x40 MSTORE POP DUP2 ADD SWAP1 PUSH2 0x2985 SWAP2 SWAP1 PUSH2 0x5AE8 JUMP JUMPDEST PUSH2 0x2990 SWAP1 PUSH1 0xA PUSH2 0x5D21 JUMP JUMPDEST PUSH2 0x299B SWAP1 PUSH1 0x64 PUSH2 0x5DCC JUMP JUMPDEST PUSH1 0x1 DUP8 ADD SLOAD DUP5 SWAP1 PUSH2 0x29BC SWAP1 PUSH1 0x1 PUSH1 0x60 SHL SWAP1 DIV PUSH1 0x1 PUSH1 0x1 PUSH1 0x60 SHL SUB AND DUP8 PUSH2 0x5DCC JUMP JUMPDEST PUSH2 0x29C6 SWAP2 SWAP1 PUSH2 0x5DCC JUMP JUMPDEST PUSH2 0x29D0 SWAP2 SWAP1 PUSH2 0x5CBC JUMP JUMPDEST SWAP1 POP JUMPDEST PUSH2 0x29DD DUP2 DUP12 PUSH2 0x5CA4 JUMP JUMPDEST SWAP10 POP PUSH2 0x2A09 JUMP JUMPDEST PUSH1 0x64 PUSH2 0x29F0 DUP5 DUP7 PUSH2 0x5DCC JUMP JUMPDEST PUSH2 0x29FA SWAP2 SWAP1 PUSH2 0x5CBC JUMP JUMPDEST SWAP1 POP PUSH2 0x2A06 DUP2 DUP12 PUSH2 0x5CA4 JUMP JUMPDEST SWAP10 POP JUMPDEST PUSH2 0x2A12 DUP6 PUSH2 0x5194 JUMP JUMPDEST PUSH2 0x2B33 JUMP JUMPDEST DUP6 SLOAD PUSH1 0x1 PUSH1 0x80 SHL SWAP1 DIV PUSH1 0x1 PUSH1 0x1 PUSH1 0x78 SHL SUB AND PUSH1 0x2 EQ ISZERO PUSH2 0x2B33 JUMPI PUSH1 0x64 DUP3 GT ISZERO PUSH2 0x2A52 JUMPI PUSH1 0x40 MLOAD PUSH3 0x461BCD PUSH1 0xE5 SHL DUP2 MSTORE PUSH1 0x4 ADD PUSH2 0x11EF SWAP1 PUSH2 0x5BA6 JUMP JUMPDEST PUSH1 0x0 PUSH1 0x64 PUSH2 0x2A60 DUP7 DUP6 PUSH2 0x5DCC JUMP JUMPDEST PUSH2 0x2A6A SWAP2 SWAP1 PUSH2 0x5CBC JUMP JUMPDEST SWAP1 POP PUSH1 0x0 PUSH2 0x2A78 DUP3 DUP8 PUSH2 0x5E13 JUMP JUMPDEST DUP8 SLOAD SWAP1 SWAP2 POP PUSH1 0x1 PUSH1 0xF0 SHL SWAP1 DIV PUSH1 0xFF AND ISZERO PUSH2 0x2AFF JUMPI PUSH1 0x17 SLOAD PUSH1 0x2 DUP10 ADD SLOAD PUSH1 0x1 PUSH1 0x1 PUSH1 0xA0 SHL SUB SWAP1 DUP2 AND SWAP2 AND EQ PUSH2 0x2AEE JUMPI DUP1 ISZERO PUSH2 0x2AC4 JUMPI PUSH1 0x2 DUP9 ADD SLOAD PUSH2 0x2AC4 SWAP1 PUSH1 0x1 PUSH1 0x1 PUSH1 0xA0 SHL SUB AND CALLER PUSH2 0x1B17 JUMP JUMPDEST DUP2 ISZERO PUSH2 0x2AE9 JUMPI PUSH1 0x2 DUP9 ADD SLOAD PUSH1 0x16 SLOAD PUSH2 0x2AE9 SWAP2 PUSH1 0x1 PUSH1 0x1 PUSH1 0xA0 SHL SUB SWAP1 DUP2 AND SWAP2 AND DUP5 PUSH2 0x41C7 JUMP JUMPDEST PUSH2 0x2B27 JUMP JUMPDEST PUSH2 0x2AF8 DUP2 DUP14 PUSH2 0x5CA4 JUMP JUMPDEST SWAP12 POP PUSH2 0x2B27 JUMP JUMPDEST PUSH2 0x2B09 DUP2 DUP15 PUSH2 0x5CA4 JUMP JUMPDEST SWAP13 POP DUP2 ISZERO PUSH2 0x2B27 JUMPI PUSH1 0x16 SLOAD PUSH2 0x2B27 SWAP1 PUSH1 0x1 PUSH1 0x1 PUSH1 0xA0 SHL SUB AND DUP4 PUSH2 0x4D51 JUMP JUMPDEST PUSH2 0x2B30 DUP8 PUSH2 0x5194 JUMP JUMPDEST POP POP JUMPDEST PUSH2 0x2B3E DUP8 PUSH1 0x1 PUSH2 0x5CA4 JUMP JUMPDEST PUSH1 0x40 DUP1 MLOAD TIMESTAMP DUP2 MSTORE PUSH1 0x20 DUP2 ADD DUP5 SWAP1 MSTORE SWAP2 SWAP11 POP DUP9 SWAP2 CALLER SWAP2 PUSH32 0x9E69D00870C99BD9583A212168D5869F740D1DBABDB2D60A56D716D9F9DBD700 SWAP2 ADD PUSH1 0x40 MLOAD DUP1 SWAP2 SUB SWAP1 LOG3 POP POP POP POP JUMPDEST POP POP DUP1 DUP1 PUSH2 0x2B90 SWAP1 PUSH2 0x5E47 JUMP JUMPDEST SWAP2 POP POP PUSH2 0x274A JUMP JUMPDEST POP CALLER PUSH1 0x0 SWAP1 DUP2 MSTORE PUSH1 0x1B PUSH1 0x20 MSTORE PUSH1 0x40 SWAP1 KECCAK256 PUSH1 0x1 PUSH1 0x1 PUSH1 0x40 SHL SUB DUP4 AND SWAP1 SSTORE DUP4 ISZERO PUSH2 0x2BC3 JUMPI PUSH2 0x2BC3 CALLER PUSH2 0x2274 JUMP JUMPDEST DUP3 ISZERO PUSH2 0x1A0B JUMPI PUSH1 0x17 SLOAD PUSH2 0x1A0B SWAP1 PUSH1 0x1 PUSH1 0x1 PUSH1 0xA0 SHL SUB AND CALLER DUP6 PUSH2 0x41C7 JUMP JUMPDEST PUSH1 0x3 SLOAD PUSH1 0xFF AND ISZERO PUSH2 0x2BF0 JUMPI PUSH1 0x0 DUP1 REVERT JUMPDEST PUSH1 0x3 DUP1 SLOAD PUSH1 0xFF NOT AND PUSH1 0x1 OR SWAP1 SSTORE PUSH1 0x5 DUP7 SWAP1 SSTORE PUSH10 0x152D02C7E14AF6800000 PUSH1 0x6 SSTORE PUSH1 0x7 DUP6 SWAP1 SSTORE PUSH1 0x8 DUP5 SWAP1 SSTORE PUSH1 0x9 DUP4 SWAP1 SSTORE PUSH2 0xE10 PUSH1 0x11 SSTORE PUSH1 0x17 DUP1 SLOAD PUSH1 0x1 PUSH1 0x1 PUSH1 0xA0 SHL SUB DUP1 DUP12 AND PUSH1 0x1 PUSH1 0x1 PUSH1 0xA0 SHL SUB NOT SWAP3 DUP4 AND OR SWAP1 SWAP3 SSTORE PUSH1 0x1A DUP1 SLOAD DUP6 DUP5 AND SWAP1 DUP4 AND OR SWAP1 SSTORE PUSH1 0x19 DUP1 SLOAD SWAP3 DUP5 AND SWAP3 SWAP1 SWAP2 AND SWAP2 SWAP1 SWAP2 OR SWAP1 SSTORE PUSH2 0x2C6B DUP10 PUSH2 0x51BA JUMP JUMPDEST PUSH1 0x64 PUSH1 0x10 DUP2 SWAP1 SSTORE PUSH3 0x15180 PUSH1 0x2 SSTORE PUSH1 0x40 DUP1 MLOAD PUSH1 0x80 DUP1 DUP3 ADD DUP4 MSTORE PUSH1 0x6 DUP3 MSTORE PUSH1 0x3 PUSH1 0x20 DUP1 DUP5 ADD SWAP2 SWAP1 SWAP2 MSTORE PUSH1 0x5 DUP4 DUP6 ADD MSTORE PUSH1 0x7 PUSH1 0x60 DUP1 DUP6 ADD SWAP2 SWAP1 SWAP2 MSTORE DUP5 MLOAD DUP1 DUP5 ADD DUP7 MSTORE PUSH2 0x12C DUP2 MSTORE PUSH1 0x32 DUP2 DUP5 ADD MSTORE DUP1 DUP7 ADD SWAP7 SWAP1 SWAP7 MSTORE PUSH1 0xC8 DUP7 DUP3 ADD MSTORE DUP5 MLOAD SWAP3 DUP4 ADD DUP6 MSTORE PUSH1 0x0 DUP1 DUP5 MSTORE SWAP2 DUP4 ADD DUP3 SWAP1 MSTORE SWAP4 DUP3 ADD DUP2 SWAP1 MSTORE SWAP3 DUP2 ADD SWAP3 SWAP1 SWAP3 MSTORE PUSH2 0x2CED SWAP3 SWAP1 SWAP2 PUSH2 0x237B JUMP JUMPDEST POP POP PUSH1 0x4 PUSH1 0xE DUP2 SWAP1 SSTORE PUSH1 0x7 PUSH1 0x12 DUP2 SWAP1 SSTORE PUSH10 0x21E19E0C9BAB2400000 PUSH1 0x13 SSTORE PUSH1 0x16 DUP1 SLOAD PUSH1 0x1 PUSH1 0x1 PUSH1 0xA0 SHL SUB NOT AND PUSH1 0x1 PUSH1 0x1 PUSH1 0xA0 SHL SUB SWAP9 SWAP1 SWAP9 AND SWAP8 SWAP1 SWAP8 OR SWAP1 SWAP7 SSTORE PUSH1 0x1 PUSH32 0x673668FDE1539921A3231470503848F53FC614C057A2345BC3A2F36758A6D3AC DUP2 SWAP1 SSTORE PUSH32 0x5DB1DFD2CED311E642486F0E890A646498A1BDEE1AD9403B0A73141AF8A4C411 SSTORE PUSH1 0x3 PUSH32 0x79D5AC1AF4480D65C6DD0B2262174229F09440EB5EFCDD43DD5ABB89BD013A8B SSTORE PUSH32 0xDAB4009B70BEBE3D9317B241CAFFBBDDAFDED4EFEB788BA6719FD72301394516 DUP7 SWAP1 SSTORE PUSH32 0x1218CF69D642A89A40B73EC409B224A7A535DBF563AD004610BA747340021CB2 DUP7 SWAP1 SSTORE PUSH32 0xAB988FD7626ABE7CAA91E19F5AAD4A3A61B1E651878276AB7DDCC7B9E0E36DF2 DUP7 SWAP1 SSTORE PUSH32 0x4408E7CF470E5F97D9246C3329248D9E27598C018C8E287D7165449E80C1A6EE DUP7 SWAP1 SSTORE PUSH32 0x9056A0F76D88F9F3F2542162F4AC777299F5C80A5EBC951C1F4B118089C57FAB DUP7 SWAP1 SSTORE PUSH32 0x8CA374D29C0F22D90988C19A46E2609F73349DE83670B110F979E5E2DDAD8880 DUP7 SWAP1 SSTORE PUSH32 0x24D1E737602C347FE41DEDB93267DC4656B052DA92B8561D7D35BFE12D7B2416 DUP7 SWAP1 SSTORE PUSH32 0x4F2F958077A478B1E04C2A2445CA5DFE463563AD689833A43A13E24285B858A DUP7 SWAP1 SSTORE PUSH32 0x897D51A06262A8CA6CEFDC150B604EB52997B0BDFAFB1D219165C1A2A5F6ABEA DUP7 SWAP1 SSTORE PUSH32 0xB45418D15EF59E82E47E3DEE825D0DD4A5D1B24260499703A99CC52B3BFCB55A DUP7 SWAP1 SSTORE PUSH32 0xDECB35B3C19F1E16B3D8808163ED236681DD33DBFDA3E4C0B025D406E86BD582 DUP7 SWAP1 SSTORE PUSH1 0x6 PUSH1 0x0 MSTORE PUSH32 0x5CA855EEAE1B488FA0B99CC3FD0C088EDEB325D8687640F29B9DAB5E07B5EACE PUSH1 0x20 MSTORE PUSH32 0x7F6686704CCE2740F568332784F2CA2B8493642ED317A10AC3839B5CDD81AF45 SWAP6 SWAP1 SWAP6 SSTORE POP POP POP PUSH1 0xF SWAP2 SWAP1 SWAP2 SSTORE POP POP POP JUMP JUMPDEST PUSH1 0x2 PUSH1 0x1 SLOAD EQ ISZERO PUSH2 0x2FA3 JUMPI PUSH1 0x40 MLOAD PUSH3 0x461BCD PUSH1 0xE5 SHL DUP2 MSTORE PUSH1 0x4 ADD PUSH2 0x11EF SWAP1 PUSH2 0x5BC7 JUMP JUMPDEST PUSH1 0x2 PUSH1 0x1 SSTORE PUSH1 0x5 SLOAD DUP2 LT DUP1 ISZERO SWAP1 PUSH2 0x2FBC JUMPI POP PUSH1 0x6 SLOAD DUP2 GT ISZERO JUMPDEST PUSH2 0x2FD8 JUMPI PUSH1 0x40 MLOAD PUSH3 0x461BCD PUSH1 0xE5 SHL DUP2 MSTORE PUSH1 0x4 ADD PUSH2 0x11EF SWAP1 PUSH2 0x5BA6 JUMP JUMPDEST PUSH2 0x2FE1 CALLER PUSH2 0x4033 JUMP JUMPDEST POP CALLER PUSH1 0x0 SWAP1 DUP2 MSTORE PUSH1 0x1D PUSH1 0x20 MSTORE PUSH1 0x40 SWAP1 KECCAK256 PUSH1 0xD SLOAD PUSH1 0x2 DUP3 ADD SLOAD PUSH1 0x1 PUSH1 0xA0 SHL SWAP1 DIV PUSH4 0xFFFFFFFF AND EQ DUP1 PUSH2 0x3021 JUMPI POP PUSH1 0x2 DUP2 ADD SLOAD PUSH1 0x1 PUSH1 0xC0 SHL SWAP1 DIV PUSH4 0xFFFFFFFF AND ISZERO JUMPDEST PUSH2 0x305E JUMPI PUSH1 0x40 MLOAD PUSH3 0x461BCD PUSH1 0xE5 SHL DUP2 MSTORE PUSH1 0x20 PUSH1 0x4 DUP3 ADD MSTORE PUSH1 0xE PUSH1 0x24 DUP3 ADD MSTORE PUSH14 0x436C61696D20616C6C2062657473 PUSH1 0x90 SHL PUSH1 0x44 DUP3 ADD MSTORE PUSH1 0x64 ADD PUSH2 0x11EF JUMP JUMPDEST PUSH1 0x17 SLOAD PUSH2 0x3076 SWAP1 PUSH1 0x1 PUSH1 0x1 PUSH1 0xA0 SHL SUB AND CALLER ADDRESS DUP6 PUSH2 0x51DC JUMP JUMPDEST PUSH1 0x2 DUP2 ADD SLOAD CALLER PUSH1 0x0 SWAP1 DUP2 MSTORE PUSH1 0x1C PUSH1 0x20 SWAP1 DUP2 MSTORE PUSH1 0x40 DUP1 DUP4 KECCAK256 PUSH1 0x1 PUSH1 0xC0 SHL SWAP1 SWAP5 DIV PUSH4 0xFFFFFFFF AND DUP1 DUP5 MSTORE SWAP4 SWAP1 SWAP2 MSTORE SWAP1 KECCAK256 DUP1 SLOAD PUSH1 0x1 PUSH1 0x1 PUSH1 0x80 SHL SUB DUP6 AND PUSH1 0x1 PUSH1 0x80 SHL MUL PUSH16 0xFFFFFFFFFFFFFFFF0000000000000000 SWAP1 SWAP2 AND PUSH1 0x1 PUSH1 0x1 PUSH1 0x40 SHL SUB TIMESTAMP AND OR OR SWAP1 SSTORE PUSH2 0x30E2 DUP3 DUP5 PUSH2 0x5304 JUMP JUMPDEST DUP3 PUSH1 0x4 PUSH1 0x0 DUP3 DUP3 SLOAD PUSH2 0x30F4 SWAP2 SWAP1 PUSH2 0x5CA4 JUMP JUMPDEST SWAP1 SWAP2 SSTORE POP POP PUSH1 0x1 DUP1 SSTORE POP POP POP JUMP JUMPDEST PUSH1 0x1 PUSH1 0x1 PUSH1 0xA0 SHL SUB DUP2 AND PUSH1 0x0 SWAP1 DUP2 MSTORE PUSH1 0x1D PUSH1 0x20 MSTORE PUSH1 0x40 DUP2 KECCAK256 PUSH1 0x2 DUP2 ADD SLOAD DUP2 SLOAD PUSH1 0xD SLOAD PUSH1 0x10 SLOAD DUP6 SWAP5 DUP6 SWAP5 SWAP1 SWAP4 PUSH4 0xFFFFFFFF PUSH1 0x1 PUSH1 0xA0 SHL DUP4 DIV DUP2 AND SWAP5 PUSH1 0x1 PUSH1 0x80 SHL SWAP1 SWAP4 DIV AND SWAP3 PUSH1 0x1 PUSH1 0x1 PUSH1 0x80 SHL SUB SWAP1 SWAP2 AND SWAP2 DUP7 SWAP2 DUP3 SWAP2 DUP3 SWAP2 PUSH2 0x3162 SWAP1 DUP9 PUSH2 0x5CA4 JUMP JUMPDEST LT PUSH2 0x3170 JUMPI POP PUSH1 0xD SLOAD PUSH2 0x3180 JUMP JUMPDEST PUSH1 0x10 SLOAD PUSH2 0x317D SWAP1 DUP8 PUSH2 0x5CA4 JUMP JUMPDEST SWAP1 POP JUMPDEST DUP6 JUMPDEST DUP2 DUP2 LT ISZERO PUSH2 0x3263 JUMPI PUSH1 0x0 DUP2 DUP2 MSTORE PUSH1 0x24 PUSH1 0x20 MSTORE PUSH1 0x40 SWAP1 KECCAK256 DUP1 SLOAD PUSH1 0x1 PUSH1 0xC0 SHL SWAP1 DIV PUSH4 0xFFFFFFFF AND DUP8 LT ISZERO PUSH2 0x3250 JUMPI DUP1 SLOAD PUSH1 0x1 PUSH1 0xE0 SHL SWAP1 DIV PUSH4 0xFFFFFFFF AND PUSH1 0x2 EQ ISZERO PUSH2 0x3201 JUMPI DUP1 SLOAD PUSH1 0x1 PUSH1 0x1 PUSH1 0x60 SHL SUB DUP1 DUP3 AND SWAP2 PUSH2 0x31E6 SWAP2 DUP10 SWAP2 PUSH1 0x1 PUSH1 0x60 SHL SWAP1 DIV AND PUSH2 0x5DCC JUMP JUMPDEST PUSH2 0x31F0 SWAP2 SWAP1 PUSH2 0x5CBC JUMP JUMPDEST PUSH2 0x31FA SWAP1 DUP7 PUSH2 0x5CA4 JUMP JUMPDEST SWAP5 POP PUSH2 0x3250 JUMP JUMPDEST DUP1 SLOAD PUSH1 0x1 PUSH1 0xE0 SHL SWAP1 DIV PUSH4 0xFFFFFFFF AND PUSH1 0x1 EQ ISZERO PUSH2 0x3250 JUMPI DUP1 SLOAD PUSH1 0x1 PUSH1 0x1 PUSH1 0x60 SHL SUB DUP1 DUP3 AND SWAP2 PUSH2 0x3239 SWAP2 DUP10 SWAP2 PUSH1 0x1 PUSH1 0x60 SHL SWAP1 DIV AND PUSH2 0x5DCC JUMP JUMPDEST PUSH2 0x3243 SWAP2 SWAP1 PUSH2 0x5CBC JUMP JUMPDEST PUSH2 0x324D SWAP1 DUP6 PUSH2 0x5CA4 JUMP JUMPDEST SWAP4 POP JUMPDEST POP DUP1 PUSH2 0x325B DUP2 PUSH2 0x5E47 JUMP JUMPDEST SWAP2 POP POP PUSH2 0x3182 JUMP JUMPDEST POP SWAP2 SWAP11 SWAP1 SWAP10 POP SWAP1 SWAP8 POP SWAP6 POP POP POP POP POP POP JUMP JUMPDEST PUSH1 0x0 SLOAD PUSH1 0x1 PUSH1 0x1 PUSH1 0xA0 SHL SUB AND CALLER EQ PUSH2 0x329F JUMPI PUSH1 0x40 MLOAD PUSH3 0x461BCD PUSH1 0xE5 SHL DUP2 MSTORE PUSH1 0x4 ADD PUSH2 0x11EF SWAP1 PUSH2 0x5B6F JUMP JUMPDEST PUSH1 0xE SLOAD DUP3 SWAP1 DUP1 DUP3 LT PUSH2 0x32C3 JUMPI PUSH1 0x40 MLOAD PUSH3 0x461BCD PUSH1 0xE5 SHL DUP2 MSTORE PUSH1 0x4 ADD PUSH2 0x11EF SWAP1 PUSH2 0x5BA6 JUMP JUMPDEST PUSH1 0x0 DUP5 DUP2 MSTORE PUSH1 0x25 PUSH1 0x20 MSTORE PUSH1 0x40 SWAP1 KECCAK256 PUSH2 0x32DB SWAP1 DUP5 PUSH2 0x53A2 JUMP JUMPDEST POP POP POP POP JUMP JUMPDEST PUSH1 0x0 SLOAD PUSH1 0x1 PUSH1 0x1 PUSH1 0xA0 SHL SUB AND CALLER EQ PUSH2 0x330B JUMPI PUSH1 0x40 MLOAD PUSH3 0x461BCD PUSH1 0xE5 SHL DUP2 MSTORE PUSH1 0x4 ADD PUSH2 0x11EF SWAP1 PUSH2 0x5B6F JUMP JUMPDEST PUSH1 0xF SLOAD DUP3 GT ISZERO PUSH2 0x331A JUMPI PUSH1 0x0 DUP1 REVERT JUMPDEST PUSH1 0xF SLOAD DUP3 EQ DUP1 ISZERO PUSH2 0x332A JUMPI POP DUP1 ISZERO ISZERO JUMPDEST ISZERO PUSH2 0x3357 JUMPI PUSH1 0x0 DUP3 DUP2 MSTORE PUSH1 0x26 PUSH1 0x20 MSTORE PUSH1 0x40 DUP2 KECCAK256 DUP3 SWAP1 SSTORE PUSH1 0xF DUP1 SLOAD SWAP2 PUSH2 0x334E DUP4 PUSH2 0x5E47 JUMP JUMPDEST SWAP2 SWAP1 POP SSTORE POP POP POP JUMP JUMPDEST PUSH1 0x0 DUP3 DUP2 MSTORE PUSH1 0x26 PUSH1 0x20 MSTORE PUSH1 0x40 SWAP1 KECCAK256 DUP2 SWAP1 SSTORE JUMPDEST POP POP JUMP JUMPDEST PUSH1 0x0 SLOAD PUSH1 0x1 PUSH1 0x1 PUSH1 0xA0 SHL SUB AND CALLER EQ PUSH2 0x3397 JUMPI PUSH1 0x40 MLOAD PUSH3 0x461BCD PUSH1 0xE5 SHL DUP2 MSTORE PUSH1 0x4 ADD PUSH2 0x11EF SWAP1 PUSH2 0x5B6F JUMP JUMPDEST DUP1 PUSH1 0x0 DUP2 GT PUSH2 0x33B8 JUMPI PUSH1 0x40 MLOAD PUSH3 0x461BCD PUSH1 0xE5 SHL DUP2 MSTORE PUSH1 0x4 ADD PUSH2 0x11EF SWAP1 PUSH2 0x5BA6 JUMP JUMPDEST POP PUSH1 0x13 SSTORE JUMP JUMPDEST PUSH1 0x17 SLOAD PUSH1 0x0 SWAP1 PUSH1 0x1 PUSH1 0x1 PUSH1 0xA0 SHL SUB DUP4 DUP2 AND SWAP2 AND EQ ISZERO PUSH2 0x33DF JUMPI POP PUSH1 0x1 SWAP2 SWAP1 POP JUMP JUMPDEST PUSH1 0x1A SLOAD PUSH1 0x17 SLOAD PUSH1 0x19 SLOAD PUSH1 0x40 MLOAD PUSH4 0x5620C32D PUSH1 0xE1 SHL DUP2 MSTORE PUSH1 0x1 PUSH1 0x1 PUSH1 0xA0 SHL SUB SWAP3 DUP4 AND PUSH1 0x4 DUP3 ADD MSTORE SWAP1 DUP3 AND PUSH1 0x24 DUP3 ADD MSTORE SWAP2 AND SWAP1 PUSH4 0xAC41865A SWAP1 PUSH1 0x44 ADD PUSH1 0x20 PUSH1 0x40 MLOAD DUP1 DUP4 SUB DUP2 DUP7 DUP1 EXTCODESIZE ISZERO DUP1 ISZERO PUSH2 0x3431 JUMPI PUSH1 0x0 DUP1 REVERT JUMPDEST POP GAS STATICCALL ISZERO DUP1 ISZERO PUSH2 0x3445 JUMPI RETURNDATASIZE PUSH1 0x0 DUP1 RETURNDATACOPY RETURNDATASIZE PUSH1 0x0 REVERT JUMPDEST POP POP POP POP PUSH1 0x40 MLOAD RETURNDATASIZE PUSH1 0x1F NOT PUSH1 0x1F DUP3 ADD AND DUP3 ADD DUP1 PUSH1 0x40 MSTORE POP DUP2 ADD SWAP1 PUSH2 0x3469 SWAP2 SWAP1 PUSH2 0x5926 JUMP JUMPDEST PUSH1 0x1A SLOAD PUSH1 0x19 SLOAD PUSH1 0x40 MLOAD PUSH4 0x5620C32D PUSH1 0xE1 SHL DUP2 MSTORE PUSH1 0x1 PUSH1 0x1 PUSH1 0xA0 SHL SUB DUP7 DUP2 AND PUSH1 0x4 DUP4 ADD MSTORE SWAP2 DUP3 AND PUSH1 0x24 DUP3 ADD MSTORE SWAP2 AND SWAP1 PUSH4 0xAC41865A SWAP1 PUSH1 0x44 ADD PUSH1 0x20 PUSH1 0x40 MLOAD DUP1 DUP4 SUB DUP2 DUP7 DUP1 EXTCODESIZE ISZERO DUP1 ISZERO PUSH2 0x34B8 JUMPI PUSH1 0x0 DUP1 REVERT JUMPDEST POP GAS STATICCALL ISZERO DUP1 ISZERO PUSH2 0x34CC JUMPI RETURNDATASIZE PUSH1 0x0 DUP1 RETURNDATACOPY RETURNDATASIZE PUSH1 0x0 REVERT JUMPDEST POP POP POP POP PUSH1 0x40 MLOAD RETURNDATASIZE PUSH1 0x1F NOT PUSH1 0x1F DUP3 ADD AND DUP3 ADD DUP1 PUSH1 0x40 MSTORE POP DUP2 ADD SWAP1 PUSH2 0x34F0 SWAP2 SWAP1 PUSH2 0x5926 JUMP JUMPDEST PUSH2 0x3502 SWAP1 PUSH8 0xDE0B6B3A7640000 PUSH2 0x5DCC JUMP JUMPDEST PUSH2 0x350C SWAP2 SWAP1 PUSH2 0x5CBC JUMP JUMPDEST SWAP3 SWAP2 POP POP JUMP JUMPDEST PUSH1 0x0 SLOAD PUSH1 0x1 PUSH1 0x1 PUSH1 0xA0 SHL SUB AND CALLER EQ PUSH2 0x353C JUMPI PUSH1 0x40 MLOAD PUSH3 0x461BCD PUSH1 0xE5 SHL DUP2 MSTORE PUSH1 0x4 ADD PUSH2 0x11EF SWAP1 PUSH2 0x5B6F JUMP JUMPDEST PUSH1 0xE SLOAD DUP3 SWAP1 DUP1 DUP3 LT PUSH2 0x3560 JUMPI PUSH1 0x40 MLOAD PUSH3 0x461BCD PUSH1 0xE5 SHL DUP2 MSTORE PUSH1 0x4 ADD PUSH2 0x11EF SWAP1 PUSH2 0x5BA6 JUMP JUMPDEST PUSH1 0x0 DUP5 DUP2 MSTORE PUSH1 0x25 PUSH1 0x20 MSTORE PUSH1 0x40 SWAP1 KECCAK256 PUSH2 0x32DB SWAP1 DUP5 PUSH2 0x53D4 JUMP JUMPDEST PUSH1 0x0 SLOAD PUSH1 0x1 PUSH1 0x1 PUSH1 0xA0 SHL SUB AND CALLER EQ PUSH2 0x35A2 JUMPI PUSH1 0x40 MLOAD PUSH3 0x461BCD PUSH1 0xE5 SHL DUP2 MSTORE PUSH1 0x4 ADD PUSH2 0x11EF SWAP1 PUSH2 0x5B6F JUMP JUMPDEST PUSH1 0xE SLOAD DUP3 SWAP1 DUP1 DUP3 LT PUSH2 0x35C6 JUMPI PUSH1 0x40 MLOAD PUSH3 0x461BCD PUSH1 0xE5 SHL DUP2 MSTORE PUSH1 0x4 ADD PUSH2 0x11EF SWAP1 PUSH2 0x5BA6 JUMP JUMPDEST PUSH1 0x0 DUP5 DUP2 MSTORE PUSH1 0x25 PUSH1 0x20 MSTORE PUSH1 0x40 SWAP1 KECCAK256 PUSH2 0x32DB SWAP1 DUP5 PUSH2 0x5428 JUMP JUMPDEST PUSH1 0x0 SLOAD PUSH1 0x1 PUSH1 0x1 PUSH1 0xA0 SHL SUB AND CALLER EQ PUSH2 0x3608 JUMPI PUSH1 0x40 MLOAD PUSH3 0x461BCD PUSH1 0xE5 SHL DUP2 MSTORE PUSH1 0x4 ADD PUSH2 0x11EF SWAP1 PUSH2 0x5B6F JUMP JUMPDEST PUSH1 0x64 DUP2 GT ISZERO PUSH2 0x3616 JUMPI PUSH1 0x0 DUP1 REVERT JUMPDEST PUSH1 0x12 SSTORE JUMP JUMPDEST PUSH1 0x0 SLOAD PUSH1 0x1 PUSH1 0x1 PUSH1 0xA0 SHL SUB AND CALLER EQ PUSH2 0x3645 JUMPI PUSH1 0x40 MLOAD PUSH3 0x461BCD PUSH1 0xE5 SHL DUP2 MSTORE PUSH1 0x4 ADD PUSH2 0x11EF SWAP1 PUSH2 0x5B6F JUMP JUMPDEST DUP1 PUSH1 0x0 DUP2 GT PUSH2 0x3666 JUMPI PUSH1 0x40 MLOAD PUSH3 0x461BCD PUSH1 0xE5 SHL DUP2 MSTORE PUSH1 0x4 ADD PUSH2 0x11EF SWAP1 PUSH2 0x5BA6 JUMP JUMPDEST POP PUSH1 0x7 SSTORE JUMP JUMPDEST PUSH1 0x0 SLOAD PUSH1 0x1 PUSH1 0x1 PUSH1 0xA0 SHL SUB AND CALLER EQ PUSH2 0x3696 JUMPI PUSH1 0x40 MLOAD PUSH3 0x461BCD PUSH1 0xE5 SHL DUP2 MSTORE PUSH1 0x4 ADD PUSH2 0x11EF SWAP1 PUSH2 0x5B6F JUMP JUMPDEST PUSH1 0x8 SSTORE JUMP JUMPDEST PUSH1 0x0 SLOAD PUSH1 0x1 PUSH1 0x1 PUSH1 0xA0 SHL SUB AND CALLER EQ PUSH2 0x36C5 JUMPI PUSH1 0x40 MLOAD PUSH3 0x461BCD PUSH1 0xE5 SHL DUP2 MSTORE PUSH1 0x4 ADD PUSH2 0x11EF SWAP1 PUSH2 0x5B6F JUMP JUMPDEST PUSH1 0x15 SLOAD PUSH1 0xFF AND ISZERO ISZERO DUP2 ISZERO ISZERO EQ PUSH2 0x36E4 JUMPI PUSH1 0x15 DUP1 SLOAD PUSH1 0xFF NOT AND DUP3 ISZERO ISZERO OR SWAP1 SSTORE JUMPDEST POP JUMP JUMPDEST PUSH1 0x0 SLOAD PUSH1 0x1 PUSH1 0x1 PUSH1 0xA0 SHL SUB AND CALLER EQ PUSH2 0x3711 JUMPI PUSH1 0x40 MLOAD PUSH3 0x461BCD PUSH1 0xE5 SHL DUP2 MSTORE PUSH1 0x4 ADD PUSH2 0x11EF SWAP1 PUSH2 0x5B6F JUMP JUMPDEST PUSH1 0xE SLOAD DUP3 SWAP1 DUP1 DUP3 LT PUSH2 0x3735 JUMPI PUSH1 0x40 MLOAD PUSH3 0x461BCD PUSH1 0xE5 SHL DUP2 MSTORE PUSH1 0x4 ADD PUSH2 0x11EF SWAP1 PUSH2 0x5BA6 JUMP JUMPDEST PUSH1 0x0 DUP5 DUP2 MSTORE PUSH1 0x25 PUSH1 0x20 MSTORE PUSH1 0x40 SWAP1 KECCAK256 PUSH2 0x32DB SWAP1 DUP5 PUSH2 0x54A5 JUMP JUMPDEST PUSH1 0x0 SLOAD PUSH1 0x1 PUSH1 0x1 PUSH1 0xA0 SHL SUB AND CALLER EQ PUSH2 0x3777 JUMPI PUSH1 0x40 MLOAD PUSH3 0x461BCD PUSH1 0xE5 SHL DUP2 MSTORE PUSH1 0x4 ADD PUSH2 0x11EF SWAP1 PUSH2 0x5B6F JUMP JUMPDEST PUSH1 0xE SLOAD PUSH1 0x0 DUP2 DUP2 MSTORE PUSH1 0x25 PUSH1 0x20 MSTORE PUSH1 0x40 SWAP1 KECCAK256 PUSH2 0x3792 DUP2 DUP8 PUSH2 0x5428 JUMP JUMPDEST PUSH2 0x379C DUP2 DUP7 PUSH2 0x54A5 JUMP JUMPDEST PUSH2 0x37A6 DUP2 DUP6 PUSH2 0x53D4 JUMP JUMPDEST PUSH2 0x37B0 DUP2 DUP5 PUSH2 0x53A2 JUMP JUMPDEST PUSH1 0xE DUP1 SLOAD SWAP1 PUSH1 0x0 PUSH2 0x37C0 DUP4 PUSH2 0x5E47 JUMP JUMPDEST SWAP2 SWAP1 POP SSTORE POP POP POP POP POP POP POP JUMP JUMPDEST PUSH1 0x0 SLOAD PUSH1 0x1 PUSH1 0x1 PUSH1 0xA0 SHL SUB AND CALLER EQ PUSH2 0x37F7 JUMPI PUSH1 0x40 MLOAD PUSH3 0x461BCD PUSH1 0xE5 SHL DUP2 MSTORE PUSH1 0x4 ADD PUSH2 0x11EF SWAP1 PUSH2 0x5B6F JUMP JUMPDEST PUSH1 0x1 PUSH1 0x1 PUSH1 0xA0 SHL SUB DUP2 AND PUSH2 0x380A JUMPI PUSH1 0x0 DUP1 REVERT JUMPDEST PUSH1 0x16 DUP1 SLOAD PUSH1 0x1 PUSH1 0x1 PUSH1 0xA0 SHL SUB NOT AND PUSH1 0x1 PUSH1 0x1 PUSH1 0xA0 SHL SUB SWAP3 SWAP1 SWAP3 AND SWAP2 SWAP1 SWAP2 OR SWAP1 SSTORE JUMP JUMPDEST PUSH1 0x0 SLOAD PUSH1 0x1 PUSH1 0x1 PUSH1 0xA0 SHL SUB AND CALLER EQ PUSH2 0x3856 JUMPI PUSH1 0x40 MLOAD PUSH3 0x461BCD PUSH1 0xE5 SHL DUP2 MSTORE PUSH1 0x4 ADD PUSH2 0x11EF SWAP1 PUSH2 0x5B6F JUMP JUMPDEST DUP3 DUP3 DUP2 PUSH1 0x1 EQ DUP1 PUSH2 0x3867 JUMPI POP DUP2 PUSH1 0x2 EQ JUMPDEST DUP1 PUSH2 0x3872 JUMPI POP DUP2 PUSH1 0x3 EQ JUMPDEST PUSH2 0x388E JUMPI PUSH1 0x40 MLOAD PUSH3 0x461BCD PUSH1 0xE5 SHL DUP2 MSTORE PUSH1 0x4 ADD PUSH2 0x11EF SWAP1 PUSH2 0x5BA6 JUMP JUMPDEST DUP1 PUSH1 0x1 EQ DUP1 PUSH2 0x389D JUMPI POP DUP1 PUSH1 0x2 EQ JUMPDEST PUSH2 0x38DC JUMPI PUSH1 0x40 MLOAD PUSH3 0x461BCD PUSH1 0xE5 SHL DUP2 MSTORE PUSH1 0x20 PUSH1 0x4 DUP3 ADD MSTORE PUSH1 0x10 PUSH1 0x24 DUP3 ADD MSTORE PUSH16 0x496E76616C696420506C616E54797065 PUSH1 0x80 SHL PUSH1 0x44 DUP3 ADD MSTORE PUSH1 0x64 ADD PUSH2 0x11EF JUMP JUMPDEST PUSH1 0x1 PUSH1 0x1 PUSH1 0xA0 SHL SUB DUP4 AND PUSH2 0x3902 JUMPI PUSH1 0x40 MLOAD PUSH3 0x461BCD PUSH1 0xE5 SHL DUP2 MSTORE PUSH1 0x4 ADD PUSH2 0x11EF SWAP1 PUSH2 0x5BA6 JUMP JUMPDEST PUSH1 0x1 PUSH1 0x1 PUSH1 0xA0 SHL SUB DUP4 AND PUSH1 0x0 SWAP1 DUP2 MSTORE PUSH1 0x1F PUSH1 0x20 SWAP1 DUP2 MSTORE PUSH1 0x40 DUP1 DUP4 KECCAK256 DUP9 DUP5 MSTORE DUP3 MSTORE DUP1 DUP4 KECCAK256 DUP8 DUP5 MSTORE SWAP1 SWAP2 MSTORE SWAP1 KECCAK256 SLOAD PUSH1 0xFF AND ISZERO PUSH2 0x396E JUMPI PUSH1 0x40 MLOAD PUSH3 0x461BCD PUSH1 0xE5 SHL DUP2 MSTORE PUSH1 0x20 PUSH1 0x4 DUP3 ADD MSTORE PUSH1 0xD PUSH1 0x24 DUP3 ADD MSTORE PUSH13 0x105B1C9958591E481859191959 PUSH1 0x9A SHL PUSH1 0x44 DUP3 ADD MSTORE PUSH1 0x64 ADD PUSH2 0x11EF JUMP JUMPDEST PUSH1 0x0 DUP6 PUSH1 0x1 EQ ISZERO PUSH2 0x3996 JUMPI POP PUSH1 0xA DUP1 SLOAD SWAP1 DUP2 SWAP1 PUSH1 0x0 PUSH2 0x398C DUP4 PUSH2 0x5E47 JUMP JUMPDEST SWAP2 SWAP1 POP SSTORE POP PUSH2 0x39CB JUMP JUMPDEST DUP6 PUSH1 0x2 EQ ISZERO PUSH2 0x39B2 JUMPI POP PUSH1 0xB DUP1 SLOAD SWAP1 DUP2 SWAP1 PUSH1 0x0 PUSH2 0x398C DUP4 PUSH2 0x5E47 JUMP JUMPDEST POP PUSH1 0xC DUP1 SLOAD SWAP1 DUP2 SWAP1 PUSH1 0x0 PUSH2 0x39C5 DUP4 PUSH2 0x5E47 JUMP JUMPDEST SWAP2 SWAP1 POP SSTORE POP JUMPDEST PUSH1 0x0 DUP7 DUP2 MSTORE PUSH1 0x20 DUP1 DUP1 MSTORE PUSH1 0x40 DUP1 DUP4 KECCAK256 DUP9 DUP5 MSTORE DUP3 MSTORE DUP1 DUP4 KECCAK256 DUP5 DUP5 MSTORE DUP3 MSTORE DUP1 DUP4 KECCAK256 DUP1 SLOAD PUSH1 0x1 PUSH1 0x1 PUSH1 0xA0 SHL SUB NOT AND PUSH1 0x1 PUSH1 0x1 PUSH1 0xA0 SHL SUB DUP10 AND SWAP1 DUP2 OR SWAP1 SWAP2 SSTORE DUP1 DUP5 MSTORE PUSH1 0x1F DUP4 MSTORE DUP2 DUP5 KECCAK256 DUP11 DUP6 MSTORE DUP4 MSTORE DUP2 DUP5 KECCAK256 DUP10 DUP6 MSTORE DUP4 MSTORE SWAP3 DUP2 SWAP1 KECCAK256 DUP1 SLOAD PUSH1 0xFF NOT AND PUSH1 0x1 SWAP1 DUP2 OR SWAP1 SWAP2 SSTORE DUP2 MLOAD DUP11 DUP2 MSTORE SWAP3 DUP4 ADD DUP10 SWAP1 MSTORE SWAP1 DUP3 ADD DUP5 SWAP1 MSTORE PUSH1 0x60 DUP3 ADD MSTORE PUSH1 0x80 DUP2 ADD SWAP2 SWAP1 SWAP2 MSTORE PUSH32 0x33799BCD8B4021A5A37E4D4E3EA6516AE7456C1EA4D5519C89918D90BE01C8D0 SWAP1 PUSH1 0xA0 ADD JUMPDEST PUSH1 0x40 MLOAD DUP1 SWAP2 SUB SWAP1 LOG1 POP POP POP POP POP POP JUMP JUMPDEST PUSH1 0x0 SLOAD PUSH1 0x1 PUSH1 0x1 PUSH1 0xA0 SHL SUB AND CALLER EQ PUSH2 0x3AAD JUMPI PUSH1 0x40 MLOAD PUSH3 0x461BCD PUSH1 0xE5 SHL DUP2 MSTORE PUSH1 0x4 ADD PUSH2 0x11EF SWAP1 PUSH2 0x5B6F JUMP JUMPDEST DUP3 DUP3 DUP2 PUSH1 0x1 EQ DUP1 PUSH2 0x3ABE JUMPI POP DUP2 PUSH1 0x2 EQ JUMPDEST DUP1 PUSH2 0x3AC9 JUMPI POP DUP2 PUSH1 0x3 EQ JUMPDEST PUSH2 0x3AE5 JUMPI PUSH1 0x40 MLOAD PUSH3 0x461BCD PUSH1 0xE5 SHL DUP2 MSTORE PUSH1 0x4 ADD PUSH2 0x11EF SWAP1 PUSH2 0x5BA6 JUMP JUMPDEST DUP1 PUSH1 0x1 EQ DUP1 PUSH2 0x3AF4 JUMPI POP DUP1 PUSH1 0x2 EQ JUMPDEST PUSH2 0x3B33 JUMPI PUSH1 0x40 MLOAD PUSH3 0x461BCD PUSH1 0xE5 SHL DUP2 MSTORE PUSH1 0x20 PUSH1 0x4 DUP3 ADD MSTORE PUSH1 0x10 PUSH1 0x24 DUP3 ADD MSTORE PUSH16 0x496E76616C696420506C616E54797065 PUSH1 0x80 SHL PUSH1 0x44 DUP3 ADD MSTORE PUSH1 0x64 ADD PUSH2 0x11EF JUMP JUMPDEST PUSH1 0x1 PUSH1 0x1 PUSH1 0xA0 SHL SUB DUP7 AND PUSH1 0x0 SWAP1 DUP2 MSTORE PUSH1 0x1F PUSH1 0x20 SWAP1 DUP2 MSTORE PUSH1 0x40 DUP1 DUP4 KECCAK256 DUP9 DUP5 MSTORE DUP3 MSTORE DUP1 DUP4 KECCAK256 DUP8 DUP5 MSTORE SWAP1 SWAP2 MSTORE SWAP1 KECCAK256 SLOAD PUSH1 0xFF AND ISZERO ISZERO DUP4 ISZERO ISZERO EQ PUSH2 0x3BE7 JUMPI PUSH1 0x1 PUSH1 0x1 PUSH1 0xA0 SHL SUB DUP7 AND PUSH1 0x0 DUP2 DUP2 MSTORE PUSH1 0x1F PUSH1 0x20 SWAP1 DUP2 MSTORE PUSH1 0x40 DUP1 DUP4 KECCAK256 DUP10 DUP5 MSTORE DUP3 MSTORE DUP1 DUP4 KECCAK256 DUP9 DUP5 MSTORE DUP3 MSTORE SWAP2 DUP3 SWAP1 KECCAK256 DUP1 SLOAD PUSH1 0xFF NOT AND DUP8 ISZERO ISZERO SWAP1 DUP2 OR SWAP1 SWAP2 SSTORE DUP3 MLOAD SWAP4 DUP5 MSTORE SWAP1 DUP4 ADD DUP9 SWAP1 MSTORE SWAP1 DUP3 ADD DUP7 SWAP1 MSTORE PUSH1 0x60 DUP3 ADD MSTORE PUSH32 0x5D2B3A2AE84951934C280ADB60C06FF3159E61B6EEB9910FD745C11728D679E6 SWAP1 PUSH1 0x80 ADD PUSH2 0x3A73 JUMP JUMPDEST POP POP POP POP POP POP JUMP JUMPDEST DUP5 DUP7 PUSH1 0x2 DUP7 PUSH1 0x1 PUSH1 0x1 PUSH1 0xA0 SHL SUB DUP2 AND PUSH2 0x3C1A JUMPI PUSH1 0x40 MLOAD PUSH3 0x461BCD PUSH1 0xE5 SHL DUP2 MSTORE PUSH1 0x4 ADD PUSH2 0x11EF SWAP1 PUSH2 0x5BA6 JUMP JUMPDEST PUSH1 0x15 SLOAD PUSH1 0xFF AND PUSH2 0x3C78 JUMPI PUSH1 0x17 SLOAD PUSH1 0x1 PUSH1 0x1 PUSH1 0xA0 SHL SUB DUP3 DUP2 AND SWAP2 AND EQ PUSH2 0x3C78 JUMPI PUSH1 0x40 MLOAD PUSH3 0x461BCD PUSH1 0xE5 SHL DUP2 MSTORE PUSH1 0x20 PUSH1 0x4 DUP3 ADD MSTORE PUSH1 0x14 PUSH1 0x24 DUP3 ADD MSTORE PUSH20 0x4D756C746920746F6B656E20696E616374697665 PUSH1 0x60 SHL PUSH1 0x44 DUP3 ADD MSTORE PUSH1 0x64 ADD PUSH2 0x11EF JUMP JUMPDEST PUSH1 0x1 PUSH1 0x1 PUSH1 0xA0 SHL SUB DUP5 AND PUSH1 0x0 SWAP1 DUP2 MSTORE PUSH1 0x1F PUSH1 0x20 SWAP1 DUP2 MSTORE PUSH1 0x40 DUP1 DUP4 KECCAK256 DUP7 DUP5 MSTORE DUP3 MSTORE DUP1 DUP4 KECCAK256 DUP6 DUP5 MSTORE SWAP1 SWAP2 MSTORE SWAP1 KECCAK256 SLOAD PUSH1 0xFF AND PUSH2 0x3CE0 JUMPI PUSH1 0x40 MLOAD PUSH3 0x461BCD PUSH1 0xE5 SHL DUP2 MSTORE PUSH1 0x20 PUSH1 0x4 DUP3 ADD MSTORE PUSH1 0xA PUSH1 0x24 DUP3 ADD MSTORE PUSH10 0x4E6F7420616374697665 PUSH1 0xB0 SHL PUSH1 0x44 DUP3 ADD MSTORE PUSH1 0x64 ADD PUSH2 0x11EF JUMP JUMPDEST CALLER PUSH1 0x0 SWAP1 DUP2 MSTORE PUSH1 0x21 PUSH1 0x20 SWAP1 DUP2 MSTORE PUSH1 0x40 DUP1 DUP4 KECCAK256 PUSH1 0x1 PUSH1 0x1 PUSH1 0xA0 SHL SUB DUP9 AND DUP5 MSTORE SWAP1 SWAP2 MSTORE SWAP1 KECCAK256 SLOAD PUSH1 0xFF AND ISZERO PUSH2 0x3D49 JUMPI PUSH1 0x40 MLOAD PUSH3 0x461BCD PUSH1 0xE5 SHL DUP2 MSTORE PUSH1 0x20 PUSH1 0x4 DUP3 ADD MSTORE PUSH1 0x12 PUSH1 0x24 DUP3 ADD MSTORE PUSH18 0x42657420616C726561647920616374697665 PUSH1 0x70 SHL PUSH1 0x44 DUP3 ADD MSTORE PUSH1 0x64 ADD PUSH2 0x11EF JUMP JUMPDEST PUSH1 0x2 PUSH1 0x1 SLOAD EQ ISZERO PUSH2 0x3D6C JUMPI PUSH1 0x40 MLOAD PUSH3 0x461BCD PUSH1 0xE5 SHL DUP2 MSTORE PUSH1 0x4 ADD PUSH2 0x11EF SWAP1 PUSH2 0x5BC7 JUMP JUMPDEST PUSH1 0x2 PUSH1 0x1 SSTORE PUSH1 0x0 DUP7 DUP2 MSTORE PUSH1 0x26 PUSH1 0x20 MSTORE PUSH1 0x40 SWAP1 KECCAK256 SLOAD DUP8 ISZERO DUP1 ISZERO SWAP1 PUSH2 0x3D90 JUMPI POP PUSH1 0xE SLOAD DUP9 LT JUMPDEST PUSH2 0x3D99 JUMPI PUSH1 0x0 DUP1 REVERT JUMPDEST DUP1 PUSH2 0x3DB6 JUMPI PUSH1 0x40 MLOAD PUSH3 0x461BCD PUSH1 0xE5 SHL DUP2 MSTORE PUSH1 0x4 ADD PUSH2 0x11EF SWAP1 PUSH2 0x5BA6 JUMP JUMPDEST PUSH2 0x3DC3 CALLER DUP14 DUP13 DUP13 DUP11 PUSH2 0x42E2 JUMP JUMPDEST PUSH2 0x3DD0 CALLER DUP10 DUP4 PUSH1 0x2 PUSH2 0x4A35 JUMP JUMPDEST POP POP PUSH1 0x1 DUP1 SSTORE POP POP POP POP POP POP POP POP POP POP JUMP JUMPDEST PUSH1 0x0 SLOAD PUSH1 0x1 PUSH1 0x1 PUSH1 0xA0 SHL SUB AND CALLER EQ PUSH2 0x3E0C JUMPI PUSH1 0x40 MLOAD PUSH3 0x461BCD PUSH1 0xE5 SHL DUP2 MSTORE PUSH1 0x4 ADD PUSH2 0x11EF SWAP1 PUSH2 0x5B6F JUMP JUMPDEST PUSH1 0x1 PUSH1 0x1 PUSH1 0xA0 SHL SUB DUP2 AND PUSH2 0x3E32 JUMPI PUSH1 0x40 MLOAD PUSH3 0x461BCD PUSH1 0xE5 SHL DUP2 MSTORE PUSH1 0x4 ADD PUSH2 0x11EF SWAP1 PUSH2 0x5B6F JUMP JUMPDEST PUSH32 0x8BE0079C531659141344CD1FD0A4F28419497F9722A3DAAFE3B4186F6B6457E0 PUSH2 0x3E65 PUSH1 0x0 SLOAD PUSH1 0x1 PUSH1 0x1 PUSH1 0xA0 SHL SUB AND SWAP1 JUMP JUMPDEST PUSH1 0x40 DUP1 MLOAD PUSH1 0x1 PUSH1 0x1 PUSH1 0xA0 SHL SUB SWAP3 DUP4 AND DUP2 MSTORE SWAP2 DUP5 AND PUSH1 0x20 DUP4 ADD MSTORE ADD PUSH1 0x40 MLOAD DUP1 SWAP2 SUB SWAP1 LOG1 PUSH2 0x36E4 DUP2 PUSH2 0x51BA JUMP JUMPDEST PUSH1 0x0 SLOAD PUSH1 0x1 PUSH1 0x1 PUSH1 0xA0 SHL SUB AND CALLER EQ PUSH2 0x3EBA JUMPI PUSH1 0x40 MLOAD PUSH3 0x461BCD PUSH1 0xE5 SHL DUP2 MSTORE PUSH1 0x4 ADD PUSH2 0x11EF SWAP1 PUSH2 0x5B6F JUMP JUMPDEST PUSH1 0x64 DUP4 GT ISZERO PUSH2 0x3EC8 JUMPI PUSH1 0x0 DUP1 REVERT JUMPDEST PUSH1 0x0 SWAP1 DUP2 MSTORE PUSH1 0x27 PUSH1 0x20 SWAP1 DUP2 MSTORE PUSH1 0x40 DUP1 DUP4 KECCAK256 SWAP4 DUP4 MSTORE SWAP3 SWAP1 MSTORE KECCAK256 SSTORE JUMP JUMPDEST PUSH1 0x1 DUP4 ADD SLOAD DUP4 SLOAD PUSH1 0x0 SWAP2 PUSH1 0x1 PUSH1 0x1 PUSH1 0x60 SHL SUB AND SWAP1 DUP3 SWAP1 PUSH1 0x1 PUSH1 0xF8 SHL SWAP1 DIV PUSH1 0xFF AND ISZERO PUSH2 0x3F5F JUMPI DUP2 DUP6 LT ISZERO PUSH2 0x3F5A JUMPI DUP2 PUSH2 0x3F1B DUP7 DUP3 PUSH2 0x5E13 JUMP JUMPDEST PUSH2 0x3F26 SWAP1 PUSH1 0x64 PUSH2 0x5DCC JUMP JUMPDEST PUSH2 0x3F30 SWAP2 SWAP1 PUSH2 0x5CBC JUMP JUMPDEST SWAP1 POP DUP4 DUP2 LT PUSH2 0x3F5A JUMPI POP POP DUP4 SLOAD PUSH1 0x1 PUSH1 0x80 SHL PUSH1 0x1 PUSH1 0xF8 SHL SUB NOT AND PUSH1 0x1 PUSH1 0x80 SHL OR DUP5 SSTORE POP PUSH1 0x1 PUSH2 0x1B55 JUMP JUMPDEST PUSH2 0x3FB1 JUMP JUMPDEST DUP2 DUP6 GT ISZERO PUSH2 0x3FB1 JUMPI DUP2 PUSH2 0x3F72 DUP2 DUP8 PUSH2 0x5E13 JUMP JUMPDEST PUSH2 0x3F7D SWAP1 PUSH1 0x64 PUSH2 0x5DCC JUMP JUMPDEST PUSH2 0x3F87 SWAP2 SWAP1 PUSH2 0x5CBC JUMP JUMPDEST SWAP1 POP DUP4 DUP2 LT PUSH2 0x3FB1 JUMPI POP POP DUP4 SLOAD PUSH1 0x1 PUSH1 0x80 SHL PUSH1 0x1 PUSH1 0xF8 SHL SUB NOT AND PUSH1 0x1 PUSH1 0x80 SHL OR DUP5 SSTORE POP PUSH1 0x1 PUSH2 0x1B55 JUMP JUMPDEST POP POP DUP4 SLOAD PUSH1 0x1 PUSH1 0x80 SHL PUSH1 0x1 PUSH1 0xF8 SHL SUB NOT AND PUSH1 0x1 PUSH1 0x81 SHL OR SWAP1 SWAP4 SSTORE POP PUSH1 0x2 SWAP3 SWAP2 POP POP JUMP JUMPDEST DUP4 SLOAD PUSH4 0xFFFFFFFF SWAP2 DUP3 AND PUSH1 0x1 PUSH1 0xE0 SHL MUL PUSH1 0x1 PUSH1 0x1 PUSH1 0xE0 SHL SUB TIMESTAMP SWAP4 SWAP1 SWAP4 AND PUSH1 0x1 PUSH1 0xC0 SHL MUL SWAP3 SWAP1 SWAP3 AND PUSH1 0x1 PUSH1 0x1 PUSH1 0xC0 SHL SUB PUSH1 0x1 PUSH1 0x1 PUSH1 0x60 SHL SUB SWAP5 DUP6 AND PUSH1 0x1 PUSH1 0x60 SHL MUL PUSH1 0x1 PUSH1 0x1 PUSH1 0xC0 SHL SUB NOT SWAP1 SWAP4 AND SWAP5 SWAP1 SWAP6 AND SWAP4 SWAP1 SWAP4 OR OR SWAP3 SWAP1 SWAP3 AND OR OR SWAP1 SSTORE JUMP JUMPDEST PUSH1 0x1 PUSH1 0x1 PUSH1 0xA0 SHL SUB DUP2 AND PUSH1 0x0 SWAP1 DUP2 MSTORE PUSH1 0x1D PUSH1 0x20 MSTORE PUSH1 0x40 DUP2 KECCAK256 PUSH1 0xD SLOAD PUSH1 0x2 DUP3 ADD SLOAD PUSH1 0x1 PUSH1 0xA0 SHL SWAP1 DIV PUSH4 0xFFFFFFFF AND EQ ISZERO PUSH2 0x406F JUMPI POP PUSH1 0x1 SWAP3 SWAP2 POP POP JUMP JUMPDEST PUSH1 0x2 DUP2 ADD SLOAD PUSH1 0x1 PUSH1 0xC0 SHL SWAP1 DIV PUSH4 0xFFFFFFFF AND PUSH2 0x40B7 JUMPI PUSH1 0xD SLOAD PUSH1 0x2 SWAP1 SWAP2 ADD DUP1 SLOAD PUSH4 0xFFFFFFFF SWAP1 SWAP3 AND PUSH1 0x1 PUSH1 0xA0 SHL MUL PUSH4 0xFFFFFFFF PUSH1 0xA0 SHL NOT SWAP1 SWAP3 AND SWAP2 SWAP1 SWAP2 OR SWAP1 SSTORE POP PUSH1 0x1 SWAP2 SWAP1 POP JUMP JUMPDEST PUSH1 0x0 DUP1 PUSH1 0x0 PUSH2 0x40C5 DUP7 PUSH2 0x3102 JUMP JUMPDEST PUSH1 0x2 DUP8 ADD DUP1 SLOAD PUSH4 0xFFFFFFFF PUSH1 0xA0 SHL NOT AND PUSH1 0x1 PUSH1 0xA0 SHL PUSH4 0xFFFFFFFF DUP5 AND MUL OR SWAP1 SSTORE SWAP2 SWAP5 POP SWAP3 POP SWAP1 POP DUP3 ISZERO DUP1 ISZERO PUSH2 0x40F8 JUMPI POP DUP2 ISZERO JUMPDEST ISZERO PUSH2 0x4109 JUMPI POP PUSH1 0x1 SWAP6 SWAP5 POP POP POP POP POP JUMP JUMPDEST DUP3 ISZERO PUSH2 0x415A JUMPI DUP3 DUP5 PUSH1 0x1 ADD PUSH1 0x10 DUP3 DUP3 DUP3 SWAP1 SLOAD SWAP1 PUSH2 0x100 EXP SWAP1 DIV PUSH1 0x1 PUSH1 0x1 PUSH1 0x80 SHL SUB AND PUSH2 0x4135 SWAP2 SWAP1 PUSH2 0x5C79 JUMP JUMPDEST SWAP3 POP PUSH2 0x100 EXP DUP2 SLOAD DUP2 PUSH1 0x1 PUSH1 0x1 PUSH1 0x80 SHL SUB MUL NOT AND SWAP1 DUP4 PUSH1 0x1 PUSH1 0x1 PUSH1 0x80 SHL SUB AND MUL OR SWAP1 SSTORE POP JUMPDEST DUP2 ISZERO PUSH2 0x41A5 JUMPI PUSH1 0x2 DUP5 ADD DUP1 SLOAD DUP4 SWAP2 SWAP1 PUSH1 0x0 SWAP1 PUSH2 0x4180 SWAP1 DUP5 SWAP1 PUSH1 0x1 PUSH1 0x1 PUSH1 0x80 SHL SUB AND PUSH2 0x5C79 JUMP JUMPDEST SWAP3 POP PUSH2 0x100 EXP DUP2 SLOAD DUP2 PUSH1 0x1 PUSH1 0x1 PUSH1 0x80 SHL SUB MUL NOT AND SWAP1 DUP4 PUSH1 0x1 PUSH1 0x1 PUSH1 0x80 SHL SUB AND MUL OR SWAP1 SSTORE POP JUMPDEST PUSH1 0xD SLOAD DUP2 EQ ISZERO PUSH2 0x41BB JUMPI POP PUSH1 0x1 SWAP6 SWAP5 POP POP POP POP POP JUMP JUMPDEST POP PUSH1 0x0 SWAP6 SWAP5 POP POP POP POP POP JUMP JUMPDEST PUSH1 0x40 DUP1 MLOAD PUSH1 0x1 PUSH1 0x1 PUSH1 0xA0 SHL SUB DUP5 DUP2 AND PUSH1 0x24 DUP4 ADD MSTORE PUSH1 0x44 DUP1 DUP4 ADD DUP6 SWAP1 MSTORE DUP4 MLOAD DUP1 DUP5 SUB SWAP1 SWAP2 ADD DUP2 MSTORE PUSH1 0x64 SWAP1 SWAP3 ADD DUP4 MSTORE PUSH1 0x20 DUP3 ADD DUP1 MLOAD PUSH1 0x1 PUSH1 0x1 PUSH1 0xE0 SHL SUB AND PUSH4 0xA9059CBB PUSH1 0xE0 SHL OR SWAP1 MSTORE SWAP2 MLOAD PUSH1 0x0 SWAP3 DUP4 SWAP3 SWAP1 DUP8 AND SWAP2 PUSH2 0x4223 SWAP2 SWAP1 PUSH2 0x5B05 JUMP JUMPDEST PUSH1 0x0 PUSH1 0x40 MLOAD DUP1 DUP4 SUB DUP2 PUSH1 0x0 DUP7 GAS CALL SWAP2 POP POP RETURNDATASIZE DUP1 PUSH1 0x0 DUP2 EQ PUSH2 0x4260 JUMPI PUSH1 0x40 MLOAD SWAP2 POP PUSH1 0x1F NOT PUSH1 0x3F RETURNDATASIZE ADD AND DUP3 ADD PUSH1 0x40 MSTORE RETURNDATASIZE DUP3 MSTORE RETURNDATASIZE PUSH1 0x0 PUSH1 0x20 DUP5 ADD RETURNDATACOPY PUSH2 0x4265 JUMP JUMPDEST PUSH1 0x60 SWAP2 POP JUMPDEST POP SWAP2 POP SWAP2 POP DUP2 DUP1 ISZERO PUSH2 0x428F JUMPI POP DUP1 MLOAD ISZERO DUP1 PUSH2 0x428F JUMPI POP DUP1 DUP1 PUSH1 0x20 ADD SWAP1 MLOAD DUP2 ADD SWAP1 PUSH2 0x428F SWAP2 SWAP1 PUSH2 0x58F0 JUMP JUMPDEST PUSH2 0x42DB JUMPI PUSH1 0x40 MLOAD PUSH3 0x461BCD PUSH1 0xE5 SHL DUP2 MSTORE PUSH1 0x20 PUSH1 0x4 DUP3 ADD MSTORE PUSH1 0x1F PUSH1 0x24 DUP3 ADD MSTORE PUSH32 0x5472616E7366657248656C7065723A205452414E534645525F4641494C454400 PUSH1 0x44 DUP3 ADD MSTORE PUSH1 0x64 ADD PUSH2 0x11EF JUMP JUMPDEST POP POP POP POP POP JUMP JUMPDEST PUSH1 0x0 PUSH1 0x64 PUSH1 0x12 SLOAD DUP7 PUSH2 0x42F4 SWAP2 SWAP1 PUSH2 0x5DCC JUMP JUMPDEST PUSH2 0x42FE SWAP2 SWAP1 PUSH2 0x5CBC JUMP JUMPDEST SWAP1 POP DUP5 PUSH2 0x430B DUP3 DUP3 PUSH2 0x5E13 JUMP JUMPDEST PUSH1 0x17 SLOAD SWAP1 SWAP7 POP PUSH1 0x0 SWAP1 PUSH1 0x1 PUSH1 0x1 PUSH1 0xA0 SHL SUB DUP7 DUP2 AND SWAP2 AND EQ PUSH2 0x45BB JUMPI PUSH2 0x432F DUP6 PUSH2 0x33BE JUMP JUMPDEST SWAP1 POP PUSH1 0x0 PUSH1 0x1 PUSH1 0x1 PUSH1 0xA0 SHL SUB DUP7 AND PUSH1 0x1 EQ ISZERO PUSH2 0x4388 JUMPI DUP3 CALLVALUE EQ PUSH2 0x4364 JUMPI PUSH1 0x40 MLOAD PUSH3 0x461BCD PUSH1 0xE5 SHL DUP2 MSTORE PUSH1 0x4 ADD PUSH2 0x11EF SWAP1 PUSH2 0x5BA6 JUMP JUMPDEST PUSH8 0xDE0B6B3A7640000 PUSH2 0x4377 DUP4 DUP6 PUSH2 0x5DCC JUMP JUMPDEST PUSH2 0x4381 SWAP2 SWAP1 PUSH2 0x5CBC JUMP JUMPDEST SWAP1 POP PUSH2 0x441B JUMP JUMPDEST DUP6 PUSH1 0x1 PUSH1 0x1 PUSH1 0xA0 SHL SUB AND PUSH4 0x313CE567 PUSH1 0x40 MLOAD DUP2 PUSH4 0xFFFFFFFF AND PUSH1 0xE0 SHL DUP2 MSTORE PUSH1 0x4 ADD PUSH1 0x20 PUSH1 0x40 MLOAD DUP1 DUP4 SUB DUP2 DUP7 DUP1 EXTCODESIZE ISZERO DUP1 ISZERO PUSH2 0x43C1 JUMPI PUSH1 0x0 DUP1 REVERT JUMPDEST POP GAS STATICCALL ISZERO DUP1 ISZERO PUSH2 0x43D5 JUMPI RETURNDATASIZE PUSH1 0x0 DUP1 RETURNDATACOPY RETURNDATASIZE PUSH1 0x0 REVERT JUMPDEST POP POP POP POP PUSH1 0x40 MLOAD RETURNDATASIZE PUSH1 0x1F NOT PUSH1 0x1F DUP3 ADD AND DUP3 ADD DUP1 PUSH1 0x40 MSTORE POP DUP2 ADD SWAP1 PUSH2 0x43F9 SWAP2 SWAP1 PUSH2 0x5AE8 JUMP JUMPDEST PUSH2 0x4404 SWAP1 PUSH1 0xA PUSH2 0x5D21 JUMP JUMPDEST PUSH2 0x440E DUP4 DUP6 PUSH2 0x5DCC JUMP JUMPDEST PUSH2 0x4418 SWAP2 SWAP1 PUSH2 0x5CBC JUMP JUMPDEST SWAP1 POP JUMPDEST PUSH1 0x4 DUP1 SLOAD PUSH1 0x17 SLOAD PUSH1 0x40 MLOAD PUSH4 0x70A08231 PUSH1 0xE0 SHL DUP2 MSTORE ADDRESS SWAP4 DUP2 ADD SWAP4 SWAP1 SWAP4 MSTORE SWAP1 SWAP2 PUSH1 0x1 PUSH1 0x1 PUSH1 0xA0 SHL SUB SWAP1 SWAP2 AND SWAP1 PUSH4 0x70A08231 SWAP1 PUSH1 0x24 ADD PUSH1 0x20 PUSH1 0x40 MLOAD DUP1 DUP4 SUB DUP2 DUP7 DUP1 EXTCODESIZE ISZERO DUP1 ISZERO PUSH2 0x4466 JUMPI PUSH1 0x0 DUP1 REVERT JUMPDEST POP GAS STATICCALL ISZERO DUP1 ISZERO PUSH2 0x447A JUMPI RETURNDATASIZE PUSH1 0x0 DUP1 RETURNDATACOPY RETURNDATASIZE PUSH1 0x0 REVERT JUMPDEST POP POP POP POP PUSH1 0x40 MLOAD RETURNDATASIZE PUSH1 0x1F NOT PUSH1 0x1F DUP3 ADD AND DUP3 ADD DUP1 PUSH1 0x40 MSTORE POP DUP2 ADD SWAP1 PUSH2 0x449E SWAP2 SWAP1 PUSH2 0x5926 JUMP JUMPDEST GT ISZERO PUSH2 0x4585 JUMPI PUSH1 0x4 DUP1 SLOAD PUSH1 0x17 SLOAD PUSH1 0x40 MLOAD PUSH4 0x70A08231 PUSH1 0xE0 SHL DUP2 MSTORE ADDRESS SWAP4 DUP2 ADD SWAP4 SWAP1 SWAP4 MSTORE DUP4 SWAP3 PUSH1 0x1 PUSH1 0x1 PUSH1 0xA0 SHL SUB SWAP1 SWAP2 AND SWAP1 PUSH4 0x70A08231 SWAP1 PUSH1 0x24 ADD PUSH1 0x20 PUSH1 0x40 MLOAD DUP1 DUP4 SUB DUP2 DUP7 DUP1 EXTCODESIZE ISZERO DUP1 ISZERO PUSH2 0x44EF JUMPI PUSH1 0x0 DUP1 REVERT JUMPDEST POP GAS STATICCALL ISZERO DUP1 ISZERO PUSH2 0x4503 JUMPI RETURNDATASIZE PUSH1 0x0 DUP1 RETURNDATACOPY RETURNDATASIZE PUSH1 0x0 REVERT JUMPDEST POP POP POP POP PUSH1 0x40 MLOAD RETURNDATASIZE PUSH1 0x1F NOT PUSH1 0x1F DUP3 ADD AND DUP3 ADD DUP1 PUSH1 0x40 MSTORE POP DUP2 ADD SWAP1 PUSH2 0x4527 SWAP2 SWAP1 PUSH2 0x5926 JUMP JUMPDEST PUSH2 0x4531 SWAP2 SWAP1 PUSH2 0x5E13 JUMP JUMPDEST PUSH2 0x453B SWAP2 SWAP1 PUSH2 0x5CA4 JUMP JUMPDEST PUSH1 0x4 SLOAD PUSH1 0x7 SLOAD PUSH2 0x454B SWAP2 SWAP1 PUSH2 0x5DCC JUMP JUMPDEST LT ISZERO PUSH2 0x4585 JUMPI PUSH1 0x40 MLOAD PUSH3 0x461BCD PUSH1 0xE5 SHL DUP2 MSTORE PUSH1 0x20 PUSH1 0x4 DUP3 ADD MSTORE PUSH1 0x9 PUSH1 0x24 DUP3 ADD MSTORE PUSH9 0x2132BA3330B1BA37B9 PUSH1 0xB9 SHL PUSH1 0x44 DUP3 ADD MSTORE PUSH1 0x64 ADD PUSH2 0x11EF JUMP JUMPDEST PUSH1 0x8 SLOAD DUP2 LT ISZERO DUP1 ISZERO PUSH2 0x4599 JUMPI POP PUSH1 0x9 SLOAD DUP2 GT ISZERO JUMPDEST PUSH2 0x45B5 JUMPI PUSH1 0x40 MLOAD PUSH3 0x461BCD PUSH1 0xE5 SHL DUP2 MSTORE PUSH1 0x4 ADD PUSH2 0x11EF SWAP1 PUSH2 0x5BA6 JUMP JUMPDEST POP PUSH2 0x4755 JUMP JUMPDEST PUSH1 0x4 DUP1 SLOAD PUSH1 0x17 SLOAD PUSH1 0x40 MLOAD PUSH4 0x70A08231 PUSH1 0xE0 SHL DUP2 MSTORE ADDRESS SWAP4 DUP2 ADD SWAP4 SWAP1 SWAP4 MSTORE SWAP1 SWAP2 PUSH1 0x1 PUSH1 0x1 PUSH1 0xA0 SHL SUB SWAP1 SWAP2 AND SWAP1 PUSH4 0x70A08231 SWAP1 PUSH1 0x24 ADD PUSH1 0x20 PUSH1 0x40 MLOAD DUP1 DUP4 SUB DUP2 DUP7 DUP1 EXTCODESIZE ISZERO DUP1 ISZERO PUSH2 0x4606 JUMPI PUSH1 0x0 DUP1 REVERT JUMPDEST POP GAS STATICCALL ISZERO DUP1 ISZERO PUSH2 0x461A JUMPI RETURNDATASIZE PUSH1 0x0 DUP1 RETURNDATACOPY RETURNDATASIZE PUSH1 0x0 REVERT JUMPDEST POP POP POP POP PUSH1 0x40 MLOAD RETURNDATASIZE PUSH1 0x1F NOT PUSH1 0x1F DUP3 ADD AND DUP3 ADD DUP1 PUSH1 0x40 MSTORE POP DUP2 ADD SWAP1 PUSH2 0x463E SWAP2 SWAP1 PUSH2 0x5926 JUMP JUMPDEST GT ISZERO PUSH2 0x4725 JUMPI PUSH1 0x4 DUP1 SLOAD PUSH1 0x17 SLOAD PUSH1 0x40 MLOAD PUSH4 0x70A08231 PUSH1 0xE0 SHL DUP2 MSTORE ADDRESS SWAP4 DUP2 ADD SWAP4 SWAP1 SWAP4 MSTORE DUP5 SWAP3 PUSH1 0x1 PUSH1 0x1 PUSH1 0xA0 SHL SUB SWAP1 SWAP2 AND SWAP1 PUSH4 0x70A08231 SWAP1 PUSH1 0x24 ADD PUSH1 0x20 PUSH1 0x40 MLOAD DUP1 DUP4 SUB DUP2 DUP7 DUP1 EXTCODESIZE ISZERO DUP1 ISZERO PUSH2 0x468F JUMPI PUSH1 0x0 DUP1 REVERT JUMPDEST POP GAS STATICCALL ISZERO DUP1 ISZERO PUSH2 0x46A3 JUMPI RETURNDATASIZE PUSH1 0x0 DUP1 RETURNDATACOPY RETURNDATASIZE PUSH1 0x0 REVERT JUMPDEST POP POP POP POP PUSH1 0x40 MLOAD RETURNDATASIZE PUSH1 0x1F NOT PUSH1 0x1F DUP3 ADD AND DUP3 ADD DUP1 PUSH1 0x40 MSTORE POP DUP2 ADD SWAP1 PUSH2 0x46C7 SWAP2 SWAP1 PUSH2 0x5926 JUMP JUMPDEST PUSH2 0x46D1 SWAP2 SWAP1 PUSH2 0x5E13 JUMP JUMPDEST PUSH2 0x46DB SWAP2 SWAP1 PUSH2 0x5CA4 JUMP JUMPDEST PUSH1 0x4 SLOAD PUSH1 0x7 SLOAD PUSH2 0x46EB SWAP2 SWAP1 PUSH2 0x5DCC JUMP JUMPDEST LT ISZERO PUSH2 0x4725 JUMPI PUSH1 0x40 MLOAD PUSH3 0x461BCD PUSH1 0xE5 SHL DUP2 MSTORE PUSH1 0x20 PUSH1 0x4 DUP3 ADD MSTORE PUSH1 0x9 PUSH1 0x24 DUP3 ADD MSTORE PUSH9 0x2132BA3330B1BA37B9 PUSH1 0xB9 SHL PUSH1 0x44 DUP3 ADD MSTORE PUSH1 0x64 ADD PUSH2 0x11EF JUMP JUMPDEST PUSH1 0x8 SLOAD DUP3 LT ISZERO DUP1 ISZERO PUSH2 0x4739 JUMPI POP PUSH1 0x9 SLOAD DUP3 GT ISZERO JUMPDEST PUSH2 0x4755 JUMPI PUSH1 0x40 MLOAD PUSH3 0x461BCD PUSH1 0xE5 SHL DUP2 MSTORE PUSH1 0x4 ADD PUSH2 0x11EF SWAP1 PUSH2 0x5BA6 JUMP JUMPDEST PUSH1 0x1 PUSH1 0x1 PUSH1 0xA0 SHL SUB DUP9 AND PUSH1 0x0 DUP2 DUP2 MSTORE PUSH1 0x22 PUSH1 0x20 SWAP1 DUP2 MSTORE PUSH1 0x40 DUP1 DUP4 KECCAK256 PUSH1 0x1E DUP4 MSTORE DUP2 DUP5 KECCAK256 SLOAD DUP1 DUP6 MSTORE SWAP1 DUP4 MSTORE DUP2 DUP5 KECCAK256 SWAP5 DUP5 MSTORE PUSH1 0x23 DUP4 MSTORE DUP2 DUP5 KECCAK256 SWAP1 DUP5 MSTORE SWAP1 SWAP2 MSTORE SWAP1 KECCAK256 CALLVALUE ISZERO DUP1 ISZERO PUSH2 0x47AB JUMPI POP PUSH1 0x1 PUSH1 0x1 PUSH1 0xA0 SHL SUB DUP8 AND PUSH1 0x1 EQ ISZERO JUMPDEST ISZERO PUSH2 0x4896 JUMPI PUSH2 0x47BC DUP8 DUP12 ADDRESS DUP8 PUSH2 0x51DC JUMP JUMPDEST PUSH1 0x0 DUP6 GT DUP1 ISZERO PUSH2 0x47DA JUMPI POP PUSH1 0x17 SLOAD PUSH1 0x1 PUSH1 0x1 PUSH1 0xA0 SHL SUB DUP9 DUP2 AND SWAP2 AND EQ ISZERO JUMPDEST ISZERO PUSH2 0x47FC JUMPI PUSH1 0x16 SLOAD PUSH2 0x47F7 SWAP1 DUP9 SWAP1 PUSH1 0x1 PUSH1 0x1 PUSH1 0xA0 SHL SUB AND DUP8 PUSH2 0x41C7 JUMP JUMPDEST PUSH2 0x4880 JUMP JUMPDEST PUSH1 0x0 DUP6 GT DUP1 ISZERO PUSH2 0x4819 JUMPI POP PUSH1 0x17 SLOAD PUSH1 0x1 PUSH1 0x1 PUSH1 0xA0 SHL SUB DUP9 DUP2 AND SWAP2 AND EQ JUMPDEST ISZERO PUSH2 0x4880 JUMPI DUP5 PUSH1 0x14 PUSH1 0x0 DUP3 DUP3 SLOAD PUSH2 0x4830 SWAP2 SWAP1 PUSH2 0x5CA4 JUMP JUMPDEST SWAP1 SWAP2 SSTORE POP POP PUSH1 0x13 SLOAD PUSH1 0x14 SLOAD GT ISZERO PUSH2 0x4880 JUMPI PUSH1 0x4 SLOAD PUSH1 0x14 SLOAD PUSH1 0xD SLOAD PUSH1 0x0 SWAP1 DUP2 MSTORE PUSH1 0x24 PUSH1 0x20 MSTORE PUSH1 0x40 SWAP1 KECCAK256 PUSH2 0x4865 SWAP3 SWAP1 SWAP2 PUSH1 0x2 PUSH2 0x3FD4 JUMP JUMPDEST PUSH1 0xD DUP1 SLOAD SWAP1 PUSH1 0x0 PUSH2 0x4875 DUP4 PUSH2 0x5E47 JUMP JUMPDEST SWAP1 SWAP2 SSTORE POP POP PUSH1 0x0 PUSH1 0x14 SSTORE JUMPDEST DUP1 SLOAD PUSH1 0xFF PUSH1 0xF0 SHL NOT AND PUSH1 0x1 PUSH1 0xF0 SHL OR DUP2 SSTORE PUSH2 0x4902 JUMP JUMPDEST PUSH1 0x1 PUSH1 0x1 PUSH1 0xA0 SHL SUB DUP8 AND PUSH1 0x1 EQ PUSH2 0x48E6 JUMPI PUSH1 0x40 MLOAD PUSH3 0x461BCD PUSH1 0xE5 SHL DUP2 MSTORE PUSH1 0x20 PUSH1 0x4 DUP3 ADD MSTORE PUSH1 0x14 PUSH1 0x24 DUP3 ADD MSTORE PUSH20 0x426574546F6B656E206D75737420626520307831 PUSH1 0x60 SHL PUSH1 0x44 DUP3 ADD MSTORE PUSH1 0x64 ADD PUSH2 0x11EF JUMP JUMPDEST DUP5 ISZERO PUSH2 0x4902 JUMPI PUSH1 0x16 SLOAD PUSH2 0x4902 SWAP1 PUSH1 0x1 PUSH1 0x1 PUSH1 0xA0 SHL SUB AND DUP7 PUSH2 0x4D51 JUMP JUMPDEST PUSH1 0x1A SLOAD PUSH1 0x19 SLOAD PUSH1 0x40 MLOAD PUSH4 0x5620C32D PUSH1 0xE1 SHL DUP2 MSTORE PUSH1 0x1 PUSH1 0x1 PUSH1 0xA0 SHL SUB DUP12 DUP2 AND PUSH1 0x4 DUP4 ADD MSTORE SWAP2 DUP3 AND PUSH1 0x24 DUP3 ADD MSTORE PUSH2 0x4A29 SWAP3 DUP13 SWAP3 AND SWAP1 PUSH4 0xAC41865A SWAP1 PUSH1 0x44 ADD PUSH1 0x20 PUSH1 0x40 MLOAD DUP1 DUP4 SUB DUP2 DUP7 DUP1 EXTCODESIZE ISZERO DUP1 ISZERO PUSH2 0x4956 JUMPI PUSH1 0x0 DUP1 REVERT JUMPDEST POP GAS STATICCALL ISZERO DUP1 ISZERO PUSH2 0x496A JUMPI RETURNDATASIZE PUSH1 0x0 DUP1 RETURNDATACOPY RETURNDATASIZE PUSH1 0x0 REVERT JUMPDEST POP POP POP POP PUSH1 0x40 MLOAD RETURNDATASIZE PUSH1 0x1F NOT PUSH1 0x1F DUP3 ADD AND DUP3 ADD DUP1 PUSH1 0x40 MSTORE POP DUP2 ADD SWAP1 PUSH2 0x498E SWAP2 SWAP1 PUSH2 0x5926 JUMP JUMPDEST DUP5 SLOAD PUSH1 0x1 PUSH1 0x1 PUSH1 0x80 SHL SUB SWAP1 SWAP3 AND PUSH15 0xFFFFFFFFFFFFFFFFFFFFFFFFFFFFFF PUSH1 0x80 SHL SWAP1 SWAP3 AND SWAP2 SWAP1 SWAP2 OR PUSH1 0x1 PUSH1 0xF8 SHL DUP10 ISZERO ISZERO MUL OR DUP5 SSTORE PUSH1 0x1 DUP5 ADD DUP1 SLOAD PUSH1 0x1 PUSH1 0x1 PUSH1 0x60 SHL SUB SWAP3 DUP4 AND PUSH1 0x1 PUSH1 0x1 PUSH1 0xC0 SHL SUB NOT SWAP1 SWAP2 AND OR PUSH1 0x1 PUSH1 0x60 SHL SWAP3 DUP8 AND SWAP3 SWAP1 SWAP3 MUL SWAP2 SWAP1 SWAP2 OR SWAP1 SSTORE PUSH1 0x3 DUP4 ADD DUP1 SLOAD PUSH1 0x1 PUSH1 0x1 PUSH1 0xA0 SHL SUB NOT SWAP1 DUP2 AND PUSH1 0x1 PUSH1 0x1 PUSH1 0xA0 SHL SUB DUP1 DUP14 AND SWAP2 SWAP1 SWAP2 OR SWAP1 SWAP3 SSTORE PUSH1 0x2 DUP6 ADD DUP1 SLOAD SWAP1 SWAP2 AND SWAP2 DUP11 AND SWAP2 SWAP1 SWAP2 OR SWAP1 SSTORE JUMP JUMPDEST POP POP POP POP POP POP POP POP POP POP JUMP JUMPDEST PUSH1 0x1 PUSH1 0x1 PUSH1 0xA0 SHL SUB DUP5 AND PUSH1 0x0 DUP2 DUP2 MSTORE PUSH1 0x22 PUSH1 0x20 SWAP1 DUP2 MSTORE PUSH1 0x40 DUP1 DUP4 KECCAK256 PUSH1 0x1E DUP4 MSTORE DUP2 DUP5 KECCAK256 SLOAD DUP1 DUP6 MSTORE SWAP1 DUP4 MSTORE DUP2 DUP5 KECCAK256 SWAP5 DUP5 MSTORE PUSH1 0x23 DUP4 MSTORE DUP2 DUP5 KECCAK256 SWAP1 DUP5 MSTORE SWAP1 SWAP2 MSTORE SWAP1 KECCAK256 PUSH1 0x1 DUP4 EQ ISZERO PUSH2 0x4C25 JUMPI PUSH1 0x0 DUP6 DUP2 MSTORE PUSH1 0x25 PUSH1 0x20 MSTORE PUSH1 0x40 SWAP1 KECCAK256 SLOAD PUSH1 0x2 SLOAD PUSH2 0x4B83 SWAP2 PUSH1 0x1 PUSH1 0x1 PUSH1 0x40 SHL SUB PUSH1 0x1 PUSH1 0x40 SHL DUP3 DIV DUP2 AND SWAP3 SWAP1 DUP3 AND SWAP2 PUSH1 0x1 PUSH1 0x1 PUSH1 0x78 SHL SUB PUSH1 0x1 PUSH1 0x80 SHL SWAP1 SWAP2 DIV AND SWAP1 DUP8 SWAP1 TIMESTAMP SWAP1 PUSH2 0x4ACA SWAP1 PUSH1 0x4 SWAP1 PUSH2 0x5CBC JUMP JUMPDEST PUSH2 0x4AD4 SWAP1 DUP12 PUSH2 0x5DCC JUMP JUMPDEST PUSH2 0x4ADE SWAP1 TIMESTAMP PUSH2 0x5CA4 JUMP JUMPDEST DUP8 SLOAD PUSH1 0x1 PUSH1 0x1 PUSH1 0x40 SHL SUB SWAP1 SWAP7 AND PUSH12 0xFFFFFFFFFFFFFFFFFFFFFFFF NOT SWAP1 SWAP7 AND SWAP6 SWAP1 SWAP6 OR PUSH1 0x1 PUSH1 0x40 SHL PUSH4 0xFFFFFFFF SWAP6 DUP7 AND MUL OR PUSH10 0xFFFFFFFFFFFFFFFFFFFF PUSH1 0x60 SHL NOT AND PUSH1 0x1 PUSH1 0x60 SHL SWAP4 DUP6 AND SWAP4 SWAP1 SWAP4 MUL PUSH6 0xFFFFFFFFFFFF PUSH1 0x80 SHL NOT AND SWAP3 SWAP1 SWAP3 OR PUSH1 0x1 PUSH1 0x80 SHL PUSH6 0xFFFFFFFFFFFF SWAP1 SWAP3 AND SWAP2 SWAP1 SWAP2 MUL OR PUSH8 0xFFFFFFFFFFFFFFFF PUSH1 0xB0 SHL NOT AND PUSH1 0x1 PUSH1 0xB0 SHL SWAP2 DUP4 AND SWAP2 SWAP1 SWAP2 MUL PUSH4 0xFFFFFFFF PUSH1 0xD0 SHL NOT AND OR PUSH1 0x1 PUSH1 0xD0 SHL SWAP2 SWAP1 SWAP3 AND MUL OR DUP3 SSTORE JUMP JUMPDEST PUSH1 0x4 PUSH1 0x2 SLOAD PUSH2 0x4B92 SWAP2 SWAP1 PUSH2 0x5CBC JUMP JUMPDEST PUSH2 0x4B9C SWAP1 DUP6 PUSH2 0x5DCC JUMP JUMPDEST PUSH2 0x4BA6 SWAP1 TIMESTAMP PUSH2 0x5CA4 JUMP JUMPDEST PUSH1 0x1 PUSH1 0x1 PUSH1 0xA0 SHL SUB DUP8 DUP2 AND PUSH1 0x0 DUP2 DUP2 MSTORE PUSH1 0x1E PUSH1 0x20 SWAP1 DUP2 MSTORE PUSH1 0x40 SWAP2 DUP3 SWAP1 KECCAK256 SLOAD PUSH1 0x3 DUP9 ADD SLOAD PUSH1 0x2 DUP10 ADD SLOAD DUP5 MLOAD SWAP2 DUP8 AND DUP3 MSTORE SWAP1 SWAP6 AND SWAP2 DUP6 ADD SWAP2 SWAP1 SWAP2 MSTORE SWAP1 DUP4 ADD DUP10 SWAP1 MSTORE PUSH1 0x60 DUP4 ADD DUP9 SWAP1 MSTORE TIMESTAMP PUSH1 0x80 DUP5 ADD MSTORE SWAP2 PUSH32 0x60C2F28CAEB1BDDF2D8003A850562E4A133CE8E63719DAC464C8052DE62D0F56 SWAP1 PUSH1 0xA0 ADD PUSH1 0x40 MLOAD DUP1 SWAP2 SUB SWAP1 LOG4 PUSH2 0x4D03 JUMP JUMPDEST PUSH1 0x0 DUP6 DUP2 MSTORE PUSH1 0x25 PUSH1 0x20 MSTORE PUSH1 0x40 SWAP1 KECCAK256 SLOAD PUSH1 0x2 SLOAD PUSH2 0x4C71 SWAP2 PUSH1 0x1 PUSH1 0x1 PUSH1 0x40 SHL SUB PUSH1 0x1 PUSH1 0x40 SHL DUP3 DIV DUP2 AND SWAP3 SWAP1 DUP3 AND SWAP2 PUSH1 0x1 PUSH1 0x1 PUSH1 0x78 SHL SUB PUSH1 0x1 PUSH1 0x80 SHL SWAP1 SWAP2 DIV AND SWAP1 DUP8 SWAP1 TIMESTAMP SWAP1 PUSH2 0x4AD4 SWAP1 DUP12 PUSH2 0x5DCC JUMP JUMPDEST PUSH1 0x2 SLOAD PUSH2 0x4C7E SWAP1 DUP6 PUSH2 0x5DCC JUMP JUMPDEST PUSH2 0x4C88 SWAP1 TIMESTAMP PUSH2 0x5CA4 JUMP JUMPDEST PUSH1 0x1 PUSH1 0x1 PUSH1 0xA0 SHL SUB DUP8 DUP2 AND PUSH1 0x0 DUP2 DUP2 MSTORE PUSH1 0x1E PUSH1 0x20 SWAP1 DUP2 MSTORE PUSH1 0x40 SWAP2 DUP3 SWAP1 KECCAK256 SLOAD PUSH1 0x3 DUP9 ADD SLOAD PUSH1 0x2 DUP10 ADD SLOAD DUP5 MLOAD SWAP2 DUP8 AND DUP3 MSTORE SWAP1 SWAP6 AND SWAP2 DUP6 ADD SWAP2 SWAP1 SWAP2 MSTORE SWAP1 DUP4 ADD DUP10 SWAP1 MSTORE PUSH1 0x60 DUP4 ADD DUP9 SWAP1 MSTORE TIMESTAMP PUSH1 0x80 DUP5 ADD MSTORE SWAP2 PUSH32 0x60C2F28CAEB1BDDF2D8003A850562E4A133CE8E63719DAC464C8052DE62D0F56 SWAP1 PUSH1 0xA0 ADD PUSH1 0x40 MLOAD DUP1 SWAP2 SUB SWAP1 LOG4 JUMPDEST PUSH1 0x1 PUSH1 0x1 PUSH1 0xA0 SHL SUB DUP1 DUP8 AND PUSH1 0x0 DUP2 DUP2 MSTORE PUSH1 0x21 PUSH1 0x20 SWAP1 DUP2 MSTORE PUSH1 0x40 DUP1 DUP4 KECCAK256 PUSH1 0x3 DUP9 ADD SLOAD SWAP1 SWAP6 AND DUP4 MSTORE SWAP4 DUP2 MSTORE DUP4 DUP3 KECCAK256 DUP1 SLOAD PUSH1 0xFF NOT AND PUSH1 0x1 OR SWAP1 SSTORE SWAP2 DUP2 MSTORE PUSH1 0x1E SWAP1 SWAP2 MSTORE SWAP1 DUP2 KECCAK256 DUP1 SLOAD SWAP2 PUSH2 0x37C0 DUP4 PUSH2 0x5E47 JUMP JUMPDEST PUSH1 0x40 DUP1 MLOAD PUSH1 0x0 DUP1 DUP3 MSTORE PUSH1 0x20 DUP3 ADD SWAP1 SWAP3 MSTORE PUSH1 0x1 PUSH1 0x1 PUSH1 0xA0 SHL SUB DUP5 AND SWAP1 DUP4 SWAP1 PUSH1 0x40 MLOAD PUSH2 0x4D7B SWAP2 SWAP1 PUSH2 0x5B05 JUMP JUMPDEST PUSH1 0x0 PUSH1 0x40 MLOAD DUP1 DUP4 SUB DUP2 DUP6 DUP8 GAS CALL SWAP3 POP POP POP RETURNDATASIZE DUP1 PUSH1 0x0 DUP2 EQ PUSH2 0x4DB8 JUMPI PUSH1 0x40 MLOAD SWAP2 POP PUSH1 0x1F NOT PUSH1 0x3F RETURNDATASIZE ADD AND DUP3 ADD PUSH1 0x40 MSTORE RETURNDATASIZE DUP3 MSTORE RETURNDATASIZE PUSH1 0x0 PUSH1 0x20 DUP5 ADD RETURNDATACOPY PUSH2 0x4DBD JUMP JUMPDEST PUSH1 0x60 SWAP2 POP JUMPDEST POP POP SWAP1 POP DUP1 PUSH2 0x4E1A JUMPI PUSH1 0x40 MLOAD PUSH3 0x461BCD PUSH1 0xE5 SHL DUP2 MSTORE PUSH1 0x20 PUSH1 0x4 DUP3 ADD MSTORE PUSH1 0x23 PUSH1 0x24 DUP3 ADD MSTORE PUSH32 0x5472616E7366657248656C7065723A204554485F5452414E534645525F464149 PUSH1 0x44 DUP3 ADD MSTORE PUSH3 0x131151 PUSH1 0xEA SHL PUSH1 0x64 DUP3 ADD MSTORE PUSH1 0x84 ADD PUSH2 0x11EF JUMP JUMPDEST POP POP POP JUMP JUMPDEST PUSH1 0x64 DUP3 GT ISZERO PUSH2 0x4E40 JUMPI PUSH1 0x40 MLOAD PUSH3 0x461BCD PUSH1 0xE5 SHL DUP2 MSTORE PUSH1 0x4 ADD PUSH2 0x11EF SWAP1 PUSH2 0x5B40 JUMP JUMPDEST PUSH1 0x0 DUP2 GT DUP1 ISZERO PUSH2 0x4E51 JUMPI POP PUSH1 0x64 DUP2 GT ISZERO JUMPDEST PUSH2 0x4E6D JUMPI PUSH1 0x40 MLOAD PUSH3 0x461BCD PUSH1 0xE5 SHL DUP2 MSTORE PUSH1 0x4 ADD PUSH2 0x11EF SWAP1 PUSH2 0x5B40 JUMP JUMPDEST DUP4 SLOAD PUSH1 0x1 PUSH1 0x1 PUSH1 0xF8 SHL SUB PUSH1 0x1 PUSH1 0x1 PUSH1 0x78 SHL SUB SWAP1 SWAP3 AND PUSH1 0x1 PUSH1 0x80 SHL MUL PUSH32 0xFF000000000000000000000000000000FFFFFFFFFFFFFFFF0000000000000000 PUSH1 0x1 PUSH1 0x1 PUSH1 0x40 SHL SUB SWAP6 DUP7 AND PUSH1 0x1 PUSH1 0x40 SHL MUL AND PUSH1 0x1 PUSH1 0x1 PUSH1 0xF8 SHL SUB NOT SWAP1 SWAP3 AND SWAP2 SWAP1 SWAP2 OR SWAP3 SWAP1 SWAP4 AND SWAP2 SWAP1 SWAP2 OR SWAP2 SWAP1 SWAP2 OR AND PUSH1 0x1 PUSH1 0xF8 SHL OR SWAP1 SSTORE JUMP JUMPDEST PUSH1 0x1 DUP5 ADD SLOAD PUSH1 0x2 DUP6 ADD SLOAD PUSH1 0x0 SWAP2 DUP3 SWAP2 PUSH1 0x1 PUSH1 0x1 PUSH1 0x80 SHL SUB PUSH1 0x1 PUSH1 0x80 SHL SWAP1 SWAP3 DIV DUP3 AND SWAP2 AND GT ISZERO PUSH2 0x4F3E JUMPI PUSH1 0x1 DUP7 ADD SLOAD PUSH1 0x2 DUP8 ADD SLOAD PUSH2 0x4F32 SWAP2 PUSH1 0x1 PUSH1 0x1 PUSH1 0x80 SHL SUB PUSH1 0x1 PUSH1 0x80 SHL SWAP1 SWAP2 DIV DUP2 AND SWAP2 AND PUSH2 0x5DEB JUMP JUMPDEST PUSH1 0x1 PUSH1 0x1 PUSH1 0x80 SHL SUB AND SWAP1 POP JUMPDEST PUSH2 0x4F48 DUP2 DUP6 PUSH2 0x5CA4 JUMP JUMPDEST PUSH1 0x1 DUP8 ADD SLOAD PUSH2 0x4F60 SWAP1 PUSH1 0x1 PUSH1 0x1 PUSH1 0x80 SHL SUB AND DUP8 PUSH2 0x5CA4 JUMP JUMPDEST LT ISZERO PUSH2 0x4FAE JUMPI PUSH1 0x40 MLOAD PUSH3 0x461BCD PUSH1 0xE5 SHL DUP2 MSTORE PUSH1 0x20 PUSH1 0x4 DUP3 ADD MSTORE PUSH1 0x1C PUSH1 0x24 DUP3 ADD MSTORE PUSH32 0x5374616B696E674C6962726172793A20496E73756666696369656E7400000000 PUSH1 0x44 DUP3 ADD MSTORE PUSH1 0x64 ADD PUSH2 0x11EF JUMP JUMPDEST PUSH2 0x4FB8 DUP2 DUP6 PUSH2 0x5CA4 JUMP JUMPDEST DUP7 SLOAD PUSH1 0x1 PUSH1 0x1 PUSH1 0x80 SHL SUB AND LT ISZERO PUSH2 0x5011 JUMPI PUSH1 0x40 MLOAD PUSH3 0x461BCD PUSH1 0xE5 SHL DUP2 MSTORE PUSH1 0x20 PUSH1 0x4 DUP3 ADD MSTORE PUSH1 0x1C PUSH1 0x24 DUP3 ADD MSTORE PUSH32 0x5374616B696E674C6962726172793A20496E73756666696369656E7400000000 PUSH1 0x44 DUP3 ADD MSTORE PUSH1 0x64 ADD PUSH2 0x11EF JUMP JUMPDEST PUSH1 0x0 PUSH2 0x501D DUP3 DUP7 PUSH2 0x5CA4 JUMP JUMPDEST PUSH1 0x1 DUP9 ADD SLOAD PUSH2 0x5035 SWAP1 PUSH1 0x1 PUSH1 0x1 PUSH1 0x80 SHL SUB AND DUP9 PUSH2 0x5CA4 JUMP JUMPDEST PUSH2 0x503F SWAP2 SWAP1 PUSH2 0x5E13 JUMP JUMPDEST PUSH1 0x1 DUP9 ADD DUP1 SLOAD PUSH1 0x1 PUSH1 0x1 PUSH1 0x80 SHL SUB NOT AND PUSH1 0x1 PUSH1 0x1 PUSH1 0x80 SHL SUB DUP4 AND OR SWAP1 SSTORE SWAP1 POP DUP2 ISZERO PUSH2 0x5088 JUMPI PUSH1 0x1 DUP8 ADD DUP1 SLOAD PUSH1 0x1 PUSH1 0x1 PUSH1 0x80 SHL SUB AND SWAP1 SSTORE PUSH1 0x2 DUP8 ADD DUP1 SLOAD PUSH1 0x1 PUSH1 0x1 PUSH1 0x80 SHL SUB NOT AND SWAP1 SSTORE JUMPDEST PUSH1 0x2 DUP8 ADD DUP1 SLOAD PUSH4 0xFFFFFFFF TIMESTAMP DUP2 AND PUSH1 0x1 PUSH1 0x80 SHL MUL PUSH4 0xFFFFFFFF PUSH1 0x80 SHL NOT SWAP1 SWAP3 AND SWAP2 SWAP1 SWAP2 OR SWAP2 DUP3 SWAP1 SSTORE PUSH1 0x1 PUSH1 0xE0 SHL SWAP1 SWAP2 DIV DUP2 AND SWAP1 DUP6 AND EQ PUSH2 0x50E2 JUMPI PUSH1 0x2 DUP8 ADD DUP1 SLOAD PUSH1 0x1 PUSH1 0x1 PUSH1 0xE0 SHL SUB AND PUSH1 0x1 PUSH1 0xE0 SHL PUSH4 0xFFFFFFFF DUP8 AND MUL OR SWAP1 SSTORE JUMPDEST PUSH2 0x50EC DUP3 DUP7 PUSH2 0x5CA4 JUMP JUMPDEST DUP8 SLOAD DUP9 SWAP1 PUSH1 0x10 SWAP1 PUSH2 0x510E SWAP1 DUP5 SWAP1 PUSH1 0x1 PUSH1 0x80 SHL SWAP1 DIV PUSH1 0x1 PUSH1 0x1 PUSH1 0x80 SHL SUB AND PUSH2 0x5C79 JUMP JUMPDEST SWAP3 POP PUSH2 0x100 EXP DUP2 SLOAD DUP2 PUSH1 0x1 PUSH1 0x1 PUSH1 0x80 SHL SUB MUL NOT AND SWAP1 DUP4 PUSH1 0x1 PUSH1 0x1 PUSH1 0x80 SHL SUB AND MUL OR SWAP1 SSTORE POP DUP2 DUP6 PUSH2 0x513E SWAP2 SWAP1 PUSH2 0x5CA4 JUMP JUMPDEST DUP8 SLOAD DUP9 SWAP1 PUSH1 0x0 SWAP1 PUSH2 0x5159 SWAP1 DUP5 SWAP1 PUSH1 0x1 PUSH1 0x1 PUSH1 0x80 SHL SUB AND PUSH2 0x5DEB JUMP JUMPDEST SWAP3 POP PUSH2 0x100 EXP DUP2 SLOAD DUP2 PUSH1 0x1 PUSH1 0x1 PUSH1 0x80 SHL SUB MUL NOT AND SWAP1 DUP4 PUSH1 0x1 PUSH1 0x1 PUSH1 0x80 SHL SUB AND MUL OR SWAP1 SSTORE POP DUP2 DUP6 PUSH2 0x5189 SWAP2 SWAP1 PUSH2 0x5CA4 JUMP JUMPDEST SWAP8 SWAP7 POP POP POP POP POP POP POP JUMP JUMPDEST DUP1 SLOAD PUSH1 0x1 PUSH1 0xF8 SHL SWAP1 DIV PUSH1 0xFF AND PUSH2 0x36E4 JUMPI DUP1 SLOAD PUSH1 0x1 PUSH1 0x1 PUSH1 0xF8 SHL SUB AND PUSH1 0x1 PUSH1 0xF8 SHL OR DUP2 SSTORE POP JUMP JUMPDEST PUSH1 0x0 DUP1 SLOAD PUSH1 0x1 PUSH1 0x1 PUSH1 0xA0 SHL SUB NOT AND PUSH1 0x1 PUSH1 0x1 PUSH1 0xA0 SHL SUB SWAP3 SWAP1 SWAP3 AND SWAP2 SWAP1 SWAP2 OR SWAP1 SSTORE JUMP JUMPDEST PUSH1 0x40 DUP1 MLOAD PUSH1 0x1 PUSH1 0x1 PUSH1 0xA0 SHL SUB DUP6 DUP2 AND PUSH1 0x24 DUP4 ADD MSTORE DUP5 DUP2 AND PUSH1 0x44 DUP4 ADD MSTORE PUSH1 0x64 DUP1 DUP4 ADD DUP6 SWAP1 MSTORE DUP4 MLOAD DUP1 DUP5 SUB SWAP1 SWAP2 ADD DUP2 MSTORE PUSH1 0x84 SWAP1 SWAP3 ADD DUP4 MSTORE PUSH1 0x20 DUP3 ADD DUP1 MLOAD PUSH1 0x1 PUSH1 0x1 PUSH1 0xE0 SHL SUB AND PUSH4 0x23B872DD PUSH1 0xE0 SHL OR SWAP1 MSTORE SWAP2 MLOAD PUSH1 0x0 SWAP3 DUP4 SWAP3 SWAP1 DUP9 AND SWAP2 PUSH2 0x5240 SWAP2 SWAP1 PUSH2 0x5B05 JUMP JUMPDEST PUSH1 0x0 PUSH1 0x40 MLOAD DUP1 DUP4 SUB DUP2 PUSH1 0x0 DUP7 GAS CALL SWAP2 POP POP RETURNDATASIZE DUP1 PUSH1 0x0 DUP2 EQ PUSH2 0x527D JUMPI PUSH1 0x40 MLOAD SWAP2 POP PUSH1 0x1F NOT PUSH1 0x3F RETURNDATASIZE ADD AND DUP3 ADD PUSH1 0x40 MSTORE RETURNDATASIZE DUP3 MSTORE RETURNDATASIZE PUSH1 0x0 PUSH1 0x20 DUP5 ADD RETURNDATACOPY PUSH2 0x5282 JUMP JUMPDEST PUSH1 0x60 SWAP2 POP JUMPDEST POP SWAP2 POP SWAP2 POP DUP2 DUP1 ISZERO PUSH2 0x52AC JUMPI POP DUP1 MLOAD ISZERO DUP1 PUSH2 0x52AC JUMPI POP DUP1 DUP1 PUSH1 0x20 ADD SWAP1 MLOAD DUP2 ADD SWAP1 PUSH2 0x52AC SWAP2 SWAP1 PUSH2 0x58F0 JUMP JUMPDEST PUSH2 0x3BE7 JUMPI PUSH1 0x40 MLOAD PUSH3 0x461BCD PUSH1 0xE5 SHL DUP2 MSTORE PUSH1 0x20 PUSH1 0x4 DUP3 ADD MSTORE PUSH1 0x24 DUP1 DUP3 ADD MSTORE PUSH32 0x5472616E7366657248656C7065723A205452414E534645525F46524F4D5F4641 PUSH1 0x44 DUP3 ADD MSTORE PUSH4 0x12531151 PUSH1 0xE2 SHL PUSH1 0x64 DUP3 ADD MSTORE PUSH1 0x84 ADD PUSH2 0x11EF JUMP JUMPDEST DUP2 SLOAD DUP2 SWAP1 DUP4 SWAP1 PUSH1 0x0 SWAP1 PUSH2 0x5321 SWAP1 DUP5 SWAP1 PUSH1 0x1 PUSH1 0x1 PUSH1 0x80 SHL SUB AND PUSH2 0x5C79 JUMP JUMPDEST DUP3 SLOAD PUSH1 0x1 PUSH1 0x1 PUSH1 0x80 SHL SUB SWAP2 DUP3 AND PUSH2 0x100 SWAP4 SWAP1 SWAP4 EXP SWAP3 DUP4 MUL SWAP2 SWAP1 SWAP3 MUL NOT SWAP1 SWAP2 AND OR SWAP1 SSTORE POP PUSH1 0x2 DUP3 ADD DUP1 SLOAD PUSH4 0xFFFFFFFF TIMESTAMP DUP2 AND PUSH1 0x1 PUSH1 0x80 SHL MUL PUSH4 0xFFFFFFFF PUSH1 0x80 SHL NOT SWAP1 SWAP3 AND SWAP2 SWAP1 SWAP2 OR DUP1 DUP4 SSTORE PUSH1 0x1 PUSH1 0xC0 SHL SWAP1 DIV AND SWAP1 PUSH1 0x18 PUSH2 0x537F DUP4 PUSH2 0x5E62 JUMP JUMPDEST SWAP2 SWAP1 PUSH2 0x100 EXP DUP2 SLOAD DUP2 PUSH4 0xFFFFFFFF MUL NOT AND SWAP1 DUP4 PUSH4 0xFFFFFFFF AND MUL OR SWAP1 SSTORE POP POP POP POP JUMP JUMPDEST DUP2 SLOAD PUSH1 0xFF PUSH1 0x1 PUSH1 0xF8 SHL SWAP1 SWAP2 DIV AND ISZERO ISZERO DUP2 ISZERO ISZERO EQ PUSH2 0x3369 JUMPI DUP2 SLOAD SWAP1 ISZERO ISZERO PUSH1 0x1 PUSH1 0xF8 SHL MUL PUSH1 0x1 PUSH1 0x1 PUSH1 0xF8 SHL SUB SWAP1 SWAP2 AND OR SWAP1 SSTORE JUMP JUMPDEST PUSH1 0x0 DUP2 GT DUP1 ISZERO PUSH2 0x53E5 JUMPI POP PUSH1 0x64 DUP2 GT ISZERO JUMPDEST PUSH2 0x5401 JUMPI PUSH1 0x40 MLOAD PUSH3 0x461BCD PUSH1 0xE5 SHL DUP2 MSTORE PUSH1 0x4 ADD PUSH2 0x11EF SWAP1 PUSH2 0x5B40 JUMP JUMPDEST DUP2 SLOAD PUSH1 0x1 PUSH1 0x1 PUSH1 0x78 SHL SUB SWAP1 SWAP2 AND PUSH1 0x1 PUSH1 0x80 SHL MUL PUSH1 0x1 PUSH1 0x80 SHL PUSH1 0x1 PUSH1 0xF8 SHL SUB NOT SWAP1 SWAP2 AND OR SWAP1 SSTORE JUMP JUMPDEST PUSH1 0x0 DUP2 GT PUSH2 0x5478 JUMPI PUSH1 0x40 MLOAD PUSH3 0x461BCD PUSH1 0xE5 SHL DUP2 MSTORE PUSH1 0x20 PUSH1 0x4 DUP3 ADD MSTORE PUSH1 0x1C PUSH1 0x24 DUP3 ADD MSTORE PUSH32 0x506C616E4C696272617279203A20496E76616C69642072657761726400000000 PUSH1 0x44 DUP3 ADD MSTORE PUSH1 0x64 ADD PUSH2 0x11EF JUMP JUMPDEST DUP2 SLOAD PUSH1 0x1 PUSH1 0x1 PUSH1 0x40 SHL SUB SWAP1 SWAP2 AND PUSH1 0x1 PUSH1 0x40 SHL MUL PUSH16 0xFFFFFFFFFFFFFFFF0000000000000000 NOT SWAP1 SWAP2 AND OR SWAP1 SSTORE JUMP JUMPDEST PUSH1 0x64 DUP2 GT ISZERO PUSH2 0x54C6 JUMPI PUSH1 0x40 MLOAD PUSH3 0x461BCD PUSH1 0xE5 SHL DUP2 MSTORE PUSH1 0x4 ADD PUSH2 0x11EF SWAP1 PUSH2 0x5B40 JUMP JUMPDEST DUP2 SLOAD PUSH8 0xFFFFFFFFFFFFFFFF NOT AND PUSH1 0x1 PUSH1 0x1 PUSH1 0x40 SHL SUB SWAP2 SWAP1 SWAP2 AND OR SWAP1 SSTORE JUMP JUMPDEST DUP1 CALLDATALOAD PUSH1 0x1 PUSH1 0x1 PUSH1 0xA0 SHL SUB DUP2 AND DUP2 EQ PUSH2 0x54FB JUMPI PUSH1 0x0 DUP1 REVERT JUMPDEST SWAP2 SWAP1 POP JUMP JUMPDEST PUSH1 0x0 DUP3 PUSH1 0x1F DUP4 ADD SLT PUSH2 0x5511 JUMPI PUSH1 0x0 DUP1 REVERT JUMPDEST DUP2 CALLDATALOAD PUSH1 0x20 PUSH2 0x5526 PUSH2 0x5521 DUP4 PUSH2 0x5C56 JUMP JUMPDEST PUSH2 0x5C26 JUMP JUMPDEST DUP1 DUP4 DUP3 MSTORE DUP3 DUP3 ADD SWAP2 POP DUP3 DUP7 ADD DUP8 DUP5 DUP7 PUSH1 0x5 SHL DUP10 ADD ADD GT ISZERO PUSH2 0x5546 JUMPI PUSH1 0x0 DUP1 REVERT JUMPDEST PUSH1 0x0 JUMPDEST DUP6 DUP2 LT ISZERO PUSH2 0x556C JUMPI PUSH2 0x555A DUP3 PUSH2 0x54E4 JUMP JUMPDEST DUP5 MSTORE SWAP3 DUP5 ADD SWAP3 SWAP1 DUP5 ADD SWAP1 PUSH1 0x1 ADD PUSH2 0x5549 JUMP JUMPDEST POP SWAP1 SWAP8 SWAP7 POP POP POP POP POP POP POP JUMP JUMPDEST PUSH1 0x0 DUP3 PUSH1 0x1F DUP4 ADD SLT PUSH2 0x558A JUMPI PUSH1 0x0 DUP1 REVERT JUMPDEST PUSH2 0x5592 PUSH2 0x5BFE JUMP JUMPDEST DUP1 DUP4 DUP6 PUSH1 0x80 DUP7 ADD GT ISZERO PUSH2 0x55A4 JUMPI PUSH1 0x0 DUP1 REVERT JUMPDEST PUSH1 0x0 JUMPDEST PUSH1 0x4 DUP2 LT ISZERO PUSH2 0x55D0 JUMPI DUP2 CALLDATALOAD PUSH2 0x55BB DUP2 PUSH2 0x5ED6 JUMP JUMPDEST DUP5 MSTORE PUSH1 0x20 SWAP4 DUP5 ADD SWAP4 SWAP2 SWAP1 SWAP2 ADD SWAP1 PUSH1 0x1 ADD PUSH2 0x55A7 JUMP JUMPDEST POP SWAP1 SWAP6 SWAP5 POP POP POP POP POP JUMP JUMPDEST DUP1 CALLDATALOAD PUSH2 0x54FB DUP2 PUSH2 0x5EC8 JUMP JUMPDEST PUSH1 0x0 PUSH1 0x20 DUP3 DUP5 SUB SLT ISZERO PUSH2 0x55F8 JUMPI PUSH1 0x0 DUP1 REVERT JUMPDEST PUSH2 0x1B55 DUP3 PUSH2 0x54E4 JUMP JUMPDEST PUSH1 0x0 DUP1 PUSH1 0x40 DUP4 DUP6 SUB SLT ISZERO PUSH2 0x5614 JUMPI PUSH1 0x0 DUP1 REVERT JUMPDEST PUSH2 0x561D DUP4 PUSH2 0x54E4 JUMP JUMPDEST SWAP2 POP PUSH2 0x562B PUSH1 0x20 DUP5 ADD PUSH2 0x54E4 JUMP JUMPDEST SWAP1 POP SWAP3 POP SWAP3 SWAP1 POP JUMP JUMPDEST PUSH1 0x0 DUP1 PUSH1 0x0 DUP1 PUSH1 0x0 DUP1 PUSH1 0x0 DUP1 PUSH1 0x0 PUSH2 0x120 DUP11 DUP13 SUB SLT ISZERO PUSH2 0x5653 JUMPI PUSH1 0x0 DUP1 REVERT JUMPDEST PUSH2 0x565C DUP11 PUSH2 0x54E4 JUMP JUMPDEST SWAP9 POP PUSH2 0x566A PUSH1 0x20 DUP12 ADD PUSH2 0x54E4 JUMP JUMPDEST SWAP8 POP PUSH2 0x5678 PUSH1 0x40 DUP12 ADD PUSH2 0x54E4 JUMP JUMPDEST SWAP7 POP PUSH1 0x60 DUP11 ADD CALLDATALOAD SWAP6 POP PUSH1 0x80 DUP11 ADD CALLDATALOAD SWAP5 POP PUSH1 0xA0 DUP11 ADD CALLDATALOAD SWAP4 POP PUSH1 0xC0 DUP11 ADD CALLDATALOAD SWAP3 POP PUSH2 0x56A2 PUSH1 0xE0 DUP12 ADD PUSH2 0x54E4 JUMP JUMPDEST SWAP2 POP PUSH2 0x56B1 PUSH2 0x100 DUP12 ADD PUSH2 0x54E4 JUMP JUMPDEST SWAP1 POP SWAP3 SWAP6 SWAP9 POP SWAP3 SWAP6 SWAP9 POP SWAP3 SWAP6 SWAP9 JUMP JUMPDEST PUSH1 0x0 DUP1 PUSH1 0x40 DUP4 DUP6 SUB SLT ISZERO PUSH2 0x56D3 JUMPI PUSH1 0x0 DUP1 REVERT JUMPDEST PUSH2 0x56DC DUP4 PUSH2 0x54E4 JUMP JUMPDEST SWAP5 PUSH1 0x20 SWAP4 SWAP1 SWAP4 ADD CALLDATALOAD SWAP4 POP POP POP JUMP JUMPDEST PUSH1 0x0 DUP1 PUSH1 0x0 PUSH1 0x60 DUP5 DUP7 SUB SLT ISZERO PUSH2 0x56FF JUMPI PUSH1 0x0 DUP1 REVERT JUMPDEST PUSH2 0x5708 DUP5 PUSH2 0x54E4 JUMP JUMPDEST SWAP6 PUSH1 0x20 DUP6 ADD CALLDATALOAD SWAP6 POP PUSH1 0x40 SWAP1 SWAP5 ADD CALLDATALOAD SWAP4 SWAP3 POP POP POP JUMP JUMPDEST PUSH1 0x0 DUP1 PUSH1 0x0 DUP1 PUSH1 0x80 DUP6 DUP8 SUB SLT ISZERO PUSH2 0x5733 JUMPI PUSH1 0x0 DUP1 REVERT JUMPDEST PUSH2 0x573C DUP6 PUSH2 0x54E4 JUMP JUMPDEST SWAP4 POP PUSH1 0x20 DUP6 ADD CALLDATALOAD SWAP3 POP PUSH1 0x40 DUP6 ADD CALLDATALOAD SWAP2 POP PUSH1 0x60 DUP6 ADD CALLDATALOAD PUSH2 0x575A DUP2 PUSH2 0x5EC8 JUMP JUMPDEST SWAP4 SWAP7 SWAP3 SWAP6 POP SWAP1 SWAP4 POP POP JUMP JUMPDEST PUSH1 0x0 DUP1 PUSH1 0x0 PUSH1 0x60 DUP5 DUP7 SUB SLT ISZERO PUSH2 0x577A JUMPI PUSH1 0x0 DUP1 REVERT JUMPDEST DUP4 CALLDATALOAD PUSH1 0x1 PUSH1 0x1 PUSH1 0x40 SHL SUB DUP1 DUP3 GT ISZERO PUSH2 0x5791 JUMPI PUSH1 0x0 DUP1 REVERT JUMPDEST DUP2 DUP7 ADD SWAP2 POP DUP7 PUSH1 0x1F DUP4 ADD SLT PUSH2 0x57A5 JUMPI PUSH1 0x0 DUP1 REVERT JUMPDEST DUP2 CALLDATALOAD PUSH1 0x20 PUSH2 0x57B5 PUSH2 0x5521 DUP4 PUSH2 0x5C56 JUMP JUMPDEST DUP1 DUP4 DUP3 MSTORE DUP3 DUP3 ADD SWAP2 POP DUP3 DUP7 ADD DUP12 DUP5 DUP7 PUSH1 0x5 SHL DUP10 ADD ADD GT ISZERO PUSH2 0x57D5 JUMPI PUSH1 0x0 DUP1 REVERT JUMPDEST PUSH1 0x0 SWAP7 POP JUMPDEST DUP5 DUP8 LT ISZERO PUSH2 0x57F8 JUMPI DUP1 CALLDATALOAD DUP4 MSTORE PUSH1 0x1 SWAP7 SWAP1 SWAP7 ADD SWAP6 SWAP2 DUP4 ADD SWAP2 DUP4 ADD PUSH2 0x57DA JUMP JUMPDEST POP SWAP8 POP POP DUP8 ADD CALLDATALOAD SWAP3 POP POP DUP1 DUP3 GT ISZERO PUSH2 0x580F JUMPI PUSH1 0x0 DUP1 REVERT JUMPDEST POP PUSH2 0x581C DUP7 DUP3 DUP8 ADD PUSH2 0x5500 JUMP JUMPDEST SWAP3 POP POP PUSH2 0x582B PUSH1 0x40 DUP6 ADD PUSH2 0x55DB JUMP JUMPDEST SWAP1 POP SWAP3 POP SWAP3 POP SWAP3 JUMP JUMPDEST PUSH1 0x0 DUP1 PUSH1 0x0 PUSH2 0x180 DUP5 DUP7 SUB SLT ISZERO PUSH2 0x584A JUMPI PUSH1 0x0 DUP1 REVERT JUMPDEST PUSH2 0x5854 DUP6 DUP6 PUSH2 0x5579 JUMP JUMPDEST SWAP3 POP DUP5 PUSH1 0x9F DUP6 ADD SLT PUSH2 0x5865 JUMPI PUSH1 0x0 DUP1 REVERT JUMPDEST PUSH2 0x586D PUSH2 0x5BFE JUMP JUMPDEST DUP1 PUSH1 0x80 DUP7 ADD PUSH2 0x100 DUP8 ADD DUP9 DUP2 GT ISZERO PUSH2 0x5884 JUMPI PUSH1 0x0 DUP1 REVERT JUMPDEST PUSH1 0x0 DUP1 JUMPDEST PUSH1 0x4 DUP2 LT ISZERO PUSH2 0x58B7 JUMPI DUP4 CALLDATALOAD PUSH2 0xFFFF DUP2 AND DUP2 EQ PUSH2 0x58A2 JUMPI DUP3 DUP4 REVERT JUMPDEST DUP7 MSTORE PUSH1 0x20 SWAP6 DUP7 ADD SWAP6 SWAP4 SWAP1 SWAP4 ADD SWAP3 PUSH1 0x1 ADD PUSH2 0x5888 JUMP JUMPDEST POP POP DUP3 SWAP6 POP PUSH2 0x58C6 DUP10 DUP3 PUSH2 0x5579 JUMP JUMPDEST SWAP5 POP POP POP POP POP SWAP3 POP SWAP3 POP SWAP3 JUMP JUMPDEST PUSH1 0x0 PUSH1 0x20 DUP3 DUP5 SUB SLT ISZERO PUSH2 0x58E5 JUMPI PUSH1 0x0 DUP1 REVERT JUMPDEST DUP2 CALLDATALOAD PUSH2 0x1B55 DUP2 PUSH2 0x5EC8 JUMP JUMPDEST PUSH1 0x0 PUSH1 0x20 DUP3 DUP5 SUB SLT ISZERO PUSH2 0x5902 JUMPI PUSH1 0x0 DUP1 REVERT JUMPDEST DUP2 MLOAD PUSH2 0x1B55 DUP2 PUSH2 0x5EC8 JUMP JUMPDEST PUSH1 0x0 PUSH1 0x20 DUP3 DUP5 SUB SLT ISZERO PUSH2 0x591F JUMPI PUSH1 0x0 DUP1 REVERT JUMPDEST POP CALLDATALOAD SWAP2 SWAP1 POP JUMP JUMPDEST PUSH1 0x0 PUSH1 0x20 DUP3 DUP5 SUB SLT ISZERO PUSH2 0x5938 JUMPI PUSH1 0x0 DUP1 REVERT JUMPDEST POP MLOAD SWAP2 SWAP1 POP JUMP JUMPDEST PUSH1 0x0 DUP1 PUSH1 0x40 DUP4 DUP6 SUB SLT ISZERO PUSH2 0x5952 JUMPI PUSH1 0x0 DUP1 REVERT JUMPDEST DUP3 CALLDATALOAD SWAP2 POP PUSH1 0x20 DUP4 ADD CALLDATALOAD PUSH2 0x5964 DUP2 PUSH2 0x5EC8 JUMP JUMPDEST DUP1 SWAP2 POP POP SWAP3 POP SWAP3 SWAP1 POP JUMP JUMPDEST PUSH1 0x0 DUP1 PUSH1 0x40 DUP4 DUP6 SUB SLT ISZERO PUSH2 0x5982 JUMPI PUSH1 0x0 DUP1 REVERT JUMPDEST POP POP DUP1 CALLDATALOAD SWAP3 PUSH1 0x20 SWAP1 SWAP2 ADD CALLDATALOAD SWAP2 POP JUMP JUMPDEST PUSH1 0x0 DUP1 PUSH1 0x0 PUSH1 0x60 DUP5 DUP7 SUB SLT ISZERO PUSH2 0x59A6 JUMPI PUSH1 0x0 DUP1 REVERT JUMPDEST DUP4 CALLDATALOAD SWAP3 POP PUSH1 0x20 DUP5 ADD CALLDATALOAD SWAP2 POP PUSH2 0x582B PUSH1 0x40 DUP6 ADD PUSH2 0x54E4 JUMP JUMPDEST PUSH1 0x0 DUP1 PUSH1 0x0 DUP1 PUSH1 0x0 PUSH1 0xA0 DUP7 DUP9 SUB SLT ISZERO PUSH2 0x59D5 JUMPI PUSH1 0x0 DUP1 REVERT JUMPDEST DUP6 CALLDATALOAD SWAP5 POP PUSH1 0x20 DUP7 ADD CALLDATALOAD SWAP4 POP PUSH2 0x59EC PUSH1 0x40 DUP8 ADD PUSH2 0x54E4 JUMP JUMPDEST SWAP3 POP PUSH2 0x59FA PUSH1 0x60 DUP8 ADD PUSH2 0x54E4 JUMP JUMPDEST SWAP2 POP PUSH1 0x80 DUP7 ADD CALLDATALOAD PUSH2 0x5A0A DUP2 PUSH2 0x5EC8 JUMP JUMPDEST DUP1 SWAP2 POP POP SWAP3 SWAP6 POP SWAP3 SWAP6 SWAP1 SWAP4 POP JUMP JUMPDEST PUSH1 0x0 DUP1 PUSH1 0x0 DUP1 PUSH1 0x0 DUP1 PUSH1 0x0 PUSH1 0xE0 DUP9 DUP11 SUB SLT ISZERO PUSH2 0x5A33 JUMPI PUSH1 0x0 DUP1 REVERT JUMPDEST DUP8 CALLDATALOAD SWAP7 POP PUSH1 0x20 DUP9 ADD CALLDATALOAD SWAP6 POP PUSH2 0x5A4A PUSH1 0x40 DUP10 ADD PUSH2 0x54E4 JUMP JUMPDEST SWAP5 POP PUSH2 0x5A58 PUSH1 0x60 DUP10 ADD PUSH2 0x54E4 JUMP JUMPDEST SWAP4 POP PUSH1 0x80 DUP9 ADD CALLDATALOAD SWAP3 POP PUSH1 0xA0 DUP9 ADD CALLDATALOAD SWAP2 POP PUSH1 0xC0 DUP9 ADD CALLDATALOAD PUSH2 0x5A76 DUP2 PUSH2 0x5EC8 JUMP JUMPDEST DUP1 SWAP2 POP POP SWAP3 SWAP6 SWAP9 SWAP2 SWAP5 SWAP8 POP SWAP3 SWAP6 POP JUMP JUMPDEST PUSH1 0x0 DUP1 PUSH1 0x0 PUSH1 0x60 DUP5 DUP7 SUB SLT ISZERO PUSH2 0x5A9B JUMPI PUSH1 0x0 DUP1 REVERT JUMPDEST POP POP DUP2 CALLDATALOAD SWAP4 PUSH1 0x20 DUP4 ADD CALLDATALOAD SWAP4 POP PUSH1 0x40 SWAP1 SWAP3 ADD CALLDATALOAD SWAP2 SWAP1 POP JUMP JUMPDEST PUSH1 0x0 DUP1 PUSH1 0x0 DUP1 PUSH1 0x80 DUP6 DUP8 SUB SLT ISZERO PUSH2 0x5AC8 JUMPI PUSH1 0x0 DUP1 REVERT JUMPDEST DUP5 CALLDATALOAD SWAP4 POP PUSH1 0x20 DUP6 ADD CALLDATALOAD SWAP3 POP PUSH1 0x40 DUP6 ADD CALLDATALOAD SWAP2 POP PUSH1 0x60 DUP6 ADD CALLDATALOAD PUSH2 0x575A DUP2 PUSH2 0x5EC8 JUMP JUMPDEST PUSH1 0x0 PUSH1 0x20 DUP3 DUP5 SUB SLT ISZERO PUSH2 0x5AFA JUMPI PUSH1 0x0 DUP1 REVERT JUMPDEST DUP2 MLOAD PUSH2 0x1B55 DUP2 PUSH2 0x5ED6 JUMP JUMPDEST PUSH1 0x0 DUP3 MLOAD PUSH1 0x0 JUMPDEST DUP2 DUP2 LT ISZERO PUSH2 0x5B26 JUMPI PUSH1 0x20 DUP2 DUP7 ADD DUP2 ADD MLOAD DUP6 DUP4 ADD MSTORE ADD PUSH2 0x5B0C JUMP JUMPDEST DUP2 DUP2 GT ISZERO PUSH2 0x5B35 JUMPI PUSH1 0x0 DUP3 DUP6 ADD MSTORE JUMPDEST POP SWAP2 SWAP1 SWAP2 ADD SWAP3 SWAP2 POP POP JUMP JUMPDEST PUSH1 0x20 DUP1 DUP3 MSTORE PUSH1 0x15 SWAP1 DUP3 ADD MSTORE PUSH21 0x141B185B931A589C985C9E480E88125B9D985B1A59 PUSH1 0x5A SHL PUSH1 0x40 DUP3 ADD MSTORE PUSH1 0x60 ADD SWAP1 JUMP JUMPDEST PUSH1 0x20 DUP1 DUP3 MSTORE PUSH1 0x18 SWAP1 DUP3 ADD MSTORE PUSH32 0x437573746F6D4F776E61626C653A20464F5242494444454E0000000000000000 PUSH1 0x40 DUP3 ADD MSTORE PUSH1 0x60 ADD SWAP1 JUMP JUMPDEST PUSH1 0x20 DUP1 DUP3 MSTORE PUSH1 0x7 SWAP1 DUP3 ADD MSTORE PUSH7 0x125B9D985B1A59 PUSH1 0xCA SHL PUSH1 0x40 DUP3 ADD MSTORE PUSH1 0x60 ADD SWAP1 JUMP JUMPDEST PUSH1 0x20 DUP1 DUP3 MSTORE PUSH1 0x1F SWAP1 DUP3 ADD MSTORE PUSH32 0x5265656E7472616E637947756172643A207265656E7472616E742063616C6C00 PUSH1 0x40 DUP3 ADD MSTORE PUSH1 0x60 ADD SWAP1 JUMP JUMPDEST PUSH1 0x40 MLOAD PUSH1 0x80 DUP2 ADD PUSH1 0x1 PUSH1 0x1 PUSH1 0x40 SHL SUB DUP2 GT DUP3 DUP3 LT OR ISZERO PUSH2 0x5C20 JUMPI PUSH2 0x5C20 PUSH2 0x5EB2 JUMP JUMPDEST PUSH1 0x40 MSTORE SWAP1 JUMP JUMPDEST PUSH1 0x40 MLOAD PUSH1 0x1F DUP3 ADD PUSH1 0x1F NOT AND DUP2 ADD PUSH1 0x1 PUSH1 0x1 PUSH1 0x40 SHL SUB DUP2 GT DUP3 DUP3 LT OR ISZERO PUSH2 0x5C4E JUMPI PUSH2 0x5C4E PUSH2 0x5EB2 JUMP JUMPDEST PUSH1 0x40 MSTORE SWAP2 SWAP1 POP JUMP JUMPDEST PUSH1 0x0 PUSH1 0x1 PUSH1 0x1 PUSH1 0x40 SHL SUB DUP3 GT ISZERO PUSH2 0x5C6F JUMPI PUSH2 0x5C6F PUSH2 0x5EB2 JUMP JUMPDEST POP PUSH1 0x5 SHL PUSH1 0x20 ADD SWAP1 JUMP JUMPDEST PUSH1 0x0 PUSH1 0x1 PUSH1 0x1 PUSH1 0x80 SHL SUB DUP1 DUP4 AND DUP2 DUP6 AND DUP1 DUP4 SUB DUP3 GT ISZERO PUSH2 0x5C9B JUMPI PUSH2 0x5C9B PUSH2 0x5E86 JUMP JUMPDEST ADD SWAP5 SWAP4 POP POP POP POP JUMP JUMPDEST PUSH1 0x0 DUP3 NOT DUP3 GT ISZERO PUSH2 0x5CB7 JUMPI PUSH2 0x5CB7 PUSH2 0x5E86 JUMP JUMPDEST POP ADD SWAP1 JUMP JUMPDEST PUSH1 0x0 DUP3 PUSH2 0x5CD9 JUMPI PUSH4 0x4E487B71 PUSH1 0xE0 SHL PUSH1 0x0 MSTORE PUSH1 0x12 PUSH1 0x4 MSTORE PUSH1 0x24 PUSH1 0x0 REVERT JUMPDEST POP DIV SWAP1 JUMP JUMPDEST PUSH1 0x1 DUP2 DUP2 JUMPDEST DUP1 DUP6 GT ISZERO PUSH2 0x5D19 JUMPI DUP2 PUSH1 0x0 NOT DIV DUP3 GT ISZERO PUSH2 0x5CFF JUMPI PUSH2 0x5CFF PUSH2 0x5E86 JUMP JUMPDEST DUP1 DUP6 AND ISZERO PUSH2 0x5D0C JUMPI SWAP2 DUP2 MUL SWAP2 JUMPDEST SWAP4 DUP5 SHR SWAP4 SWAP1 DUP1 MUL SWAP1 PUSH2 0x5CE3 JUMP JUMPDEST POP SWAP3 POP SWAP3 SWAP1 POP JUMP JUMPDEST PUSH1 0x0 PUSH2 0x1B55 PUSH1 0xFF DUP5 AND DUP4 PUSH1 0x0 DUP3 PUSH2 0x5D3A JUMPI POP PUSH1 0x1 PUSH2 0x350C JUMP JUMPDEST DUP2 PUSH2 0x5D47 JUMPI POP PUSH1 0x0 PUSH2 0x350C JUMP JUMPDEST DUP2 PUSH1 0x1 DUP2 EQ PUSH2 0x5D5D JUMPI PUSH1 0x2 DUP2 EQ PUSH2 0x5D67 JUMPI PUSH2 0x5D83 JUMP JUMPDEST PUSH1 0x1 SWAP2 POP POP PUSH2 0x350C JUMP JUMPDEST PUSH1 0xFF DUP5 GT ISZERO PUSH2 0x5D78 JUMPI PUSH2 0x5D78 PUSH2 0x5E86 JUMP JUMPDEST POP POP PUSH1 0x1 DUP3 SHL PUSH2 0x350C JUMP JUMPDEST POP PUSH1 0x20 DUP4 LT PUSH2 0x133 DUP4 LT AND PUSH1 0x4E DUP5 LT PUSH1 0xB DUP5 LT AND OR ISZERO PUSH2 0x5DA6 JUMPI POP DUP2 DUP2 EXP PUSH2 0x350C JUMP JUMPDEST PUSH2 0x5DB0 DUP4 DUP4 PUSH2 0x5CDE JUMP JUMPDEST DUP1 PUSH1 0x0 NOT DIV DUP3 GT ISZERO PUSH2 0x5DC4 JUMPI PUSH2 0x5DC4 PUSH2 0x5E86 JUMP JUMPDEST MUL SWAP4 SWAP3 POP POP POP JUMP JUMPDEST PUSH1 0x0 DUP2 PUSH1 0x0 NOT DIV DUP4 GT DUP3 ISZERO ISZERO AND ISZERO PUSH2 0x5DE6 JUMPI PUSH2 0x5DE6 PUSH2 0x5E86 JUMP JUMPDEST POP MUL SWAP1 JUMP JUMPDEST PUSH1 0x0 PUSH1 0x1 PUSH1 0x1 PUSH1 0x80 SHL SUB DUP4 DUP2 AND SWAP1 DUP4 AND DUP2 DUP2 LT ISZERO PUSH2 0x5E0B JUMPI PUSH2 0x5E0B PUSH2 0x5E86 JUMP JUMPDEST SUB SWAP4 SWAP3 POP POP POP JUMP JUMPDEST PUSH1 0x0 DUP3 DUP3 LT ISZERO PUSH2 0x5E25 JUMPI PUSH2 0x5E25 PUSH2 0x5E86 JUMP JUMPDEST POP SUB SWAP1 JUMP JUMPDEST PUSH1 0x0 PUSH4 0xFFFFFFFF DUP4 DUP2 AND SWAP1 DUP4 AND DUP2 DUP2 LT ISZERO PUSH2 0x5E0B JUMPI PUSH2 0x5E0B PUSH2 0x5E86 JUMP JUMPDEST PUSH1 0x0 PUSH1 0x0 NOT DUP3 EQ ISZERO PUSH2 0x5E5B JUMPI PUSH2 0x5E5B PUSH2 0x5E86 JUMP JUMPDEST POP PUSH1 0x1 ADD SWAP1 JUMP JUMPDEST PUSH1 0x0 PUSH4 0xFFFFFFFF DUP1 DUP4 AND DUP2 DUP2 EQ ISZERO PUSH2 0x5E7C JUMPI PUSH2 0x5E7C PUSH2 0x5E86 JUMP JUMPDEST PUSH1 0x1 ADD SWAP4 SWAP3 POP POP POP JUMP JUMPDEST PUSH4 0x4E487B71 PUSH1 0xE0 SHL PUSH1 0x0 MSTORE PUSH1 0x11 PUSH1 0x4 MSTORE PUSH1 0x24 PUSH1 0x0 REVERT JUMPDEST PUSH4 0x4E487B71 PUSH1 0xE0 SHL PUSH1 0x0 MSTORE PUSH1 0x32 PUSH1 0x4 MSTORE PUSH1 0x24 PUSH1 0x0 REVERT JUMPDEST PUSH4 0x4E487B71 PUSH1 0xE0 SHL PUSH1 0x0 MSTORE PUSH1 0x41 PUSH1 0x4 MSTORE PUSH1 0x24 PUSH1 0x0 REVERT JUMPDEST DUP1 ISZERO ISZERO DUP2 EQ PUSH2 0x36E4 JUMPI PUSH1 0x0 DUP1 REVERT JUMPDEST PUSH1 0xFF DUP2 AND DUP2 EQ PUSH2 0x36E4 JUMPI PUSH1 0x0 DUP1 REVERT INVALID LOG2 PUSH5 0x6970667358 0x22 SLT KECCAK256 POP 0xC0 SWAP16 0xA7 CALLDATALOAD CODECOPY 0xE6 INVALID 0xE3 0xED 0x49 0xB2 0xB4 PUSH2 0xCFCD 0xE0 0x4A 0xAA PUSH9 0x56E935F388122F927E 0xF7 0xFB 0x2E PUSH5 0x736F6C6343 STOP ADDMOD SMOD STOP CALLER "
		},
		"gasEstimates": {
			"creation": {
				"codeDepositCost": "4869400",
				"executionCost": "27854",
				"totalCost": "4897254"
			},
			"external": {
				"NFTCoinsCounter()": "2350",
				"SECONDS_IN_DAY()": "2418",
				"XIV()": "2425",
				"accumulatedXIV()": "2417",
				"addCoins(uint256,uint256,address)": "80545",
				"addPlan(uint256,uint256,uint256,bool)": "128468",
				"amountToUnlock(address)": "infinite",
				"betCounter(address)": "2597",
				"betFactorLP()": "2352",
				"betFees()": "2352",
				"betFixed(uint256,uint256,address,address,bool)": "infinite",
				"betFlexible(uint256,uint256,address,address,uint256,uint256,bool)": "infinite",
				"betPenalty(uint256)": "infinite",
				"bufferTime()": "2374",
				"chainCoinsCounter()": "2353",
				"changeCoinStaus(address,uint256,uint256,bool)": "31573",
				"checkCoinStatus(address,uint256,uint256)": "2863",
				"claimBets()": "infinite",
				"claimRewards()": "infinite",
				"coinStatus(address,uint256,uint256)": "2768",
				"coins(uint256,uint256,uint256)": "2805",
				"defiCoinsCounter()": "2418",
				"getBetRewards(address)": "infinite",
				"getPriceInXIV(address)": "infinite",
				"getRewards(address)": "infinite",
				"globalPool()": "2375",
				"initialize(address,address,address,uint256,uint256,uint256,uint256,address,address)": "infinite",
				"isEligibleForBet(address,address)": "infinite",
				"isMultiTokenActive()": "2399",
				"maxBetAmount()": "2373",
				"maxStakeAmount()": "2419",
				"maxWalks()": "2375",
				"miniBetAmount()": "2395",
				"miniStakeAmount()": "2395",
				"oracle()": "2404",
				"oracleAddress()": "2460",
				"owner()": "2400",
				"penalty(uint256,uint256)": "2591",
				"planCounter()": "2374",
				"planDaysCounter()": "2352",
				"planDaysIndexed(uint256)": "2497",
				"plans(uint256)": "2764",
				"resolveBet(uint256[],address[],bool)": "infinite",
				"revokeComissionAddress()": "2493",
				"setBetFees(uint256)": "24624",
				"setBufferTime(uint256)": "24556",
				"setDropValue(uint256,uint256)": "29028",
				"setMaxWalks(uint256)": "24606",
				"setMultiTokenStatus(bool)": "infinite",
				"setPenalty(uint256,uint256,uint256)": "24803",
				"setPlanDays(uint256,uint256)": "53289",
				"setPlanDetails(uint8[4],uint16[4],uint8[4])": "infinite",
				"setRevokeComissionAddress(address)": "26901",
				"setReward(uint256,uint256)": "29020",
				"setRisk(uint256,uint256)": "29028",
				"setStatus(uint256,bool)": "31243",
				"setThreshold(uint256)": "24605",
				"stakeDetails(address)": "7326",
				"stakeTokens(uint256)": "infinite",
				"stakerIncentiveCounter()": "2352",
				"stakerRewards(uint256)": "2781",
				"stakes(address,uint256)": "2900",
				"threshold()": "2418",
				"transferOwnership(address)": "30376",
				"unstakeTokens(uint256)": "infinite",
				"updateBetFactorLP(uint256)": "24559",
				"updateMaxBetAmount(uint256)": "24649",
				"updateMaxStakeAmount(uint256)": "24648",
				"updateMinBetAmount(uint256)": "24619",
				"updateMiniStakeAmount(uint256)": "24577",
				"updateOracle(address)": "26882",
				"updateRewards(address)": "infinite",
				"usdt()": "2494",
				"userBetsOne(address,uint256)": "9437",
				"userBetsTwo(address,uint256)": "3113",
				"users(address)": "2598"
			},
			"internal": {
				"_updateRewards(address)": "infinite",
				"saveBetDetailsOne(address,uint256,address,address,bool)": "infinite",
				"saveBetDetailsTwo(address,uint256,uint256,uint256)": "infinite"
			}
		},
		"methodIdentifiers": {
			"NFTCoinsCounter()": "ef7dc45c",
			"SECONDS_IN_DAY()": "61a52a36",
			"XIV()": "efd3c892",
			"accumulatedXIV()": "b606485d",
			"addCoins(uint256,uint256,address)": "defa9df1",
			"addPlan(uint256,uint256,uint256,bool)": "c5e9dc6d",
			"amountToUnlock(address)": "24118875",
			"betCounter(address)": "7f0a83af",
			"betFactorLP()": "409f8e84",
			"betFees()": "b7e1eced",
			"betFixed(uint256,uint256,address,address,bool)": "41bf18e2",
			"betFlexible(uint256,uint256,address,address,uint256,uint256,bool)": "e9d0cc32",
			"betPenalty(uint256)": "42885f8c",
			"bufferTime()": "ba7b6703",
			"chainCoinsCounter()": "21590576",
			"changeCoinStaus(address,uint256,uint256,bool)": "e081e27c",
			"checkCoinStatus(address,uint256,uint256)": "3a2b17e2",
			"claimBets()": "68283f4d",
			"claimRewards()": "372500ab",
			"coinStatus(address,uint256,uint256)": "d66e1e19",
			"coins(uint256,uint256,uint256)": "ac2ce987",
			"defiCoinsCounter()": "a9ecd7da",
			"getBetRewards(address)": "3bdb36d1",
			"getPriceInXIV(address)": "98f0af1c",
			"getRewards(address)": "79ee54f7",
			"globalPool()": "39115784",
			"initialize(address,address,address,uint256,uint256,uint256,uint256,address,address)": "6d03c394",
			"isEligibleForBet(address,address)": "6b899842",
			"isMultiTokenActive()": "dbc9a686",
			"maxBetAmount()": "cab11d5d",
			"maxStakeAmount()": "5d80ca32",
			"maxWalks()": "94ade59b",
			"miniBetAmount()": "845e96ab",
			"miniStakeAmount()": "cacd0ab9",
			"oracle()": "7dc0d1d0",
			"oracleAddress()": "a89ae4ba",
			"owner()": "8da5cb5b",
			"penalty(uint256,uint256)": "51cdb77b",
			"planCounter()": "a36a38ed",
			"planDaysCounter()": "a851ec8f",
			"planDaysIndexed(uint256)": "0ffb231d",
			"plans(uint256)": "b1620616",
			"resolveBet(uint256[],address[],bool)": "2e60130a",
			"revokeComissionAddress()": "a7e3f8c3",
			"setBetFees(uint256)": "a6d883d6",
			"setBufferTime(uint256)": "1aac030c",
			"setDropValue(uint256,uint256)": "9bf26320",
			"setMaxWalks(uint256)": "1c010b51",
			"setMultiTokenStatus(bool)": "bf8f7932",
			"setPenalty(uint256,uint256,uint256)": "f3cf4ada",
			"setPlanDays(uint256,uint256)": "8a3e1cdc",
			"setPlanDetails(uint8[4],uint16[4],uint8[4])": "4a2e7c5b",
			"setRevokeComissionAddress(address)": "cfda65c3",
			"setReward(uint256,uint256)": "a47bd496",
			"setRisk(uint256,uint256)": "c4adaed1",
			"setStatus(uint256,bool)": "8719e8ac",
			"setThreshold(uint256)": "960bfe04",
			"stakeDetails(address)": "fa2a9da9",
			"stakeTokens(uint256)": "7547c7a3",
			"stakerIncentiveCounter()": "5ec9adae",
			"stakerRewards(uint256)": "cd6bcf73",
			"stakes(address,uint256)": "584b62a1",
			"threshold()": "42cde4e8",
			"transferOwnership(address)": "f2fde38b",
			"unstakeTokens(uint256)": "608e4dd0",
			"updateBetFactorLP(uint256)": "b0879754",
			"updateMaxBetAmount(uint256)": "4020249c",
			"updateMaxStakeAmount(uint256)": "61b71bae",
			"updateMinBetAmount(uint256)": "b73bf456",
			"updateMiniStakeAmount(uint256)": "24ac09c3",
			"updateOracle(address)": "1cb44dfc",
			"updateRewards(address)": "5fd61965",
			"usdt()": "2f48ab7d",
			"userBetsOne(address,uint256)": "b4849568",
			"userBetsTwo(address,uint256)": "5281d8f0",
			"users(address)": "a87430ba"
		}
	},
	"abi": [
		{
			"anonymous": false,
			"inputs": [
				{
					"indexed": false,
					"internalType": "uint256",
					"name": "coinType",
					"type": "uint256"
				},
				{
					"indexed": false,
					"internalType": "uint256",
					"name": "planType",
					"type": "uint256"
				},
				{
					"indexed": false,
					"internalType": "uint256",
					"name": "counter",
					"type": "uint256"
				},
				{
					"indexed": false,
					"internalType": "bool",
					"name": "status",
					"type": "bool"
				},
				{
					"indexed": false,
					"internalType": "address",
					"name": "coinAddress",
					"type": "address"
				}
			],
			"name": "Addcoins",
			"type": "event"
		},
		{
			"anonymous": false,
			"inputs": [
				{
					"indexed": true,
					"internalType": "address",
					"name": "user",
					"type": "address"
				},
				{
					"indexed": true,
					"internalType": "uint256",
					"name": "betIndex",
					"type": "uint256"
				},
				{
					"indexed": false,
					"internalType": "uint256",
					"name": "timeOfClaim",
					"type": "uint256"
				},
				{
					"indexed": false,
					"internalType": "uint256",
					"name": "winningAmount",
					"type": "uint256"
				}
			],
			"name": "BetClaimed",
			"type": "event"
		},
		{
			"anonymous": false,
			"inputs": [
				{
					"indexed": true,
					"internalType": "address",
					"name": "user",
					"type": "address"
				},
				{
					"indexed": true,
					"internalType": "uint256",
					"name": "index",
					"type": "uint256"
				},
				{
					"indexed": true,
					"internalType": "uint256",
					"name": "result",
					"type": "uint256"
				},
				{
					"indexed": false,
					"internalType": "uint256",
					"name": "endTime",
					"type": "uint256"
				}
			],
			"name": "BetResolved",
			"type": "event"
		},
		{
			"anonymous": false,
			"inputs": [
				{
					"indexed": false,
					"internalType": "address",
					"name": "coinAddress",
					"type": "address"
				},
				{
					"indexed": false,
					"internalType": "uint256",
					"name": "coinType",
					"type": "uint256"
				},
				{
					"indexed": false,
					"internalType": "uint256",
					"name": "planType",
					"type": "uint256"
				},
				{
					"indexed": false,
					"internalType": "bool",
					"name": "status",
					"type": "bool"
				}
			],
			"name": "CoinStatus",
			"type": "event"
		},
		{
			"anonymous": false,
			"inputs": [
				{
					"indexed": false,
					"internalType": "uint256",
					"name": "coinType",
					"type": "uint256"
				},
				{
					"indexed": false,
					"internalType": "uint256",
					"name": "planType",
					"type": "uint256"
				},
				{
					"indexed": false,
					"internalType": "bool",
					"name": "status",
					"type": "bool"
				}
			],
			"name": "IndexCoinStatus",
			"type": "event"
		},
		{
			"anonymous": false,
			"inputs": [
				{
					"indexed": false,
					"internalType": "uint256",
					"name": "typeOfLP",
					"type": "uint256"
				},
				{
					"indexed": false,
					"internalType": "address",
					"name": "userAddress",
					"type": "address"
				},
				{
					"indexed": false,
					"internalType": "uint256",
					"name": "amount",
					"type": "uint256"
				},
				{
					"indexed": false,
					"internalType": "uint256",
					"name": "timestamp",
					"type": "uint256"
				}
			],
			"name": "LPEvent",
			"type": "event"
		},
		{
			"anonymous": false,
			"inputs": [
				{
					"indexed": true,
					"internalType": "address",
					"name": "user",
					"type": "address"
				},
				{
					"indexed": false,
					"internalType": "address",
					"name": "coinAddress",
					"type": "address"
				},
				{
					"indexed": false,
					"internalType": "address",
					"name": "betCoin",
					"type": "address"
				},
				{
					"indexed": true,
					"internalType": "uint256",
					"name": "betIndex",
					"type": "uint256"
				},
				{
					"indexed": false,
					"internalType": "uint256",
					"name": "planIndex",
					"type": "uint256"
				},
				{
					"indexed": false,
					"internalType": "uint256",
					"name": "planDays",
					"type": "uint256"
				},
				{
					"indexed": false,
					"internalType": "uint256",
					"name": "startTime",
					"type": "uint256"
				},
				{
					"indexed": true,
					"internalType": "uint256",
					"name": "endTime",
					"type": "uint256"
				}
			],
			"name": "NewBet",
			"type": "event"
		},
		{
			"anonymous": false,
			"inputs": [
				{
					"indexed": false,
					"internalType": "address",
					"name": "previousOwner",
					"type": "address"
				},
				{
					"indexed": false,
					"internalType": "address",
					"name": "newOwner",
					"type": "address"
				}
			],
			"name": "OwnershipTransferred",
			"type": "event"
		},
		{
			"anonymous": false,
			"inputs": [
				{
					"indexed": true,
					"internalType": "address",
					"name": "user",
					"type": "address"
				},
				{
					"indexed": true,
					"internalType": "uint256",
					"name": "betIndex",
					"type": "uint256"
				},
				{
					"indexed": true,
					"internalType": "bool",
					"name": "isClaimed",
					"type": "bool"
				}
			],
			"name": "UserPenalized",
			"type": "event"
		},
		{
			"inputs": [],
			"name": "NFTCoinsCounter",
			"outputs": [
				{
					"internalType": "uint256",
					"name": "",
					"type": "uint256"
				}
			],
			"stateMutability": "view",
			"type": "function"
		},
		{
			"inputs": [],
			"name": "SECONDS_IN_DAY",
			"outputs": [
				{
					"internalType": "uint256",
					"name": "",
					"type": "uint256"
				}
			],
			"stateMutability": "view",
			"type": "function"
		},
		{
			"inputs": [],
			"name": "XIV",
			"outputs": [
				{
					"internalType": "contract IERC20",
					"name": "",
					"type": "address"
				}
			],
			"stateMutability": "view",
			"type": "function"
		},
		{
			"inputs": [],
			"name": "accumulatedXIV",
			"outputs": [
				{
					"internalType": "uint256",
					"name": "",
					"type": "uint256"
				}
			],
			"stateMutability": "view",
			"type": "function"
		},
		{
			"inputs": [
				{
					"internalType": "uint256",
					"name": "_coinType",
					"type": "uint256"
				},
				{
					"internalType": "uint256",
					"name": "planType",
					"type": "uint256"
				},
				{
					"internalType": "address",
					"name": "coinAddress",
					"type": "address"
				}
			],
			"name": "addCoins",
			"outputs": [],
			"stateMutability": "nonpayable",
			"type": "function"
		},
		{
			"inputs": [
				{
					"internalType": "uint256",
					"name": "_reward",
					"type": "uint256"
				},
				{
					"internalType": "uint256",
					"name": "_risk",
					"type": "uint256"
				},
				{
					"internalType": "uint256",
					"name": "_drop",
					"type": "uint256"
				},
				{
					"internalType": "bool",
					"name": "status",
					"type": "bool"
				}
			],
			"name": "addPlan",
			"outputs": [],
			"stateMutability": "nonpayable",
			"type": "function"
		},
		{
			"inputs": [
				{
					"internalType": "address",
					"name": "user",
					"type": "address"
				}
			],
			"name": "amountToUnlock",
			"outputs": [
				{
					"internalType": "uint256",
					"name": "",
					"type": "uint256"
				},
				{
					"internalType": "uint256",
					"name": "",
					"type": "uint256"
				}
			],
			"stateMutability": "view",
			"type": "function"
		},
		{
			"inputs": [
				{
					"internalType": "address",
					"name": "",
					"type": "address"
				}
			],
			"name": "betCounter",
			"outputs": [
				{
					"internalType": "uint256",
					"name": "",
					"type": "uint256"
				}
			],
			"stateMutability": "view",
			"type": "function"
		},
		{
			"inputs": [],
			"name": "betFactorLP",
			"outputs": [
				{
					"internalType": "uint256",
					"name": "",
					"type": "uint256"
				}
			],
			"stateMutability": "view",
			"type": "function"
		},
		{
			"inputs": [],
			"name": "betFees",
			"outputs": [
				{
					"internalType": "uint256",
					"name": "",
					"type": "uint256"
				}
			],
			"stateMutability": "view",
			"type": "function"
		},
		{
			"inputs": [
				{
					"internalType": "uint256",
					"name": "amount",
					"type": "uint256"
				},
				{
					"internalType": "uint256",
					"name": "coinType",
					"type": "uint256"
				},
				{
					"internalType": "address",
					"name": "coinAddress",
					"type": "address"
				},
				{
					"internalType": "address",
					"name": "betToken",
					"type": "address"
				},
				{
					"internalType": "bool",
					"name": "_isInverse",
					"type": "bool"
				}
			],
			"name": "betFixed",
			"outputs": [],
			"stateMutability": "payable",
			"type": "function"
		},
		{
			"inputs": [
				{
					"internalType": "uint256",
					"name": "amount",
					"type": "uint256"
				},
				{
					"internalType": "uint256",
					"name": "coinType",
					"type": "uint256"
				},
				{
					"internalType": "address",
					"name": "coinAddress",
					"type": "address"
				},
				{
					"internalType": "address",
					"name": "betToken",
					"type": "address"
				},
				{
					"internalType": "uint256",
					"name": "index",
					"type": "uint256"
				},
				{
					"internalType": "uint256",
					"name": "_daysIndex",
					"type": "uint256"
				},
				{
					"internalType": "bool",
					"name": "_isInverse",
					"type": "bool"
				}
			],
			"name": "betFlexible",
			"outputs": [],
			"stateMutability": "payable",
			"type": "function"
		},
		{
			"inputs": [
				{
					"internalType": "uint256",
					"name": "betIndex",
					"type": "uint256"
				}
			],
			"name": "betPenalty",
			"outputs": [],
			"stateMutability": "nonpayable",
			"type": "function"
		},
		{
			"inputs": [],
			"name": "bufferTime",
			"outputs": [
				{
					"internalType": "uint256",
					"name": "",
					"type": "uint256"
				}
			],
			"stateMutability": "view",
			"type": "function"
		},
		{
			"inputs": [],
			"name": "chainCoinsCounter",
			"outputs": [
				{
					"internalType": "uint256",
					"name": "",
					"type": "uint256"
				}
			],
			"stateMutability": "view",
			"type": "function"
		},
		{
			"inputs": [
				{
					"internalType": "address",
					"name": "coinAddress",
					"type": "address"
				},
				{
					"internalType": "uint256",
					"name": "coinType",
					"type": "uint256"
				},
				{
					"internalType": "uint256",
					"name": "planType",
					"type": "uint256"
				},
				{
					"internalType": "bool",
					"name": "status",
					"type": "bool"
				}
			],
			"name": "changeCoinStaus",
			"outputs": [],
			"stateMutability": "nonpayable",
			"type": "function"
		},
		{
			"inputs": [
				{
					"internalType": "address",
					"name": "_coin",
					"type": "address"
				},
				{
					"internalType": "uint256",
					"name": "_coinType",
					"type": "uint256"
				},
				{
					"internalType": "uint256",
					"name": "_planType",
					"type": "uint256"
				}
			],
			"name": "checkCoinStatus",
			"outputs": [
				{
					"internalType": "bool",
					"name": "",
					"type": "bool"
				}
			],
			"stateMutability": "view",
			"type": "function"
		},
		{
			"inputs": [],
			"name": "claimBets",
			"outputs": [],
			"stateMutability": "nonpayable",
			"type": "function"
		},
		{
			"inputs": [],
			"name": "claimRewards",
			"outputs": [],
			"stateMutability": "nonpayable",
			"type": "function"
		},
		{
			"inputs": [
				{
					"internalType": "address",
					"name": "",
					"type": "address"
				},
				{
					"internalType": "uint256",
					"name": "",
					"type": "uint256"
				},
				{
					"internalType": "uint256",
					"name": "",
					"type": "uint256"
				}
			],
			"name": "coinStatus",
			"outputs": [
				{
					"internalType": "bool",
					"name": "",
					"type": "bool"
				}
			],
			"stateMutability": "view",
			"type": "function"
		},
		{
			"inputs": [
				{
					"internalType": "uint256",
					"name": "",
					"type": "uint256"
				},
				{
					"internalType": "uint256",
					"name": "",
					"type": "uint256"
				},
				{
					"internalType": "uint256",
					"name": "",
					"type": "uint256"
				}
			],
			"name": "coins",
			"outputs": [
				{
					"internalType": "address",
					"name": "",
					"type": "address"
				}
			],
			"stateMutability": "view",
			"type": "function"
		},
		{
			"inputs": [],
			"name": "defiCoinsCounter",
			"outputs": [
				{
					"internalType": "uint256",
					"name": "",
					"type": "uint256"
				}
			],
			"stateMutability": "view",
			"type": "function"
		},
		{
			"inputs": [
				{
					"internalType": "address",
					"name": "user",
					"type": "address"
				}
			],
			"name": "getBetRewards",
			"outputs": [
				{
					"internalType": "uint256",
					"name": "",
					"type": "uint256"
				}
			],
			"stateMutability": "view",
			"type": "function"
		},
		{
			"inputs": [
				{
					"internalType": "address",
					"name": "betToken",
					"type": "address"
				}
			],
			"name": "getPriceInXIV",
			"outputs": [
				{
					"internalType": "uint256",
					"name": "priceInXIV",
					"type": "uint256"
				}
			],
			"stateMutability": "view",
			"type": "function"
		},
		{
			"inputs": [
				{
					"internalType": "address",
					"name": "user",
					"type": "address"
				}
			],
			"name": "getRewards",
			"outputs": [
				{
					"internalType": "uint256",
					"name": "",
					"type": "uint256"
				},
				{
					"internalType": "uint256",
					"name": "",
					"type": "uint256"
				},
				{
					"internalType": "uint256",
					"name": "",
					"type": "uint256"
				}
			],
			"stateMutability": "view",
			"type": "function"
		},
		{
			"inputs": [],
			"name": "globalPool",
			"outputs": [
				{
					"internalType": "uint256",
					"name": "",
					"type": "uint256"
				}
			],
			"stateMutability": "view",
			"type": "function"
		},
		{
			"inputs": [
				{
					"internalType": "address",
					"name": "_admin",
					"type": "address"
				},
				{
					"internalType": "address",
					"name": "_XIVAddress",
					"type": "address"
				},
				{
					"internalType": "address",
					"name": "_revokeComissionAddress",
					"type": "address"
				},
				{
					"internalType": "uint256",
					"name": "_miniStakeAmount",
					"type": "uint256"
				},
				{
					"internalType": "uint256",
					"name": "_betFactorLP",
					"type": "uint256"
				},
				{
					"internalType": "uint256",
					"name": "_miniBetAmount",
					"type": "uint256"
				},
				{
					"internalType": "uint256",
					"name": "_maxBetAmount",
					"type": "uint256"
				},
				{
					"internalType": "address",
					"name": "_oracle",
					"type": "address"
				},
				{
					"internalType": "address",
					"name": "_usdt",
					"type": "address"
				}
			],
			"name": "initialize",
			"outputs": [],
			"stateMutability": "nonpayable",
			"type": "function"
		},
		{
			"inputs": [
				{
					"internalType": "address",
					"name": "",
					"type": "address"
				},
				{
					"internalType": "address",
					"name": "",
					"type": "address"
				}
			],
			"name": "isEligibleForBet",
			"outputs": [
				{
					"internalType": "bool",
					"name": "",
					"type": "bool"
				}
			],
			"stateMutability": "view",
			"type": "function"
		},
		{
			"inputs": [],
			"name": "isMultiTokenActive",
			"outputs": [
				{
					"internalType": "bool",
					"name": "",
					"type": "bool"
				}
			],
			"stateMutability": "view",
			"type": "function"
		},
		{
			"inputs": [],
			"name": "maxBetAmount",
			"outputs": [
				{
					"internalType": "uint256",
					"name": "",
					"type": "uint256"
				}
			],
			"stateMutability": "view",
			"type": "function"
		},
		{
			"inputs": [],
			"name": "maxStakeAmount",
			"outputs": [
				{
					"internalType": "uint256",
					"name": "",
					"type": "uint256"
				}
			],
			"stateMutability": "view",
			"type": "function"
		},
		{
			"inputs": [],
			"name": "maxWalks",
			"outputs": [
				{
					"internalType": "uint256",
					"name": "",
					"type": "uint256"
				}
			],
			"stateMutability": "view",
			"type": "function"
		},
		{
			"inputs": [],
			"name": "miniBetAmount",
			"outputs": [
				{
					"internalType": "uint256",
					"name": "",
					"type": "uint256"
				}
			],
			"stateMutability": "view",
			"type": "function"
		},
		{
			"inputs": [],
			"name": "miniStakeAmount",
			"outputs": [
				{
					"internalType": "uint256",
					"name": "",
					"type": "uint256"
				}
			],
			"stateMutability": "view",
			"type": "function"
		},
		{
			"inputs": [],
			"name": "oracle",
			"outputs": [
				{
					"internalType": "contract IOracleWrapper",
					"name": "",
					"type": "address"
				}
			],
			"stateMutability": "view",
			"type": "function"
		},
		{
			"inputs": [],
			"name": "oracleAddress",
			"outputs": [
				{
					"internalType": "address",
					"name": "",
					"type": "address"
				}
			],
			"stateMutability": "view",
			"type": "function"
		},
		{
			"inputs": [],
			"name": "owner",
			"outputs": [
				{
					"internalType": "address",
					"name": "",
					"type": "address"
				}
			],
			"stateMutability": "view",
			"type": "function"
		},
		{
			"inputs": [
				{
					"internalType": "uint256",
					"name": "",
					"type": "uint256"
				},
				{
					"internalType": "uint256",
					"name": "",
					"type": "uint256"
				}
			],
			"name": "penalty",
			"outputs": [
				{
					"internalType": "uint256",
					"name": "",
					"type": "uint256"
				}
			],
			"stateMutability": "view",
			"type": "function"
		},
		{
			"inputs": [],
			"name": "planCounter",
			"outputs": [
				{
					"internalType": "uint256",
					"name": "",
					"type": "uint256"
				}
			],
			"stateMutability": "view",
			"type": "function"
		},
		{
			"inputs": [],
			"name": "planDaysCounter",
			"outputs": [
				{
					"internalType": "uint256",
					"name": "",
					"type": "uint256"
				}
			],
			"stateMutability": "view",
			"type": "function"
		},
		{
			"inputs": [
				{
					"internalType": "uint256",
					"name": "",
					"type": "uint256"
				}
			],
			"name": "planDaysIndexed",
			"outputs": [
				{
					"internalType": "uint256",
					"name": "",
					"type": "uint256"
				}
			],
			"stateMutability": "view",
			"type": "function"
		},
		{
			"inputs": [
				{
					"internalType": "uint256",
					"name": "",
					"type": "uint256"
				}
			],
			"name": "plans",
			"outputs": [
				{
					"internalType": "uint64",
					"name": "risk",
					"type": "uint64"
				},
				{
					"internalType": "uint64",
					"name": "reward",
					"type": "uint64"
				},
				{
					"internalType": "uint120",
					"name": "drop",
					"type": "uint120"
				},
				{
					"internalType": "bool",
					"name": "isActive",
					"type": "bool"
				}
			],
			"stateMutability": "view",
			"type": "function"
		},
		{
			"inputs": [
				{
					"internalType": "uint256[]",
					"name": "index",
					"type": "uint256[]"
				},
				{
					"internalType": "address[]",
					"name": "user",
					"type": "address[]"
				},
				{
					"internalType": "bool",
					"name": "timeCheck",
					"type": "bool"
				}
			],
			"name": "resolveBet",
			"outputs": [],
			"stateMutability": "nonpayable",
			"type": "function"
		},
		{
			"inputs": [],
			"name": "revokeComissionAddress",
			"outputs": [
				{
					"internalType": "address",
					"name": "",
					"type": "address"
				}
			],
			"stateMutability": "view",
			"type": "function"
		},
		{
			"inputs": [
				{
					"internalType": "uint256",
					"name": "fees",
					"type": "uint256"
				}
			],
			"name": "setBetFees",
			"outputs": [],
			"stateMutability": "nonpayable",
			"type": "function"
		},
		{
			"inputs": [
				{
					"internalType": "uint256",
					"name": "time",
					"type": "uint256"
				}
			],
			"name": "setBufferTime",
			"outputs": [],
			"stateMutability": "nonpayable",
			"type": "function"
		},
		{
			"inputs": [
				{
					"internalType": "uint256",
					"name": "count",
					"type": "uint256"
				},
				{
					"internalType": "uint256",
					"name": "_drop",
					"type": "uint256"
				}
			],
			"name": "setDropValue",
			"outputs": [],
			"stateMutability": "nonpayable",
			"type": "function"
		},
		{
			"inputs": [
				{
					"internalType": "uint256",
					"name": "value",
					"type": "uint256"
				}
			],
			"name": "setMaxWalks",
			"outputs": [],
			"stateMutability": "nonpayable",
			"type": "function"
		},
		{
			"inputs": [
				{
					"internalType": "bool",
					"name": "status",
					"type": "bool"
				}
			],
			"name": "setMultiTokenStatus",
			"outputs": [],
			"stateMutability": "nonpayable",
			"type": "function"
		},
		{
			"inputs": [
				{
					"internalType": "uint256",
					"name": "value",
					"type": "uint256"
				},
				{
					"internalType": "uint256",
					"name": "_days",
					"type": "uint256"
				},
				{
					"internalType": "uint256",
					"name": "planDaysIndex",
					"type": "uint256"
				}
			],
			"name": "setPenalty",
			"outputs": [],
			"stateMutability": "nonpayable",
			"type": "function"
		},
		{
			"inputs": [
				{
					"internalType": "uint256",
					"name": "index",
					"type": "uint256"
				},
				{
					"internalType": "uint256",
					"name": "planDays",
					"type": "uint256"
				}
			],
			"name": "setPlanDays",
			"outputs": [],
			"stateMutability": "nonpayable",
			"type": "function"
		},
		{
			"inputs": [
				{
					"internalType": "uint8[4]",
					"name": "drop",
					"type": "uint8[4]"
				},
				{
					"internalType": "uint16[4]",
					"name": "reward",
					"type": "uint16[4]"
				},
				{
					"internalType": "uint8[4]",
					"name": "risk",
					"type": "uint8[4]"
				}
			],
			"name": "setPlanDetails",
			"outputs": [],
			"stateMutability": "nonpayable",
			"type": "function"
		},
		{
			"inputs": [
				{
					"internalType": "address",
					"name": "newAddress",
					"type": "address"
				}
			],
			"name": "setRevokeComissionAddress",
			"outputs": [],
			"stateMutability": "nonpayable",
			"type": "function"
		},
		{
			"inputs": [
				{
					"internalType": "uint256",
					"name": "count",
					"type": "uint256"
				},
				{
					"internalType": "uint256",
					"name": "_reward",
					"type": "uint256"
				}
			],
			"name": "setReward",
			"outputs": [],
			"stateMutability": "nonpayable",
			"type": "function"
		},
		{
			"inputs": [
				{
					"internalType": "uint256",
					"name": "count",
					"type": "uint256"
				},
				{
					"internalType": "uint256",
					"name": "_risk",
					"type": "uint256"
				}
			],
			"name": "setRisk",
			"outputs": [],
			"stateMutability": "nonpayable",
			"type": "function"
		},
		{
			"inputs": [
				{
					"internalType": "uint256",
					"name": "count",
					"type": "uint256"
				},
				{
					"internalType": "bool",
					"name": "status",
					"type": "bool"
				}
			],
			"name": "setStatus",
			"outputs": [],
			"stateMutability": "nonpayable",
			"type": "function"
		},
		{
			"inputs": [
				{
					"internalType": "uint256",
					"name": "value",
					"type": "uint256"
				}
			],
			"name": "setThreshold",
			"outputs": [],
			"stateMutability": "nonpayable",
			"type": "function"
		},
		{
			"inputs": [
				{
					"internalType": "address",
					"name": "",
					"type": "address"
				}
			],
			"name": "stakeDetails",
			"outputs": [
				{
					"internalType": "uint128",
					"name": "lastStakedAmount",
					"type": "uint128"
				},
				{
					"internalType": "uint128",
					"name": "amountUnstaked",
					"type": "uint128"
				},
				{
					"internalType": "uint128",
					"name": "stakeResidual",
					"type": "uint128"
				},
				{
					"internalType": "uint128",
					"name": "profit",
					"type": "uint128"
				},
				{
					"internalType": "uint128",
					"name": "losses",
					"type": "uint128"
				},
				{
					"internalType": "uint32",
					"name": "lastStakedTime",
					"type": "uint32"
				},
				{
					"internalType": "uint32",
					"name": "lastClaimedBet",
					"type": "uint32"
				},
				{
					"internalType": "uint32",
					"name": "stakeCounter",
					"type": "uint32"
				},
				{
					"internalType": "uint32",
					"name": "lastUnstakeIndex",
					"type": "uint32"
				}
			],
			"stateMutability": "view",
			"type": "function"
		},
		{
			"inputs": [
				{
					"internalType": "uint256",
					"name": "amount",
					"type": "uint256"
				}
			],
			"name": "stakeTokens",
			"outputs": [],
			"stateMutability": "nonpayable",
			"type": "function"
		},
		{
			"inputs": [],
			"name": "stakerIncentiveCounter",
			"outputs": [
				{
					"internalType": "uint256",
					"name": "",
					"type": "uint256"
				}
			],
			"stateMutability": "view",
			"type": "function"
		},
		{
			"inputs": [
				{
					"internalType": "uint256",
					"name": "",
					"type": "uint256"
				}
			],
			"name": "stakerRewards",
			"outputs": [
				{
					"internalType": "uint96",
					"name": "betEndStake",
					"type": "uint96"
				},
				{
					"internalType": "uint96",
					"name": "stakingReward",
					"type": "uint96"
				},
				{
					"internalType": "uint32",
					"name": "betEndTime",
					"type": "uint32"
				},
				{
					"internalType": "uint32",
					"name": "status",
					"type": "uint32"
				}
			],
			"stateMutability": "view",
			"type": "function"
		},
		{
			"inputs": [
				{
					"internalType": "address",
					"name": "",
					"type": "address"
				},
				{
					"internalType": "uint256",
					"name": "",
					"type": "uint256"
				}
			],
			"name": "stakes",
			"outputs": [
				{
					"internalType": "uint64",
					"name": "stakingTime",
					"type": "uint64"
				},
				{
					"internalType": "uint64",
					"name": "lastIndex",
					"type": "uint64"
				},
				{
					"internalType": "uint128",
					"name": "stakedAmount",
					"type": "uint128"
				}
			],
			"stateMutability": "view",
			"type": "function"
		},
		{
			"inputs": [],
			"name": "threshold",
			"outputs": [
				{
					"internalType": "uint256",
					"name": "",
					"type": "uint256"
				}
			],
			"stateMutability": "view",
			"type": "function"
		},
		{
			"inputs": [
				{
					"internalType": "address",
					"name": "newOwner",
					"type": "address"
				}
			],
			"name": "transferOwnership",
			"outputs": [],
			"stateMutability": "nonpayable",
			"type": "function"
		},
		{
			"inputs": [
				{
					"internalType": "uint256",
					"name": "amount",
					"type": "uint256"
				}
			],
			"name": "unstakeTokens",
			"outputs": [],
			"stateMutability": "nonpayable",
			"type": "function"
		},
		{
			"inputs": [
				{
					"internalType": "uint256",
					"name": "_betFactorLP",
					"type": "uint256"
				}
			],
			"name": "updateBetFactorLP",
			"outputs": [],
			"stateMutability": "nonpayable",
			"type": "function"
		},
		{
			"inputs": [
				{
					"internalType": "uint256",
					"name": "_maxBetAmount",
					"type": "uint256"
				}
			],
			"name": "updateMaxBetAmount",
			"outputs": [],
			"stateMutability": "nonpayable",
			"type": "function"
		},
		{
			"inputs": [
				{
					"internalType": "uint256",
					"name": "_maxStakeAmount",
					"type": "uint256"
				}
			],
			"name": "updateMaxStakeAmount",
			"outputs": [],
			"stateMutability": "nonpayable",
			"type": "function"
		},
		{
			"inputs": [
				{
					"internalType": "uint256",
					"name": "_miniBetAmount",
					"type": "uint256"
				}
			],
			"name": "updateMinBetAmount",
			"outputs": [],
			"stateMutability": "nonpayable",
			"type": "function"
		},
		{
			"inputs": [
				{
					"internalType": "uint256",
					"name": "_miniStakeAmount",
					"type": "uint256"
				}
			],
			"name": "updateMiniStakeAmount",
			"outputs": [],
			"stateMutability": "nonpayable",
			"type": "function"
		},
		{
			"inputs": [
				{
					"internalType": "address",
					"name": "_oracle",
					"type": "address"
				}
			],
			"name": "updateOracle",
			"outputs": [],
			"stateMutability": "nonpayable",
			"type": "function"
		},
		{
			"inputs": [
				{
					"internalType": "address",
					"name": "user",
					"type": "address"
				}
			],
			"name": "updateRewards",
			"outputs": [],
			"stateMutability": "nonpayable",
			"type": "function"
		},
		{
			"inputs": [],
			"name": "usdt",
			"outputs": [
				{
					"internalType": "contract IERC20",
					"name": "",
					"type": "address"
				}
			],
			"stateMutability": "view",
			"type": "function"
		},
		{
			"inputs": [
				{
					"internalType": "address",
					"name": "",
					"type": "address"
				},
				{
					"internalType": "uint256",
					"name": "",
					"type": "uint256"
				}
			],
			"name": "userBetsOne",
			"outputs": [
				{
					"internalType": "uint128",
					"name": "amount",
					"type": "uint128"
				},
				{
					"internalType": "uint120",
					"name": "status",
					"type": "uint120"
				},
				{
					"internalType": "bool",
					"name": "isInverse",
					"type": "bool"
				},
				{
					"internalType": "uint96",
					"name": "initialPrice",
					"type": "uint96"
				},
				{
					"internalType": "uint96",
					"name": "priceInXIV",
					"type": "uint96"
				},
				{
					"internalType": "address",
					"name": "betTokenAddress",
					"type": "address"
				},
				{
					"internalType": "address",
					"name": "coinAddress",
					"type": "address"
				}
			],
			"stateMutability": "view",
			"type": "function"
		},
		{
			"inputs": [
				{
					"internalType": "address",
					"name": "",
					"type": "address"
				},
				{
					"internalType": "uint256",
					"name": "",
					"type": "uint256"
				}
			],
			"name": "userBetsTwo",
			"outputs": [
				{
					"internalType": "uint64",
					"name": "reward",
					"type": "uint64"
				},
				{
					"internalType": "uint32",
					"name": "risk",
					"type": "uint32"
				},
				{
					"internalType": "uint32",
					"name": "dropValue",
					"type": "uint32"
				},
				{
					"internalType": "uint48",
					"name": "planType",
					"type": "uint48"
				},
				{
					"internalType": "uint32",
					"name": "startTime",
					"type": "uint32"
				},
				{
					"internalType": "uint32",
					"name": "endTime",
					"type": "uint32"
				},
				{
					"internalType": "bool",
					"name": "isInToken",
					"type": "bool"
				},
				{
					"internalType": "bool",
					"name": "isClaimed",
					"type": "bool"
				}
			],
			"stateMutability": "view",
			"type": "function"
		},
		{
			"inputs": [
				{
					"internalType": "address",
					"name": "",
					"type": "address"
				}
			],
			"name": "users",
			"outputs": [
				{
					"internalType": "uint256",
					"name": "lastBetIndex",
					"type": "uint256"
				}
			],
			"stateMutability": "view",
			"type": "function"
		},
		{
			"stateMutability": "payable",
			"type": "receive"
		}
	]
}