{
	"data": {
		"bytecode": {
			"linkReferences": {},
			"object": "608060405234801561001057600080fd5b5060018055615e1a80620000256000396000f3fe60806040526004361061044b5760003560e01c80638da5cb5b11610234578063b7e1eced1161012e578063d66e1e19116100b6578063ef7dc45c1161007a578063ef7dc45c14611066578063efd3c8921461107c578063f2fde38b1461109c578063f3cf4ada146110bc578063fa2a9da9146110dc57600080fd5b8063d66e1e1914610fb8578063dbc9a68614610ff9578063defa9df114611013578063e081e27c14611033578063e9d0cc321461105357600080fd5b8063c5e9dc6d116100fd578063c5e9dc6d14610eba578063cab11d5d14610eda578063cacd0ab914610ef0578063cd6bcf7314610f06578063cfda65c314610f9857600080fd5b8063b7e1eced14610e4e578063ba7b670314610e64578063bf8f793214610e7a578063c4adaed114610e9a57600080fd5b8063a851ec8f116101bc578063b087975411610180578063b087975414610c6c578063b162061614610c8c578063b484956814610d26578063b606485d14610e18578063b73bf45614610e2e57600080fd5b8063a851ec8f14610ba9578063a87430ba14610bbf578063a89ae4ba14610bec578063a9ecd7da14610c11578063ac2ce98714610c2757600080fd5b80639bf26320116102035780639bf2632014610b13578063a36a38ed14610b33578063a47bd49614610b49578063a6d883d614610b69578063a7e3f8c314610b8957600080fd5b80638da5cb5b14610a9f57806394ade59b14610abd578063960bfe0414610ad357806398f0af1c14610af357600080fd5b806351cdb77b1161034557806368283f4d116102cd5780637dc0d1d0116102915780637dc0d1d0146109fc5780637f0a83af14610a1c578063845e96ab14610a495780638719e8ac14610a5f5780638a3e1cdc14610a7f57600080fd5b806368283f4d146109315780636b899842146109465780636d03c394146109815780637547c7a3146109a157806379ee54f7146109c157600080fd5b80635ec9adae116103145780635ec9adae146108a55780635fd61965146108bb578063608e4dd0146108db57806361a52a36146108fb57806361b71bae1461091157600080fd5b806351cdb77b146106d65780635281d8f01461070e578063584b62a1146108015780635d80ca321461088f57600080fd5b80632f48ab7d116103d35780634020249c116103975780634020249c14610657578063409f8e841461067757806341bf18e21461068d57806342885f8c146106a057806342cde4e8146106c057600080fd5b80632f48ab7d146105a4578063372500ab146105dc57806339115784146105f15780633a2b17e2146106075780633bdb36d11461063757600080fd5b8063215905761161041a57806321590576146104f9578063234e839a1461050f578063241188751461052f57806324ac09c3146105645780632e60130a1461058457600080fd5b80630ffb231d146104575780631aac030c146104975780631c010b51146104b95780631cb44dfc146104d957600080fd5b3661045257005b600080fd5b34801561046357600080fd5b50610484610472366004615834565b60266020526000908152604090205481565b6040519081526020015b60405180910390f35b3480156104a357600080fd5b506104b76104b2366004615834565b6111c5565b005b3480156104c557600080fd5b506104b76104d4366004615834565b6111fd565b3480156104e557600080fd5b506104b76104f436600461556c565b61124e565b34801561050557600080fd5b50610484600b5481565b34801561051b57600080fd5b506104b761052a3660046157ba565b6112ad565b34801561053b57600080fd5b5061054f61054a36600461556c565b611374565b6040805192835260208301919091520161048e565b34801561057057600080fd5b506104b761057f366004615834565b611450565b34801561059057600080fd5b506104b761059f3660046156eb565b61147f565b3480156105b057600080fd5b506019546105c4906001600160a01b031681565b6040516001600160a01b03909116815260200161048e565b3480156105e857600080fd5b506104b7611aa4565b3480156105fd57600080fd5b5061048460045481565b34801561061357600080fd5b50610627610622366004615670565b611baa565b604051901515815260200161048e565b34801561064357600080fd5b5061048461065236600461556c565b611be1565b34801561066357600080fd5b506104b7610672366004615834565b611ee6565b34801561068357600080fd5b5061048460075481565b6104b761069b3660046158e4565b611f37565b3480156106ac57600080fd5b506104b76106bb366004615834565b61210c565b3480156106cc57600080fd5b5061048460135481565b3480156106e257600080fd5b506104846106f1366004615896565b602760209081526000928352604080842090915290825290205481565b34801561071a57600080fd5b506107a1610729366004615646565b60236020908152600092835260408084209091529082529020546001600160401b0381169063ffffffff600160401b8204811691600160601b810482169165ffffffffffff600160801b83041691600160b01b8104821691600160d01b8204169060ff600160f01b8204811691600160f81b90041688565b604080516001600160401b03909916895263ffffffff97881660208a01529587169588019590955265ffffffffffff909316606087015290841660808601529290921660a084015290151560c0830152151560e08201526101000161048e565b34801561080d57600080fd5b5061086061081c366004615646565b601c6020908152600092835260408084209091529082529020546001600160401b0380821691600160401b810490911690600160801b90046001600160801b031683565b604080516001600160401b0394851681529390921660208401526001600160801b03169082015260600161048e565b34801561089b57600080fd5b5061048460065481565b3480156108b157600080fd5b50610484600d5481565b3480156108c757600080fd5b506104b76108d636600461556c565b6123b6565b3480156108e757600080fd5b506104b76108f6366004615834565b612454565b34801561090757600080fd5b5061048460025481565b34801561091d57600080fd5b506104b761092c366004615834565b612590565b34801561093d57600080fd5b506104b76125e1565b34801561095257600080fd5b50610627610961366004615587565b602160209081526000928352604080842090915290825290205460ff1681565b34801561098d57600080fd5b506104b761099c3660046155ba565b612b12565b3480156109ad57600080fd5b506104b76109bc366004615834565b612f6e565b3480156109cd57600080fd5b506109e16109dc36600461556c565b6130f0565b6040805193845260208401929092529082015260600161048e565b348015610a0857600080fd5b50601a546105c4906001600160a01b031681565b348015610a2857600080fd5b50610484610a3736600461556c565b601e6020526000908152604090205481565b348015610a5557600080fd5b5061048460085481565b348015610a6b57600080fd5b506104b7610a7a366004615866565b613263565b348015610a8b57600080fd5b506104b7610a9a366004615896565b6132cf565b348015610aab57600080fd5b506000546001600160a01b03166105c4565b348015610ac957600080fd5b5061048460105481565b348015610adf57600080fd5b506104b7610aee366004615834565b61335b565b348015610aff57600080fd5b50610484610b0e36600461556c565b6133ac565b348015610b1f57600080fd5b506104b7610b2e366004615896565b6134fc565b348015610b3f57600080fd5b50610484600e5481565b348015610b5557600080fd5b506104b7610b64366004615896565b613562565b348015610b7557600080fd5b506104b7610b84366004615834565b6135c8565b348015610b9557600080fd5b506016546105c4906001600160a01b031681565b348015610bb557600080fd5b50610484600f5481565b348015610bcb57600080fd5b50610484610bda36600461556c565b601b6020526000908152604090205481565b348015610bf857600080fd5b506015546105c49061010090046001600160a01b031681565b348015610c1d57600080fd5b50610484600a5481565b348015610c3357600080fd5b506105c4610c423660046159ad565b6020808052600093845260408085208252928452828420905282529020546001600160a01b031681565b348015610c7857600080fd5b506104b7610c87366004615834565b613605565b348015610c9857600080fd5b50610ceb610ca7366004615834565b6025602052600090815260409020546001600160401b0380821691600160401b810490911690600160801b81046001600160781b031690600160f81b900460ff1684565b604080516001600160401b0395861681529490931660208501526001600160781b03909116918301919091521515606082015260800161048e565b348015610d3257600080fd5b50610db9610d41366004615646565b602260209081526000928352604080842090915290825290208054600182015460028301546003909301546001600160801b03831693600160801b84046001600160781b031693600160f81b900460ff16926001600160601b0380821693600160601b90920416916001600160a01b03908116911687565b604080516001600160801b0390981688526001600160781b039096166020880152931515948601949094526001600160601b0391821660608601521660808401526001600160a01b0391821660a08401521660c082015260e00161048e565b348015610e2457600080fd5b5061048460145481565b348015610e3a57600080fd5b506104b7610e49366004615834565b613656565b348015610e5a57600080fd5b5061048460125481565b348015610e7057600080fd5b5061048460115481565b348015610e8657600080fd5b506104b7610e953660046157fa565b613685565b348015610ea657600080fd5b506104b7610eb5366004615896565b6136d1565b348015610ec657600080fd5b506104b7610ed53660046159d9565b613737565b348015610ee657600080fd5b5061048460095481565b348015610efc57600080fd5b5061048460055481565b348015610f1257600080fd5b50610f61610f21366004615834565b6024602052600090815260409020546001600160601b0380821691600160601b81049091169063ffffffff600160c01b8204811691600160e01b90041684565b604080516001600160601b03958616815294909316602085015263ffffffff9182169284019290925216606082015260800161048e565b348015610fa457600080fd5b506104b7610fb336600461556c565b6137b7565b348015610fc457600080fd5b50610627610fd3366004615670565b601f60209081526000938452604080852082529284528284209052825290205460ff1681565b34801561100557600080fd5b506015546106279060ff1681565b34801561101f57600080fd5b506104b761102e3660046158b8565b613816565b34801561103f57600080fd5b506104b761104e3660046156a3565b613a6d565b6104b761106136600461593f565b613bd9565b34801561107257600080fd5b50610484600c5481565b34801561108857600080fd5b506017546105c4906001600160a01b031681565b3480156110a857600080fd5b506104b76110b736600461556c565b613dcc565b3480156110c857600080fd5b506104b76110d73660046159ad565b613e7a565b3480156110e857600080fd5b506111636110f736600461556c565b601d602052600090815260409020805460018201546002909201546001600160801b0380831693600160801b93849004821693818316939181900483169282169163ffffffff918104821691600160a01b8204811691600160c01b8104821691600160e01b9091041689565b604080516001600160801b039a8b168152988a1660208a015296891696880196909652938716606087015291909516608085015263ffffffff94851660a0850152841660c0840152831660e0830152919091166101008201526101200161048e565b6000546001600160a01b031633146111f85760405162461bcd60e51b81526004016111ef90615a96565b60405180910390fd5b601155565b6000546001600160a01b031633146112275760405162461bcd60e51b81526004016111ef90615a96565b80600081116112485760405162461bcd60e51b81526004016111ef90615acd565b50601055565b6000546001600160a01b031633146112785760405162461bcd60e51b81526004016111ef90615a96565b6001600160a01b03811661128b57600080fd5b601a80546001600160a01b0319166001600160a01b0392909216919091179055565b6000546001600160a01b031633146112d75760405162461bcd60e51b81526004016111ef90615a96565b60005b6009811015611369576113578382600981106112f8576112f8615d9b565b602002015160ff1683836009811061131257611312615d9b565b602002015160ff1686846009811061132c5761132c615d9b565b602002015160ff1660256000868152602001908152602001600020613ed9909392919063ffffffff16565b8061136181615d46565b9150506112da565b50506009600e555050565b6001600160a01b0381166000908152601d60205260408120600281015482919063ffffffff600160c01b8204811691600160e01b9004168381808410156113cd5760405162461bcd60e51b81526004016111ef90615acd565b8284111561144357825b84811015611441576001600160a01b0389166000908152601c602090815260408083208484529091529020805461141e90600160801b90046001600160801b031685615ba3565b935061142b826001615ba3565b925050808061143990615d46565b9150506113d7565b505b9097909650945050505050565b6000546001600160a01b0316331461147a5760405162461bcd60e51b81526004016111ef90615a96565b600555565b6000546001600160a01b031633146114a95760405162461bcd60e51b81526004016111ef90615a96565b600260015414156114cc5760405162461bcd60e51b81526004016111ef90615aee565b600260015581518351146115145760405162461bcd60e51b815260206004820152600f60248201526e098cadccee8d040dad2e6dac2e8c6d608b1b60448201526064016111ef565b60005b8351811015611a9a57601e600084838151811061153657611536615d9b565b60200260200101516001600160a01b03166001600160a01b031681526020019081526020016000205484828151811061157157611571615d9b565b6020026020010151106115965760405162461bcd60e51b81526004016111ef90615acd565b6000602260008584815181106115ae576115ae615d9b565b60200260200101516001600160a01b03166001600160a01b0316815260200190815260200160002060008684815181106115ea576115ea615d9b565b60200260200101518152602001908152602001600020905060006023600086858151811061161a5761161a615d9b565b60200260200101516001600160a01b03166001600160a01b03168152602001908152602001600020600087858151811061165657611656615d9b565b60209081029190910181015182528101919091526040016000208254909150600160801b90046001600160781b0316156116c55760405162461bcd60e51b815260206004820152601060248201526f105b1c9958591e481c995cdbdb1d995960821b60448201526064016111ef565b831561173f578054600160d01b900463ffffffff1642118015611703575060115481546116ff9190600160d01b900463ffffffff16615ba3565b4211155b61173f5760405162461bcd60e51b815260206004820152600d60248201526c22b7322a34b6b29032b93937b960991b60448201526064016111ef565b601a546003830154604051635620c32d60e11b81526001600160a01b03918216600482015260006024820181905292919091169063ac41865a9060440160206040518083038186803b15801561179457600080fd5b505afa1580156117a8573d6000803e3d6000fd5b505050506040513d601f19601f820116820180604052508101906117cc919061584d565b82549091506000906117f2908590849063ffffffff600160601b909104811690613fa816565b6001600160781b03169050806002148061180c5750806001145b156119a9578354600185015484546000926001600160801b031691600160601b90046001600160601b0316906001600160401b03168115801590611863575060175460028901546001600160a01b03908116911614155b156119575760028801546001600160a01b0316600114156118ae5768056bc75e2d63100000816118938486615ccb565b61189d9190615ccb565b6118a79190615bbb565b9350611970565b8760020160009054906101000a90046001600160a01b03166001600160a01b031663313ce5676040518163ffffffff1660e01b815260040160206040518083038186803b1580156118fe57600080fd5b505afa158015611912573d6000803e3d6000fd5b505050506040513d601f19601f820116820180604052508101906119369190615a0f565b61194190600a615c20565b61194c906064615ccb565b816118938486615ccb565b60646119638285615ccb565b61196d9190615bbb565b93505b600454600d54600090815260246020526040902061198f918688614099565b600d805490600061199f83615d46565b9190505550505050505b6000602160008988815181106119c1576119c1615d9b565b6020908102919091018101516001600160a01b039081168352828201939093526040918201600090812060038a015490941681529290529020805460ff191691151591909117905587518190899087908110611a1f57611a1f615d9b565b6020026020010151888781518110611a3957611a39615d9b565b60200260200101516001600160a01b03167f80f0d02bc787182862ebb4cc01d73c2f450ce15daf1fa4a2ca88c0325701942842604051611a7b91815260200190565b60405180910390a4505050508080611a9290615d46565b915050611517565b5050600180555050565b60026001541415611ac75760405162461bcd60e51b81526004016111ef90615aee565b60026001818155336000908152601d6020526040902091820154908201546001600160801b03918216600160801b90910490911611611b355760405162461bcd60e51b815260206004820152600a6024820152694e6f207265776172647360b01b60448201526064016111ef565b60028101546001820154600091611b60916001600160801b0391821691600160801b90910416615cea565b6001830180546001600160801b039081169091556002840180546001600160801b031916905560175491169150611ba2906001600160a01b0316335b836140f8565b505060018055565b6001600160a01b0383166000908152601f60209081526040808320858452825280832084845290915290205460ff165b9392505050565b6001600160a01b0381166000908152601b6020908152604080832054601e9092528220541580611c2857506001600160a01b0383166000908152601e602052604090205481145b15611c365750600092915050565b6001600160a01b0383166000908152601e60205260409020548110611c8a5760405162461bcd60e51b815260206004820152600a602482015269139bc81b995dc818995d60b21b60448201526064016111ef565b6000815b6001600160a01b0385166000908152601e6020526040902054811015611ede576001600160a01b038516600081815260226020908152604080832085845282528083209383526023825280832085845290915290208054600160f81b900460ff16158015611d0957508054600160d01b900463ffffffff1642115b15611ec957815481546001600160801b038216916001600160401b03909116906001600160781b03600160801b9091041660011415611ec65760175460028501546001600160a01b03908116911614801590611d7857506001840154600160601b90046001600160601b031615155b15611ea35760028401546001600160a01b031660011415611de457600184015468056bc75e2d63100000908290611dbf90600160601b90046001600160601b031685615ccb565b611dc99190615ccb565b611dd39190615bbb565b611ddd9087615ba3565b9550611ec6565b8360020160009054906101000a90046001600160a01b03166001600160a01b031663313ce5676040518163ffffffff1660e01b815260040160206040518083038186803b158015611e3457600080fd5b505afa158015611e48573d6000803e3d6000fd5b505050506040513d601f19601f82011682018060405250810190611e6c9190615a0f565b611e7790600a615c20565b611e82906064615ccb565b60018501548290611dbf90600160601b90046001600160601b031685615ccb565b6064611eaf8284615ccb565b611eb99190615bbb565b611ec39087615ba3565b95505b50505b50508080611ed690615d46565b915050611c8e565b509392505050565b6000546001600160a01b03163314611f105760405162461bcd60e51b81526004016111ef90615a96565b8060008111611f315760405162461bcd60e51b81526004016111ef90615acd565b50600955565b82846001846001600160a01b038116611f625760405162461bcd60e51b81526004016111ef90615acd565b60155460ff16611fc0576017546001600160a01b03828116911614611fc05760405162461bcd60e51b81526020600482015260146024820152734d756c746920746f6b656e20696e61637469766560601b60448201526064016111ef565b6001600160a01b0384166000908152601f60209081526040808320868452825280832085845290915290205460ff166120285760405162461bcd60e51b815260206004820152600a6024820152694e6f742061637469766560b01b60448201526064016111ef565b3360009081526021602090815260408083206001600160a01b038816845290915290205460ff16156120915760405162461bcd60e51b815260206004820152601260248201527142657420616c72656164792061637469766560701b60448201526064016111ef565b600260015414156120b45760405162461bcd60e51b81526004016111ef90615aee565b60026001556120c6338a898989614213565b6120fd33600080805260266020527f673668fde1539921a3231470503848f53fc614c057a2345bc3a2f36758a6d3ac546001614964565b50506001805550505050505050565b6002600154141561212f5760405162461bcd60e51b81526004016111ef90615aee565b6002600155336000908152601e602052604090205481106121625760405162461bcd60e51b81526004016111ef90615acd565b33600081815260226020908152604080832085845282528083209383526023825280832085845290915290208054600160f81b900460ff161580156121b55750805442600160d01b90910463ffffffff16115b6121eb5760405162461bcd60e51b8152602060048201526007602482015266456e6454696d6560c81b60448201526064016111ef565b600254815460009182918291829161221090600160b01b900463ffffffff1642615d12565b61221a9190615bbb565b60025486549192506000916122459063ffffffff600160b01b8204811691600160d01b900416615d29565b63ffffffff166122559190615bbb565b600081815260276020908152604080832086845290915290205495509050606485111561228157600080fd5b8654606490612299906001600160801b031687615ccb565b6122a39190615bbb565b87549093506122bc9084906001600160801b0316615d12565b935083156122fe578554600160f01b900460ff16156122f45760028701546122ef906001600160a01b0316335b866140f8565b6122fe565b6122fe3385614bed565b821561234f578554600160f01b900460ff1615612339576002870154601654612334916001600160a01b039081169116856140f8565b61234f565b60165461234f906001600160a01b031684614bed565b85546001600160f81b0316600160f81b9081178088550460ff161515886123733390565b6001600160a01b03167f6a877c9b3a5a46eda88ce93dd1ac65942b2c9bbf5eca8e4202b1e2499157e77f60405160405180910390a4505060018055505050505050565b600260015414156123d95760405162461bcd60e51b81526004016111ef90615aee565b60026001819055600d546001600160a01b0383166000908152601d6020526040902090910154600160a01b900463ffffffff161061244b5760405162461bcd60e51b815260206004820152600f60248201526e105b1c9958591e481d5c19185d1959608a1b60448201526064016111ef565b611ba281614cbb565b600260015414156124775760405162461bcd60e51b81526004016111ef90615aee565b600260015561248533614cbb565b50600d54336000908152601d6020526040902060020154600160a01b900463ffffffff16146124e75760405162461bcd60e51b815260206004820152600e60248201526d436c61696d20616c6c206265747360901b60448201526064016111ef565b6000806124f333611374565b9150915082600454101561253e5760405162461bcd60e51b8152602060048201526012602482015271496e73756666696369656e742066756e647360701b60448201526064016111ef565b336000908152601d6020526040902061255990838584614e50565b826004600082825461256b9190615d12565b9091555050601754612587906001600160a01b031633856140f8565b50506001805550565b6000546001600160a01b031633146125ba5760405162461bcd60e51b81526004016111ef90615a96565b80600081116125db5760405162461bcd60e51b81526004016111ef90615acd565b50600655565b600260015414156126045760405162461bcd60e51b81526004016111ef90615aee565b6002600155336000908152601b6020908152604080832054601e9092528220548291829182919081106126665760405162461bcd60e51b815260206004820152600a602482015269139bc81b995dc818995d60b21b60448201526064016111ef565b805b336000908152601e6020526040902054811015612a9c5733600081815260226020908152604080832085845282528083209383526023825280832085845290915290208054600160f81b900460ff161580156126d457508154600160801b90046001600160781b031615155b15612a7a57815481546001600160801b038216916001600160401b03821691600160401b900463ffffffff16906000906001600160801b9091046001600160781b03161415612935578454600160f01b900460ff16156127765760175460028701546001600160a01b03908116911614612765576002860154612760906001600160a01b0316336122e9565b612783565b61276f848c615ba3565b9a50612783565b612780848d615ba3565b9b505b60175460028701546001600160a01b039081169116148015906127b957506001860154600160601b90046001600160601b031615155b156129025760028601546001600160a01b03166001141561281b57600186015468056bc75e2d6310000090849061280090600160601b90046001600160601b031687615ccb565b61280a9190615ccb565b6128149190615bbb565b90506128f1565b8560020160009054906101000a90046001600160a01b03166001600160a01b031663313ce5676040518163ffffffff1660e01b815260040160206040518083038186803b15801561286b57600080fd5b505afa15801561287f573d6000803e3d6000fd5b505050506040513d601f19601f820116820180604052508101906128a39190615a0f565b6128ae90600a615c20565b6128b9906064615ccb565b600187015484906128da90600160601b90046001600160601b031687615ccb565b6128e49190615ccb565b6128ee9190615bbb565b90505b6128fb818c615ba3565b9a50612927565b606461290e8486615ccb565b6129189190615bbb565b9050612924818c615ba3565b9a505b612930856150ee565b612a38565b8554600160801b90046001600160781b031660021415612a385760648211156129705760405162461bcd60e51b81526004016111ef90615acd565b6000606461297e8685615ccb565b6129889190615bbb565b905060006129968287615d12565b8754909150600160f01b900460ff1615612a045760175460028901546001600160a01b039081169116146129e75780156129e25760028801546129e2906001600160a01b031633611b9c565b612a2c565b6129f1818e615ba3565b9c506129fd828d615ba3565b9b50612a2c565b612a0e818f615ba3565b9d508115612a2c57601654612a2c906001600160a01b031683614bed565b612a35876150ee565b50505b6040805142815260208101839052889133917f9e69d00870c99bd9583a212168d5869f740d1dbabdb2d60a56d716d9f9dbd700910160405180910390a3505050505b612a85836001615ba3565b945050508080612a9490615d46565b915050612668565b50336000908152601b602052604090206001600160401b03831690558415612ac857612ac83386614bed565b8315612ae457601754612ae4906001600160a01b0316336122e9565b8215612b0757601754601654612b07916001600160a01b039081169116856140f8565b505060018055505050565b60035460ff1615612b2257600080fd5b6003805460ff19166001179055600586905569152d02c7e14af6800000600655600785905560088490556009839055610e10601155601780546001600160a01b03808b166001600160a01b031992831617909255601a80548584169083161790556019805492841692909116919091179055612b9d89615114565b60326010819055506078600281905550612ce1604051806101200160405280600a60ff168152602001600360ff168152602001600560ff168152602001600760ff168152602001600960ff168152602001600a60ff168152602001600c60ff168152602001600e60ff168152602001600f60ff16815250604051806101200160405280606460ff168152602001600360ff168152602001600560ff168152602001600760ff168152602001600a60ff168152602001601460ff168152602001602860ff168152602001604660ff168152602001606460ff16815250604051806101200160405280606460ff168152602001600360ff168152602001600560ff168152602001600760ff168152602001600a60ff168152602001601460ff168152602001602860ff168152602001604660ff168152602001606460ff168152506112ad565b50506009600e5550506007601281905569021e19e0c9bab2400000601355601680546001600160a01b0319166001600160a01b039590951694909417909355505060017f673668fde1539921a3231470503848f53fc614c057a2345bc3a2f36758a6d3ac8190557f5db1dfd2ced311e642486f0e890a646498a1bdee1ad9403b0a73141af8a4c4115560037f79d5ac1af4480d65c6dd0b2262174229f09440eb5efcdd43dd5abb89bd013a8b557fdab4009b70bebe3d9317b241caffbbddafded4efeb788ba6719fd7230139451655505060327f1218cf69d642a89a40b73ec409b224a7a535dbf563ad004610ba747340021cb28190557fab988fd7626abe7caa91e19f5aad4a3a61b1e651878276ab7ddcc7b9e0e36df28190557f4408e7cf470e5f97d9246c3329248d9e27598c018c8e287d7165449e80c1a6ee8190557f9056a0f76d88f9f3f2542162f4ac777299f5c80a5ebc951c1f4b118089c57fab8190557f8ca374d29c0f22d90988c19a46e2609f73349de83670b110f979e5e2ddad88808190557f24d1e737602c347fe41dedb93267dc4656b052da92b8561d7d35bfe12d7b24168190557f04f2f958077a478b1e04c2a2445ca5dfe463563ad689833a43a13e24285b858a8190557f897d51a06262a8ca6cefdc150b604eb52997b0bdfafb1d219165c1a2a5f6abea8190557fb45418d15ef59e82e47e3dee825d0dd4a5d1b24260499703a99cc52b3bfcb55a8190557fdecb35b3c19f1e16b3d8808163ed236681dd33dbfda3e4c0b025d406e86bd58281905560066000527f5ca855eeae1b488fa0b99cc3fd0c088edeb325d8687640f29b9dab5e07b5eace6020527f7f6686704cce2740f568332784f2ca2b8493642ed317a10ac3839b5cdd81af45556004600f55565b60026001541415612f915760405162461bcd60e51b81526004016111ef90615aee565b60026001556005548110801590612faa57506006548111155b612fc65760405162461bcd60e51b81526004016111ef90615acd565b612fcf33614cbb565b50336000908152601d60205260409020600d546002820154600160a01b900463ffffffff16148061300f57506002810154600160c01b900463ffffffff16155b61304c5760405162461bcd60e51b815260206004820152600e60248201526d436c61696d20616c6c206265747360901b60448201526064016111ef565b601754613064906001600160a01b0316333085615136565b6002810154336000908152601c60209081526040808320600160c01b90940463ffffffff1680845293909152902080546001600160801b038516600160801b026fffffffffffffffff00000000000000009091166001600160401b034216171790556130d0828461525e565b82600460008282546130e29190615ba3565b909155505060018055505050565b6001600160a01b0381166000908152601d6020526040812060028101548154600d5460105485948594909363ffffffff600160a01b8304811694600160801b90930416926001600160801b03909116918691829182916131509088615ba3565b1061315e5750600d5461316e565b60105461316b9087615ba3565b90505b855b818110156132515760008181526024602052604090208054600160c01b900463ffffffff1687101561323e578054600160e01b900463ffffffff16600214156131ef5780546001600160601b03808216916131d4918991600160601b900416615ccb565b6131de9190615bbb565b6131e89086615ba3565b945061323e565b8054600160e01b900463ffffffff166001141561323e5780546001600160601b0380821691613227918991600160601b900416615ccb565b6132319190615bbb565b61323b9085615ba3565b93505b508061324981615d46565b915050613170565b50919a90995090975095505050505050565b6000546001600160a01b0316331461328d5760405162461bcd60e51b81526004016111ef90615a96565b600e5482908082106132b15760405162461bcd60e51b81526004016111ef90615acd565b60008481526025602052604090206132c990846152fc565b50505050565b6000546001600160a01b031633146132f95760405162461bcd60e51b81526004016111ef90615a96565b600f5482111561330857600080fd5b600f548214801561331857508015155b15613345576000828152602660205260408120829055600f80549161333c83615d46565b91905055505050565b60008281526026602052604090208190555b5050565b6000546001600160a01b031633146133855760405162461bcd60e51b81526004016111ef90615a96565b80600081116133a65760405162461bcd60e51b81526004016111ef90615acd565b50601355565b6017546000906001600160a01b03838116911614156133cd57506001919050565b601a54601754601954604051635620c32d60e11b81526001600160a01b039283166004820152908216602482015291169063ac41865a9060440160206040518083038186803b15801561341f57600080fd5b505afa158015613433573d6000803e3d6000fd5b505050506040513d601f19601f82011682018060405250810190613457919061584d565b601a54604051635620c32d60e11b81526001600160a01b038581166004830152600060248301529091169063ac41865a9060440160206040518083038186803b1580156134a357600080fd5b505afa1580156134b7573d6000803e3d6000fd5b505050506040513d601f19601f820116820180604052508101906134db919061584d565b6134ec90662386f26fc10000615ccb565b6134f69190615bbb565b92915050565b6000546001600160a01b031633146135265760405162461bcd60e51b81526004016111ef90615a96565b600e54829080821061354a5760405162461bcd60e51b81526004016111ef90615acd565b60008481526025602052604090206132c9908461532e565b6000546001600160a01b0316331461358c5760405162461bcd60e51b81526004016111ef90615a96565b600e5482908082106135b05760405162461bcd60e51b81526004016111ef90615acd565b60008481526025602052604090206132c99084615382565b6000546001600160a01b031633146135f25760405162461bcd60e51b81526004016111ef90615a96565b606481111561360057600080fd5b601255565b6000546001600160a01b0316331461362f5760405162461bcd60e51b81526004016111ef90615a96565b80600081116136505760405162461bcd60e51b81526004016111ef90615acd565b50600755565b6000546001600160a01b031633146136805760405162461bcd60e51b81526004016111ef90615a96565b600855565b6000546001600160a01b031633146136af5760405162461bcd60e51b81526004016111ef90615a96565b60155460ff161515811515146136ce576015805460ff19168215151790555b50565b6000546001600160a01b031633146136fb5760405162461bcd60e51b81526004016111ef90615a96565b600e54829080821061371f5760405162461bcd60e51b81526004016111ef90615acd565b60008481526025602052604090206132c990846153ff565b6000546001600160a01b031633146137615760405162461bcd60e51b81526004016111ef90615a96565b600e54600081815260256020526040902061377c8187615382565b61378681866153ff565b613790818561532e565b61379a81846152fc565b600e80549060006137aa83615d46565b9190505550505050505050565b6000546001600160a01b031633146137e15760405162461bcd60e51b81526004016111ef90615a96565b6001600160a01b0381166137f457600080fd5b601680546001600160a01b0319166001600160a01b0392909216919091179055565b6000546001600160a01b031633146138405760405162461bcd60e51b81526004016111ef90615a96565b828281600114806138515750816002145b8061385c5750816003145b6138785760405162461bcd60e51b81526004016111ef90615acd565b80600114806138875750806002145b6138c65760405162461bcd60e51b815260206004820152601060248201526f496e76616c696420506c616e5479706560801b60448201526064016111ef565b6001600160a01b0383166138ec5760405162461bcd60e51b81526004016111ef90615acd565b6001600160a01b0383166000908152601f60209081526040808320888452825280832087845290915290205460ff16156139585760405162461bcd60e51b815260206004820152600d60248201526c105b1c9958591e481859191959609a1b60448201526064016111ef565b600085600114156139805750600a8054908190600061397683615d46565b91905055506139b5565b856002141561399c5750600b8054908190600061397683615d46565b50600c805490819060006139af83615d46565b91905055505b6000868152602080805260408083208884528252808320848452825280832080546001600160a01b0319166001600160a01b038916908117909155808452601f83528184208a85528352818420898552835292819020805460ff1916600190811790915581518a8152928301899052908201849052606082015260808101919091527f33799bcd8b4021a5a37e4d4e3ea6516ae7456c1ea4d5519c89918d90be01c8d09060a0015b60405180910390a1505050505050565b6000546001600160a01b03163314613a975760405162461bcd60e51b81526004016111ef90615a96565b82828160011480613aa85750816002145b80613ab35750816003145b613acf5760405162461bcd60e51b81526004016111ef90615acd565b8060011480613ade5750806002145b613b1d5760405162461bcd60e51b815260206004820152601060248201526f496e76616c696420506c616e5479706560801b60448201526064016111ef565b6001600160a01b0386166000908152601f60209081526040808320888452825280832087845290915290205460ff16151583151514613bd1576001600160a01b0386166000818152601f602090815260408083208984528252808320888452825291829020805460ff1916871515908117909155825193845290830188905290820186905260608201527f5d2b3a2ae84951934c280adb60c06ff3159e61b6eeb9910fd745c11728d679e690608001613a5d565b505050505050565b84866002866001600160a01b038116613c045760405162461bcd60e51b81526004016111ef90615acd565b60155460ff16613c62576017546001600160a01b03828116911614613c625760405162461bcd60e51b81526020600482015260146024820152734d756c746920746f6b656e20696e61637469766560601b60448201526064016111ef565b6001600160a01b0384166000908152601f60209081526040808320868452825280832085845290915290205460ff16613cca5760405162461bcd60e51b815260206004820152600a6024820152694e6f742061637469766560b01b60448201526064016111ef565b3360009081526021602090815260408083206001600160a01b038816845290915290205460ff1615613d335760405162461bcd60e51b815260206004820152601260248201527142657420616c72656164792061637469766560701b60448201526064016111ef565b60026001541415613d565760405162461bcd60e51b81526004016111ef90615aee565b60026001556000868152602660205260409020548715801590613d7a5750600e5488105b613d8357600080fd5b80613da05760405162461bcd60e51b81526004016111ef90615acd565b613dad338d8c8c8a614213565b613dba3389836002614964565b50506001805550505050505050505050565b6000546001600160a01b03163314613df65760405162461bcd60e51b81526004016111ef90615a96565b6001600160a01b038116613e1c5760405162461bcd60e51b81526004016111ef90615a96565b7f8be0079c531659141344cd1fd0a4f28419497f9722a3daafe3b4186f6b6457e0613e4f6000546001600160a01b031690565b604080516001600160a01b03928316815291841660208301520160405180910390a16136ce81615114565b6000546001600160a01b03163314613ea45760405162461bcd60e51b81526004016111ef90615a96565b6064831115613eb257600080fd5b808210613ebe57600080fd5b60009081526027602090815260408083209383529290522055565b600082118015613eea575060648211155b613f065760405162461bcd60e51b81526004016111ef90615a67565b600081118015613f17575060648111155b613f335760405162461bcd60e51b81526004016111ef90615a67565b83546001600160f81b036001600160781b03909216600160801b027fff000000000000000000000000000000ffffffffffffffff00000000000000006001600160401b03958616600160401b02166001600160f81b03199092169190911792909316919091179190911716600160f81b179055565b600183015483546000916001600160601b0316908290600160f81b900460ff1615614024578185101561401f5781613fe08682615d12565b613feb906064615ccb565b613ff59190615bbb565b905083811061401f5750508354600160801b600160f81b031916600160801b178455506001611bda565b614076565b8185111561407657816140378187615d12565b614042906064615ccb565b61404c9190615bbb565b90508381106140765750508354600160801b600160f81b031916600160801b178455506001611bda565b50508354600160801b600160f81b031916600160811b1790935550600292915050565b835463ffffffff918216600160e01b026001600160e01b034293909316600160c01b02929092166001600160c01b036001600160601b03948516600160601b026001600160c01b03199093169490951693909317179290921617179055565b604080516001600160a01b038481166024830152604480830185905283518084039091018152606490920183526020820180516001600160e01b031663a9059cbb60e01b17905291516000928392908716916141549190615a2c565b6000604051808303816000865af19150503d8060008114614191576040519150601f19603f3d011682016040523d82523d6000602084013e614196565b606091505b50915091508180156141c05750805115806141c05750808060200190518101906141c09190615817565b61420c5760405162461bcd60e51b815260206004820152601f60248201527f5472616e7366657248656c7065723a205452414e534645525f4641494c45440060448201526064016111ef565b5050505050565b60006064601254866142259190615ccb565b61422f9190615bbb565b90508461423c8282615d12565b6017549096506000906001600160a01b038681169116146144ec57614260856133ac565b905060006001600160a01b038616600114156142b9578234146142955760405162461bcd60e51b81526004016111ef90615acd565b670de0b6b3a76400006142a88385615ccb565b6142b29190615bbb565b905061434c565b856001600160a01b031663313ce5676040518163ffffffff1660e01b815260040160206040518083038186803b1580156142f257600080fd5b505afa158015614306573d6000803e3d6000fd5b505050506040513d601f19601f8201168201806040525081019061432a9190615a0f565b61433590600a615c20565b61433f8385615ccb565b6143499190615bbb565b90505b600480546017546040516370a0823160e01b8152309381019390935290916001600160a01b03909116906370a082319060240160206040518083038186803b15801561439757600080fd5b505afa1580156143ab573d6000803e3d6000fd5b505050506040513d601f19601f820116820180604052508101906143cf919061584d565b11156144b657600480546017546040516370a0823160e01b8152309381019390935283926001600160a01b03909116906370a082319060240160206040518083038186803b15801561442057600080fd5b505afa158015614434573d6000803e3d6000fd5b505050506040513d601f19601f82011682018060405250810190614458919061584d565b6144629190615d12565b61446c9190615ba3565b60045460075461447c9190615ccb565b10156144b65760405162461bcd60e51b81526020600482015260096024820152682132ba3330b1ba37b960b91b60448201526064016111ef565b60085481101580156144ca57506009548111155b6144e65760405162461bcd60e51b81526004016111ef90615acd565b50614686565b600480546017546040516370a0823160e01b8152309381019390935290916001600160a01b03909116906370a082319060240160206040518083038186803b15801561453757600080fd5b505afa15801561454b573d6000803e3d6000fd5b505050506040513d601f19601f8201168201806040525081019061456f919061584d565b111561465657600480546017546040516370a0823160e01b8152309381019390935284926001600160a01b03909116906370a082319060240160206040518083038186803b1580156145c057600080fd5b505afa1580156145d4573d6000803e3d6000fd5b505050506040513d601f19601f820116820180604052508101906145f8919061584d565b6146029190615d12565b61460c9190615ba3565b60045460075461461c9190615ccb565b10156146565760405162461bcd60e51b81526020600482015260096024820152682132ba3330b1ba37b960b91b60448201526064016111ef565b600854821015801561466a57506009548211155b6146865760405162461bcd60e51b81526004016111ef90615acd565b6001600160a01b0388166000818152602260209081526040808320601e835281842054808552908352818420948452602383528184209084529091529020341580156146dc57506001600160a01b038716600114155b156147c8576146ed878b308c615136565b60008511801561470b57506017546001600160a01b03888116911614155b1561472e576016546147299088906001600160a01b03163088615136565b6147b2565b60008511801561474b57506017546001600160a01b038881169116145b156147b25784601460008282546147629190615ba3565b909155505060135460145411156147b257600454601454600d5460009081526024602052604090206147979290916002614099565b600d80549060006147a783615d46565b909155505060006014555b805460ff60f01b1916600160f01b178155614834565b6001600160a01b0387166001146148185760405162461bcd60e51b8152602060048201526014602482015273426574546f6b656e206d7573742062652030783160601b60448201526064016111ef565b841561483457601654614834906001600160a01b031686614bed565b601a54604051635620c32d60e11b81526001600160a01b038a8116600483015260006024830152614958928c9291169063ac41865a9060440160206040518083038186803b15801561488557600080fd5b505afa158015614899573d6000803e3d6000fd5b505050506040513d601f19601f820116820180604052508101906148bd919061584d565b84546001600160801b039092166effffffffffffffffffffffffffffff60801b90921691909117600160f81b891515021784556001840180546001600160601b039283166001600160c01b031990911617600160601b928716929092029190911790556003830180546001600160a01b03199081166001600160a01b03808d1691909117909255600285018054909116918a16919091179055565b50505050505050505050565b6001600160a01b0384166000818152602260209081526040808320601e8352818420548085529083528184209484526023835281842090845290915290206001831415614ab75760008581526025602052604090205460028054614ab292600160401b81046001600160401b039081169390821692600160801b9092046001600160781b031691889142916149f99190615bbb565b614a03908b615ccb565b614a0d9042615ba3565b87546001600160401b039096166bffffffffffffffffffffffff1990961695909517600160401b63ffffffff958616021769ffffffffffffffffffff60601b1916600160601b9385169390930265ffffffffffff60801b191692909217600160801b65ffffffffffff909216919091021767ffffffffffffffff60b01b1916600160b01b9183169190910263ffffffff60d01b191617600160d01b9190921602178255565b614b03565b600085815260256020526040902054600254614b03916001600160401b03600160401b8204811692908216916001600160781b03600160801b909104169087904290614a03908b615ccb565b6001600160a01b0380871660009081526021602090815260408083206003870154909416835292905220805460ff19166001179055600254614b459085615ccb565b614b4f9042615ba3565b6001600160a01b038781166000818152601e60209081526040918290205460038801546002890154845191871682529095169185019190915290830189905260608301889052426080840152917f60c2f28caeb1bddf2d8003a850562e4a133ce8e63719dac464c8052de62d0f569060a00160405180910390a46001600160a01b0386166000908152601e602052604081208054916137aa83615d46565b604080516000808252602082019092526001600160a01b038416908390604051614c179190615a2c565b60006040518083038185875af1925050503d8060008114614c54576040519150601f19603f3d011682016040523d82523d6000602084013e614c59565b606091505b5050905080614cb65760405162461bcd60e51b815260206004820152602360248201527f5472616e7366657248656c7065723a204554485f5452414e534645525f46414960448201526213115160ea1b60648201526084016111ef565b505050565b6001600160a01b0381166000908152601d60205260408120600d546002820154600160a01b900463ffffffff161415614cf75750600192915050565b6002810154600160c01b900463ffffffff16614d3f57600d546002909101805463ffffffff909216600160a01b0263ffffffff60a01b19909216919091179055506001919050565b6000806000614d4d866130f0565b925092509250826000148015614d61575081155b15614d725750600195945050505050565b8215614dc357828460010160108282829054906101000a90046001600160801b0316614d9e9190615b78565b92506101000a8154816001600160801b0302191690836001600160801b031602179055505b8115614e0e57600284018054839190600090614de99084906001600160801b0316615b78565b92506101000a8154816001600160801b0302191690836001600160801b031602179055505b60028401805463ffffffff60a01b1916600160a01b63ffffffff841602179055600d54811415614e445750600195945050505050565b50600095945050505050565b600184015460028501546000916001600160801b03600160801b909104811691161115614eaa5760018501546002860154614e9e916001600160801b03600160801b90910481169116615cea565b6001600160801b031690505b614eb48184615ba3565b6001860154614ecc906001600160801b031686615ba3565b1015614f1a5760405162461bcd60e51b815260206004820152601c60248201527f5374616b696e674c6962726172793a20496e73756666696369656e740000000060448201526064016111ef565b84546001600160801b0316831115614f745760405162461bcd60e51b815260206004820152601c60248201527f5374616b696e674c6962726172793a20496e73756666696369656e740000000060448201526064016111ef565b6000614f808285615ba3565b6001870154614f98906001600160801b031687615ba3565b614fa29190615d12565b6001870180546001600160801b0319166001600160801b03831617905590508115614feb576001860180546001600160801b031690556002860180546001600160801b03191690555b60028601805463ffffffff428116600160801b0263ffffffff60801b199092169190911791829055600160e01b909104811690841614615045576002860180546001600160e01b0316600160e01b63ffffffff8616021790555b61504f8285615ba3565b86548790601090615071908490600160801b90046001600160801b0316615b78565b82546101009290920a6001600160801b0381810219909316918316021790915587541690506150a08386615ba3565b11613bd1578554849087906000906150c29084906001600160801b0316615cea565b92506101000a8154816001600160801b0302191690836001600160801b03160217905550505050505050565b8054600160f81b900460ff166136ce5780546001600160f81b0316600160f81b17815550565b600080546001600160a01b0319166001600160a01b0392909216919091179055565b604080516001600160a01b0385811660248301528481166044830152606480830185905283518084039091018152608490920183526020820180516001600160e01b03166323b872dd60e01b179052915160009283929088169161519a9190615a2c565b6000604051808303816000865af19150503d80600081146151d7576040519150601f19603f3d011682016040523d82523d6000602084013e6151dc565b606091505b50915091508180156152065750805115806152065750808060200190518101906152069190615817565b613bd15760405162461bcd60e51b8152602060048201526024808201527f5472616e7366657248656c7065723a205452414e534645525f46524f4d5f46416044820152631253115160e21b60648201526084016111ef565b81548190839060009061527b9084906001600160801b0316615b78565b82546001600160801b039182166101009390930a92830291909202199091161790555060028201805463ffffffff428116600160801b0263ffffffff60801b1990921691909117808355600160c01b9004169060186152d983615d61565b91906101000a81548163ffffffff021916908363ffffffff160217905550505050565b815460ff600160f81b90910416151581151514613357578154901515600160f81b026001600160f81b03909116179055565b60008111801561533f575060648111155b61535b5760405162461bcd60e51b81526004016111ef90615a67565b81546001600160781b03909116600160801b02600160801b600160f81b0319909116179055565b600081116153d25760405162461bcd60e51b815260206004820152601c60248201527f506c616e4c696272617279203a20496e76616c6964207265776172640000000060448201526064016111ef565b81546001600160401b03909116600160401b026fffffffffffffffff000000000000000019909116179055565b600081118015615410575060648111155b61542c5760405162461bcd60e51b81526004016111ef90615a67565b815467ffffffffffffffff19166001600160401b0391909116179055565b80356001600160a01b038116811461546157600080fd5b919050565b600082601f83011261547757600080fd5b8135602061548c61548783615b55565b615b25565b80838252828201915082860187848660051b89010111156154ac57600080fd5b60005b858110156154d2576154c08261544a565b845292840192908401906001016154af565b5090979650505050505050565b600082601f8301126154f057600080fd5b6040516101208082018281106001600160401b038211171561551457615514615db1565b604052818482810187101561552857600080fd5b600092505b600983101561555657803561554181615dd5565b8252600192909201916020918201910161552d565b509195945050505050565b803561546181615dc7565b60006020828403121561557e57600080fd5b611bda8261544a565b6000806040838503121561559a57600080fd5b6155a38361544a565b91506155b16020840161544a565b90509250929050565b60008060008060008060008060006101208a8c0312156155d957600080fd5b6155e28a61544a565b98506155f060208b0161544a565b97506155fe60408b0161544a565b965060608a0135955060808a0135945060a08a0135935060c08a0135925061562860e08b0161544a565b91506156376101008b0161544a565b90509295985092959850929598565b6000806040838503121561565957600080fd5b6156628361544a565b946020939093013593505050565b60008060006060848603121561568557600080fd5b61568e8461544a565b95602085013595506040909401359392505050565b600080600080608085870312156156b957600080fd5b6156c28561544a565b9350602085013592506040850135915060608501356156e081615dc7565b939692955090935050565b60008060006060848603121561570057600080fd5b83356001600160401b038082111561571757600080fd5b818601915086601f83011261572b57600080fd5b8135602061573b61548783615b55565b8083825282820191508286018b848660051b890101111561575b57600080fd5b600096505b8487101561577e578035835260019690960195918301918301615760565b509750508701359250508082111561579557600080fd5b506157a286828701615466565b9250506157b160408501615561565b90509250925092565b600080600061036084860312156157d057600080fd5b6157da85856154df565b92506157ea8561012086016154df565b91506157b18561024086016154df565b60006020828403121561580c57600080fd5b8135611bda81615dc7565b60006020828403121561582957600080fd5b8151611bda81615dc7565b60006020828403121561584657600080fd5b5035919050565b60006020828403121561585f57600080fd5b5051919050565b6000806040838503121561587957600080fd5b82359150602083013561588b81615dc7565b809150509250929050565b600080604083850312156158a957600080fd5b50508035926020909101359150565b6000806000606084860312156158cd57600080fd5b83359250602084013591506157b16040850161544a565b600080600080600060a086880312156158fc57600080fd5b85359450602086013593506159136040870161544a565b92506159216060870161544a565b9150608086013561593181615dc7565b809150509295509295909350565b600080600080600080600060e0888a03121561595a57600080fd5b87359650602088013595506159716040890161544a565b945061597f6060890161544a565b93506080880135925060a0880135915060c088013561599d81615dc7565b8091505092959891949750929550565b6000806000606084860312156159c257600080fd5b505081359360208301359350604090920135919050565b600080600080608085870312156159ef57600080fd5b84359350602085013592506040850135915060608501356156e081615dc7565b600060208284031215615a2157600080fd5b8151611bda81615dd5565b6000825160005b81811015615a4d5760208186018101518583015201615a33565b81811115615a5c576000828501525b509190910192915050565b602080825260159082015274141b185b931a589c985c9e480e88125b9d985b1a59605a1b604082015260600190565b60208082526018908201527f437573746f6d4f776e61626c653a20464f5242494444454e0000000000000000604082015260600190565b602080825260079082015266125b9d985b1a5960ca1b604082015260600190565b6020808252601f908201527f5265656e7472616e637947756172643a207265656e7472616e742063616c6c00604082015260600190565b604051601f8201601f191681016001600160401b0381118282101715615b4d57615b4d615db1565b604052919050565b60006001600160401b03821115615b6e57615b6e615db1565b5060051b60200190565b60006001600160801b03808316818516808303821115615b9a57615b9a615d85565b01949350505050565b60008219821115615bb657615bb6615d85565b500190565b600082615bd857634e487b7160e01b600052601260045260246000fd5b500490565b600181815b80851115615c18578160001904821115615bfe57615bfe615d85565b80851615615c0b57918102915b93841c9390800290615be2565b509250929050565b6000611bda60ff841683600082615c39575060016134f6565b81615c46575060006134f6565b8160018114615c5c5760028114615c6657615c82565b60019150506134f6565b60ff841115615c7757615c77615d85565b50506001821b6134f6565b5060208310610133831016604e8410600b8410161715615ca5575081810a6134f6565b615caf8383615bdd565b8060001904821115615cc357615cc3615d85565b029392505050565b6000816000190483118215151615615ce557615ce5615d85565b500290565b60006001600160801b0383811690831681811015615d0a57615d0a615d85565b039392505050565b600082821015615d2457615d24615d85565b500390565b600063ffffffff83811690831681811015615d0a57615d0a615d85565b6000600019821415615d5a57615d5a615d85565b5060010190565b600063ffffffff80831681811415615d7b57615d7b615d85565b6001019392505050565b634e487b7160e01b600052601160045260246000fd5b634e487b7160e01b600052603260045260246000fd5b634e487b7160e01b600052604160045260246000fd5b80151581146136ce57600080fd5b60ff811681146136ce57600080fdfea2646970667358221220c1ae5431fb5244ed8487cbbfbcb78f28ec7a5786340145b32f329202a2d0fbbe64736f6c63430008070033",
			"opcodes": "PUSH1 0x80 PUSH1 0x40 MSTORE CALLVALUE DUP1 ISZERO PUSH2 0x10 JUMPI PUSH1 0x0 DUP1 REVERT JUMPDEST POP PUSH1 0x1 DUP1 SSTORE PUSH2 0x5E1A DUP1 PUSH3 0x25 PUSH1 0x0 CODECOPY PUSH1 0x0 RETURN INVALID PUSH1 0x80 PUSH1 0x40 MSTORE PUSH1 0x4 CALLDATASIZE LT PUSH2 0x44B JUMPI PUSH1 0x0 CALLDATALOAD PUSH1 0xE0 SHR DUP1 PUSH4 0x8DA5CB5B GT PUSH2 0x234 JUMPI DUP1 PUSH4 0xB7E1ECED GT PUSH2 0x12E JUMPI DUP1 PUSH4 0xD66E1E19 GT PUSH2 0xB6 JUMPI DUP1 PUSH4 0xEF7DC45C GT PUSH2 0x7A JUMPI DUP1 PUSH4 0xEF7DC45C EQ PUSH2 0x1066 JUMPI DUP1 PUSH4 0xEFD3C892 EQ PUSH2 0x107C JUMPI DUP1 PUSH4 0xF2FDE38B EQ PUSH2 0x109C JUMPI DUP1 PUSH4 0xF3CF4ADA EQ PUSH2 0x10BC JUMPI DUP1 PUSH4 0xFA2A9DA9 EQ PUSH2 0x10DC JUMPI PUSH1 0x0 DUP1 REVERT JUMPDEST DUP1 PUSH4 0xD66E1E19 EQ PUSH2 0xFB8 JUMPI DUP1 PUSH4 0xDBC9A686 EQ PUSH2 0xFF9 JUMPI DUP1 PUSH4 0xDEFA9DF1 EQ PUSH2 0x1013 JUMPI DUP1 PUSH4 0xE081E27C EQ PUSH2 0x1033 JUMPI DUP1 PUSH4 0xE9D0CC32 EQ PUSH2 0x1053 JUMPI PUSH1 0x0 DUP1 REVERT JUMPDEST DUP1 PUSH4 0xC5E9DC6D GT PUSH2 0xFD JUMPI DUP1 PUSH4 0xC5E9DC6D EQ PUSH2 0xEBA JUMPI DUP1 PUSH4 0xCAB11D5D EQ PUSH2 0xEDA JUMPI DUP1 PUSH4 0xCACD0AB9 EQ PUSH2 0xEF0 JUMPI DUP1 PUSH4 0xCD6BCF73 EQ PUSH2 0xF06 JUMPI DUP1 PUSH4 0xCFDA65C3 EQ PUSH2 0xF98 JUMPI PUSH1 0x0 DUP1 REVERT JUMPDEST DUP1 PUSH4 0xB7E1ECED EQ PUSH2 0xE4E JUMPI DUP1 PUSH4 0xBA7B6703 EQ PUSH2 0xE64 JUMPI DUP1 PUSH4 0xBF8F7932 EQ PUSH2 0xE7A JUMPI DUP1 PUSH4 0xC4ADAED1 EQ PUSH2 0xE9A JUMPI PUSH1 0x0 DUP1 REVERT JUMPDEST DUP1 PUSH4 0xA851EC8F GT PUSH2 0x1BC JUMPI DUP1 PUSH4 0xB0879754 GT PUSH2 0x180 JUMPI DUP1 PUSH4 0xB0879754 EQ PUSH2 0xC6C JUMPI DUP1 PUSH4 0xB1620616 EQ PUSH2 0xC8C JUMPI DUP1 PUSH4 0xB4849568 EQ PUSH2 0xD26 JUMPI DUP1 PUSH4 0xB606485D EQ PUSH2 0xE18 JUMPI DUP1 PUSH4 0xB73BF456 EQ PUSH2 0xE2E JUMPI PUSH1 0x0 DUP1 REVERT JUMPDEST DUP1 PUSH4 0xA851EC8F EQ PUSH2 0xBA9 JUMPI DUP1 PUSH4 0xA87430BA EQ PUSH2 0xBBF JUMPI DUP1 PUSH4 0xA89AE4BA EQ PUSH2 0xBEC JUMPI DUP1 PUSH4 0xA9ECD7DA EQ PUSH2 0xC11 JUMPI DUP1 PUSH4 0xAC2CE987 EQ PUSH2 0xC27 JUMPI PUSH1 0x0 DUP1 REVERT JUMPDEST DUP1 PUSH4 0x9BF26320 GT PUSH2 0x203 JUMPI DUP1 PUSH4 0x9BF26320 EQ PUSH2 0xB13 JUMPI DUP1 PUSH4 0xA36A38ED EQ PUSH2 0xB33 JUMPI DUP1 PUSH4 0xA47BD496 EQ PUSH2 0xB49 JUMPI DUP1 PUSH4 0xA6D883D6 EQ PUSH2 0xB69 JUMPI DUP1 PUSH4 0xA7E3F8C3 EQ PUSH2 0xB89 JUMPI PUSH1 0x0 DUP1 REVERT JUMPDEST DUP1 PUSH4 0x8DA5CB5B EQ PUSH2 0xA9F JUMPI DUP1 PUSH4 0x94ADE59B EQ PUSH2 0xABD JUMPI DUP1 PUSH4 0x960BFE04 EQ PUSH2 0xAD3 JUMPI DUP1 PUSH4 0x98F0AF1C EQ PUSH2 0xAF3 JUMPI PUSH1 0x0 DUP1 REVERT JUMPDEST DUP1 PUSH4 0x51CDB77B GT PUSH2 0x345 JUMPI DUP1 PUSH4 0x68283F4D GT PUSH2 0x2CD JUMPI DUP1 PUSH4 0x7DC0D1D0 GT PUSH2 0x291 JUMPI DUP1 PUSH4 0x7DC0D1D0 EQ PUSH2 0x9FC JUMPI DUP1 PUSH4 0x7F0A83AF EQ PUSH2 0xA1C JUMPI DUP1 PUSH4 0x845E96AB EQ PUSH2 0xA49 JUMPI DUP1 PUSH4 0x8719E8AC EQ PUSH2 0xA5F JUMPI DUP1 PUSH4 0x8A3E1CDC EQ PUSH2 0xA7F JUMPI PUSH1 0x0 DUP1 REVERT JUMPDEST DUP1 PUSH4 0x68283F4D EQ PUSH2 0x931 JUMPI DUP1 PUSH4 0x6B899842 EQ PUSH2 0x946 JUMPI DUP1 PUSH4 0x6D03C394 EQ PUSH2 0x981 JUMPI DUP1 PUSH4 0x7547C7A3 EQ PUSH2 0x9A1 JUMPI DUP1 PUSH4 0x79EE54F7 EQ PUSH2 0x9C1 JUMPI PUSH1 0x0 DUP1 REVERT JUMPDEST DUP1 PUSH4 0x5EC9ADAE GT PUSH2 0x314 JUMPI DUP1 PUSH4 0x5EC9ADAE EQ PUSH2 0x8A5 JUMPI DUP1 PUSH4 0x5FD61965 EQ PUSH2 0x8BB JUMPI DUP1 PUSH4 0x608E4DD0 EQ PUSH2 0x8DB JUMPI DUP1 PUSH4 0x61A52A36 EQ PUSH2 0x8FB JUMPI DUP1 PUSH4 0x61B71BAE EQ PUSH2 0x911 JUMPI PUSH1 0x0 DUP1 REVERT JUMPDEST DUP1 PUSH4 0x51CDB77B EQ PUSH2 0x6D6 JUMPI DUP1 PUSH4 0x5281D8F0 EQ PUSH2 0x70E JUMPI DUP1 PUSH4 0x584B62A1 EQ PUSH2 0x801 JUMPI DUP1 PUSH4 0x5D80CA32 EQ PUSH2 0x88F JUMPI PUSH1 0x0 DUP1 REVERT JUMPDEST DUP1 PUSH4 0x2F48AB7D GT PUSH2 0x3D3 JUMPI DUP1 PUSH4 0x4020249C GT PUSH2 0x397 JUMPI DUP1 PUSH4 0x4020249C EQ PUSH2 0x657 JUMPI DUP1 PUSH4 0x409F8E84 EQ PUSH2 0x677 JUMPI DUP1 PUSH4 0x41BF18E2 EQ PUSH2 0x68D JUMPI DUP1 PUSH4 0x42885F8C EQ PUSH2 0x6A0 JUMPI DUP1 PUSH4 0x42CDE4E8 EQ PUSH2 0x6C0 JUMPI PUSH1 0x0 DUP1 REVERT JUMPDEST DUP1 PUSH4 0x2F48AB7D EQ PUSH2 0x5A4 JUMPI DUP1 PUSH4 0x372500AB EQ PUSH2 0x5DC JUMPI DUP1 PUSH4 0x39115784 EQ PUSH2 0x5F1 JUMPI DUP1 PUSH4 0x3A2B17E2 EQ PUSH2 0x607 JUMPI DUP1 PUSH4 0x3BDB36D1 EQ PUSH2 0x637 JUMPI PUSH1 0x0 DUP1 REVERT JUMPDEST DUP1 PUSH4 0x21590576 GT PUSH2 0x41A JUMPI DUP1 PUSH4 0x21590576 EQ PUSH2 0x4F9 JUMPI DUP1 PUSH4 0x234E839A EQ PUSH2 0x50F JUMPI DUP1 PUSH4 0x24118875 EQ PUSH2 0x52F JUMPI DUP1 PUSH4 0x24AC09C3 EQ PUSH2 0x564 JUMPI DUP1 PUSH4 0x2E60130A EQ PUSH2 0x584 JUMPI PUSH1 0x0 DUP1 REVERT JUMPDEST DUP1 PUSH4 0xFFB231D EQ PUSH2 0x457 JUMPI DUP1 PUSH4 0x1AAC030C EQ PUSH2 0x497 JUMPI DUP1 PUSH4 0x1C010B51 EQ PUSH2 0x4B9 JUMPI DUP1 PUSH4 0x1CB44DFC EQ PUSH2 0x4D9 JUMPI PUSH1 0x0 DUP1 REVERT JUMPDEST CALLDATASIZE PUSH2 0x452 JUMPI STOP JUMPDEST PUSH1 0x0 DUP1 REVERT JUMPDEST CALLVALUE DUP1 ISZERO PUSH2 0x463 JUMPI PUSH1 0x0 DUP1 REVERT JUMPDEST POP PUSH2 0x484 PUSH2 0x472 CALLDATASIZE PUSH1 0x4 PUSH2 0x5834 JUMP JUMPDEST PUSH1 0x26 PUSH1 0x20 MSTORE PUSH1 0x0 SWAP1 DUP2 MSTORE PUSH1 0x40 SWAP1 KECCAK256 SLOAD DUP2 JUMP JUMPDEST PUSH1 0x40 MLOAD SWAP1 DUP2 MSTORE PUSH1 0x20 ADD JUMPDEST PUSH1 0x40 MLOAD DUP1 SWAP2 SUB SWAP1 RETURN JUMPDEST CALLVALUE DUP1 ISZERO PUSH2 0x4A3 JUMPI PUSH1 0x0 DUP1 REVERT JUMPDEST POP PUSH2 0x4B7 PUSH2 0x4B2 CALLDATASIZE PUSH1 0x4 PUSH2 0x5834 JUMP JUMPDEST PUSH2 0x11C5 JUMP JUMPDEST STOP JUMPDEST CALLVALUE DUP1 ISZERO PUSH2 0x4C5 JUMPI PUSH1 0x0 DUP1 REVERT JUMPDEST POP PUSH2 0x4B7 PUSH2 0x4D4 CALLDATASIZE PUSH1 0x4 PUSH2 0x5834 JUMP JUMPDEST PUSH2 0x11FD JUMP JUMPDEST CALLVALUE DUP1 ISZERO PUSH2 0x4E5 JUMPI PUSH1 0x0 DUP1 REVERT JUMPDEST POP PUSH2 0x4B7 PUSH2 0x4F4 CALLDATASIZE PUSH1 0x4 PUSH2 0x556C JUMP JUMPDEST PUSH2 0x124E JUMP JUMPDEST CALLVALUE DUP1 ISZERO PUSH2 0x505 JUMPI PUSH1 0x0 DUP1 REVERT JUMPDEST POP PUSH2 0x484 PUSH1 0xB SLOAD DUP2 JUMP JUMPDEST CALLVALUE DUP1 ISZERO PUSH2 0x51B JUMPI PUSH1 0x0 DUP1 REVERT JUMPDEST POP PUSH2 0x4B7 PUSH2 0x52A CALLDATASIZE PUSH1 0x4 PUSH2 0x57BA JUMP JUMPDEST PUSH2 0x12AD JUMP JUMPDEST CALLVALUE DUP1 ISZERO PUSH2 0x53B JUMPI PUSH1 0x0 DUP1 REVERT JUMPDEST POP PUSH2 0x54F PUSH2 0x54A CALLDATASIZE PUSH1 0x4 PUSH2 0x556C JUMP JUMPDEST PUSH2 0x1374 JUMP JUMPDEST PUSH1 0x40 DUP1 MLOAD SWAP3 DUP4 MSTORE PUSH1 0x20 DUP4 ADD SWAP2 SWAP1 SWAP2 MSTORE ADD PUSH2 0x48E JUMP JUMPDEST CALLVALUE DUP1 ISZERO PUSH2 0x570 JUMPI PUSH1 0x0 DUP1 REVERT JUMPDEST POP PUSH2 0x4B7 PUSH2 0x57F CALLDATASIZE PUSH1 0x4 PUSH2 0x5834 JUMP JUMPDEST PUSH2 0x1450 JUMP JUMPDEST CALLVALUE DUP1 ISZERO PUSH2 0x590 JUMPI PUSH1 0x0 DUP1 REVERT JUMPDEST POP PUSH2 0x4B7 PUSH2 0x59F CALLDATASIZE PUSH1 0x4 PUSH2 0x56EB JUMP JUMPDEST PUSH2 0x147F JUMP JUMPDEST CALLVALUE DUP1 ISZERO PUSH2 0x5B0 JUMPI PUSH1 0x0 DUP1 REVERT JUMPDEST POP PUSH1 0x19 SLOAD PUSH2 0x5C4 SWAP1 PUSH1 0x1 PUSH1 0x1 PUSH1 0xA0 SHL SUB AND DUP2 JUMP JUMPDEST PUSH1 0x40 MLOAD PUSH1 0x1 PUSH1 0x1 PUSH1 0xA0 SHL SUB SWAP1 SWAP2 AND DUP2 MSTORE PUSH1 0x20 ADD PUSH2 0x48E JUMP JUMPDEST CALLVALUE DUP1 ISZERO PUSH2 0x5E8 JUMPI PUSH1 0x0 DUP1 REVERT JUMPDEST POP PUSH2 0x4B7 PUSH2 0x1AA4 JUMP JUMPDEST CALLVALUE DUP1 ISZERO PUSH2 0x5FD JUMPI PUSH1 0x0 DUP1 REVERT JUMPDEST POP PUSH2 0x484 PUSH1 0x4 SLOAD DUP2 JUMP JUMPDEST CALLVALUE DUP1 ISZERO PUSH2 0x613 JUMPI PUSH1 0x0 DUP1 REVERT JUMPDEST POP PUSH2 0x627 PUSH2 0x622 CALLDATASIZE PUSH1 0x4 PUSH2 0x5670 JUMP JUMPDEST PUSH2 0x1BAA JUMP JUMPDEST PUSH1 0x40 MLOAD SWAP1 ISZERO ISZERO DUP2 MSTORE PUSH1 0x20 ADD PUSH2 0x48E JUMP JUMPDEST CALLVALUE DUP1 ISZERO PUSH2 0x643 JUMPI PUSH1 0x0 DUP1 REVERT JUMPDEST POP PUSH2 0x484 PUSH2 0x652 CALLDATASIZE PUSH1 0x4 PUSH2 0x556C JUMP JUMPDEST PUSH2 0x1BE1 JUMP JUMPDEST CALLVALUE DUP1 ISZERO PUSH2 0x663 JUMPI PUSH1 0x0 DUP1 REVERT JUMPDEST POP PUSH2 0x4B7 PUSH2 0x672 CALLDATASIZE PUSH1 0x4 PUSH2 0x5834 JUMP JUMPDEST PUSH2 0x1EE6 JUMP JUMPDEST CALLVALUE DUP1 ISZERO PUSH2 0x683 JUMPI PUSH1 0x0 DUP1 REVERT JUMPDEST POP PUSH2 0x484 PUSH1 0x7 SLOAD DUP2 JUMP JUMPDEST PUSH2 0x4B7 PUSH2 0x69B CALLDATASIZE PUSH1 0x4 PUSH2 0x58E4 JUMP JUMPDEST PUSH2 0x1F37 JUMP JUMPDEST CALLVALUE DUP1 ISZERO PUSH2 0x6AC JUMPI PUSH1 0x0 DUP1 REVERT JUMPDEST POP PUSH2 0x4B7 PUSH2 0x6BB CALLDATASIZE PUSH1 0x4 PUSH2 0x5834 JUMP JUMPDEST PUSH2 0x210C JUMP JUMPDEST CALLVALUE DUP1 ISZERO PUSH2 0x6CC JUMPI PUSH1 0x0 DUP1 REVERT JUMPDEST POP PUSH2 0x484 PUSH1 0x13 SLOAD DUP2 JUMP JUMPDEST CALLVALUE DUP1 ISZERO PUSH2 0x6E2 JUMPI PUSH1 0x0 DUP1 REVERT JUMPDEST POP PUSH2 0x484 PUSH2 0x6F1 CALLDATASIZE PUSH1 0x4 PUSH2 0x5896 JUMP JUMPDEST PUSH1 0x27 PUSH1 0x20 SWAP1 DUP2 MSTORE PUSH1 0x0 SWAP3 DUP4 MSTORE PUSH1 0x40 DUP1 DUP5 KECCAK256 SWAP1 SWAP2 MSTORE SWAP1 DUP3 MSTORE SWAP1 KECCAK256 SLOAD DUP2 JUMP JUMPDEST CALLVALUE DUP1 ISZERO PUSH2 0x71A JUMPI PUSH1 0x0 DUP1 REVERT JUMPDEST POP PUSH2 0x7A1 PUSH2 0x729 CALLDATASIZE PUSH1 0x4 PUSH2 0x5646 JUMP JUMPDEST PUSH1 0x23 PUSH1 0x20 SWAP1 DUP2 MSTORE PUSH1 0x0 SWAP3 DUP4 MSTORE PUSH1 0x40 DUP1 DUP5 KECCAK256 SWAP1 SWAP2 MSTORE SWAP1 DUP3 MSTORE SWAP1 KECCAK256 SLOAD PUSH1 0x1 PUSH1 0x1 PUSH1 0x40 SHL SUB DUP2 AND SWAP1 PUSH4 0xFFFFFFFF PUSH1 0x1 PUSH1 0x40 SHL DUP3 DIV DUP2 AND SWAP2 PUSH1 0x1 PUSH1 0x60 SHL DUP2 DIV DUP3 AND SWAP2 PUSH6 0xFFFFFFFFFFFF PUSH1 0x1 PUSH1 0x80 SHL DUP4 DIV AND SWAP2 PUSH1 0x1 PUSH1 0xB0 SHL DUP2 DIV DUP3 AND SWAP2 PUSH1 0x1 PUSH1 0xD0 SHL DUP3 DIV AND SWAP1 PUSH1 0xFF PUSH1 0x1 PUSH1 0xF0 SHL DUP3 DIV DUP2 AND SWAP2 PUSH1 0x1 PUSH1 0xF8 SHL SWAP1 DIV AND DUP9 JUMP JUMPDEST PUSH1 0x40 DUP1 MLOAD PUSH1 0x1 PUSH1 0x1 PUSH1 0x40 SHL SUB SWAP1 SWAP10 AND DUP10 MSTORE PUSH4 0xFFFFFFFF SWAP8 DUP9 AND PUSH1 0x20 DUP11 ADD MSTORE SWAP6 DUP8 AND SWAP6 DUP9 ADD SWAP6 SWAP1 SWAP6 MSTORE PUSH6 0xFFFFFFFFFFFF SWAP1 SWAP4 AND PUSH1 0x60 DUP8 ADD MSTORE SWAP1 DUP5 AND PUSH1 0x80 DUP7 ADD MSTORE SWAP3 SWAP1 SWAP3 AND PUSH1 0xA0 DUP5 ADD MSTORE SWAP1 ISZERO ISZERO PUSH1 0xC0 DUP4 ADD MSTORE ISZERO ISZERO PUSH1 0xE0 DUP3 ADD MSTORE PUSH2 0x100 ADD PUSH2 0x48E JUMP JUMPDEST CALLVALUE DUP1 ISZERO PUSH2 0x80D JUMPI PUSH1 0x0 DUP1 REVERT JUMPDEST POP PUSH2 0x860 PUSH2 0x81C CALLDATASIZE PUSH1 0x4 PUSH2 0x5646 JUMP JUMPDEST PUSH1 0x1C PUSH1 0x20 SWAP1 DUP2 MSTORE PUSH1 0x0 SWAP3 DUP4 MSTORE PUSH1 0x40 DUP1 DUP5 KECCAK256 SWAP1 SWAP2 MSTORE SWAP1 DUP3 MSTORE SWAP1 KECCAK256 SLOAD PUSH1 0x1 PUSH1 0x1 PUSH1 0x40 SHL SUB DUP1 DUP3 AND SWAP2 PUSH1 0x1 PUSH1 0x40 SHL DUP2 DIV SWAP1 SWAP2 AND SWAP1 PUSH1 0x1 PUSH1 0x80 SHL SWAP1 DIV PUSH1 0x1 PUSH1 0x1 PUSH1 0x80 SHL SUB AND DUP4 JUMP JUMPDEST PUSH1 0x40 DUP1 MLOAD PUSH1 0x1 PUSH1 0x1 PUSH1 0x40 SHL SUB SWAP5 DUP6 AND DUP2 MSTORE SWAP4 SWAP1 SWAP3 AND PUSH1 0x20 DUP5 ADD MSTORE PUSH1 0x1 PUSH1 0x1 PUSH1 0x80 SHL SUB AND SWAP1 DUP3 ADD MSTORE PUSH1 0x60 ADD PUSH2 0x48E JUMP JUMPDEST CALLVALUE DUP1 ISZERO PUSH2 0x89B JUMPI PUSH1 0x0 DUP1 REVERT JUMPDEST POP PUSH2 0x484 PUSH1 0x6 SLOAD DUP2 JUMP JUMPDEST CALLVALUE DUP1 ISZERO PUSH2 0x8B1 JUMPI PUSH1 0x0 DUP1 REVERT JUMPDEST POP PUSH2 0x484 PUSH1 0xD SLOAD DUP2 JUMP JUMPDEST CALLVALUE DUP1 ISZERO PUSH2 0x8C7 JUMPI PUSH1 0x0 DUP1 REVERT JUMPDEST POP PUSH2 0x4B7 PUSH2 0x8D6 CALLDATASIZE PUSH1 0x4 PUSH2 0x556C JUMP JUMPDEST PUSH2 0x23B6 JUMP JUMPDEST CALLVALUE DUP1 ISZERO PUSH2 0x8E7 JUMPI PUSH1 0x0 DUP1 REVERT JUMPDEST POP PUSH2 0x4B7 PUSH2 0x8F6 CALLDATASIZE PUSH1 0x4 PUSH2 0x5834 JUMP JUMPDEST PUSH2 0x2454 JUMP JUMPDEST CALLVALUE DUP1 ISZERO PUSH2 0x907 JUMPI PUSH1 0x0 DUP1 REVERT JUMPDEST POP PUSH2 0x484 PUSH1 0x2 SLOAD DUP2 JUMP JUMPDEST CALLVALUE DUP1 ISZERO PUSH2 0x91D JUMPI PUSH1 0x0 DUP1 REVERT JUMPDEST POP PUSH2 0x4B7 PUSH2 0x92C CALLDATASIZE PUSH1 0x4 PUSH2 0x5834 JUMP JUMPDEST PUSH2 0x2590 JUMP JUMPDEST CALLVALUE DUP1 ISZERO PUSH2 0x93D JUMPI PUSH1 0x0 DUP1 REVERT JUMPDEST POP PUSH2 0x4B7 PUSH2 0x25E1 JUMP JUMPDEST CALLVALUE DUP1 ISZERO PUSH2 0x952 JUMPI PUSH1 0x0 DUP1 REVERT JUMPDEST POP PUSH2 0x627 PUSH2 0x961 CALLDATASIZE PUSH1 0x4 PUSH2 0x5587 JUMP JUMPDEST PUSH1 0x21 PUSH1 0x20 SWAP1 DUP2 MSTORE PUSH1 0x0 SWAP3 DUP4 MSTORE PUSH1 0x40 DUP1 DUP5 KECCAK256 SWAP1 SWAP2 MSTORE SWAP1 DUP3 MSTORE SWAP1 KECCAK256 SLOAD PUSH1 0xFF AND DUP2 JUMP JUMPDEST CALLVALUE DUP1 ISZERO PUSH2 0x98D JUMPI PUSH1 0x0 DUP1 REVERT JUMPDEST POP PUSH2 0x4B7 PUSH2 0x99C CALLDATASIZE PUSH1 0x4 PUSH2 0x55BA JUMP JUMPDEST PUSH2 0x2B12 JUMP JUMPDEST CALLVALUE DUP1 ISZERO PUSH2 0x9AD JUMPI PUSH1 0x0 DUP1 REVERT JUMPDEST POP PUSH2 0x4B7 PUSH2 0x9BC CALLDATASIZE PUSH1 0x4 PUSH2 0x5834 JUMP JUMPDEST PUSH2 0x2F6E JUMP JUMPDEST CALLVALUE DUP1 ISZERO PUSH2 0x9CD JUMPI PUSH1 0x0 DUP1 REVERT JUMPDEST POP PUSH2 0x9E1 PUSH2 0x9DC CALLDATASIZE PUSH1 0x4 PUSH2 0x556C JUMP JUMPDEST PUSH2 0x30F0 JUMP JUMPDEST PUSH1 0x40 DUP1 MLOAD SWAP4 DUP5 MSTORE PUSH1 0x20 DUP5 ADD SWAP3 SWAP1 SWAP3 MSTORE SWAP1 DUP3 ADD MSTORE PUSH1 0x60 ADD PUSH2 0x48E JUMP JUMPDEST CALLVALUE DUP1 ISZERO PUSH2 0xA08 JUMPI PUSH1 0x0 DUP1 REVERT JUMPDEST POP PUSH1 0x1A SLOAD PUSH2 0x5C4 SWAP1 PUSH1 0x1 PUSH1 0x1 PUSH1 0xA0 SHL SUB AND DUP2 JUMP JUMPDEST CALLVALUE DUP1 ISZERO PUSH2 0xA28 JUMPI PUSH1 0x0 DUP1 REVERT JUMPDEST POP PUSH2 0x484 PUSH2 0xA37 CALLDATASIZE PUSH1 0x4 PUSH2 0x556C JUMP JUMPDEST PUSH1 0x1E PUSH1 0x20 MSTORE PUSH1 0x0 SWAP1 DUP2 MSTORE PUSH1 0x40 SWAP1 KECCAK256 SLOAD DUP2 JUMP JUMPDEST CALLVALUE DUP1 ISZERO PUSH2 0xA55 JUMPI PUSH1 0x0 DUP1 REVERT JUMPDEST POP PUSH2 0x484 PUSH1 0x8 SLOAD DUP2 JUMP JUMPDEST CALLVALUE DUP1 ISZERO PUSH2 0xA6B JUMPI PUSH1 0x0 DUP1 REVERT JUMPDEST POP PUSH2 0x4B7 PUSH2 0xA7A CALLDATASIZE PUSH1 0x4 PUSH2 0x5866 JUMP JUMPDEST PUSH2 0x3263 JUMP JUMPDEST CALLVALUE DUP1 ISZERO PUSH2 0xA8B JUMPI PUSH1 0x0 DUP1 REVERT JUMPDEST POP PUSH2 0x4B7 PUSH2 0xA9A CALLDATASIZE PUSH1 0x4 PUSH2 0x5896 JUMP JUMPDEST PUSH2 0x32CF JUMP JUMPDEST CALLVALUE DUP1 ISZERO PUSH2 0xAAB JUMPI PUSH1 0x0 DUP1 REVERT JUMPDEST POP PUSH1 0x0 SLOAD PUSH1 0x1 PUSH1 0x1 PUSH1 0xA0 SHL SUB AND PUSH2 0x5C4 JUMP JUMPDEST CALLVALUE DUP1 ISZERO PUSH2 0xAC9 JUMPI PUSH1 0x0 DUP1 REVERT JUMPDEST POP PUSH2 0x484 PUSH1 0x10 SLOAD DUP2 JUMP JUMPDEST CALLVALUE DUP1 ISZERO PUSH2 0xADF JUMPI PUSH1 0x0 DUP1 REVERT JUMPDEST POP PUSH2 0x4B7 PUSH2 0xAEE CALLDATASIZE PUSH1 0x4 PUSH2 0x5834 JUMP JUMPDEST PUSH2 0x335B JUMP JUMPDEST CALLVALUE DUP1 ISZERO PUSH2 0xAFF JUMPI PUSH1 0x0 DUP1 REVERT JUMPDEST POP PUSH2 0x484 PUSH2 0xB0E CALLDATASIZE PUSH1 0x4 PUSH2 0x556C JUMP JUMPDEST PUSH2 0x33AC JUMP JUMPDEST CALLVALUE DUP1 ISZERO PUSH2 0xB1F JUMPI PUSH1 0x0 DUP1 REVERT JUMPDEST POP PUSH2 0x4B7 PUSH2 0xB2E CALLDATASIZE PUSH1 0x4 PUSH2 0x5896 JUMP JUMPDEST PUSH2 0x34FC JUMP JUMPDEST CALLVALUE DUP1 ISZERO PUSH2 0xB3F JUMPI PUSH1 0x0 DUP1 REVERT JUMPDEST POP PUSH2 0x484 PUSH1 0xE SLOAD DUP2 JUMP JUMPDEST CALLVALUE DUP1 ISZERO PUSH2 0xB55 JUMPI PUSH1 0x0 DUP1 REVERT JUMPDEST POP PUSH2 0x4B7 PUSH2 0xB64 CALLDATASIZE PUSH1 0x4 PUSH2 0x5896 JUMP JUMPDEST PUSH2 0x3562 JUMP JUMPDEST CALLVALUE DUP1 ISZERO PUSH2 0xB75 JUMPI PUSH1 0x0 DUP1 REVERT JUMPDEST POP PUSH2 0x4B7 PUSH2 0xB84 CALLDATASIZE PUSH1 0x4 PUSH2 0x5834 JUMP JUMPDEST PUSH2 0x35C8 JUMP JUMPDEST CALLVALUE DUP1 ISZERO PUSH2 0xB95 JUMPI PUSH1 0x0 DUP1 REVERT JUMPDEST POP PUSH1 0x16 SLOAD PUSH2 0x5C4 SWAP1 PUSH1 0x1 PUSH1 0x1 PUSH1 0xA0 SHL SUB AND DUP2 JUMP JUMPDEST CALLVALUE DUP1 ISZERO PUSH2 0xBB5 JUMPI PUSH1 0x0 DUP1 REVERT JUMPDEST POP PUSH2 0x484 PUSH1 0xF SLOAD DUP2 JUMP JUMPDEST CALLVALUE DUP1 ISZERO PUSH2 0xBCB JUMPI PUSH1 0x0 DUP1 REVERT JUMPDEST POP PUSH2 0x484 PUSH2 0xBDA CALLDATASIZE PUSH1 0x4 PUSH2 0x556C JUMP JUMPDEST PUSH1 0x1B PUSH1 0x20 MSTORE PUSH1 0x0 SWAP1 DUP2 MSTORE PUSH1 0x40 SWAP1 KECCAK256 SLOAD DUP2 JUMP JUMPDEST CALLVALUE DUP1 ISZERO PUSH2 0xBF8 JUMPI PUSH1 0x0 DUP1 REVERT JUMPDEST POP PUSH1 0x15 SLOAD PUSH2 0x5C4 SWAP1 PUSH2 0x100 SWAP1 DIV PUSH1 0x1 PUSH1 0x1 PUSH1 0xA0 SHL SUB AND DUP2 JUMP JUMPDEST CALLVALUE DUP1 ISZERO PUSH2 0xC1D JUMPI PUSH1 0x0 DUP1 REVERT JUMPDEST POP PUSH2 0x484 PUSH1 0xA SLOAD DUP2 JUMP JUMPDEST CALLVALUE DUP1 ISZERO PUSH2 0xC33 JUMPI PUSH1 0x0 DUP1 REVERT JUMPDEST POP PUSH2 0x5C4 PUSH2 0xC42 CALLDATASIZE PUSH1 0x4 PUSH2 0x59AD JUMP JUMPDEST PUSH1 0x20 DUP1 DUP1 MSTORE PUSH1 0x0 SWAP4 DUP5 MSTORE PUSH1 0x40 DUP1 DUP6 KECCAK256 DUP3 MSTORE SWAP3 DUP5 MSTORE DUP3 DUP5 KECCAK256 SWAP1 MSTORE DUP3 MSTORE SWAP1 KECCAK256 SLOAD PUSH1 0x1 PUSH1 0x1 PUSH1 0xA0 SHL SUB AND DUP2 JUMP JUMPDEST CALLVALUE DUP1 ISZERO PUSH2 0xC78 JUMPI PUSH1 0x0 DUP1 REVERT JUMPDEST POP PUSH2 0x4B7 PUSH2 0xC87 CALLDATASIZE PUSH1 0x4 PUSH2 0x5834 JUMP JUMPDEST PUSH2 0x3605 JUMP JUMPDEST CALLVALUE DUP1 ISZERO PUSH2 0xC98 JUMPI PUSH1 0x0 DUP1 REVERT JUMPDEST POP PUSH2 0xCEB PUSH2 0xCA7 CALLDATASIZE PUSH1 0x4 PUSH2 0x5834 JUMP JUMPDEST PUSH1 0x25 PUSH1 0x20 MSTORE PUSH1 0x0 SWAP1 DUP2 MSTORE PUSH1 0x40 SWAP1 KECCAK256 SLOAD PUSH1 0x1 PUSH1 0x1 PUSH1 0x40 SHL SUB DUP1 DUP3 AND SWAP2 PUSH1 0x1 PUSH1 0x40 SHL DUP2 DIV SWAP1 SWAP2 AND SWAP1 PUSH1 0x1 PUSH1 0x80 SHL DUP2 DIV PUSH1 0x1 PUSH1 0x1 PUSH1 0x78 SHL SUB AND SWAP1 PUSH1 0x1 PUSH1 0xF8 SHL SWAP1 DIV PUSH1 0xFF AND DUP5 JUMP JUMPDEST PUSH1 0x40 DUP1 MLOAD PUSH1 0x1 PUSH1 0x1 PUSH1 0x40 SHL SUB SWAP6 DUP7 AND DUP2 MSTORE SWAP5 SWAP1 SWAP4 AND PUSH1 0x20 DUP6 ADD MSTORE PUSH1 0x1 PUSH1 0x1 PUSH1 0x78 SHL SUB SWAP1 SWAP2 AND SWAP2 DUP4 ADD SWAP2 SWAP1 SWAP2 MSTORE ISZERO ISZERO PUSH1 0x60 DUP3 ADD MSTORE PUSH1 0x80 ADD PUSH2 0x48E JUMP JUMPDEST CALLVALUE DUP1 ISZERO PUSH2 0xD32 JUMPI PUSH1 0x0 DUP1 REVERT JUMPDEST POP PUSH2 0xDB9 PUSH2 0xD41 CALLDATASIZE PUSH1 0x4 PUSH2 0x5646 JUMP JUMPDEST PUSH1 0x22 PUSH1 0x20 SWAP1 DUP2 MSTORE PUSH1 0x0 SWAP3 DUP4 MSTORE PUSH1 0x40 DUP1 DUP5 KECCAK256 SWAP1 SWAP2 MSTORE SWAP1 DUP3 MSTORE SWAP1 KECCAK256 DUP1 SLOAD PUSH1 0x1 DUP3 ADD SLOAD PUSH1 0x2 DUP4 ADD SLOAD PUSH1 0x3 SWAP1 SWAP4 ADD SLOAD PUSH1 0x1 PUSH1 0x1 PUSH1 0x80 SHL SUB DUP4 AND SWAP4 PUSH1 0x1 PUSH1 0x80 SHL DUP5 DIV PUSH1 0x1 PUSH1 0x1 PUSH1 0x78 SHL SUB AND SWAP4 PUSH1 0x1 PUSH1 0xF8 SHL SWAP1 DIV PUSH1 0xFF AND SWAP3 PUSH1 0x1 PUSH1 0x1 PUSH1 0x60 SHL SUB DUP1 DUP3 AND SWAP4 PUSH1 0x1 PUSH1 0x60 SHL SWAP1 SWAP3 DIV AND SWAP2 PUSH1 0x1 PUSH1 0x1 PUSH1 0xA0 SHL SUB SWAP1 DUP2 AND SWAP2 AND DUP8 JUMP JUMPDEST PUSH1 0x40 DUP1 MLOAD PUSH1 0x1 PUSH1 0x1 PUSH1 0x80 SHL SUB SWAP1 SWAP9 AND DUP9 MSTORE PUSH1 0x1 PUSH1 0x1 PUSH1 0x78 SHL SUB SWAP1 SWAP7 AND PUSH1 0x20 DUP9 ADD MSTORE SWAP4 ISZERO ISZERO SWAP5 DUP7 ADD SWAP5 SWAP1 SWAP5 MSTORE PUSH1 0x1 PUSH1 0x1 PUSH1 0x60 SHL SUB SWAP2 DUP3 AND PUSH1 0x60 DUP7 ADD MSTORE AND PUSH1 0x80 DUP5 ADD MSTORE PUSH1 0x1 PUSH1 0x1 PUSH1 0xA0 SHL SUB SWAP2 DUP3 AND PUSH1 0xA0 DUP5 ADD MSTORE AND PUSH1 0xC0 DUP3 ADD MSTORE PUSH1 0xE0 ADD PUSH2 0x48E JUMP JUMPDEST CALLVALUE DUP1 ISZERO PUSH2 0xE24 JUMPI PUSH1 0x0 DUP1 REVERT JUMPDEST POP PUSH2 0x484 PUSH1 0x14 SLOAD DUP2 JUMP JUMPDEST CALLVALUE DUP1 ISZERO PUSH2 0xE3A JUMPI PUSH1 0x0 DUP1 REVERT JUMPDEST POP PUSH2 0x4B7 PUSH2 0xE49 CALLDATASIZE PUSH1 0x4 PUSH2 0x5834 JUMP JUMPDEST PUSH2 0x3656 JUMP JUMPDEST CALLVALUE DUP1 ISZERO PUSH2 0xE5A JUMPI PUSH1 0x0 DUP1 REVERT JUMPDEST POP PUSH2 0x484 PUSH1 0x12 SLOAD DUP2 JUMP JUMPDEST CALLVALUE DUP1 ISZERO PUSH2 0xE70 JUMPI PUSH1 0x0 DUP1 REVERT JUMPDEST POP PUSH2 0x484 PUSH1 0x11 SLOAD DUP2 JUMP JUMPDEST CALLVALUE DUP1 ISZERO PUSH2 0xE86 JUMPI PUSH1 0x0 DUP1 REVERT JUMPDEST POP PUSH2 0x4B7 PUSH2 0xE95 CALLDATASIZE PUSH1 0x4 PUSH2 0x57FA JUMP JUMPDEST PUSH2 0x3685 JUMP JUMPDEST CALLVALUE DUP1 ISZERO PUSH2 0xEA6 JUMPI PUSH1 0x0 DUP1 REVERT JUMPDEST POP PUSH2 0x4B7 PUSH2 0xEB5 CALLDATASIZE PUSH1 0x4 PUSH2 0x5896 JUMP JUMPDEST PUSH2 0x36D1 JUMP JUMPDEST CALLVALUE DUP1 ISZERO PUSH2 0xEC6 JUMPI PUSH1 0x0 DUP1 REVERT JUMPDEST POP PUSH2 0x4B7 PUSH2 0xED5 CALLDATASIZE PUSH1 0x4 PUSH2 0x59D9 JUMP JUMPDEST PUSH2 0x3737 JUMP JUMPDEST CALLVALUE DUP1 ISZERO PUSH2 0xEE6 JUMPI PUSH1 0x0 DUP1 REVERT JUMPDEST POP PUSH2 0x484 PUSH1 0x9 SLOAD DUP2 JUMP JUMPDEST CALLVALUE DUP1 ISZERO PUSH2 0xEFC JUMPI PUSH1 0x0 DUP1 REVERT JUMPDEST POP PUSH2 0x484 PUSH1 0x5 SLOAD DUP2 JUMP JUMPDEST CALLVALUE DUP1 ISZERO PUSH2 0xF12 JUMPI PUSH1 0x0 DUP1 REVERT JUMPDEST POP PUSH2 0xF61 PUSH2 0xF21 CALLDATASIZE PUSH1 0x4 PUSH2 0x5834 JUMP JUMPDEST PUSH1 0x24 PUSH1 0x20 MSTORE PUSH1 0x0 SWAP1 DUP2 MSTORE PUSH1 0x40 SWAP1 KECCAK256 SLOAD PUSH1 0x1 PUSH1 0x1 PUSH1 0x60 SHL SUB DUP1 DUP3 AND SWAP2 PUSH1 0x1 PUSH1 0x60 SHL DUP2 DIV SWAP1 SWAP2 AND SWAP1 PUSH4 0xFFFFFFFF PUSH1 0x1 PUSH1 0xC0 SHL DUP3 DIV DUP2 AND SWAP2 PUSH1 0x1 PUSH1 0xE0 SHL SWAP1 DIV AND DUP5 JUMP JUMPDEST PUSH1 0x40 DUP1 MLOAD PUSH1 0x1 PUSH1 0x1 PUSH1 0x60 SHL SUB SWAP6 DUP7 AND DUP2 MSTORE SWAP5 SWAP1 SWAP4 AND PUSH1 0x20 DUP6 ADD MSTORE PUSH4 0xFFFFFFFF SWAP2 DUP3 AND SWAP3 DUP5 ADD SWAP3 SWAP1 SWAP3 MSTORE AND PUSH1 0x60 DUP3 ADD MSTORE PUSH1 0x80 ADD PUSH2 0x48E JUMP JUMPDEST CALLVALUE DUP1 ISZERO PUSH2 0xFA4 JUMPI PUSH1 0x0 DUP1 REVERT JUMPDEST POP PUSH2 0x4B7 PUSH2 0xFB3 CALLDATASIZE PUSH1 0x4 PUSH2 0x556C JUMP JUMPDEST PUSH2 0x37B7 JUMP JUMPDEST CALLVALUE DUP1 ISZERO PUSH2 0xFC4 JUMPI PUSH1 0x0 DUP1 REVERT JUMPDEST POP PUSH2 0x627 PUSH2 0xFD3 CALLDATASIZE PUSH1 0x4 PUSH2 0x5670 JUMP JUMPDEST PUSH1 0x1F PUSH1 0x20 SWAP1 DUP2 MSTORE PUSH1 0x0 SWAP4 DUP5 MSTORE PUSH1 0x40 DUP1 DUP6 KECCAK256 DUP3 MSTORE SWAP3 DUP5 MSTORE DUP3 DUP5 KECCAK256 SWAP1 MSTORE DUP3 MSTORE SWAP1 KECCAK256 SLOAD PUSH1 0xFF AND DUP2 JUMP JUMPDEST CALLVALUE DUP1 ISZERO PUSH2 0x1005 JUMPI PUSH1 0x0 DUP1 REVERT JUMPDEST POP PUSH1 0x15 SLOAD PUSH2 0x627 SWAP1 PUSH1 0xFF AND DUP2 JUMP JUMPDEST CALLVALUE DUP1 ISZERO PUSH2 0x101F JUMPI PUSH1 0x0 DUP1 REVERT JUMPDEST POP PUSH2 0x4B7 PUSH2 0x102E CALLDATASIZE PUSH1 0x4 PUSH2 0x58B8 JUMP JUMPDEST PUSH2 0x3816 JUMP JUMPDEST CALLVALUE DUP1 ISZERO PUSH2 0x103F JUMPI PUSH1 0x0 DUP1 REVERT JUMPDEST POP PUSH2 0x4B7 PUSH2 0x104E CALLDATASIZE PUSH1 0x4 PUSH2 0x56A3 JUMP JUMPDEST PUSH2 0x3A6D JUMP JUMPDEST PUSH2 0x4B7 PUSH2 0x1061 CALLDATASIZE PUSH1 0x4 PUSH2 0x593F JUMP JUMPDEST PUSH2 0x3BD9 JUMP JUMPDEST CALLVALUE DUP1 ISZERO PUSH2 0x1072 JUMPI PUSH1 0x0 DUP1 REVERT JUMPDEST POP PUSH2 0x484 PUSH1 0xC SLOAD DUP2 JUMP JUMPDEST CALLVALUE DUP1 ISZERO PUSH2 0x1088 JUMPI PUSH1 0x0 DUP1 REVERT JUMPDEST POP PUSH1 0x17 SLOAD PUSH2 0x5C4 SWAP1 PUSH1 0x1 PUSH1 0x1 PUSH1 0xA0 SHL SUB AND DUP2 JUMP JUMPDEST CALLVALUE DUP1 ISZERO PUSH2 0x10A8 JUMPI PUSH1 0x0 DUP1 REVERT JUMPDEST POP PUSH2 0x4B7 PUSH2 0x10B7 CALLDATASIZE PUSH1 0x4 PUSH2 0x556C JUMP JUMPDEST PUSH2 0x3DCC JUMP JUMPDEST CALLVALUE DUP1 ISZERO PUSH2 0x10C8 JUMPI PUSH1 0x0 DUP1 REVERT JUMPDEST POP PUSH2 0x4B7 PUSH2 0x10D7 CALLDATASIZE PUSH1 0x4 PUSH2 0x59AD JUMP JUMPDEST PUSH2 0x3E7A JUMP JUMPDEST CALLVALUE DUP1 ISZERO PUSH2 0x10E8 JUMPI PUSH1 0x0 DUP1 REVERT JUMPDEST POP PUSH2 0x1163 PUSH2 0x10F7 CALLDATASIZE PUSH1 0x4 PUSH2 0x556C JUMP JUMPDEST PUSH1 0x1D PUSH1 0x20 MSTORE PUSH1 0x0 SWAP1 DUP2 MSTORE PUSH1 0x40 SWAP1 KECCAK256 DUP1 SLOAD PUSH1 0x1 DUP3 ADD SLOAD PUSH1 0x2 SWAP1 SWAP3 ADD SLOAD PUSH1 0x1 PUSH1 0x1 PUSH1 0x80 SHL SUB DUP1 DUP4 AND SWAP4 PUSH1 0x1 PUSH1 0x80 SHL SWAP4 DUP5 SWAP1 DIV DUP3 AND SWAP4 DUP2 DUP4 AND SWAP4 SWAP2 DUP2 SWAP1 DIV DUP4 AND SWAP3 DUP3 AND SWAP2 PUSH4 0xFFFFFFFF SWAP2 DUP2 DIV DUP3 AND SWAP2 PUSH1 0x1 PUSH1 0xA0 SHL DUP3 DIV DUP2 AND SWAP2 PUSH1 0x1 PUSH1 0xC0 SHL DUP2 DIV DUP3 AND SWAP2 PUSH1 0x1 PUSH1 0xE0 SHL SWAP1 SWAP2 DIV AND DUP10 JUMP JUMPDEST PUSH1 0x40 DUP1 MLOAD PUSH1 0x1 PUSH1 0x1 PUSH1 0x80 SHL SUB SWAP11 DUP12 AND DUP2 MSTORE SWAP9 DUP11 AND PUSH1 0x20 DUP11 ADD MSTORE SWAP7 DUP10 AND SWAP7 DUP9 ADD SWAP7 SWAP1 SWAP7 MSTORE SWAP4 DUP8 AND PUSH1 0x60 DUP8 ADD MSTORE SWAP2 SWAP1 SWAP6 AND PUSH1 0x80 DUP6 ADD MSTORE PUSH4 0xFFFFFFFF SWAP5 DUP6 AND PUSH1 0xA0 DUP6 ADD MSTORE DUP5 AND PUSH1 0xC0 DUP5 ADD MSTORE DUP4 AND PUSH1 0xE0 DUP4 ADD MSTORE SWAP2 SWAP1 SWAP2 AND PUSH2 0x100 DUP3 ADD MSTORE PUSH2 0x120 ADD PUSH2 0x48E JUMP JUMPDEST PUSH1 0x0 SLOAD PUSH1 0x1 PUSH1 0x1 PUSH1 0xA0 SHL SUB AND CALLER EQ PUSH2 0x11F8 JUMPI PUSH1 0x40 MLOAD PUSH3 0x461BCD PUSH1 0xE5 SHL DUP2 MSTORE PUSH1 0x4 ADD PUSH2 0x11EF SWAP1 PUSH2 0x5A96 JUMP JUMPDEST PUSH1 0x40 MLOAD DUP1 SWAP2 SUB SWAP1 REVERT JUMPDEST PUSH1 0x11 SSTORE JUMP JUMPDEST PUSH1 0x0 SLOAD PUSH1 0x1 PUSH1 0x1 PUSH1 0xA0 SHL SUB AND CALLER EQ PUSH2 0x1227 JUMPI PUSH1 0x40 MLOAD PUSH3 0x461BCD PUSH1 0xE5 SHL DUP2 MSTORE PUSH1 0x4 ADD PUSH2 0x11EF SWAP1 PUSH2 0x5A96 JUMP JUMPDEST DUP1 PUSH1 0x0 DUP2 GT PUSH2 0x1248 JUMPI PUSH1 0x40 MLOAD PUSH3 0x461BCD PUSH1 0xE5 SHL DUP2 MSTORE PUSH1 0x4 ADD PUSH2 0x11EF SWAP1 PUSH2 0x5ACD JUMP JUMPDEST POP PUSH1 0x10 SSTORE JUMP JUMPDEST PUSH1 0x0 SLOAD PUSH1 0x1 PUSH1 0x1 PUSH1 0xA0 SHL SUB AND CALLER EQ PUSH2 0x1278 JUMPI PUSH1 0x40 MLOAD PUSH3 0x461BCD PUSH1 0xE5 SHL DUP2 MSTORE PUSH1 0x4 ADD PUSH2 0x11EF SWAP1 PUSH2 0x5A96 JUMP JUMPDEST PUSH1 0x1 PUSH1 0x1 PUSH1 0xA0 SHL SUB DUP2 AND PUSH2 0x128B JUMPI PUSH1 0x0 DUP1 REVERT JUMPDEST PUSH1 0x1A DUP1 SLOAD PUSH1 0x1 PUSH1 0x1 PUSH1 0xA0 SHL SUB NOT AND PUSH1 0x1 PUSH1 0x1 PUSH1 0xA0 SHL SUB SWAP3 SWAP1 SWAP3 AND SWAP2 SWAP1 SWAP2 OR SWAP1 SSTORE JUMP JUMPDEST PUSH1 0x0 SLOAD PUSH1 0x1 PUSH1 0x1 PUSH1 0xA0 SHL SUB AND CALLER EQ PUSH2 0x12D7 JUMPI PUSH1 0x40 MLOAD PUSH3 0x461BCD PUSH1 0xE5 SHL DUP2 MSTORE PUSH1 0x4 ADD PUSH2 0x11EF SWAP1 PUSH2 0x5A96 JUMP JUMPDEST PUSH1 0x0 JUMPDEST PUSH1 0x9 DUP2 LT ISZERO PUSH2 0x1369 JUMPI PUSH2 0x1357 DUP4 DUP3 PUSH1 0x9 DUP2 LT PUSH2 0x12F8 JUMPI PUSH2 0x12F8 PUSH2 0x5D9B JUMP JUMPDEST PUSH1 0x20 MUL ADD MLOAD PUSH1 0xFF AND DUP4 DUP4 PUSH1 0x9 DUP2 LT PUSH2 0x1312 JUMPI PUSH2 0x1312 PUSH2 0x5D9B JUMP JUMPDEST PUSH1 0x20 MUL ADD MLOAD PUSH1 0xFF AND DUP7 DUP5 PUSH1 0x9 DUP2 LT PUSH2 0x132C JUMPI PUSH2 0x132C PUSH2 0x5D9B JUMP JUMPDEST PUSH1 0x20 MUL ADD MLOAD PUSH1 0xFF AND PUSH1 0x25 PUSH1 0x0 DUP7 DUP2 MSTORE PUSH1 0x20 ADD SWAP1 DUP2 MSTORE PUSH1 0x20 ADD PUSH1 0x0 KECCAK256 PUSH2 0x3ED9 SWAP1 SWAP4 SWAP3 SWAP2 SWAP1 PUSH4 0xFFFFFFFF AND JUMP JUMPDEST DUP1 PUSH2 0x1361 DUP2 PUSH2 0x5D46 JUMP JUMPDEST SWAP2 POP POP PUSH2 0x12DA JUMP JUMPDEST POP POP PUSH1 0x9 PUSH1 0xE SSTORE POP POP JUMP JUMPDEST PUSH1 0x1 PUSH1 0x1 PUSH1 0xA0 SHL SUB DUP2 AND PUSH1 0x0 SWAP1 DUP2 MSTORE PUSH1 0x1D PUSH1 0x20 MSTORE PUSH1 0x40 DUP2 KECCAK256 PUSH1 0x2 DUP2 ADD SLOAD DUP3 SWAP2 SWAP1 PUSH4 0xFFFFFFFF PUSH1 0x1 PUSH1 0xC0 SHL DUP3 DIV DUP2 AND SWAP2 PUSH1 0x1 PUSH1 0xE0 SHL SWAP1 DIV AND DUP4 DUP2 DUP1 DUP5 LT ISZERO PUSH2 0x13CD JUMPI PUSH1 0x40 MLOAD PUSH3 0x461BCD PUSH1 0xE5 SHL DUP2 MSTORE PUSH1 0x4 ADD PUSH2 0x11EF SWAP1 PUSH2 0x5ACD JUMP JUMPDEST DUP3 DUP5 GT ISZERO PUSH2 0x1443 JUMPI DUP3 JUMPDEST DUP5 DUP2 LT ISZERO PUSH2 0x1441 JUMPI PUSH1 0x1 PUSH1 0x1 PUSH1 0xA0 SHL SUB DUP10 AND PUSH1 0x0 SWAP1 DUP2 MSTORE PUSH1 0x1C PUSH1 0x20 SWAP1 DUP2 MSTORE PUSH1 0x40 DUP1 DUP4 KECCAK256 DUP5 DUP5 MSTORE SWAP1 SWAP2 MSTORE SWAP1 KECCAK256 DUP1 SLOAD PUSH2 0x141E SWAP1 PUSH1 0x1 PUSH1 0x80 SHL SWAP1 DIV PUSH1 0x1 PUSH1 0x1 PUSH1 0x80 SHL SUB AND DUP6 PUSH2 0x5BA3 JUMP JUMPDEST SWAP4 POP PUSH2 0x142B DUP3 PUSH1 0x1 PUSH2 0x5BA3 JUMP JUMPDEST SWAP3 POP POP DUP1 DUP1 PUSH2 0x1439 SWAP1 PUSH2 0x5D46 JUMP JUMPDEST SWAP2 POP POP PUSH2 0x13D7 JUMP JUMPDEST POP JUMPDEST SWAP1 SWAP8 SWAP1 SWAP7 POP SWAP5 POP POP POP POP POP JUMP JUMPDEST PUSH1 0x0 SLOAD PUSH1 0x1 PUSH1 0x1 PUSH1 0xA0 SHL SUB AND CALLER EQ PUSH2 0x147A JUMPI PUSH1 0x40 MLOAD PUSH3 0x461BCD PUSH1 0xE5 SHL DUP2 MSTORE PUSH1 0x4 ADD PUSH2 0x11EF SWAP1 PUSH2 0x5A96 JUMP JUMPDEST PUSH1 0x5 SSTORE JUMP JUMPDEST PUSH1 0x0 SLOAD PUSH1 0x1 PUSH1 0x1 PUSH1 0xA0 SHL SUB AND CALLER EQ PUSH2 0x14A9 JUMPI PUSH1 0x40 MLOAD PUSH3 0x461BCD PUSH1 0xE5 SHL DUP2 MSTORE PUSH1 0x4 ADD PUSH2 0x11EF SWAP1 PUSH2 0x5A96 JUMP JUMPDEST PUSH1 0x2 PUSH1 0x1 SLOAD EQ ISZERO PUSH2 0x14CC JUMPI PUSH1 0x40 MLOAD PUSH3 0x461BCD PUSH1 0xE5 SHL DUP2 MSTORE PUSH1 0x4 ADD PUSH2 0x11EF SWAP1 PUSH2 0x5AEE JUMP JUMPDEST PUSH1 0x2 PUSH1 0x1 SSTORE DUP2 MLOAD DUP4 MLOAD EQ PUSH2 0x1514 JUMPI PUSH1 0x40 MLOAD PUSH3 0x461BCD PUSH1 0xE5 SHL DUP2 MSTORE PUSH1 0x20 PUSH1 0x4 DUP3 ADD MSTORE PUSH1 0xF PUSH1 0x24 DUP3 ADD MSTORE PUSH15 0x98CADCCEE8D040DAD2E6DAC2E8C6D PUSH1 0x8B SHL PUSH1 0x44 DUP3 ADD MSTORE PUSH1 0x64 ADD PUSH2 0x11EF JUMP JUMPDEST PUSH1 0x0 JUMPDEST DUP4 MLOAD DUP2 LT ISZERO PUSH2 0x1A9A JUMPI PUSH1 0x1E PUSH1 0x0 DUP5 DUP4 DUP2 MLOAD DUP2 LT PUSH2 0x1536 JUMPI PUSH2 0x1536 PUSH2 0x5D9B JUMP JUMPDEST PUSH1 0x20 MUL PUSH1 0x20 ADD ADD MLOAD PUSH1 0x1 PUSH1 0x1 PUSH1 0xA0 SHL SUB AND PUSH1 0x1 PUSH1 0x1 PUSH1 0xA0 SHL SUB AND DUP2 MSTORE PUSH1 0x20 ADD SWAP1 DUP2 MSTORE PUSH1 0x20 ADD PUSH1 0x0 KECCAK256 SLOAD DUP5 DUP3 DUP2 MLOAD DUP2 LT PUSH2 0x1571 JUMPI PUSH2 0x1571 PUSH2 0x5D9B JUMP JUMPDEST PUSH1 0x20 MUL PUSH1 0x20 ADD ADD MLOAD LT PUSH2 0x1596 JUMPI PUSH1 0x40 MLOAD PUSH3 0x461BCD PUSH1 0xE5 SHL DUP2 MSTORE PUSH1 0x4 ADD PUSH2 0x11EF SWAP1 PUSH2 0x5ACD JUMP JUMPDEST PUSH1 0x0 PUSH1 0x22 PUSH1 0x0 DUP6 DUP5 DUP2 MLOAD DUP2 LT PUSH2 0x15AE JUMPI PUSH2 0x15AE PUSH2 0x5D9B JUMP JUMPDEST PUSH1 0x20 MUL PUSH1 0x20 ADD ADD MLOAD PUSH1 0x1 PUSH1 0x1 PUSH1 0xA0 SHL SUB AND PUSH1 0x1 PUSH1 0x1 PUSH1 0xA0 SHL SUB AND DUP2 MSTORE PUSH1 0x20 ADD SWAP1 DUP2 MSTORE PUSH1 0x20 ADD PUSH1 0x0 KECCAK256 PUSH1 0x0 DUP7 DUP5 DUP2 MLOAD DUP2 LT PUSH2 0x15EA JUMPI PUSH2 0x15EA PUSH2 0x5D9B JUMP JUMPDEST PUSH1 0x20 MUL PUSH1 0x20 ADD ADD MLOAD DUP2 MSTORE PUSH1 0x20 ADD SWAP1 DUP2 MSTORE PUSH1 0x20 ADD PUSH1 0x0 KECCAK256 SWAP1 POP PUSH1 0x0 PUSH1 0x23 PUSH1 0x0 DUP7 DUP6 DUP2 MLOAD DUP2 LT PUSH2 0x161A JUMPI PUSH2 0x161A PUSH2 0x5D9B JUMP JUMPDEST PUSH1 0x20 MUL PUSH1 0x20 ADD ADD MLOAD PUSH1 0x1 PUSH1 0x1 PUSH1 0xA0 SHL SUB AND PUSH1 0x1 PUSH1 0x1 PUSH1 0xA0 SHL SUB AND DUP2 MSTORE PUSH1 0x20 ADD SWAP1 DUP2 MSTORE PUSH1 0x20 ADD PUSH1 0x0 KECCAK256 PUSH1 0x0 DUP8 DUP6 DUP2 MLOAD DUP2 LT PUSH2 0x1656 JUMPI PUSH2 0x1656 PUSH2 0x5D9B JUMP JUMPDEST PUSH1 0x20 SWAP1 DUP2 MUL SWAP2 SWAP1 SWAP2 ADD DUP2 ADD MLOAD DUP3 MSTORE DUP2 ADD SWAP2 SWAP1 SWAP2 MSTORE PUSH1 0x40 ADD PUSH1 0x0 KECCAK256 DUP3 SLOAD SWAP1 SWAP2 POP PUSH1 0x1 PUSH1 0x80 SHL SWAP1 DIV PUSH1 0x1 PUSH1 0x1 PUSH1 0x78 SHL SUB AND ISZERO PUSH2 0x16C5 JUMPI PUSH1 0x40 MLOAD PUSH3 0x461BCD PUSH1 0xE5 SHL DUP2 MSTORE PUSH1 0x20 PUSH1 0x4 DUP3 ADD MSTORE PUSH1 0x10 PUSH1 0x24 DUP3 ADD MSTORE PUSH16 0x105B1C9958591E481C995CDBDB1D9959 PUSH1 0x82 SHL PUSH1 0x44 DUP3 ADD MSTORE PUSH1 0x64 ADD PUSH2 0x11EF JUMP JUMPDEST DUP4 ISZERO PUSH2 0x173F JUMPI DUP1 SLOAD PUSH1 0x1 PUSH1 0xD0 SHL SWAP1 DIV PUSH4 0xFFFFFFFF AND TIMESTAMP GT DUP1 ISZERO PUSH2 0x1703 JUMPI POP PUSH1 0x11 SLOAD DUP2 SLOAD PUSH2 0x16FF SWAP2 SWAP1 PUSH1 0x1 PUSH1 0xD0 SHL SWAP1 DIV PUSH4 0xFFFFFFFF AND PUSH2 0x5BA3 JUMP JUMPDEST TIMESTAMP GT ISZERO JUMPDEST PUSH2 0x173F JUMPI PUSH1 0x40 MLOAD PUSH3 0x461BCD PUSH1 0xE5 SHL DUP2 MSTORE PUSH1 0x20 PUSH1 0x4 DUP3 ADD MSTORE PUSH1 0xD PUSH1 0x24 DUP3 ADD MSTORE PUSH13 0x22B7322A34B6B29032B93937B9 PUSH1 0x99 SHL PUSH1 0x44 DUP3 ADD MSTORE PUSH1 0x64 ADD PUSH2 0x11EF JUMP JUMPDEST PUSH1 0x1A SLOAD PUSH1 0x3 DUP4 ADD SLOAD PUSH1 0x40 MLOAD PUSH4 0x5620C32D PUSH1 0xE1 SHL DUP2 MSTORE PUSH1 0x1 PUSH1 0x1 PUSH1 0xA0 SHL SUB SWAP2 DUP3 AND PUSH1 0x4 DUP3 ADD MSTORE PUSH1 0x0 PUSH1 0x24 DUP3 ADD DUP2 SWAP1 MSTORE SWAP3 SWAP2 SWAP1 SWAP2 AND SWAP1 PUSH4 0xAC41865A SWAP1 PUSH1 0x44 ADD PUSH1 0x20 PUSH1 0x40 MLOAD DUP1 DUP4 SUB DUP2 DUP7 DUP1 EXTCODESIZE ISZERO DUP1 ISZERO PUSH2 0x1794 JUMPI PUSH1 0x0 DUP1 REVERT JUMPDEST POP GAS STATICCALL ISZERO DUP1 ISZERO PUSH2 0x17A8 JUMPI RETURNDATASIZE PUSH1 0x0 DUP1 RETURNDATACOPY RETURNDATASIZE PUSH1 0x0 REVERT JUMPDEST POP POP POP POP PUSH1 0x40 MLOAD RETURNDATASIZE PUSH1 0x1F NOT PUSH1 0x1F DUP3 ADD AND DUP3 ADD DUP1 PUSH1 0x40 MSTORE POP DUP2 ADD SWAP1 PUSH2 0x17CC SWAP2 SWAP1 PUSH2 0x584D JUMP JUMPDEST DUP3 SLOAD SWAP1 SWAP2 POP PUSH1 0x0 SWAP1 PUSH2 0x17F2 SWAP1 DUP6 SWAP1 DUP5 SWAP1 PUSH4 0xFFFFFFFF PUSH1 0x1 PUSH1 0x60 SHL SWAP1 SWAP2 DIV DUP2 AND SWAP1 PUSH2 0x3FA8 AND JUMP JUMPDEST PUSH1 0x1 PUSH1 0x1 PUSH1 0x78 SHL SUB AND SWAP1 POP DUP1 PUSH1 0x2 EQ DUP1 PUSH2 0x180C JUMPI POP DUP1 PUSH1 0x1 EQ JUMPDEST ISZERO PUSH2 0x19A9 JUMPI DUP4 SLOAD PUSH1 0x1 DUP6 ADD SLOAD DUP5 SLOAD PUSH1 0x0 SWAP3 PUSH1 0x1 PUSH1 0x1 PUSH1 0x80 SHL SUB AND SWAP2 PUSH1 0x1 PUSH1 0x60 SHL SWAP1 DIV PUSH1 0x1 PUSH1 0x1 PUSH1 0x60 SHL SUB AND SWAP1 PUSH1 0x1 PUSH1 0x1 PUSH1 0x40 SHL SUB AND DUP2 ISZERO DUP1 ISZERO SWAP1 PUSH2 0x1863 JUMPI POP PUSH1 0x17 SLOAD PUSH1 0x2 DUP10 ADD SLOAD PUSH1 0x1 PUSH1 0x1 PUSH1 0xA0 SHL SUB SWAP1 DUP2 AND SWAP2 AND EQ ISZERO JUMPDEST ISZERO PUSH2 0x1957 JUMPI PUSH1 0x2 DUP9 ADD SLOAD PUSH1 0x1 PUSH1 0x1 PUSH1 0xA0 SHL SUB AND PUSH1 0x1 EQ ISZERO PUSH2 0x18AE JUMPI PUSH9 0x56BC75E2D63100000 DUP2 PUSH2 0x1893 DUP5 DUP7 PUSH2 0x5CCB JUMP JUMPDEST PUSH2 0x189D SWAP2 SWAP1 PUSH2 0x5CCB JUMP JUMPDEST PUSH2 0x18A7 SWAP2 SWAP1 PUSH2 0x5BBB JUMP JUMPDEST SWAP4 POP PUSH2 0x1970 JUMP JUMPDEST DUP8 PUSH1 0x2 ADD PUSH1 0x0 SWAP1 SLOAD SWAP1 PUSH2 0x100 EXP SWAP1 DIV PUSH1 0x1 PUSH1 0x1 PUSH1 0xA0 SHL SUB AND PUSH1 0x1 PUSH1 0x1 PUSH1 0xA0 SHL SUB AND PUSH4 0x313CE567 PUSH1 0x40 MLOAD DUP2 PUSH4 0xFFFFFFFF AND PUSH1 0xE0 SHL DUP2 MSTORE PUSH1 0x4 ADD PUSH1 0x20 PUSH1 0x40 MLOAD DUP1 DUP4 SUB DUP2 DUP7 DUP1 EXTCODESIZE ISZERO DUP1 ISZERO PUSH2 0x18FE JUMPI PUSH1 0x0 DUP1 REVERT JUMPDEST POP GAS STATICCALL ISZERO DUP1 ISZERO PUSH2 0x1912 JUMPI RETURNDATASIZE PUSH1 0x0 DUP1 RETURNDATACOPY RETURNDATASIZE PUSH1 0x0 REVERT JUMPDEST POP POP POP POP PUSH1 0x40 MLOAD RETURNDATASIZE PUSH1 0x1F NOT PUSH1 0x1F DUP3 ADD AND DUP3 ADD DUP1 PUSH1 0x40 MSTORE POP DUP2 ADD SWAP1 PUSH2 0x1936 SWAP2 SWAP1 PUSH2 0x5A0F JUMP JUMPDEST PUSH2 0x1941 SWAP1 PUSH1 0xA PUSH2 0x5C20 JUMP JUMPDEST PUSH2 0x194C SWAP1 PUSH1 0x64 PUSH2 0x5CCB JUMP JUMPDEST DUP2 PUSH2 0x1893 DUP5 DUP7 PUSH2 0x5CCB JUMP JUMPDEST PUSH1 0x64 PUSH2 0x1963 DUP3 DUP6 PUSH2 0x5CCB JUMP JUMPDEST PUSH2 0x196D SWAP2 SWAP1 PUSH2 0x5BBB JUMP JUMPDEST SWAP4 POP JUMPDEST PUSH1 0x4 SLOAD PUSH1 0xD SLOAD PUSH1 0x0 SWAP1 DUP2 MSTORE PUSH1 0x24 PUSH1 0x20 MSTORE PUSH1 0x40 SWAP1 KECCAK256 PUSH2 0x198F SWAP2 DUP7 DUP9 PUSH2 0x4099 JUMP JUMPDEST PUSH1 0xD DUP1 SLOAD SWAP1 PUSH1 0x0 PUSH2 0x199F DUP4 PUSH2 0x5D46 JUMP JUMPDEST SWAP2 SWAP1 POP SSTORE POP POP POP POP POP JUMPDEST PUSH1 0x0 PUSH1 0x21 PUSH1 0x0 DUP10 DUP9 DUP2 MLOAD DUP2 LT PUSH2 0x19C1 JUMPI PUSH2 0x19C1 PUSH2 0x5D9B JUMP JUMPDEST PUSH1 0x20 SWAP1 DUP2 MUL SWAP2 SWAP1 SWAP2 ADD DUP2 ADD MLOAD PUSH1 0x1 PUSH1 0x1 PUSH1 0xA0 SHL SUB SWAP1 DUP2 AND DUP4 MSTORE DUP3 DUP3 ADD SWAP4 SWAP1 SWAP4 MSTORE PUSH1 0x40 SWAP2 DUP3 ADD PUSH1 0x0 SWAP1 DUP2 KECCAK256 PUSH1 0x3 DUP11 ADD SLOAD SWAP1 SWAP5 AND DUP2 MSTORE SWAP3 SWAP1 MSTORE SWAP1 KECCAK256 DUP1 SLOAD PUSH1 0xFF NOT AND SWAP2 ISZERO ISZERO SWAP2 SWAP1 SWAP2 OR SWAP1 SSTORE DUP8 MLOAD DUP2 SWAP1 DUP10 SWAP1 DUP8 SWAP1 DUP2 LT PUSH2 0x1A1F JUMPI PUSH2 0x1A1F PUSH2 0x5D9B JUMP JUMPDEST PUSH1 0x20 MUL PUSH1 0x20 ADD ADD MLOAD DUP9 DUP8 DUP2 MLOAD DUP2 LT PUSH2 0x1A39 JUMPI PUSH2 0x1A39 PUSH2 0x5D9B JUMP JUMPDEST PUSH1 0x20 MUL PUSH1 0x20 ADD ADD MLOAD PUSH1 0x1 PUSH1 0x1 PUSH1 0xA0 SHL SUB AND PUSH32 0x80F0D02BC787182862EBB4CC01D73C2F450CE15DAF1FA4A2CA88C03257019428 TIMESTAMP PUSH1 0x40 MLOAD PUSH2 0x1A7B SWAP2 DUP2 MSTORE PUSH1 0x20 ADD SWAP1 JUMP JUMPDEST PUSH1 0x40 MLOAD DUP1 SWAP2 SUB SWAP1 LOG4 POP POP POP POP DUP1 DUP1 PUSH2 0x1A92 SWAP1 PUSH2 0x5D46 JUMP JUMPDEST SWAP2 POP POP PUSH2 0x1517 JUMP JUMPDEST POP POP PUSH1 0x1 DUP1 SSTORE POP POP JUMP JUMPDEST PUSH1 0x2 PUSH1 0x1 SLOAD EQ ISZERO PUSH2 0x1AC7 JUMPI PUSH1 0x40 MLOAD PUSH3 0x461BCD PUSH1 0xE5 SHL DUP2 MSTORE PUSH1 0x4 ADD PUSH2 0x11EF SWAP1 PUSH2 0x5AEE JUMP JUMPDEST PUSH1 0x2 PUSH1 0x1 DUP2 DUP2 SSTORE CALLER PUSH1 0x0 SWAP1 DUP2 MSTORE PUSH1 0x1D PUSH1 0x20 MSTORE PUSH1 0x40 SWAP1 KECCAK256 SWAP2 DUP3 ADD SLOAD SWAP1 DUP3 ADD SLOAD PUSH1 0x1 PUSH1 0x1 PUSH1 0x80 SHL SUB SWAP2 DUP3 AND PUSH1 0x1 PUSH1 0x80 SHL SWAP1 SWAP2 DIV SWAP1 SWAP2 AND GT PUSH2 0x1B35 JUMPI PUSH1 0x40 MLOAD PUSH3 0x461BCD PUSH1 0xE5 SHL DUP2 MSTORE PUSH1 0x20 PUSH1 0x4 DUP3 ADD MSTORE PUSH1 0xA PUSH1 0x24 DUP3 ADD MSTORE PUSH10 0x4E6F2072657761726473 PUSH1 0xB0 SHL PUSH1 0x44 DUP3 ADD MSTORE PUSH1 0x64 ADD PUSH2 0x11EF JUMP JUMPDEST PUSH1 0x2 DUP2 ADD SLOAD PUSH1 0x1 DUP3 ADD SLOAD PUSH1 0x0 SWAP2 PUSH2 0x1B60 SWAP2 PUSH1 0x1 PUSH1 0x1 PUSH1 0x80 SHL SUB SWAP2 DUP3 AND SWAP2 PUSH1 0x1 PUSH1 0x80 SHL SWAP1 SWAP2 DIV AND PUSH2 0x5CEA JUMP JUMPDEST PUSH1 0x1 DUP4 ADD DUP1 SLOAD PUSH1 0x1 PUSH1 0x1 PUSH1 0x80 SHL SUB SWAP1 DUP2 AND SWAP1 SWAP2 SSTORE PUSH1 0x2 DUP5 ADD DUP1 SLOAD PUSH1 0x1 PUSH1 0x1 PUSH1 0x80 SHL SUB NOT AND SWAP1 SSTORE PUSH1 0x17 SLOAD SWAP2 AND SWAP2 POP PUSH2 0x1BA2 SWAP1 PUSH1 0x1 PUSH1 0x1 PUSH1 0xA0 SHL SUB AND CALLER JUMPDEST DUP4 PUSH2 0x40F8 JUMP JUMPDEST POP POP PUSH1 0x1 DUP1 SSTORE JUMP JUMPDEST PUSH1 0x1 PUSH1 0x1 PUSH1 0xA0 SHL SUB DUP4 AND PUSH1 0x0 SWAP1 DUP2 MSTORE PUSH1 0x1F PUSH1 0x20 SWAP1 DUP2 MSTORE PUSH1 0x40 DUP1 DUP4 KECCAK256 DUP6 DUP5 MSTORE DUP3 MSTORE DUP1 DUP4 KECCAK256 DUP5 DUP5 MSTORE SWAP1 SWAP2 MSTORE SWAP1 KECCAK256 SLOAD PUSH1 0xFF AND JUMPDEST SWAP4 SWAP3 POP POP POP JUMP JUMPDEST PUSH1 0x1 PUSH1 0x1 PUSH1 0xA0 SHL SUB DUP2 AND PUSH1 0x0 SWAP1 DUP2 MSTORE PUSH1 0x1B PUSH1 0x20 SWAP1 DUP2 MSTORE PUSH1 0x40 DUP1 DUP4 KECCAK256 SLOAD PUSH1 0x1E SWAP1 SWAP3 MSTORE DUP3 KECCAK256 SLOAD ISZERO DUP1 PUSH2 0x1C28 JUMPI POP PUSH1 0x1 PUSH1 0x1 PUSH1 0xA0 SHL SUB DUP4 AND PUSH1 0x0 SWAP1 DUP2 MSTORE PUSH1 0x1E PUSH1 0x20 MSTORE PUSH1 0x40 SWAP1 KECCAK256 SLOAD DUP2 EQ JUMPDEST ISZERO PUSH2 0x1C36 JUMPI POP PUSH1 0x0 SWAP3 SWAP2 POP POP JUMP JUMPDEST PUSH1 0x1 PUSH1 0x1 PUSH1 0xA0 SHL SUB DUP4 AND PUSH1 0x0 SWAP1 DUP2 MSTORE PUSH1 0x1E PUSH1 0x20 MSTORE PUSH1 0x40 SWAP1 KECCAK256 SLOAD DUP2 LT PUSH2 0x1C8A JUMPI PUSH1 0x40 MLOAD PUSH3 0x461BCD PUSH1 0xE5 SHL DUP2 MSTORE PUSH1 0x20 PUSH1 0x4 DUP3 ADD MSTORE PUSH1 0xA PUSH1 0x24 DUP3 ADD MSTORE PUSH10 0x139BC81B995DC818995D PUSH1 0xB2 SHL PUSH1 0x44 DUP3 ADD MSTORE PUSH1 0x64 ADD PUSH2 0x11EF JUMP JUMPDEST PUSH1 0x0 DUP2 JUMPDEST PUSH1 0x1 PUSH1 0x1 PUSH1 0xA0 SHL SUB DUP6 AND PUSH1 0x0 SWAP1 DUP2 MSTORE PUSH1 0x1E PUSH1 0x20 MSTORE PUSH1 0x40 SWAP1 KECCAK256 SLOAD DUP2 LT ISZERO PUSH2 0x1EDE JUMPI PUSH1 0x1 PUSH1 0x1 PUSH1 0xA0 SHL SUB DUP6 AND PUSH1 0x0 DUP2 DUP2 MSTORE PUSH1 0x22 PUSH1 0x20 SWAP1 DUP2 MSTORE PUSH1 0x40 DUP1 DUP4 KECCAK256 DUP6 DUP5 MSTORE DUP3 MSTORE DUP1 DUP4 KECCAK256 SWAP4 DUP4 MSTORE PUSH1 0x23 DUP3 MSTORE DUP1 DUP4 KECCAK256 DUP6 DUP5 MSTORE SWAP1 SWAP2 MSTORE SWAP1 KECCAK256 DUP1 SLOAD PUSH1 0x1 PUSH1 0xF8 SHL SWAP1 DIV PUSH1 0xFF AND ISZERO DUP1 ISZERO PUSH2 0x1D09 JUMPI POP DUP1 SLOAD PUSH1 0x1 PUSH1 0xD0 SHL SWAP1 DIV PUSH4 0xFFFFFFFF AND TIMESTAMP GT JUMPDEST ISZERO PUSH2 0x1EC9 JUMPI DUP2 SLOAD DUP2 SLOAD PUSH1 0x1 PUSH1 0x1 PUSH1 0x80 SHL SUB DUP3 AND SWAP2 PUSH1 0x1 PUSH1 0x1 PUSH1 0x40 SHL SUB SWAP1 SWAP2 AND SWAP1 PUSH1 0x1 PUSH1 0x1 PUSH1 0x78 SHL SUB PUSH1 0x1 PUSH1 0x80 SHL SWAP1 SWAP2 DIV AND PUSH1 0x1 EQ ISZERO PUSH2 0x1EC6 JUMPI PUSH1 0x17 SLOAD PUSH1 0x2 DUP6 ADD SLOAD PUSH1 0x1 PUSH1 0x1 PUSH1 0xA0 SHL SUB SWAP1 DUP2 AND SWAP2 AND EQ DUP1 ISZERO SWAP1 PUSH2 0x1D78 JUMPI POP PUSH1 0x1 DUP5 ADD SLOAD PUSH1 0x1 PUSH1 0x60 SHL SWAP1 DIV PUSH1 0x1 PUSH1 0x1 PUSH1 0x60 SHL SUB AND ISZERO ISZERO JUMPDEST ISZERO PUSH2 0x1EA3 JUMPI PUSH1 0x2 DUP5 ADD SLOAD PUSH1 0x1 PUSH1 0x1 PUSH1 0xA0 SHL SUB AND PUSH1 0x1 EQ ISZERO PUSH2 0x1DE4 JUMPI PUSH1 0x1 DUP5 ADD SLOAD PUSH9 0x56BC75E2D63100000 SWAP1 DUP3 SWAP1 PUSH2 0x1DBF SWAP1 PUSH1 0x1 PUSH1 0x60 SHL SWAP1 DIV PUSH1 0x1 PUSH1 0x1 PUSH1 0x60 SHL SUB AND DUP6 PUSH2 0x5CCB JUMP JUMPDEST PUSH2 0x1DC9 SWAP2 SWAP1 PUSH2 0x5CCB JUMP JUMPDEST PUSH2 0x1DD3 SWAP2 SWAP1 PUSH2 0x5BBB JUMP JUMPDEST PUSH2 0x1DDD SWAP1 DUP8 PUSH2 0x5BA3 JUMP JUMPDEST SWAP6 POP PUSH2 0x1EC6 JUMP JUMPDEST DUP4 PUSH1 0x2 ADD PUSH1 0x0 SWAP1 SLOAD SWAP1 PUSH2 0x100 EXP SWAP1 DIV PUSH1 0x1 PUSH1 0x1 PUSH1 0xA0 SHL SUB AND PUSH1 0x1 PUSH1 0x1 PUSH1 0xA0 SHL SUB AND PUSH4 0x313CE567 PUSH1 0x40 MLOAD DUP2 PUSH4 0xFFFFFFFF AND PUSH1 0xE0 SHL DUP2 MSTORE PUSH1 0x4 ADD PUSH1 0x20 PUSH1 0x40 MLOAD DUP1 DUP4 SUB DUP2 DUP7 DUP1 EXTCODESIZE ISZERO DUP1 ISZERO PUSH2 0x1E34 JUMPI PUSH1 0x0 DUP1 REVERT JUMPDEST POP GAS STATICCALL ISZERO DUP1 ISZERO PUSH2 0x1E48 JUMPI RETURNDATASIZE PUSH1 0x0 DUP1 RETURNDATACOPY RETURNDATASIZE PUSH1 0x0 REVERT JUMPDEST POP POP POP POP PUSH1 0x40 MLOAD RETURNDATASIZE PUSH1 0x1F NOT PUSH1 0x1F DUP3 ADD AND DUP3 ADD DUP1 PUSH1 0x40 MSTORE POP DUP2 ADD SWAP1 PUSH2 0x1E6C SWAP2 SWAP1 PUSH2 0x5A0F JUMP JUMPDEST PUSH2 0x1E77 SWAP1 PUSH1 0xA PUSH2 0x5C20 JUMP JUMPDEST PUSH2 0x1E82 SWAP1 PUSH1 0x64 PUSH2 0x5CCB JUMP JUMPDEST PUSH1 0x1 DUP6 ADD SLOAD DUP3 SWAP1 PUSH2 0x1DBF SWAP1 PUSH1 0x1 PUSH1 0x60 SHL SWAP1 DIV PUSH1 0x1 PUSH1 0x1 PUSH1 0x60 SHL SUB AND DUP6 PUSH2 0x5CCB JUMP JUMPDEST PUSH1 0x64 PUSH2 0x1EAF DUP3 DUP5 PUSH2 0x5CCB JUMP JUMPDEST PUSH2 0x1EB9 SWAP2 SWAP1 PUSH2 0x5BBB JUMP JUMPDEST PUSH2 0x1EC3 SWAP1 DUP8 PUSH2 0x5BA3 JUMP JUMPDEST SWAP6 POP JUMPDEST POP POP JUMPDEST POP POP DUP1 DUP1 PUSH2 0x1ED6 SWAP1 PUSH2 0x5D46 JUMP JUMPDEST SWAP2 POP POP PUSH2 0x1C8E JUMP JUMPDEST POP SWAP4 SWAP3 POP POP POP JUMP JUMPDEST PUSH1 0x0 SLOAD PUSH1 0x1 PUSH1 0x1 PUSH1 0xA0 SHL SUB AND CALLER EQ PUSH2 0x1F10 JUMPI PUSH1 0x40 MLOAD PUSH3 0x461BCD PUSH1 0xE5 SHL DUP2 MSTORE PUSH1 0x4 ADD PUSH2 0x11EF SWAP1 PUSH2 0x5A96 JUMP JUMPDEST DUP1 PUSH1 0x0 DUP2 GT PUSH2 0x1F31 JUMPI PUSH1 0x40 MLOAD PUSH3 0x461BCD PUSH1 0xE5 SHL DUP2 MSTORE PUSH1 0x4 ADD PUSH2 0x11EF SWAP1 PUSH2 0x5ACD JUMP JUMPDEST POP PUSH1 0x9 SSTORE JUMP JUMPDEST DUP3 DUP5 PUSH1 0x1 DUP5 PUSH1 0x1 PUSH1 0x1 PUSH1 0xA0 SHL SUB DUP2 AND PUSH2 0x1F62 JUMPI PUSH1 0x40 MLOAD PUSH3 0x461BCD PUSH1 0xE5 SHL DUP2 MSTORE PUSH1 0x4 ADD PUSH2 0x11EF SWAP1 PUSH2 0x5ACD JUMP JUMPDEST PUSH1 0x15 SLOAD PUSH1 0xFF AND PUSH2 0x1FC0 JUMPI PUSH1 0x17 SLOAD PUSH1 0x1 PUSH1 0x1 PUSH1 0xA0 SHL SUB DUP3 DUP2 AND SWAP2 AND EQ PUSH2 0x1FC0 JUMPI PUSH1 0x40 MLOAD PUSH3 0x461BCD PUSH1 0xE5 SHL DUP2 MSTORE PUSH1 0x20 PUSH1 0x4 DUP3 ADD MSTORE PUSH1 0x14 PUSH1 0x24 DUP3 ADD MSTORE PUSH20 0x4D756C746920746F6B656E20696E616374697665 PUSH1 0x60 SHL PUSH1 0x44 DUP3 ADD MSTORE PUSH1 0x64 ADD PUSH2 0x11EF JUMP JUMPDEST PUSH1 0x1 PUSH1 0x1 PUSH1 0xA0 SHL SUB DUP5 AND PUSH1 0x0 SWAP1 DUP2 MSTORE PUSH1 0x1F PUSH1 0x20 SWAP1 DUP2 MSTORE PUSH1 0x40 DUP1 DUP4 KECCAK256 DUP7 DUP5 MSTORE DUP3 MSTORE DUP1 DUP4 KECCAK256 DUP6 DUP5 MSTORE SWAP1 SWAP2 MSTORE SWAP1 KECCAK256 SLOAD PUSH1 0xFF AND PUSH2 0x2028 JUMPI PUSH1 0x40 MLOAD PUSH3 0x461BCD PUSH1 0xE5 SHL DUP2 MSTORE PUSH1 0x20 PUSH1 0x4 DUP3 ADD MSTORE PUSH1 0xA PUSH1 0x24 DUP3 ADD MSTORE PUSH10 0x4E6F7420616374697665 PUSH1 0xB0 SHL PUSH1 0x44 DUP3 ADD MSTORE PUSH1 0x64 ADD PUSH2 0x11EF JUMP JUMPDEST CALLER PUSH1 0x0 SWAP1 DUP2 MSTORE PUSH1 0x21 PUSH1 0x20 SWAP1 DUP2 MSTORE PUSH1 0x40 DUP1 DUP4 KECCAK256 PUSH1 0x1 PUSH1 0x1 PUSH1 0xA0 SHL SUB DUP9 AND DUP5 MSTORE SWAP1 SWAP2 MSTORE SWAP1 KECCAK256 SLOAD PUSH1 0xFF AND ISZERO PUSH2 0x2091 JUMPI PUSH1 0x40 MLOAD PUSH3 0x461BCD PUSH1 0xE5 SHL DUP2 MSTORE PUSH1 0x20 PUSH1 0x4 DUP3 ADD MSTORE PUSH1 0x12 PUSH1 0x24 DUP3 ADD MSTORE PUSH18 0x42657420616C726561647920616374697665 PUSH1 0x70 SHL PUSH1 0x44 DUP3 ADD MSTORE PUSH1 0x64 ADD PUSH2 0x11EF JUMP JUMPDEST PUSH1 0x2 PUSH1 0x1 SLOAD EQ ISZERO PUSH2 0x20B4 JUMPI PUSH1 0x40 MLOAD PUSH3 0x461BCD PUSH1 0xE5 SHL DUP2 MSTORE PUSH1 0x4 ADD PUSH2 0x11EF SWAP1 PUSH2 0x5AEE JUMP JUMPDEST PUSH1 0x2 PUSH1 0x1 SSTORE PUSH2 0x20C6 CALLER DUP11 DUP10 DUP10 DUP10 PUSH2 0x4213 JUMP JUMPDEST PUSH2 0x20FD CALLER PUSH1 0x0 DUP1 DUP1 MSTORE PUSH1 0x26 PUSH1 0x20 MSTORE PUSH32 0x673668FDE1539921A3231470503848F53FC614C057A2345BC3A2F36758A6D3AC SLOAD PUSH1 0x1 PUSH2 0x4964 JUMP JUMPDEST POP POP PUSH1 0x1 DUP1 SSTORE POP POP POP POP POP POP POP JUMP JUMPDEST PUSH1 0x2 PUSH1 0x1 SLOAD EQ ISZERO PUSH2 0x212F JUMPI PUSH1 0x40 MLOAD PUSH3 0x461BCD PUSH1 0xE5 SHL DUP2 MSTORE PUSH1 0x4 ADD PUSH2 0x11EF SWAP1 PUSH2 0x5AEE JUMP JUMPDEST PUSH1 0x2 PUSH1 0x1 SSTORE CALLER PUSH1 0x0 SWAP1 DUP2 MSTORE PUSH1 0x1E PUSH1 0x20 MSTORE PUSH1 0x40 SWAP1 KECCAK256 SLOAD DUP2 LT PUSH2 0x2162 JUMPI PUSH1 0x40 MLOAD PUSH3 0x461BCD PUSH1 0xE5 SHL DUP2 MSTORE PUSH1 0x4 ADD PUSH2 0x11EF SWAP1 PUSH2 0x5ACD JUMP JUMPDEST CALLER PUSH1 0x0 DUP2 DUP2 MSTORE PUSH1 0x22 PUSH1 0x20 SWAP1 DUP2 MSTORE PUSH1 0x40 DUP1 DUP4 KECCAK256 DUP6 DUP5 MSTORE DUP3 MSTORE DUP1 DUP4 KECCAK256 SWAP4 DUP4 MSTORE PUSH1 0x23 DUP3 MSTORE DUP1 DUP4 KECCAK256 DUP6 DUP5 MSTORE SWAP1 SWAP2 MSTORE SWAP1 KECCAK256 DUP1 SLOAD PUSH1 0x1 PUSH1 0xF8 SHL SWAP1 DIV PUSH1 0xFF AND ISZERO DUP1 ISZERO PUSH2 0x21B5 JUMPI POP DUP1 SLOAD TIMESTAMP PUSH1 0x1 PUSH1 0xD0 SHL SWAP1 SWAP2 DIV PUSH4 0xFFFFFFFF AND GT JUMPDEST PUSH2 0x21EB JUMPI PUSH1 0x40 MLOAD PUSH3 0x461BCD PUSH1 0xE5 SHL DUP2 MSTORE PUSH1 0x20 PUSH1 0x4 DUP3 ADD MSTORE PUSH1 0x7 PUSH1 0x24 DUP3 ADD MSTORE PUSH7 0x456E6454696D65 PUSH1 0xC8 SHL PUSH1 0x44 DUP3 ADD MSTORE PUSH1 0x64 ADD PUSH2 0x11EF JUMP JUMPDEST PUSH1 0x2 SLOAD DUP2 SLOAD PUSH1 0x0 SWAP2 DUP3 SWAP2 DUP3 SWAP2 DUP3 SWAP2 PUSH2 0x2210 SWAP1 PUSH1 0x1 PUSH1 0xB0 SHL SWAP1 DIV PUSH4 0xFFFFFFFF AND TIMESTAMP PUSH2 0x5D12 JUMP JUMPDEST PUSH2 0x221A SWAP2 SWAP1 PUSH2 0x5BBB JUMP JUMPDEST PUSH1 0x2 SLOAD DUP7 SLOAD SWAP2 SWAP3 POP PUSH1 0x0 SWAP2 PUSH2 0x2245 SWAP1 PUSH4 0xFFFFFFFF PUSH1 0x1 PUSH1 0xB0 SHL DUP3 DIV DUP2 AND SWAP2 PUSH1 0x1 PUSH1 0xD0 SHL SWAP1 DIV AND PUSH2 0x5D29 JUMP JUMPDEST PUSH4 0xFFFFFFFF AND PUSH2 0x2255 SWAP2 SWAP1 PUSH2 0x5BBB JUMP JUMPDEST PUSH1 0x0 DUP2 DUP2 MSTORE PUSH1 0x27 PUSH1 0x20 SWAP1 DUP2 MSTORE PUSH1 0x40 DUP1 DUP4 KECCAK256 DUP7 DUP5 MSTORE SWAP1 SWAP2 MSTORE SWAP1 KECCAK256 SLOAD SWAP6 POP SWAP1 POP PUSH1 0x64 DUP6 GT ISZERO PUSH2 0x2281 JUMPI PUSH1 0x0 DUP1 REVERT JUMPDEST DUP7 SLOAD PUSH1 0x64 SWAP1 PUSH2 0x2299 SWAP1 PUSH1 0x1 PUSH1 0x1 PUSH1 0x80 SHL SUB AND DUP8 PUSH2 0x5CCB JUMP JUMPDEST PUSH2 0x22A3 SWAP2 SWAP1 PUSH2 0x5BBB JUMP JUMPDEST DUP8 SLOAD SWAP1 SWAP4 POP PUSH2 0x22BC SWAP1 DUP5 SWAP1 PUSH1 0x1 PUSH1 0x1 PUSH1 0x80 SHL SUB AND PUSH2 0x5D12 JUMP JUMPDEST SWAP4 POP DUP4 ISZERO PUSH2 0x22FE JUMPI DUP6 SLOAD PUSH1 0x1 PUSH1 0xF0 SHL SWAP1 DIV PUSH1 0xFF AND ISZERO PUSH2 0x22F4 JUMPI PUSH1 0x2 DUP8 ADD SLOAD PUSH2 0x22EF SWAP1 PUSH1 0x1 PUSH1 0x1 PUSH1 0xA0 SHL SUB AND CALLER JUMPDEST DUP7 PUSH2 0x40F8 JUMP JUMPDEST PUSH2 0x22FE JUMP JUMPDEST PUSH2 0x22FE CALLER DUP6 PUSH2 0x4BED JUMP JUMPDEST DUP3 ISZERO PUSH2 0x234F JUMPI DUP6 SLOAD PUSH1 0x1 PUSH1 0xF0 SHL SWAP1 DIV PUSH1 0xFF AND ISZERO PUSH2 0x2339 JUMPI PUSH1 0x2 DUP8 ADD SLOAD PUSH1 0x16 SLOAD PUSH2 0x2334 SWAP2 PUSH1 0x1 PUSH1 0x1 PUSH1 0xA0 SHL SUB SWAP1 DUP2 AND SWAP2 AND DUP6 PUSH2 0x40F8 JUMP JUMPDEST PUSH2 0x234F JUMP JUMPDEST PUSH1 0x16 SLOAD PUSH2 0x234F SWAP1 PUSH1 0x1 PUSH1 0x1 PUSH1 0xA0 SHL SUB AND DUP5 PUSH2 0x4BED JUMP JUMPDEST DUP6 SLOAD PUSH1 0x1 PUSH1 0x1 PUSH1 0xF8 SHL SUB AND PUSH1 0x1 PUSH1 0xF8 SHL SWAP1 DUP2 OR DUP1 DUP9 SSTORE DIV PUSH1 0xFF AND ISZERO ISZERO DUP9 PUSH2 0x2373 CALLER SWAP1 JUMP JUMPDEST PUSH1 0x1 PUSH1 0x1 PUSH1 0xA0 SHL SUB AND PUSH32 0x6A877C9B3A5A46EDA88CE93DD1AC65942B2C9BBF5ECA8E4202B1E2499157E77F PUSH1 0x40 MLOAD PUSH1 0x40 MLOAD DUP1 SWAP2 SUB SWAP1 LOG4 POP POP PUSH1 0x1 DUP1 SSTORE POP POP POP POP POP POP JUMP JUMPDEST PUSH1 0x2 PUSH1 0x1 SLOAD EQ ISZERO PUSH2 0x23D9 JUMPI PUSH1 0x40 MLOAD PUSH3 0x461BCD PUSH1 0xE5 SHL DUP2 MSTORE PUSH1 0x4 ADD PUSH2 0x11EF SWAP1 PUSH2 0x5AEE JUMP JUMPDEST PUSH1 0x2 PUSH1 0x1 DUP2 SWAP1 SSTORE PUSH1 0xD SLOAD PUSH1 0x1 PUSH1 0x1 PUSH1 0xA0 SHL SUB DUP4 AND PUSH1 0x0 SWAP1 DUP2 MSTORE PUSH1 0x1D PUSH1 0x20 MSTORE PUSH1 0x40 SWAP1 KECCAK256 SWAP1 SWAP2 ADD SLOAD PUSH1 0x1 PUSH1 0xA0 SHL SWAP1 DIV PUSH4 0xFFFFFFFF AND LT PUSH2 0x244B JUMPI PUSH1 0x40 MLOAD PUSH3 0x461BCD PUSH1 0xE5 SHL DUP2 MSTORE PUSH1 0x20 PUSH1 0x4 DUP3 ADD MSTORE PUSH1 0xF PUSH1 0x24 DUP3 ADD MSTORE PUSH15 0x105B1C9958591E481D5C19185D1959 PUSH1 0x8A SHL PUSH1 0x44 DUP3 ADD MSTORE PUSH1 0x64 ADD PUSH2 0x11EF JUMP JUMPDEST PUSH2 0x1BA2 DUP2 PUSH2 0x4CBB JUMP JUMPDEST PUSH1 0x2 PUSH1 0x1 SLOAD EQ ISZERO PUSH2 0x2477 JUMPI PUSH1 0x40 MLOAD PUSH3 0x461BCD PUSH1 0xE5 SHL DUP2 MSTORE PUSH1 0x4 ADD PUSH2 0x11EF SWAP1 PUSH2 0x5AEE JUMP JUMPDEST PUSH1 0x2 PUSH1 0x1 SSTORE PUSH2 0x2485 CALLER PUSH2 0x4CBB JUMP JUMPDEST POP PUSH1 0xD SLOAD CALLER PUSH1 0x0 SWAP1 DUP2 MSTORE PUSH1 0x1D PUSH1 0x20 MSTORE PUSH1 0x40 SWAP1 KECCAK256 PUSH1 0x2 ADD SLOAD PUSH1 0x1 PUSH1 0xA0 SHL SWAP1 DIV PUSH4 0xFFFFFFFF AND EQ PUSH2 0x24E7 JUMPI PUSH1 0x40 MLOAD PUSH3 0x461BCD PUSH1 0xE5 SHL DUP2 MSTORE PUSH1 0x20 PUSH1 0x4 DUP3 ADD MSTORE PUSH1 0xE PUSH1 0x24 DUP3 ADD MSTORE PUSH14 0x436C61696D20616C6C2062657473 PUSH1 0x90 SHL PUSH1 0x44 DUP3 ADD MSTORE PUSH1 0x64 ADD PUSH2 0x11EF JUMP JUMPDEST PUSH1 0x0 DUP1 PUSH2 0x24F3 CALLER PUSH2 0x1374 JUMP JUMPDEST SWAP2 POP SWAP2 POP DUP3 PUSH1 0x4 SLOAD LT ISZERO PUSH2 0x253E JUMPI PUSH1 0x40 MLOAD PUSH3 0x461BCD PUSH1 0xE5 SHL DUP2 MSTORE PUSH1 0x20 PUSH1 0x4 DUP3 ADD MSTORE PUSH1 0x12 PUSH1 0x24 DUP3 ADD MSTORE PUSH18 0x496E73756666696369656E742066756E6473 PUSH1 0x70 SHL PUSH1 0x44 DUP3 ADD MSTORE PUSH1 0x64 ADD PUSH2 0x11EF JUMP JUMPDEST CALLER PUSH1 0x0 SWAP1 DUP2 MSTORE PUSH1 0x1D PUSH1 0x20 MSTORE PUSH1 0x40 SWAP1 KECCAK256 PUSH2 0x2559 SWAP1 DUP4 DUP6 DUP5 PUSH2 0x4E50 JUMP JUMPDEST DUP3 PUSH1 0x4 PUSH1 0x0 DUP3 DUP3 SLOAD PUSH2 0x256B SWAP2 SWAP1 PUSH2 0x5D12 JUMP JUMPDEST SWAP1 SWAP2 SSTORE POP POP PUSH1 0x17 SLOAD PUSH2 0x2587 SWAP1 PUSH1 0x1 PUSH1 0x1 PUSH1 0xA0 SHL SUB AND CALLER DUP6 PUSH2 0x40F8 JUMP JUMPDEST POP POP PUSH1 0x1 DUP1 SSTORE POP JUMP JUMPDEST PUSH1 0x0 SLOAD PUSH1 0x1 PUSH1 0x1 PUSH1 0xA0 SHL SUB AND CALLER EQ PUSH2 0x25BA JUMPI PUSH1 0x40 MLOAD PUSH3 0x461BCD PUSH1 0xE5 SHL DUP2 MSTORE PUSH1 0x4 ADD PUSH2 0x11EF SWAP1 PUSH2 0x5A96 JUMP JUMPDEST DUP1 PUSH1 0x0 DUP2 GT PUSH2 0x25DB JUMPI PUSH1 0x40 MLOAD PUSH3 0x461BCD PUSH1 0xE5 SHL DUP2 MSTORE PUSH1 0x4 ADD PUSH2 0x11EF SWAP1 PUSH2 0x5ACD JUMP JUMPDEST POP PUSH1 0x6 SSTORE JUMP JUMPDEST PUSH1 0x2 PUSH1 0x1 SLOAD EQ ISZERO PUSH2 0x2604 JUMPI PUSH1 0x40 MLOAD PUSH3 0x461BCD PUSH1 0xE5 SHL DUP2 MSTORE PUSH1 0x4 ADD PUSH2 0x11EF SWAP1 PUSH2 0x5AEE JUMP JUMPDEST PUSH1 0x2 PUSH1 0x1 SSTORE CALLER PUSH1 0x0 SWAP1 DUP2 MSTORE PUSH1 0x1B PUSH1 0x20 SWAP1 DUP2 MSTORE PUSH1 0x40 DUP1 DUP4 KECCAK256 SLOAD PUSH1 0x1E SWAP1 SWAP3 MSTORE DUP3 KECCAK256 SLOAD DUP3 SWAP2 DUP3 SWAP2 DUP3 SWAP2 SWAP1 DUP2 LT PUSH2 0x2666 JUMPI PUSH1 0x40 MLOAD PUSH3 0x461BCD PUSH1 0xE5 SHL DUP2 MSTORE PUSH1 0x20 PUSH1 0x4 DUP3 ADD MSTORE PUSH1 0xA PUSH1 0x24 DUP3 ADD MSTORE PUSH10 0x139BC81B995DC818995D PUSH1 0xB2 SHL PUSH1 0x44 DUP3 ADD MSTORE PUSH1 0x64 ADD PUSH2 0x11EF JUMP JUMPDEST DUP1 JUMPDEST CALLER PUSH1 0x0 SWAP1 DUP2 MSTORE PUSH1 0x1E PUSH1 0x20 MSTORE PUSH1 0x40 SWAP1 KECCAK256 SLOAD DUP2 LT ISZERO PUSH2 0x2A9C JUMPI CALLER PUSH1 0x0 DUP2 DUP2 MSTORE PUSH1 0x22 PUSH1 0x20 SWAP1 DUP2 MSTORE PUSH1 0x40 DUP1 DUP4 KECCAK256 DUP6 DUP5 MSTORE DUP3 MSTORE DUP1 DUP4 KECCAK256 SWAP4 DUP4 MSTORE PUSH1 0x23 DUP3 MSTORE DUP1 DUP4 KECCAK256 DUP6 DUP5 MSTORE SWAP1 SWAP2 MSTORE SWAP1 KECCAK256 DUP1 SLOAD PUSH1 0x1 PUSH1 0xF8 SHL SWAP1 DIV PUSH1 0xFF AND ISZERO DUP1 ISZERO PUSH2 0x26D4 JUMPI POP DUP2 SLOAD PUSH1 0x1 PUSH1 0x80 SHL SWAP1 DIV PUSH1 0x1 PUSH1 0x1 PUSH1 0x78 SHL SUB AND ISZERO ISZERO JUMPDEST ISZERO PUSH2 0x2A7A JUMPI DUP2 SLOAD DUP2 SLOAD PUSH1 0x1 PUSH1 0x1 PUSH1 0x80 SHL SUB DUP3 AND SWAP2 PUSH1 0x1 PUSH1 0x1 PUSH1 0x40 SHL SUB DUP3 AND SWAP2 PUSH1 0x1 PUSH1 0x40 SHL SWAP1 DIV PUSH4 0xFFFFFFFF AND SWAP1 PUSH1 0x0 SWAP1 PUSH1 0x1 PUSH1 0x1 PUSH1 0x80 SHL SWAP1 SWAP2 DIV PUSH1 0x1 PUSH1 0x1 PUSH1 0x78 SHL SUB AND EQ ISZERO PUSH2 0x2935 JUMPI DUP5 SLOAD PUSH1 0x1 PUSH1 0xF0 SHL SWAP1 DIV PUSH1 0xFF AND ISZERO PUSH2 0x2776 JUMPI PUSH1 0x17 SLOAD PUSH1 0x2 DUP8 ADD SLOAD PUSH1 0x1 PUSH1 0x1 PUSH1 0xA0 SHL SUB SWAP1 DUP2 AND SWAP2 AND EQ PUSH2 0x2765 JUMPI PUSH1 0x2 DUP7 ADD SLOAD PUSH2 0x2760 SWAP1 PUSH1 0x1 PUSH1 0x1 PUSH1 0xA0 SHL SUB AND CALLER PUSH2 0x22E9 JUMP JUMPDEST PUSH2 0x2783 JUMP JUMPDEST PUSH2 0x276F DUP5 DUP13 PUSH2 0x5BA3 JUMP JUMPDEST SWAP11 POP PUSH2 0x2783 JUMP JUMPDEST PUSH2 0x2780 DUP5 DUP14 PUSH2 0x5BA3 JUMP JUMPDEST SWAP12 POP JUMPDEST PUSH1 0x17 SLOAD PUSH1 0x2 DUP8 ADD SLOAD PUSH1 0x1 PUSH1 0x1 PUSH1 0xA0 SHL SUB SWAP1 DUP2 AND SWAP2 AND EQ DUP1 ISZERO SWAP1 PUSH2 0x27B9 JUMPI POP PUSH1 0x1 DUP7 ADD SLOAD PUSH1 0x1 PUSH1 0x60 SHL SWAP1 DIV PUSH1 0x1 PUSH1 0x1 PUSH1 0x60 SHL SUB AND ISZERO ISZERO JUMPDEST ISZERO PUSH2 0x2902 JUMPI PUSH1 0x2 DUP7 ADD SLOAD PUSH1 0x1 PUSH1 0x1 PUSH1 0xA0 SHL SUB AND PUSH1 0x1 EQ ISZERO PUSH2 0x281B JUMPI PUSH1 0x1 DUP7 ADD SLOAD PUSH9 0x56BC75E2D63100000 SWAP1 DUP5 SWAP1 PUSH2 0x2800 SWAP1 PUSH1 0x1 PUSH1 0x60 SHL SWAP1 DIV PUSH1 0x1 PUSH1 0x1 PUSH1 0x60 SHL SUB AND DUP8 PUSH2 0x5CCB JUMP JUMPDEST PUSH2 0x280A SWAP2 SWAP1 PUSH2 0x5CCB JUMP JUMPDEST PUSH2 0x2814 SWAP2 SWAP1 PUSH2 0x5BBB JUMP JUMPDEST SWAP1 POP PUSH2 0x28F1 JUMP JUMPDEST DUP6 PUSH1 0x2 ADD PUSH1 0x0 SWAP1 SLOAD SWAP1 PUSH2 0x100 EXP SWAP1 DIV PUSH1 0x1 PUSH1 0x1 PUSH1 0xA0 SHL SUB AND PUSH1 0x1 PUSH1 0x1 PUSH1 0xA0 SHL SUB AND PUSH4 0x313CE567 PUSH1 0x40 MLOAD DUP2 PUSH4 0xFFFFFFFF AND PUSH1 0xE0 SHL DUP2 MSTORE PUSH1 0x4 ADD PUSH1 0x20 PUSH1 0x40 MLOAD DUP1 DUP4 SUB DUP2 DUP7 DUP1 EXTCODESIZE ISZERO DUP1 ISZERO PUSH2 0x286B JUMPI PUSH1 0x0 DUP1 REVERT JUMPDEST POP GAS STATICCALL ISZERO DUP1 ISZERO PUSH2 0x287F JUMPI RETURNDATASIZE PUSH1 0x0 DUP1 RETURNDATACOPY RETURNDATASIZE PUSH1 0x0 REVERT JUMPDEST POP POP POP POP PUSH1 0x40 MLOAD RETURNDATASIZE PUSH1 0x1F NOT PUSH1 0x1F DUP3 ADD AND DUP3 ADD DUP1 PUSH1 0x40 MSTORE POP DUP2 ADD SWAP1 PUSH2 0x28A3 SWAP2 SWAP1 PUSH2 0x5A0F JUMP JUMPDEST PUSH2 0x28AE SWAP1 PUSH1 0xA PUSH2 0x5C20 JUMP JUMPDEST PUSH2 0x28B9 SWAP1 PUSH1 0x64 PUSH2 0x5CCB JUMP JUMPDEST PUSH1 0x1 DUP8 ADD SLOAD DUP5 SWAP1 PUSH2 0x28DA SWAP1 PUSH1 0x1 PUSH1 0x60 SHL SWAP1 DIV PUSH1 0x1 PUSH1 0x1 PUSH1 0x60 SHL SUB AND DUP8 PUSH2 0x5CCB JUMP JUMPDEST PUSH2 0x28E4 SWAP2 SWAP1 PUSH2 0x5CCB JUMP JUMPDEST PUSH2 0x28EE SWAP2 SWAP1 PUSH2 0x5BBB JUMP JUMPDEST SWAP1 POP JUMPDEST PUSH2 0x28FB DUP2 DUP13 PUSH2 0x5BA3 JUMP JUMPDEST SWAP11 POP PUSH2 0x2927 JUMP JUMPDEST PUSH1 0x64 PUSH2 0x290E DUP5 DUP7 PUSH2 0x5CCB JUMP JUMPDEST PUSH2 0x2918 SWAP2 SWAP1 PUSH2 0x5BBB JUMP JUMPDEST SWAP1 POP PUSH2 0x2924 DUP2 DUP13 PUSH2 0x5BA3 JUMP JUMPDEST SWAP11 POP JUMPDEST PUSH2 0x2930 DUP6 PUSH2 0x50EE JUMP JUMPDEST PUSH2 0x2A38 JUMP JUMPDEST DUP6 SLOAD PUSH1 0x1 PUSH1 0x80 SHL SWAP1 DIV PUSH1 0x1 PUSH1 0x1 PUSH1 0x78 SHL SUB AND PUSH1 0x2 EQ ISZERO PUSH2 0x2A38 JUMPI PUSH1 0x64 DUP3 GT ISZERO PUSH2 0x2970 JUMPI PUSH1 0x40 MLOAD PUSH3 0x461BCD PUSH1 0xE5 SHL DUP2 MSTORE PUSH1 0x4 ADD PUSH2 0x11EF SWAP1 PUSH2 0x5ACD JUMP JUMPDEST PUSH1 0x0 PUSH1 0x64 PUSH2 0x297E DUP7 DUP6 PUSH2 0x5CCB JUMP JUMPDEST PUSH2 0x2988 SWAP2 SWAP1 PUSH2 0x5BBB JUMP JUMPDEST SWAP1 POP PUSH1 0x0 PUSH2 0x2996 DUP3 DUP8 PUSH2 0x5D12 JUMP JUMPDEST DUP8 SLOAD SWAP1 SWAP2 POP PUSH1 0x1 PUSH1 0xF0 SHL SWAP1 DIV PUSH1 0xFF AND ISZERO PUSH2 0x2A04 JUMPI PUSH1 0x17 SLOAD PUSH1 0x2 DUP10 ADD SLOAD PUSH1 0x1 PUSH1 0x1 PUSH1 0xA0 SHL SUB SWAP1 DUP2 AND SWAP2 AND EQ PUSH2 0x29E7 JUMPI DUP1 ISZERO PUSH2 0x29E2 JUMPI PUSH1 0x2 DUP9 ADD SLOAD PUSH2 0x29E2 SWAP1 PUSH1 0x1 PUSH1 0x1 PUSH1 0xA0 SHL SUB AND CALLER PUSH2 0x1B9C JUMP JUMPDEST PUSH2 0x2A2C JUMP JUMPDEST PUSH2 0x29F1 DUP2 DUP15 PUSH2 0x5BA3 JUMP JUMPDEST SWAP13 POP PUSH2 0x29FD DUP3 DUP14 PUSH2 0x5BA3 JUMP JUMPDEST SWAP12 POP PUSH2 0x2A2C JUMP JUMPDEST PUSH2 0x2A0E DUP2 DUP16 PUSH2 0x5BA3 JUMP JUMPDEST SWAP14 POP DUP2 ISZERO PUSH2 0x2A2C JUMPI PUSH1 0x16 SLOAD PUSH2 0x2A2C SWAP1 PUSH1 0x1 PUSH1 0x1 PUSH1 0xA0 SHL SUB AND DUP4 PUSH2 0x4BED JUMP JUMPDEST PUSH2 0x2A35 DUP8 PUSH2 0x50EE JUMP JUMPDEST POP POP JUMPDEST PUSH1 0x40 DUP1 MLOAD TIMESTAMP DUP2 MSTORE PUSH1 0x20 DUP2 ADD DUP4 SWAP1 MSTORE DUP9 SWAP2 CALLER SWAP2 PUSH32 0x9E69D00870C99BD9583A212168D5869F740D1DBABDB2D60A56D716D9F9DBD700 SWAP2 ADD PUSH1 0x40 MLOAD DUP1 SWAP2 SUB SWAP1 LOG3 POP POP POP POP JUMPDEST PUSH2 0x2A85 DUP4 PUSH1 0x1 PUSH2 0x5BA3 JUMP JUMPDEST SWAP5 POP POP POP DUP1 DUP1 PUSH2 0x2A94 SWAP1 PUSH2 0x5D46 JUMP JUMPDEST SWAP2 POP POP PUSH2 0x2668 JUMP JUMPDEST POP CALLER PUSH1 0x0 SWAP1 DUP2 MSTORE PUSH1 0x1B PUSH1 0x20 MSTORE PUSH1 0x40 SWAP1 KECCAK256 PUSH1 0x1 PUSH1 0x1 PUSH1 0x40 SHL SUB DUP4 AND SWAP1 SSTORE DUP5 ISZERO PUSH2 0x2AC8 JUMPI PUSH2 0x2AC8 CALLER DUP7 PUSH2 0x4BED JUMP JUMPDEST DUP4 ISZERO PUSH2 0x2AE4 JUMPI PUSH1 0x17 SLOAD PUSH2 0x2AE4 SWAP1 PUSH1 0x1 PUSH1 0x1 PUSH1 0xA0 SHL SUB AND CALLER PUSH2 0x22E9 JUMP JUMPDEST DUP3 ISZERO PUSH2 0x2B07 JUMPI PUSH1 0x17 SLOAD PUSH1 0x16 SLOAD PUSH2 0x2B07 SWAP2 PUSH1 0x1 PUSH1 0x1 PUSH1 0xA0 SHL SUB SWAP1 DUP2 AND SWAP2 AND DUP6 PUSH2 0x40F8 JUMP JUMPDEST POP POP PUSH1 0x1 DUP1 SSTORE POP POP POP JUMP JUMPDEST PUSH1 0x3 SLOAD PUSH1 0xFF AND ISZERO PUSH2 0x2B22 JUMPI PUSH1 0x0 DUP1 REVERT JUMPDEST PUSH1 0x3 DUP1 SLOAD PUSH1 0xFF NOT AND PUSH1 0x1 OR SWAP1 SSTORE PUSH1 0x5 DUP7 SWAP1 SSTORE PUSH10 0x152D02C7E14AF6800000 PUSH1 0x6 SSTORE PUSH1 0x7 DUP6 SWAP1 SSTORE PUSH1 0x8 DUP5 SWAP1 SSTORE PUSH1 0x9 DUP4 SWAP1 SSTORE PUSH2 0xE10 PUSH1 0x11 SSTORE PUSH1 0x17 DUP1 SLOAD PUSH1 0x1 PUSH1 0x1 PUSH1 0xA0 SHL SUB DUP1 DUP12 AND PUSH1 0x1 PUSH1 0x1 PUSH1 0xA0 SHL SUB NOT SWAP3 DUP4 AND OR SWAP1 SWAP3 SSTORE PUSH1 0x1A DUP1 SLOAD DUP6 DUP5 AND SWAP1 DUP4 AND OR SWAP1 SSTORE PUSH1 0x19 DUP1 SLOAD SWAP3 DUP5 AND SWAP3 SWAP1 SWAP2 AND SWAP2 SWAP1 SWAP2 OR SWAP1 SSTORE PUSH2 0x2B9D DUP10 PUSH2 0x5114 JUMP JUMPDEST PUSH1 0x32 PUSH1 0x10 DUP2 SWAP1 SSTORE POP PUSH1 0x78 PUSH1 0x2 DUP2 SWAP1 SSTORE POP PUSH2 0x2CE1 PUSH1 0x40 MLOAD DUP1 PUSH2 0x120 ADD PUSH1 0x40 MSTORE DUP1 PUSH1 0xA PUSH1 0xFF AND DUP2 MSTORE PUSH1 0x20 ADD PUSH1 0x3 PUSH1 0xFF AND DUP2 MSTORE PUSH1 0x20 ADD PUSH1 0x5 PUSH1 0xFF AND DUP2 MSTORE PUSH1 0x20 ADD PUSH1 0x7 PUSH1 0xFF AND DUP2 MSTORE PUSH1 0x20 ADD PUSH1 0x9 PUSH1 0xFF AND DUP2 MSTORE PUSH1 0x20 ADD PUSH1 0xA PUSH1 0xFF AND DUP2 MSTORE PUSH1 0x20 ADD PUSH1 0xC PUSH1 0xFF AND DUP2 MSTORE PUSH1 0x20 ADD PUSH1 0xE PUSH1 0xFF AND DUP2 MSTORE PUSH1 0x20 ADD PUSH1 0xF PUSH1 0xFF AND DUP2 MSTORE POP PUSH1 0x40 MLOAD DUP1 PUSH2 0x120 ADD PUSH1 0x40 MSTORE DUP1 PUSH1 0x64 PUSH1 0xFF AND DUP2 MSTORE PUSH1 0x20 ADD PUSH1 0x3 PUSH1 0xFF AND DUP2 MSTORE PUSH1 0x20 ADD PUSH1 0x5 PUSH1 0xFF AND DUP2 MSTORE PUSH1 0x20 ADD PUSH1 0x7 PUSH1 0xFF AND DUP2 MSTORE PUSH1 0x20 ADD PUSH1 0xA PUSH1 0xFF AND DUP2 MSTORE PUSH1 0x20 ADD PUSH1 0x14 PUSH1 0xFF AND DUP2 MSTORE PUSH1 0x20 ADD PUSH1 0x28 PUSH1 0xFF AND DUP2 MSTORE PUSH1 0x20 ADD PUSH1 0x46 PUSH1 0xFF AND DUP2 MSTORE PUSH1 0x20 ADD PUSH1 0x64 PUSH1 0xFF AND DUP2 MSTORE POP PUSH1 0x40 MLOAD DUP1 PUSH2 0x120 ADD PUSH1 0x40 MSTORE DUP1 PUSH1 0x64 PUSH1 0xFF AND DUP2 MSTORE PUSH1 0x20 ADD PUSH1 0x3 PUSH1 0xFF AND DUP2 MSTORE PUSH1 0x20 ADD PUSH1 0x5 PUSH1 0xFF AND DUP2 MSTORE PUSH1 0x20 ADD PUSH1 0x7 PUSH1 0xFF AND DUP2 MSTORE PUSH1 0x20 ADD PUSH1 0xA PUSH1 0xFF AND DUP2 MSTORE PUSH1 0x20 ADD PUSH1 0x14 PUSH1 0xFF AND DUP2 MSTORE PUSH1 0x20 ADD PUSH1 0x28 PUSH1 0xFF AND DUP2 MSTORE PUSH1 0x20 ADD PUSH1 0x46 PUSH1 0xFF AND DUP2 MSTORE PUSH1 0x20 ADD PUSH1 0x64 PUSH1 0xFF AND DUP2 MSTORE POP PUSH2 0x12AD JUMP JUMPDEST POP POP PUSH1 0x9 PUSH1 0xE SSTORE POP POP PUSH1 0x7 PUSH1 0x12 DUP2 SWAP1 SSTORE PUSH10 0x21E19E0C9BAB2400000 PUSH1 0x13 SSTORE PUSH1 0x16 DUP1 SLOAD PUSH1 0x1 PUSH1 0x1 PUSH1 0xA0 SHL SUB NOT AND PUSH1 0x1 PUSH1 0x1 PUSH1 0xA0 SHL SUB SWAP6 SWAP1 SWAP6 AND SWAP5 SWAP1 SWAP5 OR SWAP1 SWAP4 SSTORE POP POP PUSH1 0x1 PUSH32 0x673668FDE1539921A3231470503848F53FC614C057A2345BC3A2F36758A6D3AC DUP2 SWAP1 SSTORE PUSH32 0x5DB1DFD2CED311E642486F0E890A646498A1BDEE1AD9403B0A73141AF8A4C411 SSTORE PUSH1 0x3 PUSH32 0x79D5AC1AF4480D65C6DD0B2262174229F09440EB5EFCDD43DD5ABB89BD013A8B SSTORE PUSH32 0xDAB4009B70BEBE3D9317B241CAFFBBDDAFDED4EFEB788BA6719FD72301394516 SSTORE POP POP PUSH1 0x32 PUSH32 0x1218CF69D642A89A40B73EC409B224A7A535DBF563AD004610BA747340021CB2 DUP2 SWAP1 SSTORE PUSH32 0xAB988FD7626ABE7CAA91E19F5AAD4A3A61B1E651878276AB7DDCC7B9E0E36DF2 DUP2 SWAP1 SSTORE PUSH32 0x4408E7CF470E5F97D9246C3329248D9E27598C018C8E287D7165449E80C1A6EE DUP2 SWAP1 SSTORE PUSH32 0x9056A0F76D88F9F3F2542162F4AC777299F5C80A5EBC951C1F4B118089C57FAB DUP2 SWAP1 SSTORE PUSH32 0x8CA374D29C0F22D90988C19A46E2609F73349DE83670B110F979E5E2DDAD8880 DUP2 SWAP1 SSTORE PUSH32 0x24D1E737602C347FE41DEDB93267DC4656B052DA92B8561D7D35BFE12D7B2416 DUP2 SWAP1 SSTORE PUSH32 0x4F2F958077A478B1E04C2A2445CA5DFE463563AD689833A43A13E24285B858A DUP2 SWAP1 SSTORE PUSH32 0x897D51A06262A8CA6CEFDC150B604EB52997B0BDFAFB1D219165C1A2A5F6ABEA DUP2 SWAP1 SSTORE PUSH32 0xB45418D15EF59E82E47E3DEE825D0DD4A5D1B24260499703A99CC52B3BFCB55A DUP2 SWAP1 SSTORE PUSH32 0xDECB35B3C19F1E16B3D8808163ED236681DD33DBFDA3E4C0B025D406E86BD582 DUP2 SWAP1 SSTORE PUSH1 0x6 PUSH1 0x0 MSTORE PUSH32 0x5CA855EEAE1B488FA0B99CC3FD0C088EDEB325D8687640F29B9DAB5E07B5EACE PUSH1 0x20 MSTORE PUSH32 0x7F6686704CCE2740F568332784F2CA2B8493642ED317A10AC3839B5CDD81AF45 SSTORE PUSH1 0x4 PUSH1 0xF SSTORE JUMP JUMPDEST PUSH1 0x2 PUSH1 0x1 SLOAD EQ ISZERO PUSH2 0x2F91 JUMPI PUSH1 0x40 MLOAD PUSH3 0x461BCD PUSH1 0xE5 SHL DUP2 MSTORE PUSH1 0x4 ADD PUSH2 0x11EF SWAP1 PUSH2 0x5AEE JUMP JUMPDEST PUSH1 0x2 PUSH1 0x1 SSTORE PUSH1 0x5 SLOAD DUP2 LT DUP1 ISZERO SWAP1 PUSH2 0x2FAA JUMPI POP PUSH1 0x6 SLOAD DUP2 GT ISZERO JUMPDEST PUSH2 0x2FC6 JUMPI PUSH1 0x40 MLOAD PUSH3 0x461BCD PUSH1 0xE5 SHL DUP2 MSTORE PUSH1 0x4 ADD PUSH2 0x11EF SWAP1 PUSH2 0x5ACD JUMP JUMPDEST PUSH2 0x2FCF CALLER PUSH2 0x4CBB JUMP JUMPDEST POP CALLER PUSH1 0x0 SWAP1 DUP2 MSTORE PUSH1 0x1D PUSH1 0x20 MSTORE PUSH1 0x40 SWAP1 KECCAK256 PUSH1 0xD SLOAD PUSH1 0x2 DUP3 ADD SLOAD PUSH1 0x1 PUSH1 0xA0 SHL SWAP1 DIV PUSH4 0xFFFFFFFF AND EQ DUP1 PUSH2 0x300F JUMPI POP PUSH1 0x2 DUP2 ADD SLOAD PUSH1 0x1 PUSH1 0xC0 SHL SWAP1 DIV PUSH4 0xFFFFFFFF AND ISZERO JUMPDEST PUSH2 0x304C JUMPI PUSH1 0x40 MLOAD PUSH3 0x461BCD PUSH1 0xE5 SHL DUP2 MSTORE PUSH1 0x20 PUSH1 0x4 DUP3 ADD MSTORE PUSH1 0xE PUSH1 0x24 DUP3 ADD MSTORE PUSH14 0x436C61696D20616C6C2062657473 PUSH1 0x90 SHL PUSH1 0x44 DUP3 ADD MSTORE PUSH1 0x64 ADD PUSH2 0x11EF JUMP JUMPDEST PUSH1 0x17 SLOAD PUSH2 0x3064 SWAP1 PUSH1 0x1 PUSH1 0x1 PUSH1 0xA0 SHL SUB AND CALLER ADDRESS DUP6 PUSH2 0x5136 JUMP JUMPDEST PUSH1 0x2 DUP2 ADD SLOAD CALLER PUSH1 0x0 SWAP1 DUP2 MSTORE PUSH1 0x1C PUSH1 0x20 SWAP1 DUP2 MSTORE PUSH1 0x40 DUP1 DUP4 KECCAK256 PUSH1 0x1 PUSH1 0xC0 SHL SWAP1 SWAP5 DIV PUSH4 0xFFFFFFFF AND DUP1 DUP5 MSTORE SWAP4 SWAP1 SWAP2 MSTORE SWAP1 KECCAK256 DUP1 SLOAD PUSH1 0x1 PUSH1 0x1 PUSH1 0x80 SHL SUB DUP6 AND PUSH1 0x1 PUSH1 0x80 SHL MUL PUSH16 0xFFFFFFFFFFFFFFFF0000000000000000 SWAP1 SWAP2 AND PUSH1 0x1 PUSH1 0x1 PUSH1 0x40 SHL SUB TIMESTAMP AND OR OR SWAP1 SSTORE PUSH2 0x30D0 DUP3 DUP5 PUSH2 0x525E JUMP JUMPDEST DUP3 PUSH1 0x4 PUSH1 0x0 DUP3 DUP3 SLOAD PUSH2 0x30E2 SWAP2 SWAP1 PUSH2 0x5BA3 JUMP JUMPDEST SWAP1 SWAP2 SSTORE POP POP PUSH1 0x1 DUP1 SSTORE POP POP POP JUMP JUMPDEST PUSH1 0x1 PUSH1 0x1 PUSH1 0xA0 SHL SUB DUP2 AND PUSH1 0x0 SWAP1 DUP2 MSTORE PUSH1 0x1D PUSH1 0x20 MSTORE PUSH1 0x40 DUP2 KECCAK256 PUSH1 0x2 DUP2 ADD SLOAD DUP2 SLOAD PUSH1 0xD SLOAD PUSH1 0x10 SLOAD DUP6 SWAP5 DUP6 SWAP5 SWAP1 SWAP4 PUSH4 0xFFFFFFFF PUSH1 0x1 PUSH1 0xA0 SHL DUP4 DIV DUP2 AND SWAP5 PUSH1 0x1 PUSH1 0x80 SHL SWAP1 SWAP4 DIV AND SWAP3 PUSH1 0x1 PUSH1 0x1 PUSH1 0x80 SHL SUB SWAP1 SWAP2 AND SWAP2 DUP7 SWAP2 DUP3 SWAP2 DUP3 SWAP2 PUSH2 0x3150 SWAP1 DUP9 PUSH2 0x5BA3 JUMP JUMPDEST LT PUSH2 0x315E JUMPI POP PUSH1 0xD SLOAD PUSH2 0x316E JUMP JUMPDEST PUSH1 0x10 SLOAD PUSH2 0x316B SWAP1 DUP8 PUSH2 0x5BA3 JUMP JUMPDEST SWAP1 POP JUMPDEST DUP6 JUMPDEST DUP2 DUP2 LT ISZERO PUSH2 0x3251 JUMPI PUSH1 0x0 DUP2 DUP2 MSTORE PUSH1 0x24 PUSH1 0x20 MSTORE PUSH1 0x40 SWAP1 KECCAK256 DUP1 SLOAD PUSH1 0x1 PUSH1 0xC0 SHL SWAP1 DIV PUSH4 0xFFFFFFFF AND DUP8 LT ISZERO PUSH2 0x323E JUMPI DUP1 SLOAD PUSH1 0x1 PUSH1 0xE0 SHL SWAP1 DIV PUSH4 0xFFFFFFFF AND PUSH1 0x2 EQ ISZERO PUSH2 0x31EF JUMPI DUP1 SLOAD PUSH1 0x1 PUSH1 0x1 PUSH1 0x60 SHL SUB DUP1 DUP3 AND SWAP2 PUSH2 0x31D4 SWAP2 DUP10 SWAP2 PUSH1 0x1 PUSH1 0x60 SHL SWAP1 DIV AND PUSH2 0x5CCB JUMP JUMPDEST PUSH2 0x31DE SWAP2 SWAP1 PUSH2 0x5BBB JUMP JUMPDEST PUSH2 0x31E8 SWAP1 DUP7 PUSH2 0x5BA3 JUMP JUMPDEST SWAP5 POP PUSH2 0x323E JUMP JUMPDEST DUP1 SLOAD PUSH1 0x1 PUSH1 0xE0 SHL SWAP1 DIV PUSH4 0xFFFFFFFF AND PUSH1 0x1 EQ ISZERO PUSH2 0x323E JUMPI DUP1 SLOAD PUSH1 0x1 PUSH1 0x1 PUSH1 0x60 SHL SUB DUP1 DUP3 AND SWAP2 PUSH2 0x3227 SWAP2 DUP10 SWAP2 PUSH1 0x1 PUSH1 0x60 SHL SWAP1 DIV AND PUSH2 0x5CCB JUMP JUMPDEST PUSH2 0x3231 SWAP2 SWAP1 PUSH2 0x5BBB JUMP JUMPDEST PUSH2 0x323B SWAP1 DUP6 PUSH2 0x5BA3 JUMP JUMPDEST SWAP4 POP JUMPDEST POP DUP1 PUSH2 0x3249 DUP2 PUSH2 0x5D46 JUMP JUMPDEST SWAP2 POP POP PUSH2 0x3170 JUMP JUMPDEST POP SWAP2 SWAP11 SWAP1 SWAP10 POP SWAP1 SWAP8 POP SWAP6 POP POP POP POP POP POP JUMP JUMPDEST PUSH1 0x0 SLOAD PUSH1 0x1 PUSH1 0x1 PUSH1 0xA0 SHL SUB AND CALLER EQ PUSH2 0x328D JUMPI PUSH1 0x40 MLOAD PUSH3 0x461BCD PUSH1 0xE5 SHL DUP2 MSTORE PUSH1 0x4 ADD PUSH2 0x11EF SWAP1 PUSH2 0x5A96 JUMP JUMPDEST PUSH1 0xE SLOAD DUP3 SWAP1 DUP1 DUP3 LT PUSH2 0x32B1 JUMPI PUSH1 0x40 MLOAD PUSH3 0x461BCD PUSH1 0xE5 SHL DUP2 MSTORE PUSH1 0x4 ADD PUSH2 0x11EF SWAP1 PUSH2 0x5ACD JUMP JUMPDEST PUSH1 0x0 DUP5 DUP2 MSTORE PUSH1 0x25 PUSH1 0x20 MSTORE PUSH1 0x40 SWAP1 KECCAK256 PUSH2 0x32C9 SWAP1 DUP5 PUSH2 0x52FC JUMP JUMPDEST POP POP POP POP JUMP JUMPDEST PUSH1 0x0 SLOAD PUSH1 0x1 PUSH1 0x1 PUSH1 0xA0 SHL SUB AND CALLER EQ PUSH2 0x32F9 JUMPI PUSH1 0x40 MLOAD PUSH3 0x461BCD PUSH1 0xE5 SHL DUP2 MSTORE PUSH1 0x4 ADD PUSH2 0x11EF SWAP1 PUSH2 0x5A96 JUMP JUMPDEST PUSH1 0xF SLOAD DUP3 GT ISZERO PUSH2 0x3308 JUMPI PUSH1 0x0 DUP1 REVERT JUMPDEST PUSH1 0xF SLOAD DUP3 EQ DUP1 ISZERO PUSH2 0x3318 JUMPI POP DUP1 ISZERO ISZERO JUMPDEST ISZERO PUSH2 0x3345 JUMPI PUSH1 0x0 DUP3 DUP2 MSTORE PUSH1 0x26 PUSH1 0x20 MSTORE PUSH1 0x40 DUP2 KECCAK256 DUP3 SWAP1 SSTORE PUSH1 0xF DUP1 SLOAD SWAP2 PUSH2 0x333C DUP4 PUSH2 0x5D46 JUMP JUMPDEST SWAP2 SWAP1 POP SSTORE POP POP POP JUMP JUMPDEST PUSH1 0x0 DUP3 DUP2 MSTORE PUSH1 0x26 PUSH1 0x20 MSTORE PUSH1 0x40 SWAP1 KECCAK256 DUP2 SWAP1 SSTORE JUMPDEST POP POP JUMP JUMPDEST PUSH1 0x0 SLOAD PUSH1 0x1 PUSH1 0x1 PUSH1 0xA0 SHL SUB AND CALLER EQ PUSH2 0x3385 JUMPI PUSH1 0x40 MLOAD PUSH3 0x461BCD PUSH1 0xE5 SHL DUP2 MSTORE PUSH1 0x4 ADD PUSH2 0x11EF SWAP1 PUSH2 0x5A96 JUMP JUMPDEST DUP1 PUSH1 0x0 DUP2 GT PUSH2 0x33A6 JUMPI PUSH1 0x40 MLOAD PUSH3 0x461BCD PUSH1 0xE5 SHL DUP2 MSTORE PUSH1 0x4 ADD PUSH2 0x11EF SWAP1 PUSH2 0x5ACD JUMP JUMPDEST POP PUSH1 0x13 SSTORE JUMP JUMPDEST PUSH1 0x17 SLOAD PUSH1 0x0 SWAP1 PUSH1 0x1 PUSH1 0x1 PUSH1 0xA0 SHL SUB DUP4 DUP2 AND SWAP2 AND EQ ISZERO PUSH2 0x33CD JUMPI POP PUSH1 0x1 SWAP2 SWAP1 POP JUMP JUMPDEST PUSH1 0x1A SLOAD PUSH1 0x17 SLOAD PUSH1 0x19 SLOAD PUSH1 0x40 MLOAD PUSH4 0x5620C32D PUSH1 0xE1 SHL DUP2 MSTORE PUSH1 0x1 PUSH1 0x1 PUSH1 0xA0 SHL SUB SWAP3 DUP4 AND PUSH1 0x4 DUP3 ADD MSTORE SWAP1 DUP3 AND PUSH1 0x24 DUP3 ADD MSTORE SWAP2 AND SWAP1 PUSH4 0xAC41865A SWAP1 PUSH1 0x44 ADD PUSH1 0x20 PUSH1 0x40 MLOAD DUP1 DUP4 SUB DUP2 DUP7 DUP1 EXTCODESIZE ISZERO DUP1 ISZERO PUSH2 0x341F JUMPI PUSH1 0x0 DUP1 REVERT JUMPDEST POP GAS STATICCALL ISZERO DUP1 ISZERO PUSH2 0x3433 JUMPI RETURNDATASIZE PUSH1 0x0 DUP1 RETURNDATACOPY RETURNDATASIZE PUSH1 0x0 REVERT JUMPDEST POP POP POP POP PUSH1 0x40 MLOAD RETURNDATASIZE PUSH1 0x1F NOT PUSH1 0x1F DUP3 ADD AND DUP3 ADD DUP1 PUSH1 0x40 MSTORE POP DUP2 ADD SWAP1 PUSH2 0x3457 SWAP2 SWAP1 PUSH2 0x584D JUMP JUMPDEST PUSH1 0x1A SLOAD PUSH1 0x40 MLOAD PUSH4 0x5620C32D PUSH1 0xE1 SHL DUP2 MSTORE PUSH1 0x1 PUSH1 0x1 PUSH1 0xA0 SHL SUB DUP6 DUP2 AND PUSH1 0x4 DUP4 ADD MSTORE PUSH1 0x0 PUSH1 0x24 DUP4 ADD MSTORE SWAP1 SWAP2 AND SWAP1 PUSH4 0xAC41865A SWAP1 PUSH1 0x44 ADD PUSH1 0x20 PUSH1 0x40 MLOAD DUP1 DUP4 SUB DUP2 DUP7 DUP1 EXTCODESIZE ISZERO DUP1 ISZERO PUSH2 0x34A3 JUMPI PUSH1 0x0 DUP1 REVERT JUMPDEST POP GAS STATICCALL ISZERO DUP1 ISZERO PUSH2 0x34B7 JUMPI RETURNDATASIZE PUSH1 0x0 DUP1 RETURNDATACOPY RETURNDATASIZE PUSH1 0x0 REVERT JUMPDEST POP POP POP POP PUSH1 0x40 MLOAD RETURNDATASIZE PUSH1 0x1F NOT PUSH1 0x1F DUP3 ADD AND DUP3 ADD DUP1 PUSH1 0x40 MSTORE POP DUP2 ADD SWAP1 PUSH2 0x34DB SWAP2 SWAP1 PUSH2 0x584D JUMP JUMPDEST PUSH2 0x34EC SWAP1 PUSH7 0x2386F26FC10000 PUSH2 0x5CCB JUMP JUMPDEST PUSH2 0x34F6 SWAP2 SWAP1 PUSH2 0x5BBB JUMP JUMPDEST SWAP3 SWAP2 POP POP JUMP JUMPDEST PUSH1 0x0 SLOAD PUSH1 0x1 PUSH1 0x1 PUSH1 0xA0 SHL SUB AND CALLER EQ PUSH2 0x3526 JUMPI PUSH1 0x40 MLOAD PUSH3 0x461BCD PUSH1 0xE5 SHL DUP2 MSTORE PUSH1 0x4 ADD PUSH2 0x11EF SWAP1 PUSH2 0x5A96 JUMP JUMPDEST PUSH1 0xE SLOAD DUP3 SWAP1 DUP1 DUP3 LT PUSH2 0x354A JUMPI PUSH1 0x40 MLOAD PUSH3 0x461BCD PUSH1 0xE5 SHL DUP2 MSTORE PUSH1 0x4 ADD PUSH2 0x11EF SWAP1 PUSH2 0x5ACD JUMP JUMPDEST PUSH1 0x0 DUP5 DUP2 MSTORE PUSH1 0x25 PUSH1 0x20 MSTORE PUSH1 0x40 SWAP1 KECCAK256 PUSH2 0x32C9 SWAP1 DUP5 PUSH2 0x532E JUMP JUMPDEST PUSH1 0x0 SLOAD PUSH1 0x1 PUSH1 0x1 PUSH1 0xA0 SHL SUB AND CALLER EQ PUSH2 0x358C JUMPI PUSH1 0x40 MLOAD PUSH3 0x461BCD PUSH1 0xE5 SHL DUP2 MSTORE PUSH1 0x4 ADD PUSH2 0x11EF SWAP1 PUSH2 0x5A96 JUMP JUMPDEST PUSH1 0xE SLOAD DUP3 SWAP1 DUP1 DUP3 LT PUSH2 0x35B0 JUMPI PUSH1 0x40 MLOAD PUSH3 0x461BCD PUSH1 0xE5 SHL DUP2 MSTORE PUSH1 0x4 ADD PUSH2 0x11EF SWAP1 PUSH2 0x5ACD JUMP JUMPDEST PUSH1 0x0 DUP5 DUP2 MSTORE PUSH1 0x25 PUSH1 0x20 MSTORE PUSH1 0x40 SWAP1 KECCAK256 PUSH2 0x32C9 SWAP1 DUP5 PUSH2 0x5382 JUMP JUMPDEST PUSH1 0x0 SLOAD PUSH1 0x1 PUSH1 0x1 PUSH1 0xA0 SHL SUB AND CALLER EQ PUSH2 0x35F2 JUMPI PUSH1 0x40 MLOAD PUSH3 0x461BCD PUSH1 0xE5 SHL DUP2 MSTORE PUSH1 0x4 ADD PUSH2 0x11EF SWAP1 PUSH2 0x5A96 JUMP JUMPDEST PUSH1 0x64 DUP2 GT ISZERO PUSH2 0x3600 JUMPI PUSH1 0x0 DUP1 REVERT JUMPDEST PUSH1 0x12 SSTORE JUMP JUMPDEST PUSH1 0x0 SLOAD PUSH1 0x1 PUSH1 0x1 PUSH1 0xA0 SHL SUB AND CALLER EQ PUSH2 0x362F JUMPI PUSH1 0x40 MLOAD PUSH3 0x461BCD PUSH1 0xE5 SHL DUP2 MSTORE PUSH1 0x4 ADD PUSH2 0x11EF SWAP1 PUSH2 0x5A96 JUMP JUMPDEST DUP1 PUSH1 0x0 DUP2 GT PUSH2 0x3650 JUMPI PUSH1 0x40 MLOAD PUSH3 0x461BCD PUSH1 0xE5 SHL DUP2 MSTORE PUSH1 0x4 ADD PUSH2 0x11EF SWAP1 PUSH2 0x5ACD JUMP JUMPDEST POP PUSH1 0x7 SSTORE JUMP JUMPDEST PUSH1 0x0 SLOAD PUSH1 0x1 PUSH1 0x1 PUSH1 0xA0 SHL SUB AND CALLER EQ PUSH2 0x3680 JUMPI PUSH1 0x40 MLOAD PUSH3 0x461BCD PUSH1 0xE5 SHL DUP2 MSTORE PUSH1 0x4 ADD PUSH2 0x11EF SWAP1 PUSH2 0x5A96 JUMP JUMPDEST PUSH1 0x8 SSTORE JUMP JUMPDEST PUSH1 0x0 SLOAD PUSH1 0x1 PUSH1 0x1 PUSH1 0xA0 SHL SUB AND CALLER EQ PUSH2 0x36AF JUMPI PUSH1 0x40 MLOAD PUSH3 0x461BCD PUSH1 0xE5 SHL DUP2 MSTORE PUSH1 0x4 ADD PUSH2 0x11EF SWAP1 PUSH2 0x5A96 JUMP JUMPDEST PUSH1 0x15 SLOAD PUSH1 0xFF AND ISZERO ISZERO DUP2 ISZERO ISZERO EQ PUSH2 0x36CE JUMPI PUSH1 0x15 DUP1 SLOAD PUSH1 0xFF NOT AND DUP3 ISZERO ISZERO OR SWAP1 SSTORE JUMPDEST POP JUMP JUMPDEST PUSH1 0x0 SLOAD PUSH1 0x1 PUSH1 0x1 PUSH1 0xA0 SHL SUB AND CALLER EQ PUSH2 0x36FB JUMPI PUSH1 0x40 MLOAD PUSH3 0x461BCD PUSH1 0xE5 SHL DUP2 MSTORE PUSH1 0x4 ADD PUSH2 0x11EF SWAP1 PUSH2 0x5A96 JUMP JUMPDEST PUSH1 0xE SLOAD DUP3 SWAP1 DUP1 DUP3 LT PUSH2 0x371F JUMPI PUSH1 0x40 MLOAD PUSH3 0x461BCD PUSH1 0xE5 SHL DUP2 MSTORE PUSH1 0x4 ADD PUSH2 0x11EF SWAP1 PUSH2 0x5ACD JUMP JUMPDEST PUSH1 0x0 DUP5 DUP2 MSTORE PUSH1 0x25 PUSH1 0x20 MSTORE PUSH1 0x40 SWAP1 KECCAK256 PUSH2 0x32C9 SWAP1 DUP5 PUSH2 0x53FF JUMP JUMPDEST PUSH1 0x0 SLOAD PUSH1 0x1 PUSH1 0x1 PUSH1 0xA0 SHL SUB AND CALLER EQ PUSH2 0x3761 JUMPI PUSH1 0x40 MLOAD PUSH3 0x461BCD PUSH1 0xE5 SHL DUP2 MSTORE PUSH1 0x4 ADD PUSH2 0x11EF SWAP1 PUSH2 0x5A96 JUMP JUMPDEST PUSH1 0xE SLOAD PUSH1 0x0 DUP2 DUP2 MSTORE PUSH1 0x25 PUSH1 0x20 MSTORE PUSH1 0x40 SWAP1 KECCAK256 PUSH2 0x377C DUP2 DUP8 PUSH2 0x5382 JUMP JUMPDEST PUSH2 0x3786 DUP2 DUP7 PUSH2 0x53FF JUMP JUMPDEST PUSH2 0x3790 DUP2 DUP6 PUSH2 0x532E JUMP JUMPDEST PUSH2 0x379A DUP2 DUP5 PUSH2 0x52FC JUMP JUMPDEST PUSH1 0xE DUP1 SLOAD SWAP1 PUSH1 0x0 PUSH2 0x37AA DUP4 PUSH2 0x5D46 JUMP JUMPDEST SWAP2 SWAP1 POP SSTORE POP POP POP POP POP POP POP JUMP JUMPDEST PUSH1 0x0 SLOAD PUSH1 0x1 PUSH1 0x1 PUSH1 0xA0 SHL SUB AND CALLER EQ PUSH2 0x37E1 JUMPI PUSH1 0x40 MLOAD PUSH3 0x461BCD PUSH1 0xE5 SHL DUP2 MSTORE PUSH1 0x4 ADD PUSH2 0x11EF SWAP1 PUSH2 0x5A96 JUMP JUMPDEST PUSH1 0x1 PUSH1 0x1 PUSH1 0xA0 SHL SUB DUP2 AND PUSH2 0x37F4 JUMPI PUSH1 0x0 DUP1 REVERT JUMPDEST PUSH1 0x16 DUP1 SLOAD PUSH1 0x1 PUSH1 0x1 PUSH1 0xA0 SHL SUB NOT AND PUSH1 0x1 PUSH1 0x1 PUSH1 0xA0 SHL SUB SWAP3 SWAP1 SWAP3 AND SWAP2 SWAP1 SWAP2 OR SWAP1 SSTORE JUMP JUMPDEST PUSH1 0x0 SLOAD PUSH1 0x1 PUSH1 0x1 PUSH1 0xA0 SHL SUB AND CALLER EQ PUSH2 0x3840 JUMPI PUSH1 0x40 MLOAD PUSH3 0x461BCD PUSH1 0xE5 SHL DUP2 MSTORE PUSH1 0x4 ADD PUSH2 0x11EF SWAP1 PUSH2 0x5A96 JUMP JUMPDEST DUP3 DUP3 DUP2 PUSH1 0x1 EQ DUP1 PUSH2 0x3851 JUMPI POP DUP2 PUSH1 0x2 EQ JUMPDEST DUP1 PUSH2 0x385C JUMPI POP DUP2 PUSH1 0x3 EQ JUMPDEST PUSH2 0x3878 JUMPI PUSH1 0x40 MLOAD PUSH3 0x461BCD PUSH1 0xE5 SHL DUP2 MSTORE PUSH1 0x4 ADD PUSH2 0x11EF SWAP1 PUSH2 0x5ACD JUMP JUMPDEST DUP1 PUSH1 0x1 EQ DUP1 PUSH2 0x3887 JUMPI POP DUP1 PUSH1 0x2 EQ JUMPDEST PUSH2 0x38C6 JUMPI PUSH1 0x40 MLOAD PUSH3 0x461BCD PUSH1 0xE5 SHL DUP2 MSTORE PUSH1 0x20 PUSH1 0x4 DUP3 ADD MSTORE PUSH1 0x10 PUSH1 0x24 DUP3 ADD MSTORE PUSH16 0x496E76616C696420506C616E54797065 PUSH1 0x80 SHL PUSH1 0x44 DUP3 ADD MSTORE PUSH1 0x64 ADD PUSH2 0x11EF JUMP JUMPDEST PUSH1 0x1 PUSH1 0x1 PUSH1 0xA0 SHL SUB DUP4 AND PUSH2 0x38EC JUMPI PUSH1 0x40 MLOAD PUSH3 0x461BCD PUSH1 0xE5 SHL DUP2 MSTORE PUSH1 0x4 ADD PUSH2 0x11EF SWAP1 PUSH2 0x5ACD JUMP JUMPDEST PUSH1 0x1 PUSH1 0x1 PUSH1 0xA0 SHL SUB DUP4 AND PUSH1 0x0 SWAP1 DUP2 MSTORE PUSH1 0x1F PUSH1 0x20 SWAP1 DUP2 MSTORE PUSH1 0x40 DUP1 DUP4 KECCAK256 DUP9 DUP5 MSTORE DUP3 MSTORE DUP1 DUP4 KECCAK256 DUP8 DUP5 MSTORE SWAP1 SWAP2 MSTORE SWAP1 KECCAK256 SLOAD PUSH1 0xFF AND ISZERO PUSH2 0x3958 JUMPI PUSH1 0x40 MLOAD PUSH3 0x461BCD PUSH1 0xE5 SHL DUP2 MSTORE PUSH1 0x20 PUSH1 0x4 DUP3 ADD MSTORE PUSH1 0xD PUSH1 0x24 DUP3 ADD MSTORE PUSH13 0x105B1C9958591E481859191959 PUSH1 0x9A SHL PUSH1 0x44 DUP3 ADD MSTORE PUSH1 0x64 ADD PUSH2 0x11EF JUMP JUMPDEST PUSH1 0x0 DUP6 PUSH1 0x1 EQ ISZERO PUSH2 0x3980 JUMPI POP PUSH1 0xA DUP1 SLOAD SWAP1 DUP2 SWAP1 PUSH1 0x0 PUSH2 0x3976 DUP4 PUSH2 0x5D46 JUMP JUMPDEST SWAP2 SWAP1 POP SSTORE POP PUSH2 0x39B5 JUMP JUMPDEST DUP6 PUSH1 0x2 EQ ISZERO PUSH2 0x399C JUMPI POP PUSH1 0xB DUP1 SLOAD SWAP1 DUP2 SWAP1 PUSH1 0x0 PUSH2 0x3976 DUP4 PUSH2 0x5D46 JUMP JUMPDEST POP PUSH1 0xC DUP1 SLOAD SWAP1 DUP2 SWAP1 PUSH1 0x0 PUSH2 0x39AF DUP4 PUSH2 0x5D46 JUMP JUMPDEST SWAP2 SWAP1 POP SSTORE POP JUMPDEST PUSH1 0x0 DUP7 DUP2 MSTORE PUSH1 0x20 DUP1 DUP1 MSTORE PUSH1 0x40 DUP1 DUP4 KECCAK256 DUP9 DUP5 MSTORE DUP3 MSTORE DUP1 DUP4 KECCAK256 DUP5 DUP5 MSTORE DUP3 MSTORE DUP1 DUP4 KECCAK256 DUP1 SLOAD PUSH1 0x1 PUSH1 0x1 PUSH1 0xA0 SHL SUB NOT AND PUSH1 0x1 PUSH1 0x1 PUSH1 0xA0 SHL SUB DUP10 AND SWAP1 DUP2 OR SWAP1 SWAP2 SSTORE DUP1 DUP5 MSTORE PUSH1 0x1F DUP4 MSTORE DUP2 DUP5 KECCAK256 DUP11 DUP6 MSTORE DUP4 MSTORE DUP2 DUP5 KECCAK256 DUP10 DUP6 MSTORE DUP4 MSTORE SWAP3 DUP2 SWAP1 KECCAK256 DUP1 SLOAD PUSH1 0xFF NOT AND PUSH1 0x1 SWAP1 DUP2 OR SWAP1 SWAP2 SSTORE DUP2 MLOAD DUP11 DUP2 MSTORE SWAP3 DUP4 ADD DUP10 SWAP1 MSTORE SWAP1 DUP3 ADD DUP5 SWAP1 MSTORE PUSH1 0x60 DUP3 ADD MSTORE PUSH1 0x80 DUP2 ADD SWAP2 SWAP1 SWAP2 MSTORE PUSH32 0x33799BCD8B4021A5A37E4D4E3EA6516AE7456C1EA4D5519C89918D90BE01C8D0 SWAP1 PUSH1 0xA0 ADD JUMPDEST PUSH1 0x40 MLOAD DUP1 SWAP2 SUB SWAP1 LOG1 POP POP POP POP POP POP JUMP JUMPDEST PUSH1 0x0 SLOAD PUSH1 0x1 PUSH1 0x1 PUSH1 0xA0 SHL SUB AND CALLER EQ PUSH2 0x3A97 JUMPI PUSH1 0x40 MLOAD PUSH3 0x461BCD PUSH1 0xE5 SHL DUP2 MSTORE PUSH1 0x4 ADD PUSH2 0x11EF SWAP1 PUSH2 0x5A96 JUMP JUMPDEST DUP3 DUP3 DUP2 PUSH1 0x1 EQ DUP1 PUSH2 0x3AA8 JUMPI POP DUP2 PUSH1 0x2 EQ JUMPDEST DUP1 PUSH2 0x3AB3 JUMPI POP DUP2 PUSH1 0x3 EQ JUMPDEST PUSH2 0x3ACF JUMPI PUSH1 0x40 MLOAD PUSH3 0x461BCD PUSH1 0xE5 SHL DUP2 MSTORE PUSH1 0x4 ADD PUSH2 0x11EF SWAP1 PUSH2 0x5ACD JUMP JUMPDEST DUP1 PUSH1 0x1 EQ DUP1 PUSH2 0x3ADE JUMPI POP DUP1 PUSH1 0x2 EQ JUMPDEST PUSH2 0x3B1D JUMPI PUSH1 0x40 MLOAD PUSH3 0x461BCD PUSH1 0xE5 SHL DUP2 MSTORE PUSH1 0x20 PUSH1 0x4 DUP3 ADD MSTORE PUSH1 0x10 PUSH1 0x24 DUP3 ADD MSTORE PUSH16 0x496E76616C696420506C616E54797065 PUSH1 0x80 SHL PUSH1 0x44 DUP3 ADD MSTORE PUSH1 0x64 ADD PUSH2 0x11EF JUMP JUMPDEST PUSH1 0x1 PUSH1 0x1 PUSH1 0xA0 SHL SUB DUP7 AND PUSH1 0x0 SWAP1 DUP2 MSTORE PUSH1 0x1F PUSH1 0x20 SWAP1 DUP2 MSTORE PUSH1 0x40 DUP1 DUP4 KECCAK256 DUP9 DUP5 MSTORE DUP3 MSTORE DUP1 DUP4 KECCAK256 DUP8 DUP5 MSTORE SWAP1 SWAP2 MSTORE SWAP1 KECCAK256 SLOAD PUSH1 0xFF AND ISZERO ISZERO DUP4 ISZERO ISZERO EQ PUSH2 0x3BD1 JUMPI PUSH1 0x1 PUSH1 0x1 PUSH1 0xA0 SHL SUB DUP7 AND PUSH1 0x0 DUP2 DUP2 MSTORE PUSH1 0x1F PUSH1 0x20 SWAP1 DUP2 MSTORE PUSH1 0x40 DUP1 DUP4 KECCAK256 DUP10 DUP5 MSTORE DUP3 MSTORE DUP1 DUP4 KECCAK256 DUP9 DUP5 MSTORE DUP3 MSTORE SWAP2 DUP3 SWAP1 KECCAK256 DUP1 SLOAD PUSH1 0xFF NOT AND DUP8 ISZERO ISZERO SWAP1 DUP2 OR SWAP1 SWAP2 SSTORE DUP3 MLOAD SWAP4 DUP5 MSTORE SWAP1 DUP4 ADD DUP9 SWAP1 MSTORE SWAP1 DUP3 ADD DUP7 SWAP1 MSTORE PUSH1 0x60 DUP3 ADD MSTORE PUSH32 0x5D2B3A2AE84951934C280ADB60C06FF3159E61B6EEB9910FD745C11728D679E6 SWAP1 PUSH1 0x80 ADD PUSH2 0x3A5D JUMP JUMPDEST POP POP POP POP POP POP JUMP JUMPDEST DUP5 DUP7 PUSH1 0x2 DUP7 PUSH1 0x1 PUSH1 0x1 PUSH1 0xA0 SHL SUB DUP2 AND PUSH2 0x3C04 JUMPI PUSH1 0x40 MLOAD PUSH3 0x461BCD PUSH1 0xE5 SHL DUP2 MSTORE PUSH1 0x4 ADD PUSH2 0x11EF SWAP1 PUSH2 0x5ACD JUMP JUMPDEST PUSH1 0x15 SLOAD PUSH1 0xFF AND PUSH2 0x3C62 JUMPI PUSH1 0x17 SLOAD PUSH1 0x1 PUSH1 0x1 PUSH1 0xA0 SHL SUB DUP3 DUP2 AND SWAP2 AND EQ PUSH2 0x3C62 JUMPI PUSH1 0x40 MLOAD PUSH3 0x461BCD PUSH1 0xE5 SHL DUP2 MSTORE PUSH1 0x20 PUSH1 0x4 DUP3 ADD MSTORE PUSH1 0x14 PUSH1 0x24 DUP3 ADD MSTORE PUSH20 0x4D756C746920746F6B656E20696E616374697665 PUSH1 0x60 SHL PUSH1 0x44 DUP3 ADD MSTORE PUSH1 0x64 ADD PUSH2 0x11EF JUMP JUMPDEST PUSH1 0x1 PUSH1 0x1 PUSH1 0xA0 SHL SUB DUP5 AND PUSH1 0x0 SWAP1 DUP2 MSTORE PUSH1 0x1F PUSH1 0x20 SWAP1 DUP2 MSTORE PUSH1 0x40 DUP1 DUP4 KECCAK256 DUP7 DUP5 MSTORE DUP3 MSTORE DUP1 DUP4 KECCAK256 DUP6 DUP5 MSTORE SWAP1 SWAP2 MSTORE SWAP1 KECCAK256 SLOAD PUSH1 0xFF AND PUSH2 0x3CCA JUMPI PUSH1 0x40 MLOAD PUSH3 0x461BCD PUSH1 0xE5 SHL DUP2 MSTORE PUSH1 0x20 PUSH1 0x4 DUP3 ADD MSTORE PUSH1 0xA PUSH1 0x24 DUP3 ADD MSTORE PUSH10 0x4E6F7420616374697665 PUSH1 0xB0 SHL PUSH1 0x44 DUP3 ADD MSTORE PUSH1 0x64 ADD PUSH2 0x11EF JUMP JUMPDEST CALLER PUSH1 0x0 SWAP1 DUP2 MSTORE PUSH1 0x21 PUSH1 0x20 SWAP1 DUP2 MSTORE PUSH1 0x40 DUP1 DUP4 KECCAK256 PUSH1 0x1 PUSH1 0x1 PUSH1 0xA0 SHL SUB DUP9 AND DUP5 MSTORE SWAP1 SWAP2 MSTORE SWAP1 KECCAK256 SLOAD PUSH1 0xFF AND ISZERO PUSH2 0x3D33 JUMPI PUSH1 0x40 MLOAD PUSH3 0x461BCD PUSH1 0xE5 SHL DUP2 MSTORE PUSH1 0x20 PUSH1 0x4 DUP3 ADD MSTORE PUSH1 0x12 PUSH1 0x24 DUP3 ADD MSTORE PUSH18 0x42657420616C726561647920616374697665 PUSH1 0x70 SHL PUSH1 0x44 DUP3 ADD MSTORE PUSH1 0x64 ADD PUSH2 0x11EF JUMP JUMPDEST PUSH1 0x2 PUSH1 0x1 SLOAD EQ ISZERO PUSH2 0x3D56 JUMPI PUSH1 0x40 MLOAD PUSH3 0x461BCD PUSH1 0xE5 SHL DUP2 MSTORE PUSH1 0x4 ADD PUSH2 0x11EF SWAP1 PUSH2 0x5AEE JUMP JUMPDEST PUSH1 0x2 PUSH1 0x1 SSTORE PUSH1 0x0 DUP7 DUP2 MSTORE PUSH1 0x26 PUSH1 0x20 MSTORE PUSH1 0x40 SWAP1 KECCAK256 SLOAD DUP8 ISZERO DUP1 ISZERO SWAP1 PUSH2 0x3D7A JUMPI POP PUSH1 0xE SLOAD DUP9 LT JUMPDEST PUSH2 0x3D83 JUMPI PUSH1 0x0 DUP1 REVERT JUMPDEST DUP1 PUSH2 0x3DA0 JUMPI PUSH1 0x40 MLOAD PUSH3 0x461BCD PUSH1 0xE5 SHL DUP2 MSTORE PUSH1 0x4 ADD PUSH2 0x11EF SWAP1 PUSH2 0x5ACD JUMP JUMPDEST PUSH2 0x3DAD CALLER DUP14 DUP13 DUP13 DUP11 PUSH2 0x4213 JUMP JUMPDEST PUSH2 0x3DBA CALLER DUP10 DUP4 PUSH1 0x2 PUSH2 0x4964 JUMP JUMPDEST POP POP PUSH1 0x1 DUP1 SSTORE POP POP POP POP POP POP POP POP POP POP JUMP JUMPDEST PUSH1 0x0 SLOAD PUSH1 0x1 PUSH1 0x1 PUSH1 0xA0 SHL SUB AND CALLER EQ PUSH2 0x3DF6 JUMPI PUSH1 0x40 MLOAD PUSH3 0x461BCD PUSH1 0xE5 SHL DUP2 MSTORE PUSH1 0x4 ADD PUSH2 0x11EF SWAP1 PUSH2 0x5A96 JUMP JUMPDEST PUSH1 0x1 PUSH1 0x1 PUSH1 0xA0 SHL SUB DUP2 AND PUSH2 0x3E1C JUMPI PUSH1 0x40 MLOAD PUSH3 0x461BCD PUSH1 0xE5 SHL DUP2 MSTORE PUSH1 0x4 ADD PUSH2 0x11EF SWAP1 PUSH2 0x5A96 JUMP JUMPDEST PUSH32 0x8BE0079C531659141344CD1FD0A4F28419497F9722A3DAAFE3B4186F6B6457E0 PUSH2 0x3E4F PUSH1 0x0 SLOAD PUSH1 0x1 PUSH1 0x1 PUSH1 0xA0 SHL SUB AND SWAP1 JUMP JUMPDEST PUSH1 0x40 DUP1 MLOAD PUSH1 0x1 PUSH1 0x1 PUSH1 0xA0 SHL SUB SWAP3 DUP4 AND DUP2 MSTORE SWAP2 DUP5 AND PUSH1 0x20 DUP4 ADD MSTORE ADD PUSH1 0x40 MLOAD DUP1 SWAP2 SUB SWAP1 LOG1 PUSH2 0x36CE DUP2 PUSH2 0x5114 JUMP JUMPDEST PUSH1 0x0 SLOAD PUSH1 0x1 PUSH1 0x1 PUSH1 0xA0 SHL SUB AND CALLER EQ PUSH2 0x3EA4 JUMPI PUSH1 0x40 MLOAD PUSH3 0x461BCD PUSH1 0xE5 SHL DUP2 MSTORE PUSH1 0x4 ADD PUSH2 0x11EF SWAP1 PUSH2 0x5A96 JUMP JUMPDEST PUSH1 0x64 DUP4 GT ISZERO PUSH2 0x3EB2 JUMPI PUSH1 0x0 DUP1 REVERT JUMPDEST DUP1 DUP3 LT PUSH2 0x3EBE JUMPI PUSH1 0x0 DUP1 REVERT JUMPDEST PUSH1 0x0 SWAP1 DUP2 MSTORE PUSH1 0x27 PUSH1 0x20 SWAP1 DUP2 MSTORE PUSH1 0x40 DUP1 DUP4 KECCAK256 SWAP4 DUP4 MSTORE SWAP3 SWAP1 MSTORE KECCAK256 SSTORE JUMP JUMPDEST PUSH1 0x0 DUP3 GT DUP1 ISZERO PUSH2 0x3EEA JUMPI POP PUSH1 0x64 DUP3 GT ISZERO JUMPDEST PUSH2 0x3F06 JUMPI PUSH1 0x40 MLOAD PUSH3 0x461BCD PUSH1 0xE5 SHL DUP2 MSTORE PUSH1 0x4 ADD PUSH2 0x11EF SWAP1 PUSH2 0x5A67 JUMP JUMPDEST PUSH1 0x0 DUP2 GT DUP1 ISZERO PUSH2 0x3F17 JUMPI POP PUSH1 0x64 DUP2 GT ISZERO JUMPDEST PUSH2 0x3F33 JUMPI PUSH1 0x40 MLOAD PUSH3 0x461BCD PUSH1 0xE5 SHL DUP2 MSTORE PUSH1 0x4 ADD PUSH2 0x11EF SWAP1 PUSH2 0x5A67 JUMP JUMPDEST DUP4 SLOAD PUSH1 0x1 PUSH1 0x1 PUSH1 0xF8 SHL SUB PUSH1 0x1 PUSH1 0x1 PUSH1 0x78 SHL SUB SWAP1 SWAP3 AND PUSH1 0x1 PUSH1 0x80 SHL MUL PUSH32 0xFF000000000000000000000000000000FFFFFFFFFFFFFFFF0000000000000000 PUSH1 0x1 PUSH1 0x1 PUSH1 0x40 SHL SUB SWAP6 DUP7 AND PUSH1 0x1 PUSH1 0x40 SHL MUL AND PUSH1 0x1 PUSH1 0x1 PUSH1 0xF8 SHL SUB NOT SWAP1 SWAP3 AND SWAP2 SWAP1 SWAP2 OR SWAP3 SWAP1 SWAP4 AND SWAP2 SWAP1 SWAP2 OR SWAP2 SWAP1 SWAP2 OR AND PUSH1 0x1 PUSH1 0xF8 SHL OR SWAP1 SSTORE JUMP JUMPDEST PUSH1 0x1 DUP4 ADD SLOAD DUP4 SLOAD PUSH1 0x0 SWAP2 PUSH1 0x1 PUSH1 0x1 PUSH1 0x60 SHL SUB AND SWAP1 DUP3 SWAP1 PUSH1 0x1 PUSH1 0xF8 SHL SWAP1 DIV PUSH1 0xFF AND ISZERO PUSH2 0x4024 JUMPI DUP2 DUP6 LT ISZERO PUSH2 0x401F JUMPI DUP2 PUSH2 0x3FE0 DUP7 DUP3 PUSH2 0x5D12 JUMP JUMPDEST PUSH2 0x3FEB SWAP1 PUSH1 0x64 PUSH2 0x5CCB JUMP JUMPDEST PUSH2 0x3FF5 SWAP2 SWAP1 PUSH2 0x5BBB JUMP JUMPDEST SWAP1 POP DUP4 DUP2 LT PUSH2 0x401F JUMPI POP POP DUP4 SLOAD PUSH1 0x1 PUSH1 0x80 SHL PUSH1 0x1 PUSH1 0xF8 SHL SUB NOT AND PUSH1 0x1 PUSH1 0x80 SHL OR DUP5 SSTORE POP PUSH1 0x1 PUSH2 0x1BDA JUMP JUMPDEST PUSH2 0x4076 JUMP JUMPDEST DUP2 DUP6 GT ISZERO PUSH2 0x4076 JUMPI DUP2 PUSH2 0x4037 DUP2 DUP8 PUSH2 0x5D12 JUMP JUMPDEST PUSH2 0x4042 SWAP1 PUSH1 0x64 PUSH2 0x5CCB JUMP JUMPDEST PUSH2 0x404C SWAP2 SWAP1 PUSH2 0x5BBB JUMP JUMPDEST SWAP1 POP DUP4 DUP2 LT PUSH2 0x4076 JUMPI POP POP DUP4 SLOAD PUSH1 0x1 PUSH1 0x80 SHL PUSH1 0x1 PUSH1 0xF8 SHL SUB NOT AND PUSH1 0x1 PUSH1 0x80 SHL OR DUP5 SSTORE POP PUSH1 0x1 PUSH2 0x1BDA JUMP JUMPDEST POP POP DUP4 SLOAD PUSH1 0x1 PUSH1 0x80 SHL PUSH1 0x1 PUSH1 0xF8 SHL SUB NOT AND PUSH1 0x1 PUSH1 0x81 SHL OR SWAP1 SWAP4 SSTORE POP PUSH1 0x2 SWAP3 SWAP2 POP POP JUMP JUMPDEST DUP4 SLOAD PUSH4 0xFFFFFFFF SWAP2 DUP3 AND PUSH1 0x1 PUSH1 0xE0 SHL MUL PUSH1 0x1 PUSH1 0x1 PUSH1 0xE0 SHL SUB TIMESTAMP SWAP4 SWAP1 SWAP4 AND PUSH1 0x1 PUSH1 0xC0 SHL MUL SWAP3 SWAP1 SWAP3 AND PUSH1 0x1 PUSH1 0x1 PUSH1 0xC0 SHL SUB PUSH1 0x1 PUSH1 0x1 PUSH1 0x60 SHL SUB SWAP5 DUP6 AND PUSH1 0x1 PUSH1 0x60 SHL MUL PUSH1 0x1 PUSH1 0x1 PUSH1 0xC0 SHL SUB NOT SWAP1 SWAP4 AND SWAP5 SWAP1 SWAP6 AND SWAP4 SWAP1 SWAP4 OR OR SWAP3 SWAP1 SWAP3 AND OR OR SWAP1 SSTORE JUMP JUMPDEST PUSH1 0x40 DUP1 MLOAD PUSH1 0x1 PUSH1 0x1 PUSH1 0xA0 SHL SUB DUP5 DUP2 AND PUSH1 0x24 DUP4 ADD MSTORE PUSH1 0x44 DUP1 DUP4 ADD DUP6 SWAP1 MSTORE DUP4 MLOAD DUP1 DUP5 SUB SWAP1 SWAP2 ADD DUP2 MSTORE PUSH1 0x64 SWAP1 SWAP3 ADD DUP4 MSTORE PUSH1 0x20 DUP3 ADD DUP1 MLOAD PUSH1 0x1 PUSH1 0x1 PUSH1 0xE0 SHL SUB AND PUSH4 0xA9059CBB PUSH1 0xE0 SHL OR SWAP1 MSTORE SWAP2 MLOAD PUSH1 0x0 SWAP3 DUP4 SWAP3 SWAP1 DUP8 AND SWAP2 PUSH2 0x4154 SWAP2 SWAP1 PUSH2 0x5A2C JUMP JUMPDEST PUSH1 0x0 PUSH1 0x40 MLOAD DUP1 DUP4 SUB DUP2 PUSH1 0x0 DUP7 GAS CALL SWAP2 POP POP RETURNDATASIZE DUP1 PUSH1 0x0 DUP2 EQ PUSH2 0x4191 JUMPI PUSH1 0x40 MLOAD SWAP2 POP PUSH1 0x1F NOT PUSH1 0x3F RETURNDATASIZE ADD AND DUP3 ADD PUSH1 0x40 MSTORE RETURNDATASIZE DUP3 MSTORE RETURNDATASIZE PUSH1 0x0 PUSH1 0x20 DUP5 ADD RETURNDATACOPY PUSH2 0x4196 JUMP JUMPDEST PUSH1 0x60 SWAP2 POP JUMPDEST POP SWAP2 POP SWAP2 POP DUP2 DUP1 ISZERO PUSH2 0x41C0 JUMPI POP DUP1 MLOAD ISZERO DUP1 PUSH2 0x41C0 JUMPI POP DUP1 DUP1 PUSH1 0x20 ADD SWAP1 MLOAD DUP2 ADD SWAP1 PUSH2 0x41C0 SWAP2 SWAP1 PUSH2 0x5817 JUMP JUMPDEST PUSH2 0x420C JUMPI PUSH1 0x40 MLOAD PUSH3 0x461BCD PUSH1 0xE5 SHL DUP2 MSTORE PUSH1 0x20 PUSH1 0x4 DUP3 ADD MSTORE PUSH1 0x1F PUSH1 0x24 DUP3 ADD MSTORE PUSH32 0x5472616E7366657248656C7065723A205452414E534645525F4641494C454400 PUSH1 0x44 DUP3 ADD MSTORE PUSH1 0x64 ADD PUSH2 0x11EF JUMP JUMPDEST POP POP POP POP POP JUMP JUMPDEST PUSH1 0x0 PUSH1 0x64 PUSH1 0x12 SLOAD DUP7 PUSH2 0x4225 SWAP2 SWAP1 PUSH2 0x5CCB JUMP JUMPDEST PUSH2 0x422F SWAP2 SWAP1 PUSH2 0x5BBB JUMP JUMPDEST SWAP1 POP DUP5 PUSH2 0x423C DUP3 DUP3 PUSH2 0x5D12 JUMP JUMPDEST PUSH1 0x17 SLOAD SWAP1 SWAP7 POP PUSH1 0x0 SWAP1 PUSH1 0x1 PUSH1 0x1 PUSH1 0xA0 SHL SUB DUP7 DUP2 AND SWAP2 AND EQ PUSH2 0x44EC JUMPI PUSH2 0x4260 DUP6 PUSH2 0x33AC JUMP JUMPDEST SWAP1 POP PUSH1 0x0 PUSH1 0x1 PUSH1 0x1 PUSH1 0xA0 SHL SUB DUP7 AND PUSH1 0x1 EQ ISZERO PUSH2 0x42B9 JUMPI DUP3 CALLVALUE EQ PUSH2 0x4295 JUMPI PUSH1 0x40 MLOAD PUSH3 0x461BCD PUSH1 0xE5 SHL DUP2 MSTORE PUSH1 0x4 ADD PUSH2 0x11EF SWAP1 PUSH2 0x5ACD JUMP JUMPDEST PUSH8 0xDE0B6B3A7640000 PUSH2 0x42A8 DUP4 DUP6 PUSH2 0x5CCB JUMP JUMPDEST PUSH2 0x42B2 SWAP2 SWAP1 PUSH2 0x5BBB JUMP JUMPDEST SWAP1 POP PUSH2 0x434C JUMP JUMPDEST DUP6 PUSH1 0x1 PUSH1 0x1 PUSH1 0xA0 SHL SUB AND PUSH4 0x313CE567 PUSH1 0x40 MLOAD DUP2 PUSH4 0xFFFFFFFF AND PUSH1 0xE0 SHL DUP2 MSTORE PUSH1 0x4 ADD PUSH1 0x20 PUSH1 0x40 MLOAD DUP1 DUP4 SUB DUP2 DUP7 DUP1 EXTCODESIZE ISZERO DUP1 ISZERO PUSH2 0x42F2 JUMPI PUSH1 0x0 DUP1 REVERT JUMPDEST POP GAS STATICCALL ISZERO DUP1 ISZERO PUSH2 0x4306 JUMPI RETURNDATASIZE PUSH1 0x0 DUP1 RETURNDATACOPY RETURNDATASIZE PUSH1 0x0 REVERT JUMPDEST POP POP POP POP PUSH1 0x40 MLOAD RETURNDATASIZE PUSH1 0x1F NOT PUSH1 0x1F DUP3 ADD AND DUP3 ADD DUP1 PUSH1 0x40 MSTORE POP DUP2 ADD SWAP1 PUSH2 0x432A SWAP2 SWAP1 PUSH2 0x5A0F JUMP JUMPDEST PUSH2 0x4335 SWAP1 PUSH1 0xA PUSH2 0x5C20 JUMP JUMPDEST PUSH2 0x433F DUP4 DUP6 PUSH2 0x5CCB JUMP JUMPDEST PUSH2 0x4349 SWAP2 SWAP1 PUSH2 0x5BBB JUMP JUMPDEST SWAP1 POP JUMPDEST PUSH1 0x4 DUP1 SLOAD PUSH1 0x17 SLOAD PUSH1 0x40 MLOAD PUSH4 0x70A08231 PUSH1 0xE0 SHL DUP2 MSTORE ADDRESS SWAP4 DUP2 ADD SWAP4 SWAP1 SWAP4 MSTORE SWAP1 SWAP2 PUSH1 0x1 PUSH1 0x1 PUSH1 0xA0 SHL SUB SWAP1 SWAP2 AND SWAP1 PUSH4 0x70A08231 SWAP1 PUSH1 0x24 ADD PUSH1 0x20 PUSH1 0x40 MLOAD DUP1 DUP4 SUB DUP2 DUP7 DUP1 EXTCODESIZE ISZERO DUP1 ISZERO PUSH2 0x4397 JUMPI PUSH1 0x0 DUP1 REVERT JUMPDEST POP GAS STATICCALL ISZERO DUP1 ISZERO PUSH2 0x43AB JUMPI RETURNDATASIZE PUSH1 0x0 DUP1 RETURNDATACOPY RETURNDATASIZE PUSH1 0x0 REVERT JUMPDEST POP POP POP POP PUSH1 0x40 MLOAD RETURNDATASIZE PUSH1 0x1F NOT PUSH1 0x1F DUP3 ADD AND DUP3 ADD DUP1 PUSH1 0x40 MSTORE POP DUP2 ADD SWAP1 PUSH2 0x43CF SWAP2 SWAP1 PUSH2 0x584D JUMP JUMPDEST GT ISZERO PUSH2 0x44B6 JUMPI PUSH1 0x4 DUP1 SLOAD PUSH1 0x17 SLOAD PUSH1 0x40 MLOAD PUSH4 0x70A08231 PUSH1 0xE0 SHL DUP2 MSTORE ADDRESS SWAP4 DUP2 ADD SWAP4 SWAP1 SWAP4 MSTORE DUP4 SWAP3 PUSH1 0x1 PUSH1 0x1 PUSH1 0xA0 SHL SUB SWAP1 SWAP2 AND SWAP1 PUSH4 0x70A08231 SWAP1 PUSH1 0x24 ADD PUSH1 0x20 PUSH1 0x40 MLOAD DUP1 DUP4 SUB DUP2 DUP7 DUP1 EXTCODESIZE ISZERO DUP1 ISZERO PUSH2 0x4420 JUMPI PUSH1 0x0 DUP1 REVERT JUMPDEST POP GAS STATICCALL ISZERO DUP1 ISZERO PUSH2 0x4434 JUMPI RETURNDATASIZE PUSH1 0x0 DUP1 RETURNDATACOPY RETURNDATASIZE PUSH1 0x0 REVERT JUMPDEST POP POP POP POP PUSH1 0x40 MLOAD RETURNDATASIZE PUSH1 0x1F NOT PUSH1 0x1F DUP3 ADD AND DUP3 ADD DUP1 PUSH1 0x40 MSTORE POP DUP2 ADD SWAP1 PUSH2 0x4458 SWAP2 SWAP1 PUSH2 0x584D JUMP JUMPDEST PUSH2 0x4462 SWAP2 SWAP1 PUSH2 0x5D12 JUMP JUMPDEST PUSH2 0x446C SWAP2 SWAP1 PUSH2 0x5BA3 JUMP JUMPDEST PUSH1 0x4 SLOAD PUSH1 0x7 SLOAD PUSH2 0x447C SWAP2 SWAP1 PUSH2 0x5CCB JUMP JUMPDEST LT ISZERO PUSH2 0x44B6 JUMPI PUSH1 0x40 MLOAD PUSH3 0x461BCD PUSH1 0xE5 SHL DUP2 MSTORE PUSH1 0x20 PUSH1 0x4 DUP3 ADD MSTORE PUSH1 0x9 PUSH1 0x24 DUP3 ADD MSTORE PUSH9 0x2132BA3330B1BA37B9 PUSH1 0xB9 SHL PUSH1 0x44 DUP3 ADD MSTORE PUSH1 0x64 ADD PUSH2 0x11EF JUMP JUMPDEST PUSH1 0x8 SLOAD DUP2 LT ISZERO DUP1 ISZERO PUSH2 0x44CA JUMPI POP PUSH1 0x9 SLOAD DUP2 GT ISZERO JUMPDEST PUSH2 0x44E6 JUMPI PUSH1 0x40 MLOAD PUSH3 0x461BCD PUSH1 0xE5 SHL DUP2 MSTORE PUSH1 0x4 ADD PUSH2 0x11EF SWAP1 PUSH2 0x5ACD JUMP JUMPDEST POP PUSH2 0x4686 JUMP JUMPDEST PUSH1 0x4 DUP1 SLOAD PUSH1 0x17 SLOAD PUSH1 0x40 MLOAD PUSH4 0x70A08231 PUSH1 0xE0 SHL DUP2 MSTORE ADDRESS SWAP4 DUP2 ADD SWAP4 SWAP1 SWAP4 MSTORE SWAP1 SWAP2 PUSH1 0x1 PUSH1 0x1 PUSH1 0xA0 SHL SUB SWAP1 SWAP2 AND SWAP1 PUSH4 0x70A08231 SWAP1 PUSH1 0x24 ADD PUSH1 0x20 PUSH1 0x40 MLOAD DUP1 DUP4 SUB DUP2 DUP7 DUP1 EXTCODESIZE ISZERO DUP1 ISZERO PUSH2 0x4537 JUMPI PUSH1 0x0 DUP1 REVERT JUMPDEST POP GAS STATICCALL ISZERO DUP1 ISZERO PUSH2 0x454B JUMPI RETURNDATASIZE PUSH1 0x0 DUP1 RETURNDATACOPY RETURNDATASIZE PUSH1 0x0 REVERT JUMPDEST POP POP POP POP PUSH1 0x40 MLOAD RETURNDATASIZE PUSH1 0x1F NOT PUSH1 0x1F DUP3 ADD AND DUP3 ADD DUP1 PUSH1 0x40 MSTORE POP DUP2 ADD SWAP1 PUSH2 0x456F SWAP2 SWAP1 PUSH2 0x584D JUMP JUMPDEST GT ISZERO PUSH2 0x4656 JUMPI PUSH1 0x4 DUP1 SLOAD PUSH1 0x17 SLOAD PUSH1 0x40 MLOAD PUSH4 0x70A08231 PUSH1 0xE0 SHL DUP2 MSTORE ADDRESS SWAP4 DUP2 ADD SWAP4 SWAP1 SWAP4 MSTORE DUP5 SWAP3 PUSH1 0x1 PUSH1 0x1 PUSH1 0xA0 SHL SUB SWAP1 SWAP2 AND SWAP1 PUSH4 0x70A08231 SWAP1 PUSH1 0x24 ADD PUSH1 0x20 PUSH1 0x40 MLOAD DUP1 DUP4 SUB DUP2 DUP7 DUP1 EXTCODESIZE ISZERO DUP1 ISZERO PUSH2 0x45C0 JUMPI PUSH1 0x0 DUP1 REVERT JUMPDEST POP GAS STATICCALL ISZERO DUP1 ISZERO PUSH2 0x45D4 JUMPI RETURNDATASIZE PUSH1 0x0 DUP1 RETURNDATACOPY RETURNDATASIZE PUSH1 0x0 REVERT JUMPDEST POP POP POP POP PUSH1 0x40 MLOAD RETURNDATASIZE PUSH1 0x1F NOT PUSH1 0x1F DUP3 ADD AND DUP3 ADD DUP1 PUSH1 0x40 MSTORE POP DUP2 ADD SWAP1 PUSH2 0x45F8 SWAP2 SWAP1 PUSH2 0x584D JUMP JUMPDEST PUSH2 0x4602 SWAP2 SWAP1 PUSH2 0x5D12 JUMP JUMPDEST PUSH2 0x460C SWAP2 SWAP1 PUSH2 0x5BA3 JUMP JUMPDEST PUSH1 0x4 SLOAD PUSH1 0x7 SLOAD PUSH2 0x461C SWAP2 SWAP1 PUSH2 0x5CCB JUMP JUMPDEST LT ISZERO PUSH2 0x4656 JUMPI PUSH1 0x40 MLOAD PUSH3 0x461BCD PUSH1 0xE5 SHL DUP2 MSTORE PUSH1 0x20 PUSH1 0x4 DUP3 ADD MSTORE PUSH1 0x9 PUSH1 0x24 DUP3 ADD MSTORE PUSH9 0x2132BA3330B1BA37B9 PUSH1 0xB9 SHL PUSH1 0x44 DUP3 ADD MSTORE PUSH1 0x64 ADD PUSH2 0x11EF JUMP JUMPDEST PUSH1 0x8 SLOAD DUP3 LT ISZERO DUP1 ISZERO PUSH2 0x466A JUMPI POP PUSH1 0x9 SLOAD DUP3 GT ISZERO JUMPDEST PUSH2 0x4686 JUMPI PUSH1 0x40 MLOAD PUSH3 0x461BCD PUSH1 0xE5 SHL DUP2 MSTORE PUSH1 0x4 ADD PUSH2 0x11EF SWAP1 PUSH2 0x5ACD JUMP JUMPDEST PUSH1 0x1 PUSH1 0x1 PUSH1 0xA0 SHL SUB DUP9 AND PUSH1 0x0 DUP2 DUP2 MSTORE PUSH1 0x22 PUSH1 0x20 SWAP1 DUP2 MSTORE PUSH1 0x40 DUP1 DUP4 KECCAK256 PUSH1 0x1E DUP4 MSTORE DUP2 DUP5 KECCAK256 SLOAD DUP1 DUP6 MSTORE SWAP1 DUP4 MSTORE DUP2 DUP5 KECCAK256 SWAP5 DUP5 MSTORE PUSH1 0x23 DUP4 MSTORE DUP2 DUP5 KECCAK256 SWAP1 DUP5 MSTORE SWAP1 SWAP2 MSTORE SWAP1 KECCAK256 CALLVALUE ISZERO DUP1 ISZERO PUSH2 0x46DC JUMPI POP PUSH1 0x1 PUSH1 0x1 PUSH1 0xA0 SHL SUB DUP8 AND PUSH1 0x1 EQ ISZERO JUMPDEST ISZERO PUSH2 0x47C8 JUMPI PUSH2 0x46ED DUP8 DUP12 ADDRESS DUP13 PUSH2 0x5136 JUMP JUMPDEST PUSH1 0x0 DUP6 GT DUP1 ISZERO PUSH2 0x470B JUMPI POP PUSH1 0x17 SLOAD PUSH1 0x1 PUSH1 0x1 PUSH1 0xA0 SHL SUB DUP9 DUP2 AND SWAP2 AND EQ ISZERO JUMPDEST ISZERO PUSH2 0x472E JUMPI PUSH1 0x16 SLOAD PUSH2 0x4729 SWAP1 DUP9 SWAP1 PUSH1 0x1 PUSH1 0x1 PUSH1 0xA0 SHL SUB AND ADDRESS DUP9 PUSH2 0x5136 JUMP JUMPDEST PUSH2 0x47B2 JUMP JUMPDEST PUSH1 0x0 DUP6 GT DUP1 ISZERO PUSH2 0x474B JUMPI POP PUSH1 0x17 SLOAD PUSH1 0x1 PUSH1 0x1 PUSH1 0xA0 SHL SUB DUP9 DUP2 AND SWAP2 AND EQ JUMPDEST ISZERO PUSH2 0x47B2 JUMPI DUP5 PUSH1 0x14 PUSH1 0x0 DUP3 DUP3 SLOAD PUSH2 0x4762 SWAP2 SWAP1 PUSH2 0x5BA3 JUMP JUMPDEST SWAP1 SWAP2 SSTORE POP POP PUSH1 0x13 SLOAD PUSH1 0x14 SLOAD GT ISZERO PUSH2 0x47B2 JUMPI PUSH1 0x4 SLOAD PUSH1 0x14 SLOAD PUSH1 0xD SLOAD PUSH1 0x0 SWAP1 DUP2 MSTORE PUSH1 0x24 PUSH1 0x20 MSTORE PUSH1 0x40 SWAP1 KECCAK256 PUSH2 0x4797 SWAP3 SWAP1 SWAP2 PUSH1 0x2 PUSH2 0x4099 JUMP JUMPDEST PUSH1 0xD DUP1 SLOAD SWAP1 PUSH1 0x0 PUSH2 0x47A7 DUP4 PUSH2 0x5D46 JUMP JUMPDEST SWAP1 SWAP2 SSTORE POP POP PUSH1 0x0 PUSH1 0x14 SSTORE JUMPDEST DUP1 SLOAD PUSH1 0xFF PUSH1 0xF0 SHL NOT AND PUSH1 0x1 PUSH1 0xF0 SHL OR DUP2 SSTORE PUSH2 0x4834 JUMP JUMPDEST PUSH1 0x1 PUSH1 0x1 PUSH1 0xA0 SHL SUB DUP8 AND PUSH1 0x1 EQ PUSH2 0x4818 JUMPI PUSH1 0x40 MLOAD PUSH3 0x461BCD PUSH1 0xE5 SHL DUP2 MSTORE PUSH1 0x20 PUSH1 0x4 DUP3 ADD MSTORE PUSH1 0x14 PUSH1 0x24 DUP3 ADD MSTORE PUSH20 0x426574546F6B656E206D75737420626520307831 PUSH1 0x60 SHL PUSH1 0x44 DUP3 ADD MSTORE PUSH1 0x64 ADD PUSH2 0x11EF JUMP JUMPDEST DUP5 ISZERO PUSH2 0x4834 JUMPI PUSH1 0x16 SLOAD PUSH2 0x4834 SWAP1 PUSH1 0x1 PUSH1 0x1 PUSH1 0xA0 SHL SUB AND DUP7 PUSH2 0x4BED JUMP JUMPDEST PUSH1 0x1A SLOAD PUSH1 0x40 MLOAD PUSH4 0x5620C32D PUSH1 0xE1 SHL DUP2 MSTORE PUSH1 0x1 PUSH1 0x1 PUSH1 0xA0 SHL SUB DUP11 DUP2 AND PUSH1 0x4 DUP4 ADD MSTORE PUSH1 0x0 PUSH1 0x24 DUP4 ADD MSTORE PUSH2 0x4958 SWAP3 DUP13 SWAP3 SWAP2 AND SWAP1 PUSH4 0xAC41865A SWAP1 PUSH1 0x44 ADD PUSH1 0x20 PUSH1 0x40 MLOAD DUP1 DUP4 SUB DUP2 DUP7 DUP1 EXTCODESIZE ISZERO DUP1 ISZERO PUSH2 0x4885 JUMPI PUSH1 0x0 DUP1 REVERT JUMPDEST POP GAS STATICCALL ISZERO DUP1 ISZERO PUSH2 0x4899 JUMPI RETURNDATASIZE PUSH1 0x0 DUP1 RETURNDATACOPY RETURNDATASIZE PUSH1 0x0 REVERT JUMPDEST POP POP POP POP PUSH1 0x40 MLOAD RETURNDATASIZE PUSH1 0x1F NOT PUSH1 0x1F DUP3 ADD AND DUP3 ADD DUP1 PUSH1 0x40 MSTORE POP DUP2 ADD SWAP1 PUSH2 0x48BD SWAP2 SWAP1 PUSH2 0x584D JUMP JUMPDEST DUP5 SLOAD PUSH1 0x1 PUSH1 0x1 PUSH1 0x80 SHL SUB SWAP1 SWAP3 AND PUSH15 0xFFFFFFFFFFFFFFFFFFFFFFFFFFFFFF PUSH1 0x80 SHL SWAP1 SWAP3 AND SWAP2 SWAP1 SWAP2 OR PUSH1 0x1 PUSH1 0xF8 SHL DUP10 ISZERO ISZERO MUL OR DUP5 SSTORE PUSH1 0x1 DUP5 ADD DUP1 SLOAD PUSH1 0x1 PUSH1 0x1 PUSH1 0x60 SHL SUB SWAP3 DUP4 AND PUSH1 0x1 PUSH1 0x1 PUSH1 0xC0 SHL SUB NOT SWAP1 SWAP2 AND OR PUSH1 0x1 PUSH1 0x60 SHL SWAP3 DUP8 AND SWAP3 SWAP1 SWAP3 MUL SWAP2 SWAP1 SWAP2 OR SWAP1 SSTORE PUSH1 0x3 DUP4 ADD DUP1 SLOAD PUSH1 0x1 PUSH1 0x1 PUSH1 0xA0 SHL SUB NOT SWAP1 DUP2 AND PUSH1 0x1 PUSH1 0x1 PUSH1 0xA0 SHL SUB DUP1 DUP14 AND SWAP2 SWAP1 SWAP2 OR SWAP1 SWAP3 SSTORE PUSH1 0x2 DUP6 ADD DUP1 SLOAD SWAP1 SWAP2 AND SWAP2 DUP11 AND SWAP2 SWAP1 SWAP2 OR SWAP1 SSTORE JUMP JUMPDEST POP POP POP POP POP POP POP POP POP POP JUMP JUMPDEST PUSH1 0x1 PUSH1 0x1 PUSH1 0xA0 SHL SUB DUP5 AND PUSH1 0x0 DUP2 DUP2 MSTORE PUSH1 0x22 PUSH1 0x20 SWAP1 DUP2 MSTORE PUSH1 0x40 DUP1 DUP4 KECCAK256 PUSH1 0x1E DUP4 MSTORE DUP2 DUP5 KECCAK256 SLOAD DUP1 DUP6 MSTORE SWAP1 DUP4 MSTORE DUP2 DUP5 KECCAK256 SWAP5 DUP5 MSTORE PUSH1 0x23 DUP4 MSTORE DUP2 DUP5 KECCAK256 SWAP1 DUP5 MSTORE SWAP1 SWAP2 MSTORE SWAP1 KECCAK256 PUSH1 0x1 DUP4 EQ ISZERO PUSH2 0x4AB7 JUMPI PUSH1 0x0 DUP6 DUP2 MSTORE PUSH1 0x25 PUSH1 0x20 MSTORE PUSH1 0x40 SWAP1 KECCAK256 SLOAD PUSH1 0x2 DUP1 SLOAD PUSH2 0x4AB2 SWAP3 PUSH1 0x1 PUSH1 0x40 SHL DUP2 DIV PUSH1 0x1 PUSH1 0x1 PUSH1 0x40 SHL SUB SWAP1 DUP2 AND SWAP4 SWAP1 DUP3 AND SWAP3 PUSH1 0x1 PUSH1 0x80 SHL SWAP1 SWAP3 DIV PUSH1 0x1 PUSH1 0x1 PUSH1 0x78 SHL SUB AND SWAP2 DUP9 SWAP2 TIMESTAMP SWAP2 PUSH2 0x49F9 SWAP2 SWAP1 PUSH2 0x5BBB JUMP JUMPDEST PUSH2 0x4A03 SWAP1 DUP12 PUSH2 0x5CCB JUMP JUMPDEST PUSH2 0x4A0D SWAP1 TIMESTAMP PUSH2 0x5BA3 JUMP JUMPDEST DUP8 SLOAD PUSH1 0x1 PUSH1 0x1 PUSH1 0x40 SHL SUB SWAP1 SWAP7 AND PUSH12 0xFFFFFFFFFFFFFFFFFFFFFFFF NOT SWAP1 SWAP7 AND SWAP6 SWAP1 SWAP6 OR PUSH1 0x1 PUSH1 0x40 SHL PUSH4 0xFFFFFFFF SWAP6 DUP7 AND MUL OR PUSH10 0xFFFFFFFFFFFFFFFFFFFF PUSH1 0x60 SHL NOT AND PUSH1 0x1 PUSH1 0x60 SHL SWAP4 DUP6 AND SWAP4 SWAP1 SWAP4 MUL PUSH6 0xFFFFFFFFFFFF PUSH1 0x80 SHL NOT AND SWAP3 SWAP1 SWAP3 OR PUSH1 0x1 PUSH1 0x80 SHL PUSH6 0xFFFFFFFFFFFF SWAP1 SWAP3 AND SWAP2 SWAP1 SWAP2 MUL OR PUSH8 0xFFFFFFFFFFFFFFFF PUSH1 0xB0 SHL NOT AND PUSH1 0x1 PUSH1 0xB0 SHL SWAP2 DUP4 AND SWAP2 SWAP1 SWAP2 MUL PUSH4 0xFFFFFFFF PUSH1 0xD0 SHL NOT AND OR PUSH1 0x1 PUSH1 0xD0 SHL SWAP2 SWAP1 SWAP3 AND MUL OR DUP3 SSTORE JUMP JUMPDEST PUSH2 0x4B03 JUMP JUMPDEST PUSH1 0x0 DUP6 DUP2 MSTORE PUSH1 0x25 PUSH1 0x20 MSTORE PUSH1 0x40 SWAP1 KECCAK256 SLOAD PUSH1 0x2 SLOAD PUSH2 0x4B03 SWAP2 PUSH1 0x1 PUSH1 0x1 PUSH1 0x40 SHL SUB PUSH1 0x1 PUSH1 0x40 SHL DUP3 DIV DUP2 AND SWAP3 SWAP1 DUP3 AND SWAP2 PUSH1 0x1 PUSH1 0x1 PUSH1 0x78 SHL SUB PUSH1 0x1 PUSH1 0x80 SHL SWAP1 SWAP2 DIV AND SWAP1 DUP8 SWAP1 TIMESTAMP SWAP1 PUSH2 0x4A03 SWAP1 DUP12 PUSH2 0x5CCB JUMP JUMPDEST PUSH1 0x1 PUSH1 0x1 PUSH1 0xA0 SHL SUB DUP1 DUP8 AND PUSH1 0x0 SWAP1 DUP2 MSTORE PUSH1 0x21 PUSH1 0x20 SWAP1 DUP2 MSTORE PUSH1 0x40 DUP1 DUP4 KECCAK256 PUSH1 0x3 DUP8 ADD SLOAD SWAP1 SWAP5 AND DUP4 MSTORE SWAP3 SWAP1 MSTORE KECCAK256 DUP1 SLOAD PUSH1 0xFF NOT AND PUSH1 0x1 OR SWAP1 SSTORE PUSH1 0x2 SLOAD PUSH2 0x4B45 SWAP1 DUP6 PUSH2 0x5CCB JUMP JUMPDEST PUSH2 0x4B4F SWAP1 TIMESTAMP PUSH2 0x5BA3 JUMP JUMPDEST PUSH1 0x1 PUSH1 0x1 PUSH1 0xA0 SHL SUB DUP8 DUP2 AND PUSH1 0x0 DUP2 DUP2 MSTORE PUSH1 0x1E PUSH1 0x20 SWAP1 DUP2 MSTORE PUSH1 0x40 SWAP2 DUP3 SWAP1 KECCAK256 SLOAD PUSH1 0x3 DUP9 ADD SLOAD PUSH1 0x2 DUP10 ADD SLOAD DUP5 MLOAD SWAP2 DUP8 AND DUP3 MSTORE SWAP1 SWAP6 AND SWAP2 DUP6 ADD SWAP2 SWAP1 SWAP2 MSTORE SWAP1 DUP4 ADD DUP10 SWAP1 MSTORE PUSH1 0x60 DUP4 ADD DUP9 SWAP1 MSTORE TIMESTAMP PUSH1 0x80 DUP5 ADD MSTORE SWAP2 PUSH32 0x60C2F28CAEB1BDDF2D8003A850562E4A133CE8E63719DAC464C8052DE62D0F56 SWAP1 PUSH1 0xA0 ADD PUSH1 0x40 MLOAD DUP1 SWAP2 SUB SWAP1 LOG4 PUSH1 0x1 PUSH1 0x1 PUSH1 0xA0 SHL SUB DUP7 AND PUSH1 0x0 SWAP1 DUP2 MSTORE PUSH1 0x1E PUSH1 0x20 MSTORE PUSH1 0x40 DUP2 KECCAK256 DUP1 SLOAD SWAP2 PUSH2 0x37AA DUP4 PUSH2 0x5D46 JUMP JUMPDEST PUSH1 0x40 DUP1 MLOAD PUSH1 0x0 DUP1 DUP3 MSTORE PUSH1 0x20 DUP3 ADD SWAP1 SWAP3 MSTORE PUSH1 0x1 PUSH1 0x1 PUSH1 0xA0 SHL SUB DUP5 AND SWAP1 DUP4 SWAP1 PUSH1 0x40 MLOAD PUSH2 0x4C17 SWAP2 SWAP1 PUSH2 0x5A2C JUMP JUMPDEST PUSH1 0x0 PUSH1 0x40 MLOAD DUP1 DUP4 SUB DUP2 DUP6 DUP8 GAS CALL SWAP3 POP POP POP RETURNDATASIZE DUP1 PUSH1 0x0 DUP2 EQ PUSH2 0x4C54 JUMPI PUSH1 0x40 MLOAD SWAP2 POP PUSH1 0x1F NOT PUSH1 0x3F RETURNDATASIZE ADD AND DUP3 ADD PUSH1 0x40 MSTORE RETURNDATASIZE DUP3 MSTORE RETURNDATASIZE PUSH1 0x0 PUSH1 0x20 DUP5 ADD RETURNDATACOPY PUSH2 0x4C59 JUMP JUMPDEST PUSH1 0x60 SWAP2 POP JUMPDEST POP POP SWAP1 POP DUP1 PUSH2 0x4CB6 JUMPI PUSH1 0x40 MLOAD PUSH3 0x461BCD PUSH1 0xE5 SHL DUP2 MSTORE PUSH1 0x20 PUSH1 0x4 DUP3 ADD MSTORE PUSH1 0x23 PUSH1 0x24 DUP3 ADD MSTORE PUSH32 0x5472616E7366657248656C7065723A204554485F5452414E534645525F464149 PUSH1 0x44 DUP3 ADD MSTORE PUSH3 0x131151 PUSH1 0xEA SHL PUSH1 0x64 DUP3 ADD MSTORE PUSH1 0x84 ADD PUSH2 0x11EF JUMP JUMPDEST POP POP POP JUMP JUMPDEST PUSH1 0x1 PUSH1 0x1 PUSH1 0xA0 SHL SUB DUP2 AND PUSH1 0x0 SWAP1 DUP2 MSTORE PUSH1 0x1D PUSH1 0x20 MSTORE PUSH1 0x40 DUP2 KECCAK256 PUSH1 0xD SLOAD PUSH1 0x2 DUP3 ADD SLOAD PUSH1 0x1 PUSH1 0xA0 SHL SWAP1 DIV PUSH4 0xFFFFFFFF AND EQ ISZERO PUSH2 0x4CF7 JUMPI POP PUSH1 0x1 SWAP3 SWAP2 POP POP JUMP JUMPDEST PUSH1 0x2 DUP2 ADD SLOAD PUSH1 0x1 PUSH1 0xC0 SHL SWAP1 DIV PUSH4 0xFFFFFFFF AND PUSH2 0x4D3F JUMPI PUSH1 0xD SLOAD PUSH1 0x2 SWAP1 SWAP2 ADD DUP1 SLOAD PUSH4 0xFFFFFFFF SWAP1 SWAP3 AND PUSH1 0x1 PUSH1 0xA0 SHL MUL PUSH4 0xFFFFFFFF PUSH1 0xA0 SHL NOT SWAP1 SWAP3 AND SWAP2 SWAP1 SWAP2 OR SWAP1 SSTORE POP PUSH1 0x1 SWAP2 SWAP1 POP JUMP JUMPDEST PUSH1 0x0 DUP1 PUSH1 0x0 PUSH2 0x4D4D DUP7 PUSH2 0x30F0 JUMP JUMPDEST SWAP3 POP SWAP3 POP SWAP3 POP DUP3 PUSH1 0x0 EQ DUP1 ISZERO PUSH2 0x4D61 JUMPI POP DUP2 ISZERO JUMPDEST ISZERO PUSH2 0x4D72 JUMPI POP PUSH1 0x1 SWAP6 SWAP5 POP POP POP POP POP JUMP JUMPDEST DUP3 ISZERO PUSH2 0x4DC3 JUMPI DUP3 DUP5 PUSH1 0x1 ADD PUSH1 0x10 DUP3 DUP3 DUP3 SWAP1 SLOAD SWAP1 PUSH2 0x100 EXP SWAP1 DIV PUSH1 0x1 PUSH1 0x1 PUSH1 0x80 SHL SUB AND PUSH2 0x4D9E SWAP2 SWAP1 PUSH2 0x5B78 JUMP JUMPDEST SWAP3 POP PUSH2 0x100 EXP DUP2 SLOAD DUP2 PUSH1 0x1 PUSH1 0x1 PUSH1 0x80 SHL SUB MUL NOT AND SWAP1 DUP4 PUSH1 0x1 PUSH1 0x1 PUSH1 0x80 SHL SUB AND MUL OR SWAP1 SSTORE POP JUMPDEST DUP2 ISZERO PUSH2 0x4E0E JUMPI PUSH1 0x2 DUP5 ADD DUP1 SLOAD DUP4 SWAP2 SWAP1 PUSH1 0x0 SWAP1 PUSH2 0x4DE9 SWAP1 DUP5 SWAP1 PUSH1 0x1 PUSH1 0x1 PUSH1 0x80 SHL SUB AND PUSH2 0x5B78 JUMP JUMPDEST SWAP3 POP PUSH2 0x100 EXP DUP2 SLOAD DUP2 PUSH1 0x1 PUSH1 0x1 PUSH1 0x80 SHL SUB MUL NOT AND SWAP1 DUP4 PUSH1 0x1 PUSH1 0x1 PUSH1 0x80 SHL SUB AND MUL OR SWAP1 SSTORE POP JUMPDEST PUSH1 0x2 DUP5 ADD DUP1 SLOAD PUSH4 0xFFFFFFFF PUSH1 0xA0 SHL NOT AND PUSH1 0x1 PUSH1 0xA0 SHL PUSH4 0xFFFFFFFF DUP5 AND MUL OR SWAP1 SSTORE PUSH1 0xD SLOAD DUP2 EQ ISZERO PUSH2 0x4E44 JUMPI POP PUSH1 0x1 SWAP6 SWAP5 POP POP POP POP POP JUMP JUMPDEST POP PUSH1 0x0 SWAP6 SWAP5 POP POP POP POP POP JUMP JUMPDEST PUSH1 0x1 DUP5 ADD SLOAD PUSH1 0x2 DUP6 ADD SLOAD PUSH1 0x0 SWAP2 PUSH1 0x1 PUSH1 0x1 PUSH1 0x80 SHL SUB PUSH1 0x1 PUSH1 0x80 SHL SWAP1 SWAP2 DIV DUP2 AND SWAP2 AND GT ISZERO PUSH2 0x4EAA JUMPI PUSH1 0x1 DUP6 ADD SLOAD PUSH1 0x2 DUP7 ADD SLOAD PUSH2 0x4E9E SWAP2 PUSH1 0x1 PUSH1 0x1 PUSH1 0x80 SHL SUB PUSH1 0x1 PUSH1 0x80 SHL SWAP1 SWAP2 DIV DUP2 AND SWAP2 AND PUSH2 0x5CEA JUMP JUMPDEST PUSH1 0x1 PUSH1 0x1 PUSH1 0x80 SHL SUB AND SWAP1 POP JUMPDEST PUSH2 0x4EB4 DUP2 DUP5 PUSH2 0x5BA3 JUMP JUMPDEST PUSH1 0x1 DUP7 ADD SLOAD PUSH2 0x4ECC SWAP1 PUSH1 0x1 PUSH1 0x1 PUSH1 0x80 SHL SUB AND DUP7 PUSH2 0x5BA3 JUMP JUMPDEST LT ISZERO PUSH2 0x4F1A JUMPI PUSH1 0x40 MLOAD PUSH3 0x461BCD PUSH1 0xE5 SHL DUP2 MSTORE PUSH1 0x20 PUSH1 0x4 DUP3 ADD MSTORE PUSH1 0x1C PUSH1 0x24 DUP3 ADD MSTORE PUSH32 0x5374616B696E674C6962726172793A20496E73756666696369656E7400000000 PUSH1 0x44 DUP3 ADD MSTORE PUSH1 0x64 ADD PUSH2 0x11EF JUMP JUMPDEST DUP5 SLOAD PUSH1 0x1 PUSH1 0x1 PUSH1 0x80 SHL SUB AND DUP4 GT ISZERO PUSH2 0x4F74 JUMPI PUSH1 0x40 MLOAD PUSH3 0x461BCD PUSH1 0xE5 SHL DUP2 MSTORE PUSH1 0x20 PUSH1 0x4 DUP3 ADD MSTORE PUSH1 0x1C PUSH1 0x24 DUP3 ADD MSTORE PUSH32 0x5374616B696E674C6962726172793A20496E73756666696369656E7400000000 PUSH1 0x44 DUP3 ADD MSTORE PUSH1 0x64 ADD PUSH2 0x11EF JUMP JUMPDEST PUSH1 0x0 PUSH2 0x4F80 DUP3 DUP6 PUSH2 0x5BA3 JUMP JUMPDEST PUSH1 0x1 DUP8 ADD SLOAD PUSH2 0x4F98 SWAP1 PUSH1 0x1 PUSH1 0x1 PUSH1 0x80 SHL SUB AND DUP8 PUSH2 0x5BA3 JUMP JUMPDEST PUSH2 0x4FA2 SWAP2 SWAP1 PUSH2 0x5D12 JUMP JUMPDEST PUSH1 0x1 DUP8 ADD DUP1 SLOAD PUSH1 0x1 PUSH1 0x1 PUSH1 0x80 SHL SUB NOT AND PUSH1 0x1 PUSH1 0x1 PUSH1 0x80 SHL SUB DUP4 AND OR SWAP1 SSTORE SWAP1 POP DUP2 ISZERO PUSH2 0x4FEB JUMPI PUSH1 0x1 DUP7 ADD DUP1 SLOAD PUSH1 0x1 PUSH1 0x1 PUSH1 0x80 SHL SUB AND SWAP1 SSTORE PUSH1 0x2 DUP7 ADD DUP1 SLOAD PUSH1 0x1 PUSH1 0x1 PUSH1 0x80 SHL SUB NOT AND SWAP1 SSTORE JUMPDEST PUSH1 0x2 DUP7 ADD DUP1 SLOAD PUSH4 0xFFFFFFFF TIMESTAMP DUP2 AND PUSH1 0x1 PUSH1 0x80 SHL MUL PUSH4 0xFFFFFFFF PUSH1 0x80 SHL NOT SWAP1 SWAP3 AND SWAP2 SWAP1 SWAP2 OR SWAP2 DUP3 SWAP1 SSTORE PUSH1 0x1 PUSH1 0xE0 SHL SWAP1 SWAP2 DIV DUP2 AND SWAP1 DUP5 AND EQ PUSH2 0x5045 JUMPI PUSH1 0x2 DUP7 ADD DUP1 SLOAD PUSH1 0x1 PUSH1 0x1 PUSH1 0xE0 SHL SUB AND PUSH1 0x1 PUSH1 0xE0 SHL PUSH4 0xFFFFFFFF DUP7 AND MUL OR SWAP1 SSTORE JUMPDEST PUSH2 0x504F DUP3 DUP6 PUSH2 0x5BA3 JUMP JUMPDEST DUP7 SLOAD DUP8 SWAP1 PUSH1 0x10 SWAP1 PUSH2 0x5071 SWAP1 DUP5 SWAP1 PUSH1 0x1 PUSH1 0x80 SHL SWAP1 DIV PUSH1 0x1 PUSH1 0x1 PUSH1 0x80 SHL SUB AND PUSH2 0x5B78 JUMP JUMPDEST DUP3 SLOAD PUSH2 0x100 SWAP3 SWAP1 SWAP3 EXP PUSH1 0x1 PUSH1 0x1 PUSH1 0x80 SHL SUB DUP2 DUP2 MUL NOT SWAP1 SWAP4 AND SWAP2 DUP4 AND MUL OR SWAP1 SWAP2 SSTORE DUP8 SLOAD AND SWAP1 POP PUSH2 0x50A0 DUP4 DUP7 PUSH2 0x5BA3 JUMP JUMPDEST GT PUSH2 0x3BD1 JUMPI DUP6 SLOAD DUP5 SWAP1 DUP8 SWAP1 PUSH1 0x0 SWAP1 PUSH2 0x50C2 SWAP1 DUP5 SWAP1 PUSH1 0x1 PUSH1 0x1 PUSH1 0x80 SHL SUB AND PUSH2 0x5CEA JUMP JUMPDEST SWAP3 POP PUSH2 0x100 EXP DUP2 SLOAD DUP2 PUSH1 0x1 PUSH1 0x1 PUSH1 0x80 SHL SUB MUL NOT AND SWAP1 DUP4 PUSH1 0x1 PUSH1 0x1 PUSH1 0x80 SHL SUB AND MUL OR SWAP1 SSTORE POP POP POP POP POP POP POP JUMP JUMPDEST DUP1 SLOAD PUSH1 0x1 PUSH1 0xF8 SHL SWAP1 DIV PUSH1 0xFF AND PUSH2 0x36CE JUMPI DUP1 SLOAD PUSH1 0x1 PUSH1 0x1 PUSH1 0xF8 SHL SUB AND PUSH1 0x1 PUSH1 0xF8 SHL OR DUP2 SSTORE POP JUMP JUMPDEST PUSH1 0x0 DUP1 SLOAD PUSH1 0x1 PUSH1 0x1 PUSH1 0xA0 SHL SUB NOT AND PUSH1 0x1 PUSH1 0x1 PUSH1 0xA0 SHL SUB SWAP3 SWAP1 SWAP3 AND SWAP2 SWAP1 SWAP2 OR SWAP1 SSTORE JUMP JUMPDEST PUSH1 0x40 DUP1 MLOAD PUSH1 0x1 PUSH1 0x1 PUSH1 0xA0 SHL SUB DUP6 DUP2 AND PUSH1 0x24 DUP4 ADD MSTORE DUP5 DUP2 AND PUSH1 0x44 DUP4 ADD MSTORE PUSH1 0x64 DUP1 DUP4 ADD DUP6 SWAP1 MSTORE DUP4 MLOAD DUP1 DUP5 SUB SWAP1 SWAP2 ADD DUP2 MSTORE PUSH1 0x84 SWAP1 SWAP3 ADD DUP4 MSTORE PUSH1 0x20 DUP3 ADD DUP1 MLOAD PUSH1 0x1 PUSH1 0x1 PUSH1 0xE0 SHL SUB AND PUSH4 0x23B872DD PUSH1 0xE0 SHL OR SWAP1 MSTORE SWAP2 MLOAD PUSH1 0x0 SWAP3 DUP4 SWAP3 SWAP1 DUP9 AND SWAP2 PUSH2 0x519A SWAP2 SWAP1 PUSH2 0x5A2C JUMP JUMPDEST PUSH1 0x0 PUSH1 0x40 MLOAD DUP1 DUP4 SUB DUP2 PUSH1 0x0 DUP7 GAS CALL SWAP2 POP POP RETURNDATASIZE DUP1 PUSH1 0x0 DUP2 EQ PUSH2 0x51D7 JUMPI PUSH1 0x40 MLOAD SWAP2 POP PUSH1 0x1F NOT PUSH1 0x3F RETURNDATASIZE ADD AND DUP3 ADD PUSH1 0x40 MSTORE RETURNDATASIZE DUP3 MSTORE RETURNDATASIZE PUSH1 0x0 PUSH1 0x20 DUP5 ADD RETURNDATACOPY PUSH2 0x51DC JUMP JUMPDEST PUSH1 0x60 SWAP2 POP JUMPDEST POP SWAP2 POP SWAP2 POP DUP2 DUP1 ISZERO PUSH2 0x5206 JUMPI POP DUP1 MLOAD ISZERO DUP1 PUSH2 0x5206 JUMPI POP DUP1 DUP1 PUSH1 0x20 ADD SWAP1 MLOAD DUP2 ADD SWAP1 PUSH2 0x5206 SWAP2 SWAP1 PUSH2 0x5817 JUMP JUMPDEST PUSH2 0x3BD1 JUMPI PUSH1 0x40 MLOAD PUSH3 0x461BCD PUSH1 0xE5 SHL DUP2 MSTORE PUSH1 0x20 PUSH1 0x4 DUP3 ADD MSTORE PUSH1 0x24 DUP1 DUP3 ADD MSTORE PUSH32 0x5472616E7366657248656C7065723A205452414E534645525F46524F4D5F4641 PUSH1 0x44 DUP3 ADD MSTORE PUSH4 0x12531151 PUSH1 0xE2 SHL PUSH1 0x64 DUP3 ADD MSTORE PUSH1 0x84 ADD PUSH2 0x11EF JUMP JUMPDEST DUP2 SLOAD DUP2 SWAP1 DUP4 SWAP1 PUSH1 0x0 SWAP1 PUSH2 0x527B SWAP1 DUP5 SWAP1 PUSH1 0x1 PUSH1 0x1 PUSH1 0x80 SHL SUB AND PUSH2 0x5B78 JUMP JUMPDEST DUP3 SLOAD PUSH1 0x1 PUSH1 0x1 PUSH1 0x80 SHL SUB SWAP2 DUP3 AND PUSH2 0x100 SWAP4 SWAP1 SWAP4 EXP SWAP3 DUP4 MUL SWAP2 SWAP1 SWAP3 MUL NOT SWAP1 SWAP2 AND OR SWAP1 SSTORE POP PUSH1 0x2 DUP3 ADD DUP1 SLOAD PUSH4 0xFFFFFFFF TIMESTAMP DUP2 AND PUSH1 0x1 PUSH1 0x80 SHL MUL PUSH4 0xFFFFFFFF PUSH1 0x80 SHL NOT SWAP1 SWAP3 AND SWAP2 SWAP1 SWAP2 OR DUP1 DUP4 SSTORE PUSH1 0x1 PUSH1 0xC0 SHL SWAP1 DIV AND SWAP1 PUSH1 0x18 PUSH2 0x52D9 DUP4 PUSH2 0x5D61 JUMP JUMPDEST SWAP2 SWAP1 PUSH2 0x100 EXP DUP2 SLOAD DUP2 PUSH4 0xFFFFFFFF MUL NOT AND SWAP1 DUP4 PUSH4 0xFFFFFFFF AND MUL OR SWAP1 SSTORE POP POP POP POP JUMP JUMPDEST DUP2 SLOAD PUSH1 0xFF PUSH1 0x1 PUSH1 0xF8 SHL SWAP1 SWAP2 DIV AND ISZERO ISZERO DUP2 ISZERO ISZERO EQ PUSH2 0x3357 JUMPI DUP2 SLOAD SWAP1 ISZERO ISZERO PUSH1 0x1 PUSH1 0xF8 SHL MUL PUSH1 0x1 PUSH1 0x1 PUSH1 0xF8 SHL SUB SWAP1 SWAP2 AND OR SWAP1 SSTORE JUMP JUMPDEST PUSH1 0x0 DUP2 GT DUP1 ISZERO PUSH2 0x533F JUMPI POP PUSH1 0x64 DUP2 GT ISZERO JUMPDEST PUSH2 0x535B JUMPI PUSH1 0x40 MLOAD PUSH3 0x461BCD PUSH1 0xE5 SHL DUP2 MSTORE PUSH1 0x4 ADD PUSH2 0x11EF SWAP1 PUSH2 0x5A67 JUMP JUMPDEST DUP2 SLOAD PUSH1 0x1 PUSH1 0x1 PUSH1 0x78 SHL SUB SWAP1 SWAP2 AND PUSH1 0x1 PUSH1 0x80 SHL MUL PUSH1 0x1 PUSH1 0x80 SHL PUSH1 0x1 PUSH1 0xF8 SHL SUB NOT SWAP1 SWAP2 AND OR SWAP1 SSTORE JUMP JUMPDEST PUSH1 0x0 DUP2 GT PUSH2 0x53D2 JUMPI PUSH1 0x40 MLOAD PUSH3 0x461BCD PUSH1 0xE5 SHL DUP2 MSTORE PUSH1 0x20 PUSH1 0x4 DUP3 ADD MSTORE PUSH1 0x1C PUSH1 0x24 DUP3 ADD MSTORE PUSH32 0x506C616E4C696272617279203A20496E76616C69642072657761726400000000 PUSH1 0x44 DUP3 ADD MSTORE PUSH1 0x64 ADD PUSH2 0x11EF JUMP JUMPDEST DUP2 SLOAD PUSH1 0x1 PUSH1 0x1 PUSH1 0x40 SHL SUB SWAP1 SWAP2 AND PUSH1 0x1 PUSH1 0x40 SHL MUL PUSH16 0xFFFFFFFFFFFFFFFF0000000000000000 NOT SWAP1 SWAP2 AND OR SWAP1 SSTORE JUMP JUMPDEST PUSH1 0x0 DUP2 GT DUP1 ISZERO PUSH2 0x5410 JUMPI POP PUSH1 0x64 DUP2 GT ISZERO JUMPDEST PUSH2 0x542C JUMPI PUSH1 0x40 MLOAD PUSH3 0x461BCD PUSH1 0xE5 SHL DUP2 MSTORE PUSH1 0x4 ADD PUSH2 0x11EF SWAP1 PUSH2 0x5A67 JUMP JUMPDEST DUP2 SLOAD PUSH8 0xFFFFFFFFFFFFFFFF NOT AND PUSH1 0x1 PUSH1 0x1 PUSH1 0x40 SHL SUB SWAP2 SWAP1 SWAP2 AND OR SWAP1 SSTORE JUMP JUMPDEST DUP1 CALLDATALOAD PUSH1 0x1 PUSH1 0x1 PUSH1 0xA0 SHL SUB DUP2 AND DUP2 EQ PUSH2 0x5461 JUMPI PUSH1 0x0 DUP1 REVERT JUMPDEST SWAP2 SWAP1 POP JUMP JUMPDEST PUSH1 0x0 DUP3 PUSH1 0x1F DUP4 ADD SLT PUSH2 0x5477 JUMPI PUSH1 0x0 DUP1 REVERT JUMPDEST DUP2 CALLDATALOAD PUSH1 0x20 PUSH2 0x548C PUSH2 0x5487 DUP4 PUSH2 0x5B55 JUMP JUMPDEST PUSH2 0x5B25 JUMP JUMPDEST DUP1 DUP4 DUP3 MSTORE DUP3 DUP3 ADD SWAP2 POP DUP3 DUP7 ADD DUP8 DUP5 DUP7 PUSH1 0x5 SHL DUP10 ADD ADD GT ISZERO PUSH2 0x54AC JUMPI PUSH1 0x0 DUP1 REVERT JUMPDEST PUSH1 0x0 JUMPDEST DUP6 DUP2 LT ISZERO PUSH2 0x54D2 JUMPI PUSH2 0x54C0 DUP3 PUSH2 0x544A JUMP JUMPDEST DUP5 MSTORE SWAP3 DUP5 ADD SWAP3 SWAP1 DUP5 ADD SWAP1 PUSH1 0x1 ADD PUSH2 0x54AF JUMP JUMPDEST POP SWAP1 SWAP8 SWAP7 POP POP POP POP POP POP POP JUMP JUMPDEST PUSH1 0x0 DUP3 PUSH1 0x1F DUP4 ADD SLT PUSH2 0x54F0 JUMPI PUSH1 0x0 DUP1 REVERT JUMPDEST PUSH1 0x40 MLOAD PUSH2 0x120 DUP1 DUP3 ADD DUP3 DUP2 LT PUSH1 0x1 PUSH1 0x1 PUSH1 0x40 SHL SUB DUP3 GT OR ISZERO PUSH2 0x5514 JUMPI PUSH2 0x5514 PUSH2 0x5DB1 JUMP JUMPDEST PUSH1 0x40 MSTORE DUP2 DUP5 DUP3 DUP2 ADD DUP8 LT ISZERO PUSH2 0x5528 JUMPI PUSH1 0x0 DUP1 REVERT JUMPDEST PUSH1 0x0 SWAP3 POP JUMPDEST PUSH1 0x9 DUP4 LT ISZERO PUSH2 0x5556 JUMPI DUP1 CALLDATALOAD PUSH2 0x5541 DUP2 PUSH2 0x5DD5 JUMP JUMPDEST DUP3 MSTORE PUSH1 0x1 SWAP3 SWAP1 SWAP3 ADD SWAP2 PUSH1 0x20 SWAP2 DUP3 ADD SWAP2 ADD PUSH2 0x552D JUMP JUMPDEST POP SWAP2 SWAP6 SWAP5 POP POP POP POP POP JUMP JUMPDEST DUP1 CALLDATALOAD PUSH2 0x5461 DUP2 PUSH2 0x5DC7 JUMP JUMPDEST PUSH1 0x0 PUSH1 0x20 DUP3 DUP5 SUB SLT ISZERO PUSH2 0x557E JUMPI PUSH1 0x0 DUP1 REVERT JUMPDEST PUSH2 0x1BDA DUP3 PUSH2 0x544A JUMP JUMPDEST PUSH1 0x0 DUP1 PUSH1 0x40 DUP4 DUP6 SUB SLT ISZERO PUSH2 0x559A JUMPI PUSH1 0x0 DUP1 REVERT JUMPDEST PUSH2 0x55A3 DUP4 PUSH2 0x544A JUMP JUMPDEST SWAP2 POP PUSH2 0x55B1 PUSH1 0x20 DUP5 ADD PUSH2 0x544A JUMP JUMPDEST SWAP1 POP SWAP3 POP SWAP3 SWAP1 POP JUMP JUMPDEST PUSH1 0x0 DUP1 PUSH1 0x0 DUP1 PUSH1 0x0 DUP1 PUSH1 0x0 DUP1 PUSH1 0x0 PUSH2 0x120 DUP11 DUP13 SUB SLT ISZERO PUSH2 0x55D9 JUMPI PUSH1 0x0 DUP1 REVERT JUMPDEST PUSH2 0x55E2 DUP11 PUSH2 0x544A JUMP JUMPDEST SWAP9 POP PUSH2 0x55F0 PUSH1 0x20 DUP12 ADD PUSH2 0x544A JUMP JUMPDEST SWAP8 POP PUSH2 0x55FE PUSH1 0x40 DUP12 ADD PUSH2 0x544A JUMP JUMPDEST SWAP7 POP PUSH1 0x60 DUP11 ADD CALLDATALOAD SWAP6 POP PUSH1 0x80 DUP11 ADD CALLDATALOAD SWAP5 POP PUSH1 0xA0 DUP11 ADD CALLDATALOAD SWAP4 POP PUSH1 0xC0 DUP11 ADD CALLDATALOAD SWAP3 POP PUSH2 0x5628 PUSH1 0xE0 DUP12 ADD PUSH2 0x544A JUMP JUMPDEST SWAP2 POP PUSH2 0x5637 PUSH2 0x100 DUP12 ADD PUSH2 0x544A JUMP JUMPDEST SWAP1 POP SWAP3 SWAP6 SWAP9 POP SWAP3 SWAP6 SWAP9 POP SWAP3 SWAP6 SWAP9 JUMP JUMPDEST PUSH1 0x0 DUP1 PUSH1 0x40 DUP4 DUP6 SUB SLT ISZERO PUSH2 0x5659 JUMPI PUSH1 0x0 DUP1 REVERT JUMPDEST PUSH2 0x5662 DUP4 PUSH2 0x544A JUMP JUMPDEST SWAP5 PUSH1 0x20 SWAP4 SWAP1 SWAP4 ADD CALLDATALOAD SWAP4 POP POP POP JUMP JUMPDEST PUSH1 0x0 DUP1 PUSH1 0x0 PUSH1 0x60 DUP5 DUP7 SUB SLT ISZERO PUSH2 0x5685 JUMPI PUSH1 0x0 DUP1 REVERT JUMPDEST PUSH2 0x568E DUP5 PUSH2 0x544A JUMP JUMPDEST SWAP6 PUSH1 0x20 DUP6 ADD CALLDATALOAD SWAP6 POP PUSH1 0x40 SWAP1 SWAP5 ADD CALLDATALOAD SWAP4 SWAP3 POP POP POP JUMP JUMPDEST PUSH1 0x0 DUP1 PUSH1 0x0 DUP1 PUSH1 0x80 DUP6 DUP8 SUB SLT ISZERO PUSH2 0x56B9 JUMPI PUSH1 0x0 DUP1 REVERT JUMPDEST PUSH2 0x56C2 DUP6 PUSH2 0x544A JUMP JUMPDEST SWAP4 POP PUSH1 0x20 DUP6 ADD CALLDATALOAD SWAP3 POP PUSH1 0x40 DUP6 ADD CALLDATALOAD SWAP2 POP PUSH1 0x60 DUP6 ADD CALLDATALOAD PUSH2 0x56E0 DUP2 PUSH2 0x5DC7 JUMP JUMPDEST SWAP4 SWAP7 SWAP3 SWAP6 POP SWAP1 SWAP4 POP POP JUMP JUMPDEST PUSH1 0x0 DUP1 PUSH1 0x0 PUSH1 0x60 DUP5 DUP7 SUB SLT ISZERO PUSH2 0x5700 JUMPI PUSH1 0x0 DUP1 REVERT JUMPDEST DUP4 CALLDATALOAD PUSH1 0x1 PUSH1 0x1 PUSH1 0x40 SHL SUB DUP1 DUP3 GT ISZERO PUSH2 0x5717 JUMPI PUSH1 0x0 DUP1 REVERT JUMPDEST DUP2 DUP7 ADD SWAP2 POP DUP7 PUSH1 0x1F DUP4 ADD SLT PUSH2 0x572B JUMPI PUSH1 0x0 DUP1 REVERT JUMPDEST DUP2 CALLDATALOAD PUSH1 0x20 PUSH2 0x573B PUSH2 0x5487 DUP4 PUSH2 0x5B55 JUMP JUMPDEST DUP1 DUP4 DUP3 MSTORE DUP3 DUP3 ADD SWAP2 POP DUP3 DUP7 ADD DUP12 DUP5 DUP7 PUSH1 0x5 SHL DUP10 ADD ADD GT ISZERO PUSH2 0x575B JUMPI PUSH1 0x0 DUP1 REVERT JUMPDEST PUSH1 0x0 SWAP7 POP JUMPDEST DUP5 DUP8 LT ISZERO PUSH2 0x577E JUMPI DUP1 CALLDATALOAD DUP4 MSTORE PUSH1 0x1 SWAP7 SWAP1 SWAP7 ADD SWAP6 SWAP2 DUP4 ADD SWAP2 DUP4 ADD PUSH2 0x5760 JUMP JUMPDEST POP SWAP8 POP POP DUP8 ADD CALLDATALOAD SWAP3 POP POP DUP1 DUP3 GT ISZERO PUSH2 0x5795 JUMPI PUSH1 0x0 DUP1 REVERT JUMPDEST POP PUSH2 0x57A2 DUP7 DUP3 DUP8 ADD PUSH2 0x5466 JUMP JUMPDEST SWAP3 POP POP PUSH2 0x57B1 PUSH1 0x40 DUP6 ADD PUSH2 0x5561 JUMP JUMPDEST SWAP1 POP SWAP3 POP SWAP3 POP SWAP3 JUMP JUMPDEST PUSH1 0x0 DUP1 PUSH1 0x0 PUSH2 0x360 DUP5 DUP7 SUB SLT ISZERO PUSH2 0x57D0 JUMPI PUSH1 0x0 DUP1 REVERT JUMPDEST PUSH2 0x57DA DUP6 DUP6 PUSH2 0x54DF JUMP JUMPDEST SWAP3 POP PUSH2 0x57EA DUP6 PUSH2 0x120 DUP7 ADD PUSH2 0x54DF JUMP JUMPDEST SWAP2 POP PUSH2 0x57B1 DUP6 PUSH2 0x240 DUP7 ADD PUSH2 0x54DF JUMP JUMPDEST PUSH1 0x0 PUSH1 0x20 DUP3 DUP5 SUB SLT ISZERO PUSH2 0x580C JUMPI PUSH1 0x0 DUP1 REVERT JUMPDEST DUP2 CALLDATALOAD PUSH2 0x1BDA DUP2 PUSH2 0x5DC7 JUMP JUMPDEST PUSH1 0x0 PUSH1 0x20 DUP3 DUP5 SUB SLT ISZERO PUSH2 0x5829 JUMPI PUSH1 0x0 DUP1 REVERT JUMPDEST DUP2 MLOAD PUSH2 0x1BDA DUP2 PUSH2 0x5DC7 JUMP JUMPDEST PUSH1 0x0 PUSH1 0x20 DUP3 DUP5 SUB SLT ISZERO PUSH2 0x5846 JUMPI PUSH1 0x0 DUP1 REVERT JUMPDEST POP CALLDATALOAD SWAP2 SWAP1 POP JUMP JUMPDEST PUSH1 0x0 PUSH1 0x20 DUP3 DUP5 SUB SLT ISZERO PUSH2 0x585F JUMPI PUSH1 0x0 DUP1 REVERT JUMPDEST POP MLOAD SWAP2 SWAP1 POP JUMP JUMPDEST PUSH1 0x0 DUP1 PUSH1 0x40 DUP4 DUP6 SUB SLT ISZERO PUSH2 0x5879 JUMPI PUSH1 0x0 DUP1 REVERT JUMPDEST DUP3 CALLDATALOAD SWAP2 POP PUSH1 0x20 DUP4 ADD CALLDATALOAD PUSH2 0x588B DUP2 PUSH2 0x5DC7 JUMP JUMPDEST DUP1 SWAP2 POP POP SWAP3 POP SWAP3 SWAP1 POP JUMP JUMPDEST PUSH1 0x0 DUP1 PUSH1 0x40 DUP4 DUP6 SUB SLT ISZERO PUSH2 0x58A9 JUMPI PUSH1 0x0 DUP1 REVERT JUMPDEST POP POP DUP1 CALLDATALOAD SWAP3 PUSH1 0x20 SWAP1 SWAP2 ADD CALLDATALOAD SWAP2 POP JUMP JUMPDEST PUSH1 0x0 DUP1 PUSH1 0x0 PUSH1 0x60 DUP5 DUP7 SUB SLT ISZERO PUSH2 0x58CD JUMPI PUSH1 0x0 DUP1 REVERT JUMPDEST DUP4 CALLDATALOAD SWAP3 POP PUSH1 0x20 DUP5 ADD CALLDATALOAD SWAP2 POP PUSH2 0x57B1 PUSH1 0x40 DUP6 ADD PUSH2 0x544A JUMP JUMPDEST PUSH1 0x0 DUP1 PUSH1 0x0 DUP1 PUSH1 0x0 PUSH1 0xA0 DUP7 DUP9 SUB SLT ISZERO PUSH2 0x58FC JUMPI PUSH1 0x0 DUP1 REVERT JUMPDEST DUP6 CALLDATALOAD SWAP5 POP PUSH1 0x20 DUP7 ADD CALLDATALOAD SWAP4 POP PUSH2 0x5913 PUSH1 0x40 DUP8 ADD PUSH2 0x544A JUMP JUMPDEST SWAP3 POP PUSH2 0x5921 PUSH1 0x60 DUP8 ADD PUSH2 0x544A JUMP JUMPDEST SWAP2 POP PUSH1 0x80 DUP7 ADD CALLDATALOAD PUSH2 0x5931 DUP2 PUSH2 0x5DC7 JUMP JUMPDEST DUP1 SWAP2 POP POP SWAP3 SWAP6 POP SWAP3 SWAP6 SWAP1 SWAP4 POP JUMP JUMPDEST PUSH1 0x0 DUP1 PUSH1 0x0 DUP1 PUSH1 0x0 DUP1 PUSH1 0x0 PUSH1 0xE0 DUP9 DUP11 SUB SLT ISZERO PUSH2 0x595A JUMPI PUSH1 0x0 DUP1 REVERT JUMPDEST DUP8 CALLDATALOAD SWAP7 POP PUSH1 0x20 DUP9 ADD CALLDATALOAD SWAP6 POP PUSH2 0x5971 PUSH1 0x40 DUP10 ADD PUSH2 0x544A JUMP JUMPDEST SWAP5 POP PUSH2 0x597F PUSH1 0x60 DUP10 ADD PUSH2 0x544A JUMP JUMPDEST SWAP4 POP PUSH1 0x80 DUP9 ADD CALLDATALOAD SWAP3 POP PUSH1 0xA0 DUP9 ADD CALLDATALOAD SWAP2 POP PUSH1 0xC0 DUP9 ADD CALLDATALOAD PUSH2 0x599D DUP2 PUSH2 0x5DC7 JUMP JUMPDEST DUP1 SWAP2 POP POP SWAP3 SWAP6 SWAP9 SWAP2 SWAP5 SWAP8 POP SWAP3 SWAP6 POP JUMP JUMPDEST PUSH1 0x0 DUP1 PUSH1 0x0 PUSH1 0x60 DUP5 DUP7 SUB SLT ISZERO PUSH2 0x59C2 JUMPI PUSH1 0x0 DUP1 REVERT JUMPDEST POP POP DUP2 CALLDATALOAD SWAP4 PUSH1 0x20 DUP4 ADD CALLDATALOAD SWAP4 POP PUSH1 0x40 SWAP1 SWAP3 ADD CALLDATALOAD SWAP2 SWAP1 POP JUMP JUMPDEST PUSH1 0x0 DUP1 PUSH1 0x0 DUP1 PUSH1 0x80 DUP6 DUP8 SUB SLT ISZERO PUSH2 0x59EF JUMPI PUSH1 0x0 DUP1 REVERT JUMPDEST DUP5 CALLDATALOAD SWAP4 POP PUSH1 0x20 DUP6 ADD CALLDATALOAD SWAP3 POP PUSH1 0x40 DUP6 ADD CALLDATALOAD SWAP2 POP PUSH1 0x60 DUP6 ADD CALLDATALOAD PUSH2 0x56E0 DUP2 PUSH2 0x5DC7 JUMP JUMPDEST PUSH1 0x0 PUSH1 0x20 DUP3 DUP5 SUB SLT ISZERO PUSH2 0x5A21 JUMPI PUSH1 0x0 DUP1 REVERT JUMPDEST DUP2 MLOAD PUSH2 0x1BDA DUP2 PUSH2 0x5DD5 JUMP JUMPDEST PUSH1 0x0 DUP3 MLOAD PUSH1 0x0 JUMPDEST DUP2 DUP2 LT ISZERO PUSH2 0x5A4D JUMPI PUSH1 0x20 DUP2 DUP7 ADD DUP2 ADD MLOAD DUP6 DUP4 ADD MSTORE ADD PUSH2 0x5A33 JUMP JUMPDEST DUP2 DUP2 GT ISZERO PUSH2 0x5A5C JUMPI PUSH1 0x0 DUP3 DUP6 ADD MSTORE JUMPDEST POP SWAP2 SWAP1 SWAP2 ADD SWAP3 SWAP2 POP POP JUMP JUMPDEST PUSH1 0x20 DUP1 DUP3 MSTORE PUSH1 0x15 SWAP1 DUP3 ADD MSTORE PUSH21 0x141B185B931A589C985C9E480E88125B9D985B1A59 PUSH1 0x5A SHL PUSH1 0x40 DUP3 ADD MSTORE PUSH1 0x60 ADD SWAP1 JUMP JUMPDEST PUSH1 0x20 DUP1 DUP3 MSTORE PUSH1 0x18 SWAP1 DUP3 ADD MSTORE PUSH32 0x437573746F6D4F776E61626C653A20464F5242494444454E0000000000000000 PUSH1 0x40 DUP3 ADD MSTORE PUSH1 0x60 ADD SWAP1 JUMP JUMPDEST PUSH1 0x20 DUP1 DUP3 MSTORE PUSH1 0x7 SWAP1 DUP3 ADD MSTORE PUSH7 0x125B9D985B1A59 PUSH1 0xCA SHL PUSH1 0x40 DUP3 ADD MSTORE PUSH1 0x60 ADD SWAP1 JUMP JUMPDEST PUSH1 0x20 DUP1 DUP3 MSTORE PUSH1 0x1F SWAP1 DUP3 ADD MSTORE PUSH32 0x5265656E7472616E637947756172643A207265656E7472616E742063616C6C00 PUSH1 0x40 DUP3 ADD MSTORE PUSH1 0x60 ADD SWAP1 JUMP JUMPDEST PUSH1 0x40 MLOAD PUSH1 0x1F DUP3 ADD PUSH1 0x1F NOT AND DUP2 ADD PUSH1 0x1 PUSH1 0x1 PUSH1 0x40 SHL SUB DUP2 GT DUP3 DUP3 LT OR ISZERO PUSH2 0x5B4D JUMPI PUSH2 0x5B4D PUSH2 0x5DB1 JUMP JUMPDEST PUSH1 0x40 MSTORE SWAP2 SWAP1 POP JUMP JUMPDEST PUSH1 0x0 PUSH1 0x1 PUSH1 0x1 PUSH1 0x40 SHL SUB DUP3 GT ISZERO PUSH2 0x5B6E JUMPI PUSH2 0x5B6E PUSH2 0x5DB1 JUMP JUMPDEST POP PUSH1 0x5 SHL PUSH1 0x20 ADD SWAP1 JUMP JUMPDEST PUSH1 0x0 PUSH1 0x1 PUSH1 0x1 PUSH1 0x80 SHL SUB DUP1 DUP4 AND DUP2 DUP6 AND DUP1 DUP4 SUB DUP3 GT ISZERO PUSH2 0x5B9A JUMPI PUSH2 0x5B9A PUSH2 0x5D85 JUMP JUMPDEST ADD SWAP5 SWAP4 POP POP POP POP JUMP JUMPDEST PUSH1 0x0 DUP3 NOT DUP3 GT ISZERO PUSH2 0x5BB6 JUMPI PUSH2 0x5BB6 PUSH2 0x5D85 JUMP JUMPDEST POP ADD SWAP1 JUMP JUMPDEST PUSH1 0x0 DUP3 PUSH2 0x5BD8 JUMPI PUSH4 0x4E487B71 PUSH1 0xE0 SHL PUSH1 0x0 MSTORE PUSH1 0x12 PUSH1 0x4 MSTORE PUSH1 0x24 PUSH1 0x0 REVERT JUMPDEST POP DIV SWAP1 JUMP JUMPDEST PUSH1 0x1 DUP2 DUP2 JUMPDEST DUP1 DUP6 GT ISZERO PUSH2 0x5C18 JUMPI DUP2 PUSH1 0x0 NOT DIV DUP3 GT ISZERO PUSH2 0x5BFE JUMPI PUSH2 0x5BFE PUSH2 0x5D85 JUMP JUMPDEST DUP1 DUP6 AND ISZERO PUSH2 0x5C0B JUMPI SWAP2 DUP2 MUL SWAP2 JUMPDEST SWAP4 DUP5 SHR SWAP4 SWAP1 DUP1 MUL SWAP1 PUSH2 0x5BE2 JUMP JUMPDEST POP SWAP3 POP SWAP3 SWAP1 POP JUMP JUMPDEST PUSH1 0x0 PUSH2 0x1BDA PUSH1 0xFF DUP5 AND DUP4 PUSH1 0x0 DUP3 PUSH2 0x5C39 JUMPI POP PUSH1 0x1 PUSH2 0x34F6 JUMP JUMPDEST DUP2 PUSH2 0x5C46 JUMPI POP PUSH1 0x0 PUSH2 0x34F6 JUMP JUMPDEST DUP2 PUSH1 0x1 DUP2 EQ PUSH2 0x5C5C JUMPI PUSH1 0x2 DUP2 EQ PUSH2 0x5C66 JUMPI PUSH2 0x5C82 JUMP JUMPDEST PUSH1 0x1 SWAP2 POP POP PUSH2 0x34F6 JUMP JUMPDEST PUSH1 0xFF DUP5 GT ISZERO PUSH2 0x5C77 JUMPI PUSH2 0x5C77 PUSH2 0x5D85 JUMP JUMPDEST POP POP PUSH1 0x1 DUP3 SHL PUSH2 0x34F6 JUMP JUMPDEST POP PUSH1 0x20 DUP4 LT PUSH2 0x133 DUP4 LT AND PUSH1 0x4E DUP5 LT PUSH1 0xB DUP5 LT AND OR ISZERO PUSH2 0x5CA5 JUMPI POP DUP2 DUP2 EXP PUSH2 0x34F6 JUMP JUMPDEST PUSH2 0x5CAF DUP4 DUP4 PUSH2 0x5BDD JUMP JUMPDEST DUP1 PUSH1 0x0 NOT DIV DUP3 GT ISZERO PUSH2 0x5CC3 JUMPI PUSH2 0x5CC3 PUSH2 0x5D85 JUMP JUMPDEST MUL SWAP4 SWAP3 POP POP POP JUMP JUMPDEST PUSH1 0x0 DUP2 PUSH1 0x0 NOT DIV DUP4 GT DUP3 ISZERO ISZERO AND ISZERO PUSH2 0x5CE5 JUMPI PUSH2 0x5CE5 PUSH2 0x5D85 JUMP JUMPDEST POP MUL SWAP1 JUMP JUMPDEST PUSH1 0x0 PUSH1 0x1 PUSH1 0x1 PUSH1 0x80 SHL SUB DUP4 DUP2 AND SWAP1 DUP4 AND DUP2 DUP2 LT ISZERO PUSH2 0x5D0A JUMPI PUSH2 0x5D0A PUSH2 0x5D85 JUMP JUMPDEST SUB SWAP4 SWAP3 POP POP POP JUMP JUMPDEST PUSH1 0x0 DUP3 DUP3 LT ISZERO PUSH2 0x5D24 JUMPI PUSH2 0x5D24 PUSH2 0x5D85 JUMP JUMPDEST POP SUB SWAP1 JUMP JUMPDEST PUSH1 0x0 PUSH4 0xFFFFFFFF DUP4 DUP2 AND SWAP1 DUP4 AND DUP2 DUP2 LT ISZERO PUSH2 0x5D0A JUMPI PUSH2 0x5D0A PUSH2 0x5D85 JUMP JUMPDEST PUSH1 0x0 PUSH1 0x0 NOT DUP3 EQ ISZERO PUSH2 0x5D5A JUMPI PUSH2 0x5D5A PUSH2 0x5D85 JUMP JUMPDEST POP PUSH1 0x1 ADD SWAP1 JUMP JUMPDEST PUSH1 0x0 PUSH4 0xFFFFFFFF DUP1 DUP4 AND DUP2 DUP2 EQ ISZERO PUSH2 0x5D7B JUMPI PUSH2 0x5D7B PUSH2 0x5D85 JUMP JUMPDEST PUSH1 0x1 ADD SWAP4 SWAP3 POP POP POP JUMP JUMPDEST PUSH4 0x4E487B71 PUSH1 0xE0 SHL PUSH1 0x0 MSTORE PUSH1 0x11 PUSH1 0x4 MSTORE PUSH1 0x24 PUSH1 0x0 REVERT JUMPDEST PUSH4 0x4E487B71 PUSH1 0xE0 SHL PUSH1 0x0 MSTORE PUSH1 0x32 PUSH1 0x4 MSTORE PUSH1 0x24 PUSH1 0x0 REVERT JUMPDEST PUSH4 0x4E487B71 PUSH1 0xE0 SHL PUSH1 0x0 MSTORE PUSH1 0x41 PUSH1 0x4 MSTORE PUSH1 0x24 PUSH1 0x0 REVERT JUMPDEST DUP1 ISZERO ISZERO DUP2 EQ PUSH2 0x36CE JUMPI PUSH1 0x0 DUP1 REVERT JUMPDEST PUSH1 0xFF DUP2 AND DUP2 EQ PUSH2 0x36CE JUMPI PUSH1 0x0 DUP1 REVERT INVALID LOG2 PUSH5 0x6970667358 0x22 SLT KECCAK256 0xC1 0xAE SLOAD BALANCE 0xFB MSTORE DIFFICULTY 0xED DUP5 DUP8 0xCB 0xBF 0xBC 0xB7 DUP16 0x28 0xEC PUSH27 0x5786340145B32F329202A2D0FBBE64736F6C634300080700330000 "
		},
		"gasEstimates": {
			"creation": {
				"codeDepositCost": "4818000",
				"executionCost": "27782",
				"totalCost": "4845782"
			},
			"external": {
				"NFTCoinsCounter()": "2350",
				"SECONDS_IN_DAY()": "2418",
				"XIV()": "2425",
				"accumulatedXIV()": "2417",
				"addCoins(uint256,uint256,address)": "80545",
				"addPlan(uint256,uint256,uint256,bool)": "128499",
				"amountToUnlock(address)": "infinite",
				"betCounter(address)": "2597",
				"betFactorLP()": "2374",
				"betFees()": "2352",
				"betFixed(uint256,uint256,address,address,bool)": "infinite",
				"betFlexible(uint256,uint256,address,address,uint256,uint256,bool)": "infinite",
				"betPenalty(uint256)": "infinite",
				"bufferTime()": "2374",
				"chainCoinsCounter()": "2353",
				"changeCoinStaus(address,uint256,uint256,bool)": "31573",
				"checkCoinStatus(address,uint256,uint256)": "2885",
				"claimBets()": "infinite",
				"claimRewards()": "infinite",
				"coinStatus(address,uint256,uint256)": "2768",
				"coins(uint256,uint256,uint256)": "2805",
				"defiCoinsCounter()": "2418",
				"getBetRewards(address)": "infinite",
				"getPriceInXIV(address)": "infinite",
				"getRewards(address)": "infinite",
				"globalPool()": "2397",
				"initialize(address,address,address,uint256,uint256,uint256,uint256,address,address)": "infinite",
				"isEligibleForBet(address,address)": "infinite",
				"isMultiTokenActive()": "2399",
				"maxBetAmount()": "2373",
				"maxStakeAmount()": "2419",
				"maxWalks()": "2375",
				"miniBetAmount()": "2395",
				"miniStakeAmount()": "2395",
				"oracle()": "2404",
				"oracleAddress()": "2460",
				"owner()": "2400",
				"penalty(uint256,uint256)": "2591",
				"planCounter()": "2374",
				"planDaysCounter()": "2352",
				"planDaysIndexed(uint256)": "2497",
				"plans(uint256)": "2764",
				"resolveBet(uint256[],address[],bool)": "infinite",
				"revokeComissionAddress()": "2493",
				"setBetFees(uint256)": "24624",
				"setBufferTime(uint256)": "24556",
				"setDropValue(uint256,uint256)": "29028",
				"setMaxWalks(uint256)": "24606",
				"setMultiTokenStatus(bool)": "infinite",
				"setPenalty(uint256,uint256,uint256)": "24826",
				"setPlanDays(uint256,uint256)": "53289",
				"setPlanDetails(uint8[9],uint8[9],uint8[9])": "infinite",
				"setRevokeComissionAddress(address)": "26901",
				"setReward(uint256,uint256)": "29020",
				"setRisk(uint256,uint256)": "29059",
				"setStatus(uint256,bool)": "31243",
				"setThreshold(uint256)": "24605",
				"stakeDetails(address)": "7326",
				"stakeTokens(uint256)": "infinite",
				"stakerIncentiveCounter()": "2352",
				"stakerRewards(uint256)": "2781",
				"stakes(address,uint256)": "2900",
				"threshold()": "2440",
				"transferOwnership(address)": "30376",
				"unstakeTokens(uint256)": "infinite",
				"updateBetFactorLP(uint256)": "24559",
				"updateMaxBetAmount(uint256)": "24560",
				"updateMaxStakeAmount(uint256)": "24648",
				"updateMinBetAmount(uint256)": "24619",
				"updateMiniStakeAmount(uint256)": "24599",
				"updateOracle(address)": "26882",
				"updateRewards(address)": "infinite",
				"usdt()": "2406",
				"userBetsOne(address,uint256)": "9437",
				"userBetsTwo(address,uint256)": "3113",
				"users(address)": "2598"
			},
			"internal": {
				"_updateRewards(address)": "infinite",
				"saveBetDetailsOne(address,uint256,address,address,bool)": "infinite",
				"saveBetDetailsTwo(address,uint256,uint256,uint256)": "infinite"
			}
		},
		"methodIdentifiers": {
			"NFTCoinsCounter()": "ef7dc45c",
			"SECONDS_IN_DAY()": "61a52a36",
			"XIV()": "efd3c892",
			"accumulatedXIV()": "b606485d",
			"addCoins(uint256,uint256,address)": "defa9df1",
			"addPlan(uint256,uint256,uint256,bool)": "c5e9dc6d",
			"amountToUnlock(address)": "24118875",
			"betCounter(address)": "7f0a83af",
			"betFactorLP()": "409f8e84",
			"betFees()": "b7e1eced",
			"betFixed(uint256,uint256,address,address,bool)": "41bf18e2",
			"betFlexible(uint256,uint256,address,address,uint256,uint256,bool)": "e9d0cc32",
			"betPenalty(uint256)": "42885f8c",
			"bufferTime()": "ba7b6703",
			"chainCoinsCounter()": "21590576",
			"changeCoinStaus(address,uint256,uint256,bool)": "e081e27c",
			"checkCoinStatus(address,uint256,uint256)": "3a2b17e2",
			"claimBets()": "68283f4d",
			"claimRewards()": "372500ab",
			"coinStatus(address,uint256,uint256)": "d66e1e19",
			"coins(uint256,uint256,uint256)": "ac2ce987",
			"defiCoinsCounter()": "a9ecd7da",
			"getBetRewards(address)": "3bdb36d1",
			"getPriceInXIV(address)": "98f0af1c",
			"getRewards(address)": "79ee54f7",
			"globalPool()": "39115784",
			"initialize(address,address,address,uint256,uint256,uint256,uint256,address,address)": "6d03c394",
			"isEligibleForBet(address,address)": "6b899842",
			"isMultiTokenActive()": "dbc9a686",
			"maxBetAmount()": "cab11d5d",
			"maxStakeAmount()": "5d80ca32",
			"maxWalks()": "94ade59b",
			"miniBetAmount()": "845e96ab",
			"miniStakeAmount()": "cacd0ab9",
			"oracle()": "7dc0d1d0",
			"oracleAddress()": "a89ae4ba",
			"owner()": "8da5cb5b",
			"penalty(uint256,uint256)": "51cdb77b",
			"planCounter()": "a36a38ed",
			"planDaysCounter()": "a851ec8f",
			"planDaysIndexed(uint256)": "0ffb231d",
			"plans(uint256)": "b1620616",
			"resolveBet(uint256[],address[],bool)": "2e60130a",
			"revokeComissionAddress()": "a7e3f8c3",
			"setBetFees(uint256)": "a6d883d6",
			"setBufferTime(uint256)": "1aac030c",
			"setDropValue(uint256,uint256)": "9bf26320",
			"setMaxWalks(uint256)": "1c010b51",
			"setMultiTokenStatus(bool)": "bf8f7932",
			"setPenalty(uint256,uint256,uint256)": "f3cf4ada",
			"setPlanDays(uint256,uint256)": "8a3e1cdc",
			"setPlanDetails(uint8[9],uint8[9],uint8[9])": "234e839a",
			"setRevokeComissionAddress(address)": "cfda65c3",
			"setReward(uint256,uint256)": "a47bd496",
			"setRisk(uint256,uint256)": "c4adaed1",
			"setStatus(uint256,bool)": "8719e8ac",
			"setThreshold(uint256)": "960bfe04",
			"stakeDetails(address)": "fa2a9da9",
			"stakeTokens(uint256)": "7547c7a3",
			"stakerIncentiveCounter()": "5ec9adae",
			"stakerRewards(uint256)": "cd6bcf73",
			"stakes(address,uint256)": "584b62a1",
			"threshold()": "42cde4e8",
			"transferOwnership(address)": "f2fde38b",
			"unstakeTokens(uint256)": "608e4dd0",
			"updateBetFactorLP(uint256)": "b0879754",
			"updateMaxBetAmount(uint256)": "4020249c",
			"updateMaxStakeAmount(uint256)": "61b71bae",
			"updateMinBetAmount(uint256)": "b73bf456",
			"updateMiniStakeAmount(uint256)": "24ac09c3",
			"updateOracle(address)": "1cb44dfc",
			"updateRewards(address)": "5fd61965",
			"usdt()": "2f48ab7d",
			"userBetsOne(address,uint256)": "b4849568",
			"userBetsTwo(address,uint256)": "5281d8f0",
			"users(address)": "a87430ba"
		}
	},
	"abi": [
		{
			"anonymous": false,
			"inputs": [
				{
					"indexed": false,
					"internalType": "uint256",
					"name": "coinType",
					"type": "uint256"
				},
				{
					"indexed": false,
					"internalType": "uint256",
					"name": "planType",
					"type": "uint256"
				},
				{
					"indexed": false,
					"internalType": "uint256",
					"name": "counter",
					"type": "uint256"
				},
				{
					"indexed": false,
					"internalType": "bool",
					"name": "status",
					"type": "bool"
				},
				{
					"indexed": false,
					"internalType": "address",
					"name": "coinAddress",
					"type": "address"
				}
			],
			"name": "Addcoins",
			"type": "event"
		},
		{
			"anonymous": false,
			"inputs": [
				{
					"indexed": true,
					"internalType": "address",
					"name": "user",
					"type": "address"
				},
				{
					"indexed": true,
					"internalType": "uint256",
					"name": "betIndex",
					"type": "uint256"
				},
				{
					"indexed": false,
					"internalType": "uint256",
					"name": "timeOfClaim",
					"type": "uint256"
				},
				{
					"indexed": false,
					"internalType": "uint256",
					"name": "winningAmount",
					"type": "uint256"
				}
			],
			"name": "BetClaimed",
			"type": "event"
		},
		{
			"anonymous": false,
			"inputs": [
				{
					"indexed": true,
					"internalType": "address",
					"name": "user",
					"type": "address"
				},
				{
					"indexed": true,
					"internalType": "uint256",
					"name": "index",
					"type": "uint256"
				},
				{
					"indexed": true,
					"internalType": "uint256",
					"name": "result",
					"type": "uint256"
				},
				{
					"indexed": false,
					"internalType": "uint256",
					"name": "endTime",
					"type": "uint256"
				}
			],
			"name": "BetResolved",
			"type": "event"
		},
		{
			"anonymous": false,
			"inputs": [
				{
					"indexed": false,
					"internalType": "address",
					"name": "coinAddress",
					"type": "address"
				},
				{
					"indexed": false,
					"internalType": "uint256",
					"name": "coinType",
					"type": "uint256"
				},
				{
					"indexed": false,
					"internalType": "uint256",
					"name": "planType",
					"type": "uint256"
				},
				{
					"indexed": false,
					"internalType": "bool",
					"name": "status",
					"type": "bool"
				}
			],
			"name": "CoinStatus",
			"type": "event"
		},
		{
			"anonymous": false,
			"inputs": [
				{
					"indexed": false,
					"internalType": "uint256",
					"name": "coinType",
					"type": "uint256"
				},
				{
					"indexed": false,
					"internalType": "uint256",
					"name": "planType",
					"type": "uint256"
				},
				{
					"indexed": false,
					"internalType": "bool",
					"name": "status",
					"type": "bool"
				}
			],
			"name": "IndexCoinStatus",
			"type": "event"
		},
		{
			"anonymous": false,
			"inputs": [
				{
					"indexed": false,
					"internalType": "uint256",
					"name": "typeOfLP",
					"type": "uint256"
				},
				{
					"indexed": false,
					"internalType": "address",
					"name": "userAddress",
					"type": "address"
				},
				{
					"indexed": false,
					"internalType": "uint256",
					"name": "amount",
					"type": "uint256"
				},
				{
					"indexed": false,
					"internalType": "uint256",
					"name": "timestamp",
					"type": "uint256"
				}
			],
			"name": "LPEvent",
			"type": "event"
		},
		{
			"anonymous": false,
			"inputs": [
				{
					"indexed": true,
					"internalType": "address",
					"name": "user",
					"type": "address"
				},
				{
					"indexed": false,
					"internalType": "address",
					"name": "coinAddress",
					"type": "address"
				},
				{
					"indexed": false,
					"internalType": "address",
					"name": "betCoin",
					"type": "address"
				},
				{
					"indexed": true,
					"internalType": "uint256",
					"name": "betIndex",
					"type": "uint256"
				},
				{
					"indexed": false,
					"internalType": "uint256",
					"name": "planIndex",
					"type": "uint256"
				},
				{
					"indexed": false,
					"internalType": "uint256",
					"name": "planDays",
					"type": "uint256"
				},
				{
					"indexed": false,
					"internalType": "uint256",
					"name": "startTime",
					"type": "uint256"
				},
				{
					"indexed": true,
					"internalType": "uint256",
					"name": "endTime",
					"type": "uint256"
				}
			],
			"name": "NewBet",
			"type": "event"
		},
		{
			"anonymous": false,
			"inputs": [
				{
					"indexed": false,
					"internalType": "address",
					"name": "previousOwner",
					"type": "address"
				},
				{
					"indexed": false,
					"internalType": "address",
					"name": "newOwner",
					"type": "address"
				}
			],
			"name": "OwnershipTransferred",
			"type": "event"
		},
		{
			"anonymous": false,
			"inputs": [
				{
					"indexed": true,
					"internalType": "address",
					"name": "user",
					"type": "address"
				},
				{
					"indexed": true,
					"internalType": "uint256",
					"name": "betIndex",
					"type": "uint256"
				},
				{
					"indexed": true,
					"internalType": "bool",
					"name": "isClaimed",
					"type": "bool"
				}
			],
			"name": "UserPenalized",
			"type": "event"
		},
		{
			"inputs": [],
			"name": "NFTCoinsCounter",
			"outputs": [
				{
					"internalType": "uint256",
					"name": "",
					"type": "uint256"
				}
			],
			"stateMutability": "view",
			"type": "function"
		},
		{
			"inputs": [],
			"name": "SECONDS_IN_DAY",
			"outputs": [
				{
					"internalType": "uint256",
					"name": "",
					"type": "uint256"
				}
			],
			"stateMutability": "view",
			"type": "function"
		},
		{
			"inputs": [],
			"name": "XIV",
			"outputs": [
				{
					"internalType": "contract IERC20",
					"name": "",
					"type": "address"
				}
			],
			"stateMutability": "view",
			"type": "function"
		},
		{
			"inputs": [],
			"name": "accumulatedXIV",
			"outputs": [
				{
					"internalType": "uint256",
					"name": "",
					"type": "uint256"
				}
			],
			"stateMutability": "view",
			"type": "function"
		},
		{
			"inputs": [
				{
					"internalType": "uint256",
					"name": "_coinType",
					"type": "uint256"
				},
				{
					"internalType": "uint256",
					"name": "planType",
					"type": "uint256"
				},
				{
					"internalType": "address",
					"name": "coinAddress",
					"type": "address"
				}
			],
			"name": "addCoins",
			"outputs": [],
			"stateMutability": "nonpayable",
			"type": "function"
		},
		{
			"inputs": [
				{
					"internalType": "uint256",
					"name": "_reward",
					"type": "uint256"
				},
				{
					"internalType": "uint256",
					"name": "_risk",
					"type": "uint256"
				},
				{
					"internalType": "uint256",
					"name": "_drop",
					"type": "uint256"
				},
				{
					"internalType": "bool",
					"name": "status",
					"type": "bool"
				}
			],
			"name": "addPlan",
			"outputs": [],
			"stateMutability": "nonpayable",
			"type": "function"
		},
		{
			"inputs": [
				{
					"internalType": "address",
					"name": "user",
					"type": "address"
				}
			],
			"name": "amountToUnlock",
			"outputs": [
				{
					"internalType": "uint256",
					"name": "",
					"type": "uint256"
				},
				{
					"internalType": "uint256",
					"name": "",
					"type": "uint256"
				}
			],
			"stateMutability": "view",
			"type": "function"
		},
		{
			"inputs": [
				{
					"internalType": "address",
					"name": "",
					"type": "address"
				}
			],
			"name": "betCounter",
			"outputs": [
				{
					"internalType": "uint256",
					"name": "",
					"type": "uint256"
				}
			],
			"stateMutability": "view",
			"type": "function"
		},
		{
			"inputs": [],
			"name": "betFactorLP",
			"outputs": [
				{
					"internalType": "uint256",
					"name": "",
					"type": "uint256"
				}
			],
			"stateMutability": "view",
			"type": "function"
		},
		{
			"inputs": [],
			"name": "betFees",
			"outputs": [
				{
					"internalType": "uint256",
					"name": "",
					"type": "uint256"
				}
			],
			"stateMutability": "view",
			"type": "function"
		},
		{
			"inputs": [
				{
					"internalType": "uint256",
					"name": "amount",
					"type": "uint256"
				},
				{
					"internalType": "uint256",
					"name": "coinType",
					"type": "uint256"
				},
				{
					"internalType": "address",
					"name": "coinAddress",
					"type": "address"
				},
				{
					"internalType": "address",
					"name": "betToken",
					"type": "address"
				},
				{
					"internalType": "bool",
					"name": "_isInverse",
					"type": "bool"
				}
			],
			"name": "betFixed",
			"outputs": [],
			"stateMutability": "payable",
			"type": "function"
		},
		{
			"inputs": [
				{
					"internalType": "uint256",
					"name": "amount",
					"type": "uint256"
				},
				{
					"internalType": "uint256",
					"name": "coinType",
					"type": "uint256"
				},
				{
					"internalType": "address",
					"name": "coinAddress",
					"type": "address"
				},
				{
					"internalType": "address",
					"name": "betToken",
					"type": "address"
				},
				{
					"internalType": "uint256",
					"name": "index",
					"type": "uint256"
				},
				{
					"internalType": "uint256",
					"name": "_daysIndex",
					"type": "uint256"
				},
				{
					"internalType": "bool",
					"name": "_isInverse",
					"type": "bool"
				}
			],
			"name": "betFlexible",
			"outputs": [],
			"stateMutability": "payable",
			"type": "function"
		},
		{
			"inputs": [
				{
					"internalType": "uint256",
					"name": "betIndex",
					"type": "uint256"
				}
			],
			"name": "betPenalty",
			"outputs": [],
			"stateMutability": "nonpayable",
			"type": "function"
		},
		{
			"inputs": [],
			"name": "bufferTime",
			"outputs": [
				{
					"internalType": "uint256",
					"name": "",
					"type": "uint256"
				}
			],
			"stateMutability": "view",
			"type": "function"
		},
		{
			"inputs": [],
			"name": "chainCoinsCounter",
			"outputs": [
				{
					"internalType": "uint256",
					"name": "",
					"type": "uint256"
				}
			],
			"stateMutability": "view",
			"type": "function"
		},
		{
			"inputs": [
				{
					"internalType": "address",
					"name": "coinAddress",
					"type": "address"
				},
				{
					"internalType": "uint256",
					"name": "coinType",
					"type": "uint256"
				},
				{
					"internalType": "uint256",
					"name": "planType",
					"type": "uint256"
				},
				{
					"internalType": "bool",
					"name": "status",
					"type": "bool"
				}
			],
			"name": "changeCoinStaus",
			"outputs": [],
			"stateMutability": "nonpayable",
			"type": "function"
		},
		{
			"inputs": [
				{
					"internalType": "address",
					"name": "_coin",
					"type": "address"
				},
				{
					"internalType": "uint256",
					"name": "_coinType",
					"type": "uint256"
				},
				{
					"internalType": "uint256",
					"name": "_planType",
					"type": "uint256"
				}
			],
			"name": "checkCoinStatus",
			"outputs": [
				{
					"internalType": "bool",
					"name": "",
					"type": "bool"
				}
			],
			"stateMutability": "view",
			"type": "function"
		},
		{
			"inputs": [],
			"name": "claimBets",
			"outputs": [],
			"stateMutability": "nonpayable",
			"type": "function"
		},
		{
			"inputs": [],
			"name": "claimRewards",
			"outputs": [],
			"stateMutability": "nonpayable",
			"type": "function"
		},
		{
			"inputs": [
				{
					"internalType": "address",
					"name": "",
					"type": "address"
				},
				{
					"internalType": "uint256",
					"name": "",
					"type": "uint256"
				},
				{
					"internalType": "uint256",
					"name": "",
					"type": "uint256"
				}
			],
			"name": "coinStatus",
			"outputs": [
				{
					"internalType": "bool",
					"name": "",
					"type": "bool"
				}
			],
			"stateMutability": "view",
			"type": "function"
		},
		{
			"inputs": [
				{
					"internalType": "uint256",
					"name": "",
					"type": "uint256"
				},
				{
					"internalType": "uint256",
					"name": "",
					"type": "uint256"
				},
				{
					"internalType": "uint256",
					"name": "",
					"type": "uint256"
				}
			],
			"name": "coins",
			"outputs": [
				{
					"internalType": "address",
					"name": "",
					"type": "address"
				}
			],
			"stateMutability": "view",
			"type": "function"
		},
		{
			"inputs": [],
			"name": "defiCoinsCounter",
			"outputs": [
				{
					"internalType": "uint256",
					"name": "",
					"type": "uint256"
				}
			],
			"stateMutability": "view",
			"type": "function"
		},
		{
			"inputs": [
				{
					"internalType": "address",
					"name": "user",
					"type": "address"
				}
			],
			"name": "getBetRewards",
			"outputs": [
				{
					"internalType": "uint256",
					"name": "",
					"type": "uint256"
				}
			],
			"stateMutability": "view",
			"type": "function"
		},
		{
			"inputs": [
				{
					"internalType": "address",
					"name": "betToken",
					"type": "address"
				}
			],
			"name": "getPriceInXIV",
			"outputs": [
				{
					"internalType": "uint256",
					"name": "priceInXIV",
					"type": "uint256"
				}
			],
			"stateMutability": "view",
			"type": "function"
		},
		{
			"inputs": [
				{
					"internalType": "address",
					"name": "user",
					"type": "address"
				}
			],
			"name": "getRewards",
			"outputs": [
				{
					"internalType": "uint256",
					"name": "",
					"type": "uint256"
				},
				{
					"internalType": "uint256",
					"name": "",
					"type": "uint256"
				},
				{
					"internalType": "uint256",
					"name": "",
					"type": "uint256"
				}
			],
			"stateMutability": "view",
			"type": "function"
		},
		{
			"inputs": [],
			"name": "globalPool",
			"outputs": [
				{
					"internalType": "uint256",
					"name": "",
					"type": "uint256"
				}
			],
			"stateMutability": "view",
			"type": "function"
		},
		{
			"inputs": [
				{
					"internalType": "address",
					"name": "_admin",
					"type": "address"
				},
				{
					"internalType": "address",
					"name": "_XIVAddress",
					"type": "address"
				},
				{
					"internalType": "address",
					"name": "_revokeComissionAddress",
					"type": "address"
				},
				{
					"internalType": "uint256",
					"name": "_miniStakeAmount",
					"type": "uint256"
				},
				{
					"internalType": "uint256",
					"name": "_betFactorLP",
					"type": "uint256"
				},
				{
					"internalType": "uint256",
					"name": "_miniBetAmount",
					"type": "uint256"
				},
				{
					"internalType": "uint256",
					"name": "_maxBetAmount",
					"type": "uint256"
				},
				{
					"internalType": "address",
					"name": "_oracle",
					"type": "address"
				},
				{
					"internalType": "address",
					"name": "_usdt",
					"type": "address"
				}
			],
			"name": "initialize",
			"outputs": [],
			"stateMutability": "nonpayable",
			"type": "function"
		},
		{
			"inputs": [
				{
					"internalType": "address",
					"name": "",
					"type": "address"
				},
				{
					"internalType": "address",
					"name": "",
					"type": "address"
				}
			],
			"name": "isEligibleForBet",
			"outputs": [
				{
					"internalType": "bool",
					"name": "",
					"type": "bool"
				}
			],
			"stateMutability": "view",
			"type": "function"
		},
		{
			"inputs": [],
			"name": "isMultiTokenActive",
			"outputs": [
				{
					"internalType": "bool",
					"name": "",
					"type": "bool"
				}
			],
			"stateMutability": "view",
			"type": "function"
		},
		{
			"inputs": [],
			"name": "maxBetAmount",
			"outputs": [
				{
					"internalType": "uint256",
					"name": "",
					"type": "uint256"
				}
			],
			"stateMutability": "view",
			"type": "function"
		},
		{
			"inputs": [],
			"name": "maxStakeAmount",
			"outputs": [
				{
					"internalType": "uint256",
					"name": "",
					"type": "uint256"
				}
			],
			"stateMutability": "view",
			"type": "function"
		},
		{
			"inputs": [],
			"name": "maxWalks",
			"outputs": [
				{
					"internalType": "uint256",
					"name": "",
					"type": "uint256"
				}
			],
			"stateMutability": "view",
			"type": "function"
		},
		{
			"inputs": [],
			"name": "miniBetAmount",
			"outputs": [
				{
					"internalType": "uint256",
					"name": "",
					"type": "uint256"
				}
			],
			"stateMutability": "view",
			"type": "function"
		},
		{
			"inputs": [],
			"name": "miniStakeAmount",
			"outputs": [
				{
					"internalType": "uint256",
					"name": "",
					"type": "uint256"
				}
			],
			"stateMutability": "view",
			"type": "function"
		},
		{
			"inputs": [],
			"name": "oracle",
			"outputs": [
				{
					"internalType": "contract IOracleWrapper",
					"name": "",
					"type": "address"
				}
			],
			"stateMutability": "view",
			"type": "function"
		},
		{
			"inputs": [],
			"name": "oracleAddress",
			"outputs": [
				{
					"internalType": "address",
					"name": "",
					"type": "address"
				}
			],
			"stateMutability": "view",
			"type": "function"
		},
		{
			"inputs": [],
			"name": "owner",
			"outputs": [
				{
					"internalType": "address",
					"name": "",
					"type": "address"
				}
			],
			"stateMutability": "view",
			"type": "function"
		},
		{
			"inputs": [
				{
					"internalType": "uint256",
					"name": "",
					"type": "uint256"
				},
				{
					"internalType": "uint256",
					"name": "",
					"type": "uint256"
				}
			],
			"name": "penalty",
			"outputs": [
				{
					"internalType": "uint256",
					"name": "",
					"type": "uint256"
				}
			],
			"stateMutability": "view",
			"type": "function"
		},
		{
			"inputs": [],
			"name": "planCounter",
			"outputs": [
				{
					"internalType": "uint256",
					"name": "",
					"type": "uint256"
				}
			],
			"stateMutability": "view",
			"type": "function"
		},
		{
			"inputs": [],
			"name": "planDaysCounter",
			"outputs": [
				{
					"internalType": "uint256",
					"name": "",
					"type": "uint256"
				}
			],
			"stateMutability": "view",
			"type": "function"
		},
		{
			"inputs": [
				{
					"internalType": "uint256",
					"name": "",
					"type": "uint256"
				}
			],
			"name": "planDaysIndexed",
			"outputs": [
				{
					"internalType": "uint256",
					"name": "",
					"type": "uint256"
				}
			],
			"stateMutability": "view",
			"type": "function"
		},
		{
			"inputs": [
				{
					"internalType": "uint256",
					"name": "",
					"type": "uint256"
				}
			],
			"name": "plans",
			"outputs": [
				{
					"internalType": "uint64",
					"name": "risk",
					"type": "uint64"
				},
				{
					"internalType": "uint64",
					"name": "reward",
					"type": "uint64"
				},
				{
					"internalType": "uint120",
					"name": "drop",
					"type": "uint120"
				},
				{
					"internalType": "bool",
					"name": "isActive",
					"type": "bool"
				}
			],
			"stateMutability": "view",
			"type": "function"
		},
		{
			"inputs": [
				{
					"internalType": "uint256[]",
					"name": "index",
					"type": "uint256[]"
				},
				{
					"internalType": "address[]",
					"name": "user",
					"type": "address[]"
				},
				{
					"internalType": "bool",
					"name": "timeCheck",
					"type": "bool"
				}
			],
			"name": "resolveBet",
			"outputs": [],
			"stateMutability": "nonpayable",
			"type": "function"
		},
		{
			"inputs": [],
			"name": "revokeComissionAddress",
			"outputs": [
				{
					"internalType": "address",
					"name": "",
					"type": "address"
				}
			],
			"stateMutability": "view",
			"type": "function"
		},
		{
			"inputs": [
				{
					"internalType": "uint256",
					"name": "fees",
					"type": "uint256"
				}
			],
			"name": "setBetFees",
			"outputs": [],
			"stateMutability": "nonpayable",
			"type": "function"
		},
		{
			"inputs": [
				{
					"internalType": "uint256",
					"name": "time",
					"type": "uint256"
				}
			],
			"name": "setBufferTime",
			"outputs": [],
			"stateMutability": "nonpayable",
			"type": "function"
		},
		{
			"inputs": [
				{
					"internalType": "uint256",
					"name": "count",
					"type": "uint256"
				},
				{
					"internalType": "uint256",
					"name": "_drop",
					"type": "uint256"
				}
			],
			"name": "setDropValue",
			"outputs": [],
			"stateMutability": "nonpayable",
			"type": "function"
		},
		{
			"inputs": [
				{
					"internalType": "uint256",
					"name": "value",
					"type": "uint256"
				}
			],
			"name": "setMaxWalks",
			"outputs": [],
			"stateMutability": "nonpayable",
			"type": "function"
		},
		{
			"inputs": [
				{
					"internalType": "bool",
					"name": "status",
					"type": "bool"
				}
			],
			"name": "setMultiTokenStatus",
			"outputs": [],
			"stateMutability": "nonpayable",
			"type": "function"
		},
		{
			"inputs": [
				{
					"internalType": "uint256",
					"name": "value",
					"type": "uint256"
				},
				{
					"internalType": "uint256",
					"name": "_days",
					"type": "uint256"
				},
				{
					"internalType": "uint256",
					"name": "planDaysIndex",
					"type": "uint256"
				}
			],
			"name": "setPenalty",
			"outputs": [],
			"stateMutability": "nonpayable",
			"type": "function"
		},
		{
			"inputs": [
				{
					"internalType": "uint256",
					"name": "index",
					"type": "uint256"
				},
				{
					"internalType": "uint256",
					"name": "planDays",
					"type": "uint256"
				}
			],
			"name": "setPlanDays",
			"outputs": [],
			"stateMutability": "nonpayable",
			"type": "function"
		},
		{
			"inputs": [
				{
					"internalType": "uint8[9]",
					"name": "drop",
					"type": "uint8[9]"
				},
				{
					"internalType": "uint8[9]",
					"name": "reward",
					"type": "uint8[9]"
				},
				{
					"internalType": "uint8[9]",
					"name": "risk",
					"type": "uint8[9]"
				}
			],
			"name": "setPlanDetails",
			"outputs": [],
			"stateMutability": "nonpayable",
			"type": "function"
		},
		{
			"inputs": [
				{
					"internalType": "address",
					"name": "newAddress",
					"type": "address"
				}
			],
			"name": "setRevokeComissionAddress",
			"outputs": [],
			"stateMutability": "nonpayable",
			"type": "function"
		},
		{
			"inputs": [
				{
					"internalType": "uint256",
					"name": "count",
					"type": "uint256"
				},
				{
					"internalType": "uint256",
					"name": "_reward",
					"type": "uint256"
				}
			],
			"name": "setReward",
			"outputs": [],
			"stateMutability": "nonpayable",
			"type": "function"
		},
		{
			"inputs": [
				{
					"internalType": "uint256",
					"name": "count",
					"type": "uint256"
				},
				{
					"internalType": "uint256",
					"name": "_risk",
					"type": "uint256"
				}
			],
			"name": "setRisk",
			"outputs": [],
			"stateMutability": "nonpayable",
			"type": "function"
		},
		{
			"inputs": [
				{
					"internalType": "uint256",
					"name": "count",
					"type": "uint256"
				},
				{
					"internalType": "bool",
					"name": "status",
					"type": "bool"
				}
			],
			"name": "setStatus",
			"outputs": [],
			"stateMutability": "nonpayable",
			"type": "function"
		},
		{
			"inputs": [
				{
					"internalType": "uint256",
					"name": "value",
					"type": "uint256"
				}
			],
			"name": "setThreshold",
			"outputs": [],
			"stateMutability": "nonpayable",
			"type": "function"
		},
		{
			"inputs": [
				{
					"internalType": "address",
					"name": "",
					"type": "address"
				}
			],
			"name": "stakeDetails",
			"outputs": [
				{
					"internalType": "uint128",
					"name": "lastStakedAmount",
					"type": "uint128"
				},
				{
					"internalType": "uint128",
					"name": "amountUnstaked",
					"type": "uint128"
				},
				{
					"internalType": "uint128",
					"name": "stakeResidual",
					"type": "uint128"
				},
				{
					"internalType": "uint128",
					"name": "profit",
					"type": "uint128"
				},
				{
					"internalType": "uint128",
					"name": "losses",
					"type": "uint128"
				},
				{
					"internalType": "uint32",
					"name": "lastStakedTime",
					"type": "uint32"
				},
				{
					"internalType": "uint32",
					"name": "lastClaimedBet",
					"type": "uint32"
				},
				{
					"internalType": "uint32",
					"name": "stakeCounter",
					"type": "uint32"
				},
				{
					"internalType": "uint32",
					"name": "lastUnstakeIndex",
					"type": "uint32"
				}
			],
			"stateMutability": "view",
			"type": "function"
		},
		{
			"inputs": [
				{
					"internalType": "uint256",
					"name": "amount",
					"type": "uint256"
				}
			],
			"name": "stakeTokens",
			"outputs": [],
			"stateMutability": "nonpayable",
			"type": "function"
		},
		{
			"inputs": [],
			"name": "stakerIncentiveCounter",
			"outputs": [
				{
					"internalType": "uint256",
					"name": "",
					"type": "uint256"
				}
			],
			"stateMutability": "view",
			"type": "function"
		},
		{
			"inputs": [
				{
					"internalType": "uint256",
					"name": "",
					"type": "uint256"
				}
			],
			"name": "stakerRewards",
			"outputs": [
				{
					"internalType": "uint96",
					"name": "betEndStake",
					"type": "uint96"
				},
				{
					"internalType": "uint96",
					"name": "stakingReward",
					"type": "uint96"
				},
				{
					"internalType": "uint32",
					"name": "betEndTime",
					"type": "uint32"
				},
				{
					"internalType": "uint32",
					"name": "status",
					"type": "uint32"
				}
			],
			"stateMutability": "view",
			"type": "function"
		},
		{
			"inputs": [
				{
					"internalType": "address",
					"name": "",
					"type": "address"
				},
				{
					"internalType": "uint256",
					"name": "",
					"type": "uint256"
				}
			],
			"name": "stakes",
			"outputs": [
				{
					"internalType": "uint64",
					"name": "stakingTime",
					"type": "uint64"
				},
				{
					"internalType": "uint64",
					"name": "lastIndex",
					"type": "uint64"
				},
				{
					"internalType": "uint128",
					"name": "stakedAmount",
					"type": "uint128"
				}
			],
			"stateMutability": "view",
			"type": "function"
		},
		{
			"inputs": [],
			"name": "threshold",
			"outputs": [
				{
					"internalType": "uint256",
					"name": "",
					"type": "uint256"
				}
			],
			"stateMutability": "view",
			"type": "function"
		},
		{
			"inputs": [
				{
					"internalType": "address",
					"name": "newOwner",
					"type": "address"
				}
			],
			"name": "transferOwnership",
			"outputs": [],
			"stateMutability": "nonpayable",
			"type": "function"
		},
		{
			"inputs": [
				{
					"internalType": "uint256",
					"name": "amount",
					"type": "uint256"
				}
			],
			"name": "unstakeTokens",
			"outputs": [],
			"stateMutability": "nonpayable",
			"type": "function"
		},
		{
			"inputs": [
				{
					"internalType": "uint256",
					"name": "_betFactorLP",
					"type": "uint256"
				}
			],
			"name": "updateBetFactorLP",
			"outputs": [],
			"stateMutability": "nonpayable",
			"type": "function"
		},
		{
			"inputs": [
				{
					"internalType": "uint256",
					"name": "_maxBetAmount",
					"type": "uint256"
				}
			],
			"name": "updateMaxBetAmount",
			"outputs": [],
			"stateMutability": "nonpayable",
			"type": "function"
		},
		{
			"inputs": [
				{
					"internalType": "uint256",
					"name": "_maxStakeAmount",
					"type": "uint256"
				}
			],
			"name": "updateMaxStakeAmount",
			"outputs": [],
			"stateMutability": "nonpayable",
			"type": "function"
		},
		{
			"inputs": [
				{
					"internalType": "uint256",
					"name": "_miniBetAmount",
					"type": "uint256"
				}
			],
			"name": "updateMinBetAmount",
			"outputs": [],
			"stateMutability": "nonpayable",
			"type": "function"
		},
		{
			"inputs": [
				{
					"internalType": "uint256",
					"name": "_miniStakeAmount",
					"type": "uint256"
				}
			],
			"name": "updateMiniStakeAmount",
			"outputs": [],
			"stateMutability": "nonpayable",
			"type": "function"
		},
		{
			"inputs": [
				{
					"internalType": "address",
					"name": "_oracle",
					"type": "address"
				}
			],
			"name": "updateOracle",
			"outputs": [],
			"stateMutability": "nonpayable",
			"type": "function"
		},
		{
			"inputs": [
				{
					"internalType": "address",
					"name": "user",
					"type": "address"
				}
			],
			"name": "updateRewards",
			"outputs": [],
			"stateMutability": "nonpayable",
			"type": "function"
		},
		{
			"inputs": [],
			"name": "usdt",
			"outputs": [
				{
					"internalType": "contract IERC20",
					"name": "",
					"type": "address"
				}
			],
			"stateMutability": "view",
			"type": "function"
		},
		{
			"inputs": [
				{
					"internalType": "address",
					"name": "",
					"type": "address"
				},
				{
					"internalType": "uint256",
					"name": "",
					"type": "uint256"
				}
			],
			"name": "userBetsOne",
			"outputs": [
				{
					"internalType": "uint128",
					"name": "amount",
					"type": "uint128"
				},
				{
					"internalType": "uint120",
					"name": "status",
					"type": "uint120"
				},
				{
					"internalType": "bool",
					"name": "isInverse",
					"type": "bool"
				},
				{
					"internalType": "uint96",
					"name": "initialPrice",
					"type": "uint96"
				},
				{
					"internalType": "uint96",
					"name": "priceInXIV",
					"type": "uint96"
				},
				{
					"internalType": "address",
					"name": "betTokenAddress",
					"type": "address"
				},
				{
					"internalType": "address",
					"name": "coinAddress",
					"type": "address"
				}
			],
			"stateMutability": "view",
			"type": "function"
		},
		{
			"inputs": [
				{
					"internalType": "address",
					"name": "",
					"type": "address"
				},
				{
					"internalType": "uint256",
					"name": "",
					"type": "uint256"
				}
			],
			"name": "userBetsTwo",
			"outputs": [
				{
					"internalType": "uint64",
					"name": "reward",
					"type": "uint64"
				},
				{
					"internalType": "uint32",
					"name": "risk",
					"type": "uint32"
				},
				{
					"internalType": "uint32",
					"name": "dropValue",
					"type": "uint32"
				},
				{
					"internalType": "uint48",
					"name": "planType",
					"type": "uint48"
				},
				{
					"internalType": "uint32",
					"name": "startTime",
					"type": "uint32"
				},
				{
					"internalType": "uint32",
					"name": "endTime",
					"type": "uint32"
				},
				{
					"internalType": "bool",
					"name": "isInToken",
					"type": "bool"
				},
				{
					"internalType": "bool",
					"name": "isClaimed",
					"type": "bool"
				}
			],
			"stateMutability": "view",
			"type": "function"
		},
		{
			"inputs": [
				{
					"internalType": "address",
					"name": "",
					"type": "address"
				}
			],
			"name": "users",
			"outputs": [
				{
					"internalType": "uint256",
					"name": "lastBetIndex",
					"type": "uint256"
				}
			],
			"stateMutability": "view",
			"type": "function"
		},
		{
			"stateMutability": "payable",
			"type": "receive"
		}
	]
}