{
	"data": {
		"bytecode": {
			"linkReferences": {},
			"object": "608060405234801561001057600080fd5b50610d8d806100206000396000f3fe608060405234801561001057600080fd5b50600436106100935760003560e01c806388363bf61161006657806388363bf6146101525780638da5cb5b146101655780639607361d14610176578063ac41865a14610189578063f2fde38b146101aa57600080fd5b80633f91c3a51461009857806355cb2666146100ad57806356208472146100dd57806374f0852e146100f0575b600080fd5b6100ab6100a6366004610a16565b6101bd565b005b6001546100c0906001600160a01b031681565b6040516001600160a01b0390911681526020015b60405180910390f35b6100ab6100eb3660046109f4565b610265565b61012b6100fe3660046109f4565b6002602052600090815260409020546001600160a01b03811690600160a01b90046001600160601b031682565b604080516001600160a01b0390931683526001600160601b039091166020830152016100d4565b6100ab6101603660046109f4565b610307565b6000546001600160a01b03166100c0565b6100ab610184366004610a49565b6103c0565b61019c610197366004610a16565b610545565b6040519081526020016100d4565b6100ab6101b83660046109f4565b610905565b600054600160a01b900460ff161561022a5760405162461bcd60e51b815260206004820152602560248201527f4f7261636c65577261707065725630203a20416c726561647920696e697469616044820152641b1a5e995960da1b60648201526084015b60405180910390fd5b600180546001600160a01b0319166001600160a01b03831617905561024e826109b6565b50506000805460ff60a01b1916600160a01b179055565b6000546001600160a01b0316331461028f5760405162461bcd60e51b815260040161022190610b7a565b6001600160a01b0381166102e55760405162461bcd60e51b815260206004820181905260248201527f4f7261636c655772617070657256303a20496e76616c696420616464726573736044820152606401610221565b600180546001600160a01b0319166001600160a01b0392909216919091179055565b6000546001600160a01b031633146103315760405162461bcd60e51b815260040161022190610b7a565b6001600160a01b038116600090815260026020526040902054600160a01b90046001600160601b03166103a65760405162461bcd60e51b815260206004820181905260248201527f4f7261636c655772617070657256303a20436f696e206e6f74206578697374736044820152606401610221565b6001600160a01b0316600090815260026020526040812055565b6000546001600160a01b031633146103ea5760405162461bcd60e51b815260040161022190610b7a565b806001600160601b03166001148061040b5750806001600160601b03166002145b6104635760405162461bcd60e51b815260206004820152602360248201527f4f7261636c655772617070657256303a20496e76616c6964206f7261636c655460448201526279706560e81b6064820152608401610221565b6001600160a01b0383166104b95760405162461bcd60e51b815260206004820152601e60248201527f4f7261636c65577261707065725630203a205a65726f206164647265737300006044820152606401610221565b6001600160a01b03821661050f5760405162461bcd60e51b815260206004820152601d60248201527f4f7261636c655772617070657256303a205a65726f20616464726573730000006044820152606401610221565b6001600160a01b0392831660009081526002602052604090206001600160601b03909116600160a01b0292909116919091179055565b6001600160a01b038216600090815260026020526040812054600160a01b90046001600160601b03166105c45760405162461bcd60e51b815260206004820152602160248201527f4f7261636c65577261707065725630203a20436f696e206e6f742065786973746044820152607360f81b6064820152608401610221565b6001600160a01b038316600090815260026020526040812054600160a01b90046001600160601b03166001141561068a576001600160a01b038085166000908152600260209081526040918290205482516350d25bcd60e01b8152925193169283926350d25bcd926004808301939192829003018186803b15801561064857600080fd5b505afa15801561065c573d6000803e3d6000fd5b505050506040513d601f19601f820116820180604052508101906106809190610b61565b92506108ff915050565b6001600160a01b038416600090815260026020819052604090912054600160a01b90046001600160601b03161480156106cb57506001600160a01b03831615155b156108a0576001546040805160028082526060820183526001600160a01b0390931692600092602083019080368337019050509050858160008151811061071457610714610d2b565b60200260200101906001600160a01b031690816001600160a01b031681525050848160018151811061074857610748610d2b565b60200260200101906001600160a01b031690816001600160a01b0316815250506000826001600160a01b031663d06ca61f886001600160a01b031663313ce5676040518163ffffffff1660e01b815260040160206040518083038186803b1580156107b257600080fd5b505afa1580156107c6573d6000803e3d6000fd5b505050506040513d601f19601f820116820180604052508101906107ea9190610b61565b6107f590600a610c6d565b846040518363ffffffff1660e01b8152600401610813929190610bb1565b60006040518083038186803b15801561082b57600080fd5b505afa15801561083f573d6000803e3d6000fd5b505050506040513d6000823e601f3d908101601f191682016040526108679190810190610a9c565b90506402540be4008160018151811061088257610882610d2b565b60200260200101516108949190610c08565b94506108ff9350505050565b806108f95760405162461bcd60e51b8152602060048201526024808201527f4f7261636c655772617070657256303a2050726963652063616e2774206265206044820152637a65726f60e01b6064820152608401610221565b60009150505b92915050565b6000546001600160a01b0316331461092f5760405162461bcd60e51b815260040161022190610b7a565b6001600160a01b0381166109555760405162461bcd60e51b815260040161022190610b7a565b7f8be0079c531659141344cd1fd0a4f28419497f9722a3daafe3b4186f6b6457e06109886000546001600160a01b031690565b604080516001600160a01b03928316815291841660208301520160405180910390a16109b3816109b6565b50565b600080546001600160a01b0319166001600160a01b0392909216919091179055565b80356001600160a01b03811681146109ef57600080fd5b919050565b600060208284031215610a0657600080fd5b610a0f826109d8565b9392505050565b60008060408385031215610a2957600080fd5b610a32836109d8565b9150610a40602084016109d8565b90509250929050565b600080600060608486031215610a5e57600080fd5b610a67846109d8565b9250610a75602085016109d8565b915060408401356001600160601b0381168114610a9157600080fd5b809150509250925092565b60006020808385031215610aaf57600080fd5b825167ffffffffffffffff80821115610ac757600080fd5b818501915085601f830112610adb57600080fd5b815181811115610aed57610aed610d41565b8060051b604051601f19603f83011681018181108582111715610b1257610b12610d41565b604052828152858101935084860182860187018a1015610b3157600080fd5b600095505b83861015610b54578051855260019590950194938601938601610b36565b5098975050505050505050565b600060208284031215610b7357600080fd5b5051919050565b60208082526018908201527f437573746f6d4f776e61626c653a20464f5242494444454e0000000000000000604082015260600190565b6000604082018483526020604081850152818551808452606086019150828701935060005b81811015610bfb5784516001600160a01b031683529383019391830191600101610bd6565b5090979650505050505050565b600082610c2557634e487b7160e01b600052601260045260246000fd5b500490565b600181815b80851115610c65578160001904821115610c4b57610c4b610d15565b80851615610c5857918102915b93841c9390800290610c2f565b509250929050565b6000610a0f8383600082610c83575060016108ff565b81610c90575060006108ff565b8160018114610ca65760028114610cb057610ccc565b60019150506108ff565b60ff841115610cc157610cc1610d15565b50506001821b6108ff565b5060208310610133831016604e8410600b8410161715610cef575081810a6108ff565b610cf98383610c2a565b8060001904821115610d0d57610d0d610d15565b029392505050565b634e487b7160e01b600052601160045260246000fd5b634e487b7160e01b600052603260045260246000fd5b634e487b7160e01b600052604160045260246000fdfea26469706673582212201d1977fdea6296e573473835480da127f2ecb5478fabb06abddcf3f34e4fc6c864736f6c63430008070033",
			"opcodes": "PUSH1 0x80 PUSH1 0x40 MSTORE CALLVALUE DUP1 ISZERO PUSH2 0x10 JUMPI PUSH1 0x0 DUP1 REVERT JUMPDEST POP PUSH2 0xD8D DUP1 PUSH2 0x20 PUSH1 0x0 CODECOPY PUSH1 0x0 RETURN INVALID PUSH1 0x80 PUSH1 0x40 MSTORE CALLVALUE DUP1 ISZERO PUSH2 0x10 JUMPI PUSH1 0x0 DUP1 REVERT JUMPDEST POP PUSH1 0x4 CALLDATASIZE LT PUSH2 0x93 JUMPI PUSH1 0x0 CALLDATALOAD PUSH1 0xE0 SHR DUP1 PUSH4 0x88363BF6 GT PUSH2 0x66 JUMPI DUP1 PUSH4 0x88363BF6 EQ PUSH2 0x152 JUMPI DUP1 PUSH4 0x8DA5CB5B EQ PUSH2 0x165 JUMPI DUP1 PUSH4 0x9607361D EQ PUSH2 0x176 JUMPI DUP1 PUSH4 0xAC41865A EQ PUSH2 0x189 JUMPI DUP1 PUSH4 0xF2FDE38B EQ PUSH2 0x1AA JUMPI PUSH1 0x0 DUP1 REVERT JUMPDEST DUP1 PUSH4 0x3F91C3A5 EQ PUSH2 0x98 JUMPI DUP1 PUSH4 0x55CB2666 EQ PUSH2 0xAD JUMPI DUP1 PUSH4 0x56208472 EQ PUSH2 0xDD JUMPI DUP1 PUSH4 0x74F0852E EQ PUSH2 0xF0 JUMPI JUMPDEST PUSH1 0x0 DUP1 REVERT JUMPDEST PUSH2 0xAB PUSH2 0xA6 CALLDATASIZE PUSH1 0x4 PUSH2 0xA16 JUMP JUMPDEST PUSH2 0x1BD JUMP JUMPDEST STOP JUMPDEST PUSH1 0x1 SLOAD PUSH2 0xC0 SWAP1 PUSH1 0x1 PUSH1 0x1 PUSH1 0xA0 SHL SUB AND DUP2 JUMP JUMPDEST PUSH1 0x40 MLOAD PUSH1 0x1 PUSH1 0x1 PUSH1 0xA0 SHL SUB SWAP1 SWAP2 AND DUP2 MSTORE PUSH1 0x20 ADD JUMPDEST PUSH1 0x40 MLOAD DUP1 SWAP2 SUB SWAP1 RETURN JUMPDEST PUSH2 0xAB PUSH2 0xEB CALLDATASIZE PUSH1 0x4 PUSH2 0x9F4 JUMP JUMPDEST PUSH2 0x265 JUMP JUMPDEST PUSH2 0x12B PUSH2 0xFE CALLDATASIZE PUSH1 0x4 PUSH2 0x9F4 JUMP JUMPDEST PUSH1 0x2 PUSH1 0x20 MSTORE PUSH1 0x0 SWAP1 DUP2 MSTORE PUSH1 0x40 SWAP1 KECCAK256 SLOAD PUSH1 0x1 PUSH1 0x1 PUSH1 0xA0 SHL SUB DUP2 AND SWAP1 PUSH1 0x1 PUSH1 0xA0 SHL SWAP1 DIV PUSH1 0x1 PUSH1 0x1 PUSH1 0x60 SHL SUB AND DUP3 JUMP JUMPDEST PUSH1 0x40 DUP1 MLOAD PUSH1 0x1 PUSH1 0x1 PUSH1 0xA0 SHL SUB SWAP1 SWAP4 AND DUP4 MSTORE PUSH1 0x1 PUSH1 0x1 PUSH1 0x60 SHL SUB SWAP1 SWAP2 AND PUSH1 0x20 DUP4 ADD MSTORE ADD PUSH2 0xD4 JUMP JUMPDEST PUSH2 0xAB PUSH2 0x160 CALLDATASIZE PUSH1 0x4 PUSH2 0x9F4 JUMP JUMPDEST PUSH2 0x307 JUMP JUMPDEST PUSH1 0x0 SLOAD PUSH1 0x1 PUSH1 0x1 PUSH1 0xA0 SHL SUB AND PUSH2 0xC0 JUMP JUMPDEST PUSH2 0xAB PUSH2 0x184 CALLDATASIZE PUSH1 0x4 PUSH2 0xA49 JUMP JUMPDEST PUSH2 0x3C0 JUMP JUMPDEST PUSH2 0x19C PUSH2 0x197 CALLDATASIZE PUSH1 0x4 PUSH2 0xA16 JUMP JUMPDEST PUSH2 0x545 JUMP JUMPDEST PUSH1 0x40 MLOAD SWAP1 DUP2 MSTORE PUSH1 0x20 ADD PUSH2 0xD4 JUMP JUMPDEST PUSH2 0xAB PUSH2 0x1B8 CALLDATASIZE PUSH1 0x4 PUSH2 0x9F4 JUMP JUMPDEST PUSH2 0x905 JUMP JUMPDEST PUSH1 0x0 SLOAD PUSH1 0x1 PUSH1 0xA0 SHL SWAP1 DIV PUSH1 0xFF AND ISZERO PUSH2 0x22A JUMPI PUSH1 0x40 MLOAD PUSH3 0x461BCD PUSH1 0xE5 SHL DUP2 MSTORE PUSH1 0x20 PUSH1 0x4 DUP3 ADD MSTORE PUSH1 0x25 PUSH1 0x24 DUP3 ADD MSTORE PUSH32 0x4F7261636C65577261707065725630203A20416C726561647920696E69746961 PUSH1 0x44 DUP3 ADD MSTORE PUSH5 0x1B1A5E9959 PUSH1 0xDA SHL PUSH1 0x64 DUP3 ADD MSTORE PUSH1 0x84 ADD JUMPDEST PUSH1 0x40 MLOAD DUP1 SWAP2 SUB SWAP1 REVERT JUMPDEST PUSH1 0x1 DUP1 SLOAD PUSH1 0x1 PUSH1 0x1 PUSH1 0xA0 SHL SUB NOT AND PUSH1 0x1 PUSH1 0x1 PUSH1 0xA0 SHL SUB DUP4 AND OR SWAP1 SSTORE PUSH2 0x24E DUP3 PUSH2 0x9B6 JUMP JUMPDEST POP POP PUSH1 0x0 DUP1 SLOAD PUSH1 0xFF PUSH1 0xA0 SHL NOT AND PUSH1 0x1 PUSH1 0xA0 SHL OR SWAP1 SSTORE JUMP JUMPDEST PUSH1 0x0 SLOAD PUSH1 0x1 PUSH1 0x1 PUSH1 0xA0 SHL SUB AND CALLER EQ PUSH2 0x28F JUMPI PUSH1 0x40 MLOAD PUSH3 0x461BCD PUSH1 0xE5 SHL DUP2 MSTORE PUSH1 0x4 ADD PUSH2 0x221 SWAP1 PUSH2 0xB7A JUMP JUMPDEST PUSH1 0x1 PUSH1 0x1 PUSH1 0xA0 SHL SUB DUP2 AND PUSH2 0x2E5 JUMPI PUSH1 0x40 MLOAD PUSH3 0x461BCD PUSH1 0xE5 SHL DUP2 MSTORE PUSH1 0x20 PUSH1 0x4 DUP3 ADD DUP2 SWAP1 MSTORE PUSH1 0x24 DUP3 ADD MSTORE PUSH32 0x4F7261636C655772617070657256303A20496E76616C69642061646472657373 PUSH1 0x44 DUP3 ADD MSTORE PUSH1 0x64 ADD PUSH2 0x221 JUMP JUMPDEST PUSH1 0x1 DUP1 SLOAD PUSH1 0x1 PUSH1 0x1 PUSH1 0xA0 SHL SUB NOT AND PUSH1 0x1 PUSH1 0x1 PUSH1 0xA0 SHL SUB SWAP3 SWAP1 SWAP3 AND SWAP2 SWAP1 SWAP2 OR SWAP1 SSTORE JUMP JUMPDEST PUSH1 0x0 SLOAD PUSH1 0x1 PUSH1 0x1 PUSH1 0xA0 SHL SUB AND CALLER EQ PUSH2 0x331 JUMPI PUSH1 0x40 MLOAD PUSH3 0x461BCD PUSH1 0xE5 SHL DUP2 MSTORE PUSH1 0x4 ADD PUSH2 0x221 SWAP1 PUSH2 0xB7A JUMP JUMPDEST PUSH1 0x1 PUSH1 0x1 PUSH1 0xA0 SHL SUB DUP2 AND PUSH1 0x0 SWAP1 DUP2 MSTORE PUSH1 0x2 PUSH1 0x20 MSTORE PUSH1 0x40 SWAP1 KECCAK256 SLOAD PUSH1 0x1 PUSH1 0xA0 SHL SWAP1 DIV PUSH1 0x1 PUSH1 0x1 PUSH1 0x60 SHL SUB AND PUSH2 0x3A6 JUMPI PUSH1 0x40 MLOAD PUSH3 0x461BCD PUSH1 0xE5 SHL DUP2 MSTORE PUSH1 0x20 PUSH1 0x4 DUP3 ADD DUP2 SWAP1 MSTORE PUSH1 0x24 DUP3 ADD MSTORE PUSH32 0x4F7261636C655772617070657256303A20436F696E206E6F7420657869737473 PUSH1 0x44 DUP3 ADD MSTORE PUSH1 0x64 ADD PUSH2 0x221 JUMP JUMPDEST PUSH1 0x1 PUSH1 0x1 PUSH1 0xA0 SHL SUB AND PUSH1 0x0 SWAP1 DUP2 MSTORE PUSH1 0x2 PUSH1 0x20 MSTORE PUSH1 0x40 DUP2 KECCAK256 SSTORE JUMP JUMPDEST PUSH1 0x0 SLOAD PUSH1 0x1 PUSH1 0x1 PUSH1 0xA0 SHL SUB AND CALLER EQ PUSH2 0x3EA JUMPI PUSH1 0x40 MLOAD PUSH3 0x461BCD PUSH1 0xE5 SHL DUP2 MSTORE PUSH1 0x4 ADD PUSH2 0x221 SWAP1 PUSH2 0xB7A JUMP JUMPDEST DUP1 PUSH1 0x1 PUSH1 0x1 PUSH1 0x60 SHL SUB AND PUSH1 0x1 EQ DUP1 PUSH2 0x40B JUMPI POP DUP1 PUSH1 0x1 PUSH1 0x1 PUSH1 0x60 SHL SUB AND PUSH1 0x2 EQ JUMPDEST PUSH2 0x463 JUMPI PUSH1 0x40 MLOAD PUSH3 0x461BCD PUSH1 0xE5 SHL DUP2 MSTORE PUSH1 0x20 PUSH1 0x4 DUP3 ADD MSTORE PUSH1 0x23 PUSH1 0x24 DUP3 ADD MSTORE PUSH32 0x4F7261636C655772617070657256303A20496E76616C6964206F7261636C6554 PUSH1 0x44 DUP3 ADD MSTORE PUSH3 0x797065 PUSH1 0xE8 SHL PUSH1 0x64 DUP3 ADD MSTORE PUSH1 0x84 ADD PUSH2 0x221 JUMP JUMPDEST PUSH1 0x1 PUSH1 0x1 PUSH1 0xA0 SHL SUB DUP4 AND PUSH2 0x4B9 JUMPI PUSH1 0x40 MLOAD PUSH3 0x461BCD PUSH1 0xE5 SHL DUP2 MSTORE PUSH1 0x20 PUSH1 0x4 DUP3 ADD MSTORE PUSH1 0x1E PUSH1 0x24 DUP3 ADD MSTORE PUSH32 0x4F7261636C65577261707065725630203A205A65726F20616464726573730000 PUSH1 0x44 DUP3 ADD MSTORE PUSH1 0x64 ADD PUSH2 0x221 JUMP JUMPDEST PUSH1 0x1 PUSH1 0x1 PUSH1 0xA0 SHL SUB DUP3 AND PUSH2 0x50F JUMPI PUSH1 0x40 MLOAD PUSH3 0x461BCD PUSH1 0xE5 SHL DUP2 MSTORE PUSH1 0x20 PUSH1 0x4 DUP3 ADD MSTORE PUSH1 0x1D PUSH1 0x24 DUP3 ADD MSTORE PUSH32 0x4F7261636C655772617070657256303A205A65726F2061646472657373000000 PUSH1 0x44 DUP3 ADD MSTORE PUSH1 0x64 ADD PUSH2 0x221 JUMP JUMPDEST PUSH1 0x1 PUSH1 0x1 PUSH1 0xA0 SHL SUB SWAP3 DUP4 AND PUSH1 0x0 SWAP1 DUP2 MSTORE PUSH1 0x2 PUSH1 0x20 MSTORE PUSH1 0x40 SWAP1 KECCAK256 PUSH1 0x1 PUSH1 0x1 PUSH1 0x60 SHL SUB SWAP1 SWAP2 AND PUSH1 0x1 PUSH1 0xA0 SHL MUL SWAP3 SWAP1 SWAP2 AND SWAP2 SWAP1 SWAP2 OR SWAP1 SSTORE JUMP JUMPDEST PUSH1 0x1 PUSH1 0x1 PUSH1 0xA0 SHL SUB DUP3 AND PUSH1 0x0 SWAP1 DUP2 MSTORE PUSH1 0x2 PUSH1 0x20 MSTORE PUSH1 0x40 DUP2 KECCAK256 SLOAD PUSH1 0x1 PUSH1 0xA0 SHL SWAP1 DIV PUSH1 0x1 PUSH1 0x1 PUSH1 0x60 SHL SUB AND PUSH2 0x5C4 JUMPI PUSH1 0x40 MLOAD PUSH3 0x461BCD PUSH1 0xE5 SHL DUP2 MSTORE PUSH1 0x20 PUSH1 0x4 DUP3 ADD MSTORE PUSH1 0x21 PUSH1 0x24 DUP3 ADD MSTORE PUSH32 0x4F7261636C65577261707065725630203A20436F696E206E6F74206578697374 PUSH1 0x44 DUP3 ADD MSTORE PUSH1 0x73 PUSH1 0xF8 SHL PUSH1 0x64 DUP3 ADD MSTORE PUSH1 0x84 ADD PUSH2 0x221 JUMP JUMPDEST PUSH1 0x1 PUSH1 0x1 PUSH1 0xA0 SHL SUB DUP4 AND PUSH1 0x0 SWAP1 DUP2 MSTORE PUSH1 0x2 PUSH1 0x20 MSTORE PUSH1 0x40 DUP2 KECCAK256 SLOAD PUSH1 0x1 PUSH1 0xA0 SHL SWAP1 DIV PUSH1 0x1 PUSH1 0x1 PUSH1 0x60 SHL SUB AND PUSH1 0x1 EQ ISZERO PUSH2 0x68A JUMPI PUSH1 0x1 PUSH1 0x1 PUSH1 0xA0 SHL SUB DUP1 DUP6 AND PUSH1 0x0 SWAP1 DUP2 MSTORE PUSH1 0x2 PUSH1 0x20 SWAP1 DUP2 MSTORE PUSH1 0x40 SWAP2 DUP3 SWAP1 KECCAK256 SLOAD DUP3 MLOAD PUSH4 0x50D25BCD PUSH1 0xE0 SHL DUP2 MSTORE SWAP3 MLOAD SWAP4 AND SWAP3 DUP4 SWAP3 PUSH4 0x50D25BCD SWAP3 PUSH1 0x4 DUP1 DUP4 ADD SWAP4 SWAP2 SWAP3 DUP3 SWAP1 SUB ADD DUP2 DUP7 DUP1 EXTCODESIZE ISZERO DUP1 ISZERO PUSH2 0x648 JUMPI PUSH1 0x0 DUP1 REVERT JUMPDEST POP GAS STATICCALL ISZERO DUP1 ISZERO PUSH2 0x65C JUMPI RETURNDATASIZE PUSH1 0x0 DUP1 RETURNDATACOPY RETURNDATASIZE PUSH1 0x0 REVERT JUMPDEST POP POP POP POP PUSH1 0x40 MLOAD RETURNDATASIZE PUSH1 0x1F NOT PUSH1 0x1F DUP3 ADD AND DUP3 ADD DUP1 PUSH1 0x40 MSTORE POP DUP2 ADD SWAP1 PUSH2 0x680 SWAP2 SWAP1 PUSH2 0xB61 JUMP JUMPDEST SWAP3 POP PUSH2 0x8FF SWAP2 POP POP JUMP JUMPDEST PUSH1 0x1 PUSH1 0x1 PUSH1 0xA0 SHL SUB DUP5 AND PUSH1 0x0 SWAP1 DUP2 MSTORE PUSH1 0x2 PUSH1 0x20 DUP2 SWAP1 MSTORE PUSH1 0x40 SWAP1 SWAP2 KECCAK256 SLOAD PUSH1 0x1 PUSH1 0xA0 SHL SWAP1 DIV PUSH1 0x1 PUSH1 0x1 PUSH1 0x60 SHL SUB AND EQ DUP1 ISZERO PUSH2 0x6CB JUMPI POP PUSH1 0x1 PUSH1 0x1 PUSH1 0xA0 SHL SUB DUP4 AND ISZERO ISZERO JUMPDEST ISZERO PUSH2 0x8A0 JUMPI PUSH1 0x1 SLOAD PUSH1 0x40 DUP1 MLOAD PUSH1 0x2 DUP1 DUP3 MSTORE PUSH1 0x60 DUP3 ADD DUP4 MSTORE PUSH1 0x1 PUSH1 0x1 PUSH1 0xA0 SHL SUB SWAP1 SWAP4 AND SWAP3 PUSH1 0x0 SWAP3 PUSH1 0x20 DUP4 ADD SWAP1 DUP1 CALLDATASIZE DUP4 CALLDATACOPY ADD SWAP1 POP POP SWAP1 POP DUP6 DUP2 PUSH1 0x0 DUP2 MLOAD DUP2 LT PUSH2 0x714 JUMPI PUSH2 0x714 PUSH2 0xD2B JUMP JUMPDEST PUSH1 0x20 MUL PUSH1 0x20 ADD ADD SWAP1 PUSH1 0x1 PUSH1 0x1 PUSH1 0xA0 SHL SUB AND SWAP1 DUP2 PUSH1 0x1 PUSH1 0x1 PUSH1 0xA0 SHL SUB AND DUP2 MSTORE POP POP DUP5 DUP2 PUSH1 0x1 DUP2 MLOAD DUP2 LT PUSH2 0x748 JUMPI PUSH2 0x748 PUSH2 0xD2B JUMP JUMPDEST PUSH1 0x20 MUL PUSH1 0x20 ADD ADD SWAP1 PUSH1 0x1 PUSH1 0x1 PUSH1 0xA0 SHL SUB AND SWAP1 DUP2 PUSH1 0x1 PUSH1 0x1 PUSH1 0xA0 SHL SUB AND DUP2 MSTORE POP POP PUSH1 0x0 DUP3 PUSH1 0x1 PUSH1 0x1 PUSH1 0xA0 SHL SUB AND PUSH4 0xD06CA61F DUP9 PUSH1 0x1 PUSH1 0x1 PUSH1 0xA0 SHL SUB AND PUSH4 0x313CE567 PUSH1 0x40 MLOAD DUP2 PUSH4 0xFFFFFFFF AND PUSH1 0xE0 SHL DUP2 MSTORE PUSH1 0x4 ADD PUSH1 0x20 PUSH1 0x40 MLOAD DUP1 DUP4 SUB DUP2 DUP7 DUP1 EXTCODESIZE ISZERO DUP1 ISZERO PUSH2 0x7B2 JUMPI PUSH1 0x0 DUP1 REVERT JUMPDEST POP GAS STATICCALL ISZERO DUP1 ISZERO PUSH2 0x7C6 JUMPI RETURNDATASIZE PUSH1 0x0 DUP1 RETURNDATACOPY RETURNDATASIZE PUSH1 0x0 REVERT JUMPDEST POP POP POP POP PUSH1 0x40 MLOAD RETURNDATASIZE PUSH1 0x1F NOT PUSH1 0x1F DUP3 ADD AND DUP3 ADD DUP1 PUSH1 0x40 MSTORE POP DUP2 ADD SWAP1 PUSH2 0x7EA SWAP2 SWAP1 PUSH2 0xB61 JUMP JUMPDEST PUSH2 0x7F5 SWAP1 PUSH1 0xA PUSH2 0xC6D JUMP JUMPDEST DUP5 PUSH1 0x40 MLOAD DUP4 PUSH4 0xFFFFFFFF AND PUSH1 0xE0 SHL DUP2 MSTORE PUSH1 0x4 ADD PUSH2 0x813 SWAP3 SWAP2 SWAP1 PUSH2 0xBB1 JUMP JUMPDEST PUSH1 0x0 PUSH1 0x40 MLOAD DUP1 DUP4 SUB DUP2 DUP7 DUP1 EXTCODESIZE ISZERO DUP1 ISZERO PUSH2 0x82B JUMPI PUSH1 0x0 DUP1 REVERT JUMPDEST POP GAS STATICCALL ISZERO DUP1 ISZERO PUSH2 0x83F JUMPI RETURNDATASIZE PUSH1 0x0 DUP1 RETURNDATACOPY RETURNDATASIZE PUSH1 0x0 REVERT JUMPDEST POP POP POP POP PUSH1 0x40 MLOAD RETURNDATASIZE PUSH1 0x0 DUP3 RETURNDATACOPY PUSH1 0x1F RETURNDATASIZE SWAP1 DUP2 ADD PUSH1 0x1F NOT AND DUP3 ADD PUSH1 0x40 MSTORE PUSH2 0x867 SWAP2 SWAP1 DUP2 ADD SWAP1 PUSH2 0xA9C JUMP JUMPDEST SWAP1 POP PUSH5 0x2540BE400 DUP2 PUSH1 0x1 DUP2 MLOAD DUP2 LT PUSH2 0x882 JUMPI PUSH2 0x882 PUSH2 0xD2B JUMP JUMPDEST PUSH1 0x20 MUL PUSH1 0x20 ADD ADD MLOAD PUSH2 0x894 SWAP2 SWAP1 PUSH2 0xC08 JUMP JUMPDEST SWAP5 POP PUSH2 0x8FF SWAP4 POP POP POP POP JUMP JUMPDEST DUP1 PUSH2 0x8F9 JUMPI PUSH1 0x40 MLOAD PUSH3 0x461BCD PUSH1 0xE5 SHL DUP2 MSTORE PUSH1 0x20 PUSH1 0x4 DUP3 ADD MSTORE PUSH1 0x24 DUP1 DUP3 ADD MSTORE PUSH32 0x4F7261636C655772617070657256303A2050726963652063616E277420626520 PUSH1 0x44 DUP3 ADD MSTORE PUSH4 0x7A65726F PUSH1 0xE0 SHL PUSH1 0x64 DUP3 ADD MSTORE PUSH1 0x84 ADD PUSH2 0x221 JUMP JUMPDEST PUSH1 0x0 SWAP2 POP POP JUMPDEST SWAP3 SWAP2 POP POP JUMP JUMPDEST PUSH1 0x0 SLOAD PUSH1 0x1 PUSH1 0x1 PUSH1 0xA0 SHL SUB AND CALLER EQ PUSH2 0x92F JUMPI PUSH1 0x40 MLOAD PUSH3 0x461BCD PUSH1 0xE5 SHL DUP2 MSTORE PUSH1 0x4 ADD PUSH2 0x221 SWAP1 PUSH2 0xB7A JUMP JUMPDEST PUSH1 0x1 PUSH1 0x1 PUSH1 0xA0 SHL SUB DUP2 AND PUSH2 0x955 JUMPI PUSH1 0x40 MLOAD PUSH3 0x461BCD PUSH1 0xE5 SHL DUP2 MSTORE PUSH1 0x4 ADD PUSH2 0x221 SWAP1 PUSH2 0xB7A JUMP JUMPDEST PUSH32 0x8BE0079C531659141344CD1FD0A4F28419497F9722A3DAAFE3B4186F6B6457E0 PUSH2 0x988 PUSH1 0x0 SLOAD PUSH1 0x1 PUSH1 0x1 PUSH1 0xA0 SHL SUB AND SWAP1 JUMP JUMPDEST PUSH1 0x40 DUP1 MLOAD PUSH1 0x1 PUSH1 0x1 PUSH1 0xA0 SHL SUB SWAP3 DUP4 AND DUP2 MSTORE SWAP2 DUP5 AND PUSH1 0x20 DUP4 ADD MSTORE ADD PUSH1 0x40 MLOAD DUP1 SWAP2 SUB SWAP1 LOG1 PUSH2 0x9B3 DUP2 PUSH2 0x9B6 JUMP JUMPDEST POP JUMP JUMPDEST PUSH1 0x0 DUP1 SLOAD PUSH1 0x1 PUSH1 0x1 PUSH1 0xA0 SHL SUB NOT AND PUSH1 0x1 PUSH1 0x1 PUSH1 0xA0 SHL SUB SWAP3 SWAP1 SWAP3 AND SWAP2 SWAP1 SWAP2 OR SWAP1 SSTORE JUMP JUMPDEST DUP1 CALLDATALOAD PUSH1 0x1 PUSH1 0x1 PUSH1 0xA0 SHL SUB DUP2 AND DUP2 EQ PUSH2 0x9EF JUMPI PUSH1 0x0 DUP1 REVERT JUMPDEST SWAP2 SWAP1 POP JUMP JUMPDEST PUSH1 0x0 PUSH1 0x20 DUP3 DUP5 SUB SLT ISZERO PUSH2 0xA06 JUMPI PUSH1 0x0 DUP1 REVERT JUMPDEST PUSH2 0xA0F DUP3 PUSH2 0x9D8 JUMP JUMPDEST SWAP4 SWAP3 POP POP POP JUMP JUMPDEST PUSH1 0x0 DUP1 PUSH1 0x40 DUP4 DUP6 SUB SLT ISZERO PUSH2 0xA29 JUMPI PUSH1 0x0 DUP1 REVERT JUMPDEST PUSH2 0xA32 DUP4 PUSH2 0x9D8 JUMP JUMPDEST SWAP2 POP PUSH2 0xA40 PUSH1 0x20 DUP5 ADD PUSH2 0x9D8 JUMP JUMPDEST SWAP1 POP SWAP3 POP SWAP3 SWAP1 POP JUMP JUMPDEST PUSH1 0x0 DUP1 PUSH1 0x0 PUSH1 0x60 DUP5 DUP7 SUB SLT ISZERO PUSH2 0xA5E JUMPI PUSH1 0x0 DUP1 REVERT JUMPDEST PUSH2 0xA67 DUP5 PUSH2 0x9D8 JUMP JUMPDEST SWAP3 POP PUSH2 0xA75 PUSH1 0x20 DUP6 ADD PUSH2 0x9D8 JUMP JUMPDEST SWAP2 POP PUSH1 0x40 DUP5 ADD CALLDATALOAD PUSH1 0x1 PUSH1 0x1 PUSH1 0x60 SHL SUB DUP2 AND DUP2 EQ PUSH2 0xA91 JUMPI PUSH1 0x0 DUP1 REVERT JUMPDEST DUP1 SWAP2 POP POP SWAP3 POP SWAP3 POP SWAP3 JUMP JUMPDEST PUSH1 0x0 PUSH1 0x20 DUP1 DUP4 DUP6 SUB SLT ISZERO PUSH2 0xAAF JUMPI PUSH1 0x0 DUP1 REVERT JUMPDEST DUP3 MLOAD PUSH8 0xFFFFFFFFFFFFFFFF DUP1 DUP3 GT ISZERO PUSH2 0xAC7 JUMPI PUSH1 0x0 DUP1 REVERT JUMPDEST DUP2 DUP6 ADD SWAP2 POP DUP6 PUSH1 0x1F DUP4 ADD SLT PUSH2 0xADB JUMPI PUSH1 0x0 DUP1 REVERT JUMPDEST DUP2 MLOAD DUP2 DUP2 GT ISZERO PUSH2 0xAED JUMPI PUSH2 0xAED PUSH2 0xD41 JUMP JUMPDEST DUP1 PUSH1 0x5 SHL PUSH1 0x40 MLOAD PUSH1 0x1F NOT PUSH1 0x3F DUP4 ADD AND DUP2 ADD DUP2 DUP2 LT DUP6 DUP3 GT OR ISZERO PUSH2 0xB12 JUMPI PUSH2 0xB12 PUSH2 0xD41 JUMP JUMPDEST PUSH1 0x40 MSTORE DUP3 DUP2 MSTORE DUP6 DUP2 ADD SWAP4 POP DUP5 DUP7 ADD DUP3 DUP7 ADD DUP8 ADD DUP11 LT ISZERO PUSH2 0xB31 JUMPI PUSH1 0x0 DUP1 REVERT JUMPDEST PUSH1 0x0 SWAP6 POP JUMPDEST DUP4 DUP7 LT ISZERO PUSH2 0xB54 JUMPI DUP1 MLOAD DUP6 MSTORE PUSH1 0x1 SWAP6 SWAP1 SWAP6 ADD SWAP5 SWAP4 DUP7 ADD SWAP4 DUP7 ADD PUSH2 0xB36 JUMP JUMPDEST POP SWAP9 SWAP8 POP POP POP POP POP POP POP POP JUMP JUMPDEST PUSH1 0x0 PUSH1 0x20 DUP3 DUP5 SUB SLT ISZERO PUSH2 0xB73 JUMPI PUSH1 0x0 DUP1 REVERT JUMPDEST POP MLOAD SWAP2 SWAP1 POP JUMP JUMPDEST PUSH1 0x20 DUP1 DUP3 MSTORE PUSH1 0x18 SWAP1 DUP3 ADD MSTORE PUSH32 0x437573746F6D4F776E61626C653A20464F5242494444454E0000000000000000 PUSH1 0x40 DUP3 ADD MSTORE PUSH1 0x60 ADD SWAP1 JUMP JUMPDEST PUSH1 0x0 PUSH1 0x40 DUP3 ADD DUP5 DUP4 MSTORE PUSH1 0x20 PUSH1 0x40 DUP2 DUP6 ADD MSTORE DUP2 DUP6 MLOAD DUP1 DUP5 MSTORE PUSH1 0x60 DUP7 ADD SWAP2 POP DUP3 DUP8 ADD SWAP4 POP PUSH1 0x0 JUMPDEST DUP2 DUP2 LT ISZERO PUSH2 0xBFB JUMPI DUP5 MLOAD PUSH1 0x1 PUSH1 0x1 PUSH1 0xA0 SHL SUB AND DUP4 MSTORE SWAP4 DUP4 ADD SWAP4 SWAP2 DUP4 ADD SWAP2 PUSH1 0x1 ADD PUSH2 0xBD6 JUMP JUMPDEST POP SWAP1 SWAP8 SWAP7 POP POP POP POP POP POP POP JUMP JUMPDEST PUSH1 0x0 DUP3 PUSH2 0xC25 JUMPI PUSH4 0x4E487B71 PUSH1 0xE0 SHL PUSH1 0x0 MSTORE PUSH1 0x12 PUSH1 0x4 MSTORE PUSH1 0x24 PUSH1 0x0 REVERT JUMPDEST POP DIV SWAP1 JUMP JUMPDEST PUSH1 0x1 DUP2 DUP2 JUMPDEST DUP1 DUP6 GT ISZERO PUSH2 0xC65 JUMPI DUP2 PUSH1 0x0 NOT DIV DUP3 GT ISZERO PUSH2 0xC4B JUMPI PUSH2 0xC4B PUSH2 0xD15 JUMP JUMPDEST DUP1 DUP6 AND ISZERO PUSH2 0xC58 JUMPI SWAP2 DUP2 MUL SWAP2 JUMPDEST SWAP4 DUP5 SHR SWAP4 SWAP1 DUP1 MUL SWAP1 PUSH2 0xC2F JUMP JUMPDEST POP SWAP3 POP SWAP3 SWAP1 POP JUMP JUMPDEST PUSH1 0x0 PUSH2 0xA0F DUP4 DUP4 PUSH1 0x0 DUP3 PUSH2 0xC83 JUMPI POP PUSH1 0x1 PUSH2 0x8FF JUMP JUMPDEST DUP2 PUSH2 0xC90 JUMPI POP PUSH1 0x0 PUSH2 0x8FF JUMP JUMPDEST DUP2 PUSH1 0x1 DUP2 EQ PUSH2 0xCA6 JUMPI PUSH1 0x2 DUP2 EQ PUSH2 0xCB0 JUMPI PUSH2 0xCCC JUMP JUMPDEST PUSH1 0x1 SWAP2 POP POP PUSH2 0x8FF JUMP JUMPDEST PUSH1 0xFF DUP5 GT ISZERO PUSH2 0xCC1 JUMPI PUSH2 0xCC1 PUSH2 0xD15 JUMP JUMPDEST POP POP PUSH1 0x1 DUP3 SHL PUSH2 0x8FF JUMP JUMPDEST POP PUSH1 0x20 DUP4 LT PUSH2 0x133 DUP4 LT AND PUSH1 0x4E DUP5 LT PUSH1 0xB DUP5 LT AND OR ISZERO PUSH2 0xCEF JUMPI POP DUP2 DUP2 EXP PUSH2 0x8FF JUMP JUMPDEST PUSH2 0xCF9 DUP4 DUP4 PUSH2 0xC2A JUMP JUMPDEST DUP1 PUSH1 0x0 NOT DIV DUP3 GT ISZERO PUSH2 0xD0D JUMPI PUSH2 0xD0D PUSH2 0xD15 JUMP JUMPDEST MUL SWAP4 SWAP3 POP POP POP JUMP JUMPDEST PUSH4 0x4E487B71 PUSH1 0xE0 SHL PUSH1 0x0 MSTORE PUSH1 0x11 PUSH1 0x4 MSTORE PUSH1 0x24 PUSH1 0x0 REVERT JUMPDEST PUSH4 0x4E487B71 PUSH1 0xE0 SHL PUSH1 0x0 MSTORE PUSH1 0x32 PUSH1 0x4 MSTORE PUSH1 0x24 PUSH1 0x0 REVERT JUMPDEST PUSH4 0x4E487B71 PUSH1 0xE0 SHL PUSH1 0x0 MSTORE PUSH1 0x41 PUSH1 0x4 MSTORE PUSH1 0x24 PUSH1 0x0 REVERT INVALID LOG2 PUSH5 0x6970667358 0x22 SLT KECCAK256 SAR NOT PUSH24 0xFDEA6296E573473835480DA127F2ECB5478FABB06ABDDCF3 RETURN 0x4E 0x4F 0xC6 0xC8 PUSH5 0x736F6C6343 STOP ADDMOD SMOD STOP CALLER "
		},
		"gasEstimates": {
			"creation": {
				"codeDepositCost": "693800",
				"executionCost": "728",
				"totalCost": "694528"
			},
			"external": {
				"UniswapV2Router02()": "2349",
				"coin(address)": "2705",
				"getPrice(address,address)": "infinite",
				"initializeOracle(address,address)": "infinite",
				"owner()": "2342",
				"removeCoin(address)": "9768",
				"setOracleAddresses(address,address,uint96)": "infinite",
				"transferOwnership(address)": "30354",
				"updateUniswapV2Router02(address)": "26791"
			}
		},
		"methodIdentifiers": {
			"UniswapV2Router02()": "55cb2666",
			"coin(address)": "74f0852e",
			"getPrice(address,address)": "ac41865a",
			"initializeOracle(address,address)": "3f91c3a5",
			"owner()": "8da5cb5b",
			"removeCoin(address)": "88363bf6",
			"setOracleAddresses(address,address,uint96)": "9607361d",
			"transferOwnership(address)": "f2fde38b",
			"updateUniswapV2Router02(address)": "56208472"
		}
	},
	"abi": [
		{
			"anonymous": false,
			"inputs": [
				{
					"indexed": false,
					"internalType": "address",
					"name": "previousOwner",
					"type": "address"
				},
				{
					"indexed": false,
					"internalType": "address",
					"name": "newOwner",
					"type": "address"
				}
			],
			"name": "OwnershipTransferred",
			"type": "event"
		},
		{
			"inputs": [],
			"name": "UniswapV2Router02",
			"outputs": [
				{
					"internalType": "address",
					"name": "",
					"type": "address"
				}
			],
			"stateMutability": "view",
			"type": "function"
		},
		{
			"inputs": [
				{
					"internalType": "address",
					"name": "",
					"type": "address"
				}
			],
			"name": "coin",
			"outputs": [
				{
					"internalType": "address",
					"name": "oracleAddress",
					"type": "address"
				},
				{
					"internalType": "uint96",
					"name": "oracleType",
					"type": "uint96"
				}
			],
			"stateMutability": "view",
			"type": "function"
		},
		{
			"inputs": [
				{
					"internalType": "address",
					"name": "_coinAddress",
					"type": "address"
				},
				{
					"internalType": "address",
					"name": "pair",
					"type": "address"
				}
			],
			"name": "getPrice",
			"outputs": [
				{
					"internalType": "uint256",
					"name": "",
					"type": "uint256"
				}
			],
			"stateMutability": "view",
			"type": "function"
		},
		{
			"inputs": [
				{
					"internalType": "address",
					"name": "_owner",
					"type": "address"
				},
				{
					"internalType": "address",
					"name": "_UniswapV2Router02",
					"type": "address"
				}
			],
			"name": "initializeOracle",
			"outputs": [],
			"stateMutability": "nonpayable",
			"type": "function"
		},
		{
			"inputs": [],
			"name": "owner",
			"outputs": [
				{
					"internalType": "address",
					"name": "",
					"type": "address"
				}
			],
			"stateMutability": "view",
			"type": "function"
		},
		{
			"inputs": [
				{
					"internalType": "address",
					"name": "_coinAddress",
					"type": "address"
				}
			],
			"name": "removeCoin",
			"outputs": [],
			"stateMutability": "nonpayable",
			"type": "function"
		},
		{
			"inputs": [
				{
					"internalType": "address",
					"name": "_coinAddress",
					"type": "address"
				},
				{
					"internalType": "address",
					"name": "_oracleAddress",
					"type": "address"
				},
				{
					"internalType": "uint96",
					"name": "_oracleType",
					"type": "uint96"
				}
			],
			"name": "setOracleAddresses",
			"outputs": [],
			"stateMutability": "nonpayable",
			"type": "function"
		},
		{
			"inputs": [
				{
					"internalType": "address",
					"name": "newOwner",
					"type": "address"
				}
			],
			"name": "transferOwnership",
			"outputs": [],
			"stateMutability": "nonpayable",
			"type": "function"
		},
		{
			"inputs": [
				{
					"internalType": "address",
					"name": "_UniswapV2Router02",
					"type": "address"
				}
			],
			"name": "updateUniswapV2Router02",
			"outputs": [],
			"stateMutability": "nonpayable",
			"type": "function"
		}
	]
}